{
  "_format": "hh-sol-artifact-1",
  "contractName": "PageComment",
  "sourceName": "contracts/CryptoPageComment.sol",
  "abi": [
    {
      "anonymous": false,
      "inputs": [
        {
          "indexed": false,
          "internalType": "uint256",
          "name": "id",
          "type": "uint256"
        },
        {
          "indexed": false,
          "internalType": "address",
          "name": "author",
          "type": "address"
        },
        {
          "indexed": false,
          "internalType": "string",
          "name": "text",
          "type": "string"
        },
        {
          "indexed": false,
          "internalType": "bool",
          "name": "like",
          "type": "bool"
        },
        {
          "indexed": false,
          "internalType": "uint256",
          "name": "price",
          "type": "uint256"
        }
      ],
      "name": "NewComment",
      "type": "event"
    },
    {
      "inputs": [
        {
          "internalType": "uint256",
          "name": "",
          "type": "uint256"
        }
      ],
      "name": "commentsById",
      "outputs": [
        {
          "internalType": "uint256",
          "name": "id",
          "type": "uint256"
        },
        {
          "internalType": "address",
          "name": "author",
          "type": "address"
        },
        {
          "internalType": "string",
          "name": "text",
          "type": "string"
        },
        {
          "internalType": "bool",
          "name": "like",
          "type": "bool"
        },
        {
          "internalType": "uint256",
          "name": "price",
          "type": "uint256"
        }
      ],
      "stateMutability": "view",
      "type": "function"
    },
    {
      "inputs": [
        {
          "internalType": "uint256",
          "name": "",
          "type": "uint256"
        }
      ],
      "name": "commentsIds",
      "outputs": [
        {
          "internalType": "uint256",
          "name": "",
          "type": "uint256"
        }
      ],
      "stateMutability": "view",
      "type": "function"
    },
    {
      "inputs": [
        {
          "internalType": "address",
          "name": "author",
          "type": "address"
        },
        {
          "internalType": "string",
          "name": "text",
          "type": "string"
        },
        {
          "internalType": "bool",
          "name": "like",
          "type": "bool"
        }
      ],
      "name": "createComment",
      "outputs": [
        {
          "internalType": "uint256",
          "name": "",
          "type": "uint256"
        }
      ],
      "stateMutability": "nonpayable",
      "type": "function"
    },
    {
      "inputs": [
        {
          "internalType": "uint256",
          "name": "id",
          "type": "uint256"
        }
      ],
      "name": "getCommentById",
      "outputs": [
        {
          "components": [
            {
              "internalType": "uint256",
              "name": "id",
              "type": "uint256"
            },
            {
              "internalType": "address",
              "name": "author",
              "type": "address"
            },
            {
              "internalType": "string",
              "name": "text",
              "type": "string"
            },
            {
              "internalType": "bool",
              "name": "like",
              "type": "bool"
            },
            {
              "internalType": "uint256",
              "name": "price",
              "type": "uint256"
            }
          ],
          "internalType": "struct PageComment.Comment",
          "name": "",
          "type": "tuple"
        }
      ],
      "stateMutability": "view",
      "type": "function"
    },
    {
      "inputs": [],
      "name": "getComments",
      "outputs": [
        {
          "components": [
            {
              "internalType": "uint256",
              "name": "id",
              "type": "uint256"
            },
            {
              "internalType": "address",
              "name": "author",
              "type": "address"
            },
            {
              "internalType": "string",
              "name": "text",
              "type": "string"
            },
            {
              "internalType": "bool",
              "name": "like",
              "type": "bool"
            },
            {
              "internalType": "uint256",
              "name": "price",
              "type": "uint256"
            }
          ],
          "internalType": "struct PageComment.Comment[]",
          "name": "",
          "type": "tuple[]"
        }
      ],
      "stateMutability": "view",
      "type": "function"
    },
    {
      "inputs": [
        {
          "internalType": "uint256[]",
          "name": "_ids",
          "type": "uint256[]"
        }
      ],
      "name": "getCommentsByIds",
      "outputs": [
        {
          "components": [
            {
              "internalType": "uint256",
              "name": "id",
              "type": "uint256"
            },
            {
              "internalType": "address",
              "name": "author",
              "type": "address"
            },
            {
              "internalType": "string",
              "name": "text",
              "type": "string"
            },
            {
              "internalType": "bool",
              "name": "like",
              "type": "bool"
            },
            {
              "internalType": "uint256",
              "name": "price",
              "type": "uint256"
            }
          ],
          "internalType": "struct PageComment.Comment[]",
          "name": "",
          "type": "tuple[]"
        }
      ],
      "stateMutability": "view",
      "type": "function"
    },
    {
      "inputs": [],
      "name": "getCommentsIds",
      "outputs": [
        {
          "internalType": "uint256[]",
          "name": "",
          "type": "uint256[]"
        }
      ],
      "stateMutability": "view",
      "type": "function"
    },
    {
      "inputs": [],
      "name": "getStatistic",
      "outputs": [
        {
          "internalType": "uint256",
          "name": "total",
          "type": "uint256"
        },
        {
          "internalType": "uint256",
          "name": "likes",
          "type": "uint256"
        },
        {
          "internalType": "uint256",
          "name": "dislikes",
          "type": "uint256"
        }
      ],
      "stateMutability": "view",
      "type": "function"
    },
    {
      "inputs": [],
      "name": "getStatisticWithComments",
      "outputs": [
        {
          "internalType": "uint256",
          "name": "total",
          "type": "uint256"
        },
        {
          "internalType": "uint256",
          "name": "likes",
          "type": "uint256"
        },
        {
          "internalType": "uint256",
          "name": "dislikes",
          "type": "uint256"
        },
        {
          "components": [
            {
              "internalType": "uint256",
              "name": "id",
              "type": "uint256"
            },
            {
              "internalType": "address",
              "name": "author",
              "type": "address"
            },
            {
              "internalType": "string",
              "name": "text",
              "type": "string"
            },
            {
              "internalType": "bool",
              "name": "like",
              "type": "bool"
            },
            {
              "internalType": "uint256",
              "name": "price",
              "type": "uint256"
            }
          ],
          "internalType": "struct PageComment.Comment[]",
          "name": "comments",
          "type": "tuple[]"
        }
      ],
      "stateMutability": "view",
      "type": "function"
    }
  ],
  "bytecode": "0x608060405234801561001057600080fd5b50610ea2806100206000396000f3fe608060405234801561001057600080fd5b50600436106100935760003560e01c806391f3410c1161006657806391f3410c1461010d578063989c1a7b146101155780639a60057e1461012d578063be60741e1461014d578063c0e7c32d1461016057610093565b8063360d03a11461009857806365b174e9146100c15780636c43dbb4146100d85780638ebed2e8146100f8575b600080fd5b6100ab6100a6366004610a35565b610184565b6040516100b89190610be5565b60405180910390f35b6100c9610409565b6040516100b893929190610d5c565b6100eb6100e6366004610adc565b61042c565b6040516100b89190610d02565b610100610541565b6040516100b89190610bf8565b6100ab610599565b61011d610607565b6040516100b89493929190610d72565b61014061013b36600461097a565b610637565b6040516100b89190610d15565b61014061015b366004610adc565b610790565b61017361016e366004610adc565b6107b1565b6040516100b8959493929190610d1e565b606060008251116101b05760405162461bcd60e51b81526004016101a790610c3c565b60405180910390fd5b600054825111156101d35760405162461bcd60e51b81526004016101a790610cb5565b6000825167ffffffffffffffff8111156101fd57634e487b7160e01b600052604160045260246000fd5b60405190808252806020026020018201604052801561023657816020015b610223610897565b81526020019060019003908161021b5790505b50905060005b835181101561040057600054845185908390811061026a57634e487b7160e01b600052603260045260246000fd5b602002602001015111156102905760405162461bcd60e51b81526004016101a790610c7e565b6000600160008684815181106102b657634e487b7160e01b600052603260045260246000fd5b602002602001015181526020019081526020016000209050806040518060a0016040529081600082015481526020016001820160009054906101000a90046001600160a01b03166001600160a01b03166001600160a01b0316815260200160028201805461032390610dea565b80601f016020809104026020016040519081016040528092919081815260200182805461034f90610dea565b801561039c5780601f106103715761010080835404028352916020019161039c565b820191906000526020600020905b81548152906001019060200180831161037f57829003601f168201915b5050509183525050600382015460ff161515602082015260049091015460409091015283518490849081106103e157634e487b7160e01b600052603260045260246000fd5b60200260200101819052505080806103f890610e25565b91505061023c565b5090505b919050565b6000805490806104196002610877565b91506104256003610877565b9050909192565b610434610897565b6000548211156104565760405162461bcd60e51b81526004016101a790610c7e565b600082815260016020818152604092839020835160a08101855281548152928101546001600160a01b031691830191909152600281018054929391929184019161049f90610dea565b80601f01602080910402602001604051908101604052809291908181526020018280546104cb90610dea565b80156105185780601f106104ed57610100808354040283529160200191610518565b820191906000526020600020905b8154815290600101906020018083116104fb57829003601f168201915b5050509183525050600382015460ff161515602082015260049091015460409091015292915050565b6060600080548060200260200160405190810160405280929190818152602001828054801561058f57602002820191906000526020600020905b81548152602001906001019080831161057b575b5050505050905090565b600054606090819015610602576105ff60008054806020026020016040519081016040528092919081815260200182805480156105f557602002820191906000526020600020905b8154815260200190600101908083116105e1575b5050505050610184565b90505b905090565b60008054908060606106196002610877565b92506106256003610877565b915061062f610599565b905090919293565b6000806106453a5a9061087b565b60008054600180820183557f290decd9548b62a8d60345a988386fc84ba6bc95484008f6362f93160ef3e56382018290556040805160a0810182528381526001600160a01b038b811660208084019182528385018d81528c15156060860152608085018990528789528682529490972083518155905194810180546001600160a01b03191695909216949094179055905180519596509294909391926106f29260028501929101906108d1565b50606082015160038201805460ff1916911515919091179055608090910151600491820155600082815260016020526040902001829055831561073e57610739600261088e565b610748565b610748600361088e565b7f5df053adf33c5a266548317c9343442cbf99e989cb036ac715347cb9245f136d818787878660405161077f959493929190610d1e565b60405180910390a195945050505050565b600081815481106107a057600080fd5b600091825260209091200154905081565b60016020819052600091825260409091208054918101546002820180546001600160a01b0390921692916107e490610dea565b80601f016020809104026020016040519081016040528092919081815260200182805461081090610dea565b801561085d5780601f106108325761010080835404028352916020019161085d565b820191906000526020600020905b81548152906001019060200180831161084057829003601f168201915b505050506003830154600490930154919260ff1691905085565b5490565b60006108878284610dcb565b9392505050565b80546001019055565b6040518060a001604052806000815260200160006001600160a01b0316815260200160608152602001600015158152602001600081525090565b8280546108dd90610dea565b90600052602060002090601f0160209004810192826108ff5760008555610945565b82601f1061091857805160ff1916838001178555610945565b82800160010185558215610945579182015b8281111561094557825182559160200191906001019061092a565b50610951929150610955565b5090565b5b808211156109515760008155600101610956565b8035801515811461040457600080fd5b60008060006060848603121561098e578283fd5b83356001600160a01b03811681146109a4578384fd5b925060208481013567ffffffffffffffff808211156109c1578485fd5b818701915087601f8301126109d4578485fd5b8135818111156109e6576109e6610e56565b6109f8601f8201601f19168501610da1565b91508082528884828501011115610a0d578586fd5b80848401858401378101909201939093529150610a2c6040850161096a565b90509250925092565b60006020808385031215610a47578182fd5b823567ffffffffffffffff80821115610a5e578384fd5b818501915085601f830112610a71578384fd5b813581811115610a8357610a83610e56565b8381029150610a93848301610da1565b8181528481019084860184860187018a1015610aad578788fd5b8795505b83861015610acf578035835260019590950194918601918601610ab1565b5098975050505050505050565b600060208284031215610aed578081fd5b5035919050565b6000815180845260208085018081965082840281019150828601855b85811015610b3a578284038952610b28848351610b92565b98850198935090840190600101610b10565b5091979650505050505050565b60008151808452815b81811015610b6c57602081850181015186830182015201610b50565b81811115610b7d5782602083870101525b50601f01601f19169290920160200192915050565b60008151835260018060a01b036020830151166020840152604082015160a06040850152610bc360a0850182610b47565b9050606083015115156060850152608083015160808501528091505092915050565b6000602082526108876020830184610af4565b6020808252825182820181905260009190848201906040850190845b81811015610c3057835183529284019291840191600101610c14565b50909695505050505050565b60208082526022908201527f5f696473206c656e677468206d757374206265206d6f7265207468616e207a65604082015261726f60f01b606082015260800190565b60208082526017908201527f4e6f20636f6d6d656e7420776974682074686973204944000000000000000000604082015260600190565b6020808252602d908201527f5f696473206c656e677468206d757374206265206c657373206f72206571756160408201526c6c20636f6d6d656e747349647360981b606082015260800190565b6000602082526108876020830184610b92565b90815260200190565b8581526001600160a01b038516602082015260a060408201819052600090610d4890830186610b47565b931515606083015250608001529392505050565b9283526020830191909152604082015260600190565b600085825284602083015283604083015260806060830152610d976080830184610af4565b9695505050505050565b60405181810167ffffffffffffffff81118282101715610dc357610dc3610e56565b604052919050565b6000816000190483118215151615610de557610de5610e40565b500290565b600281046001821680610dfe57607f821691505b60208210811415610e1f57634e487b7160e01b600052602260045260246000fd5b50919050565b6000600019821415610e3957610e39610e40565b5060010190565b634e487b7160e01b600052601160045260246000fd5b634e487b7160e01b600052604160045260246000fdfea2646970667358221220cb8c51d3088b19362a215970491f5efef5f4f55e27a22fe311f7eb6f57e834b264736f6c63430008000033",
  "linkReferences": {},
  "deployedLinkReferences": {}
}