{
  "address": "0x4634B6fFc267A26cC4C58ae3f7D1DC50160352c8",
  "abi": [
    {
      "anonymous": false,
      "inputs": [
        {
          "indexed": true,
          "internalType": "address",
          "name": "owner",
          "type": "address"
        },
        {
          "indexed": true,
          "internalType": "address",
          "name": "approved",
          "type": "address"
        },
        {
          "indexed": true,
          "internalType": "uint256",
          "name": "tokenId",
          "type": "uint256"
        }
      ],
      "name": "Approval",
      "type": "event"
    },
    {
      "anonymous": false,
      "inputs": [
        {
          "indexed": true,
          "internalType": "address",
          "name": "owner",
          "type": "address"
        },
        {
          "indexed": true,
          "internalType": "address",
          "name": "operator",
          "type": "address"
        },
        {
          "indexed": false,
          "internalType": "bool",
          "name": "approved",
          "type": "bool"
        }
      ],
      "name": "ApprovalForAll",
      "type": "event"
    },
    {
      "anonymous": false,
      "inputs": [
        {
          "indexed": true,
          "internalType": "address",
          "name": "previousOwner",
          "type": "address"
        },
        {
          "indexed": true,
          "internalType": "address",
          "name": "newOwner",
          "type": "address"
        }
      ],
      "name": "OwnershipTransferred",
      "type": "event"
    },
    {
      "anonymous": false,
      "inputs": [
        {
          "indexed": true,
          "internalType": "address",
          "name": "from",
          "type": "address"
        },
        {
          "indexed": true,
          "internalType": "address",
          "name": "to",
          "type": "address"
        },
        {
          "indexed": true,
          "internalType": "uint256",
          "name": "tokenId",
          "type": "uint256"
        }
      ],
      "name": "Transfer",
      "type": "event"
    },
    {
      "inputs": [
        {
          "internalType": "address",
          "name": "to",
          "type": "address"
        },
        {
          "internalType": "uint256",
          "name": "tokenId",
          "type": "uint256"
        }
      ],
      "name": "approve",
      "outputs": [],
      "stateMutability": "nonpayable",
      "type": "function"
    },
    {
      "inputs": [
        {
          "internalType": "address",
          "name": "owner",
          "type": "address"
        }
      ],
      "name": "balanceOf",
      "outputs": [
        {
          "internalType": "uint256",
          "name": "",
          "type": "uint256"
        }
      ],
      "stateMutability": "view",
      "type": "function"
    },
    {
      "inputs": [],
      "name": "baseURL",
      "outputs": [
        {
          "internalType": "string",
          "name": "",
          "type": "string"
        }
      ],
      "stateMutability": "view",
      "type": "function"
    },
    {
      "inputs": [
        {
          "internalType": "uint256",
          "name": "_tokenId",
          "type": "uint256"
        }
      ],
      "name": "burn",
      "outputs": [],
      "stateMutability": "nonpayable",
      "type": "function"
    },
    {
      "inputs": [],
      "name": "fee",
      "outputs": [
        {
          "internalType": "uint256",
          "name": "",
          "type": "uint256"
        }
      ],
      "stateMutability": "view",
      "type": "function"
    },
    {
      "inputs": [
        {
          "internalType": "uint256",
          "name": "tokenId",
          "type": "uint256"
        }
      ],
      "name": "getApproved",
      "outputs": [
        {
          "internalType": "address",
          "name": "",
          "type": "address"
        }
      ],
      "stateMutability": "view",
      "type": "function"
    },
    {
      "inputs": [],
      "name": "getFee",
      "outputs": [
        {
          "internalType": "uint256",
          "name": "",
          "type": "uint256"
        }
      ],
      "stateMutability": "view",
      "type": "function"
    },
    {
      "inputs": [],
      "name": "getTreasury",
      "outputs": [
        {
          "internalType": "address",
          "name": "",
          "type": "address"
        }
      ],
      "stateMutability": "view",
      "type": "function"
    },
    {
      "inputs": [
        {
          "internalType": "address",
          "name": "_treasury",
          "type": "address"
        },
        {
          "internalType": "address",
          "name": "_token",
          "type": "address"
        },
        {
          "internalType": "address",
          "name": "_commentMinter",
          "type": "address"
        }
      ],
      "name": "initialize",
      "outputs": [],
      "stateMutability": "payable",
      "type": "function"
    },
    {
      "inputs": [
        {
          "internalType": "address",
          "name": "owner",
          "type": "address"
        },
        {
          "internalType": "address",
          "name": "operator",
          "type": "address"
        }
      ],
      "name": "isApprovedForAll",
      "outputs": [
        {
          "internalType": "bool",
          "name": "",
          "type": "bool"
        }
      ],
      "stateMutability": "view",
      "type": "function"
    },
    {
      "inputs": [],
      "name": "name",
      "outputs": [
        {
          "internalType": "string",
          "name": "",
          "type": "string"
        }
      ],
      "stateMutability": "view",
      "type": "function"
    },
    {
      "inputs": [],
      "name": "owner",
      "outputs": [
        {
          "internalType": "address",
          "name": "",
          "type": "address"
        }
      ],
      "stateMutability": "view",
      "type": "function"
    },
    {
      "inputs": [
        {
          "internalType": "uint256",
          "name": "tokenId",
          "type": "uint256"
        }
      ],
      "name": "ownerOf",
      "outputs": [
        {
          "internalType": "address",
          "name": "",
          "type": "address"
        }
      ],
      "stateMutability": "view",
      "type": "function"
    },
    {
      "inputs": [],
      "name": "renounceOwnership",
      "outputs": [],
      "stateMutability": "nonpayable",
      "type": "function"
    },
    {
      "inputs": [
        {
          "internalType": "address",
          "name": "_owner",
          "type": "address"
        },
        {
          "internalType": "string",
          "name": "_tokenURI",
          "type": "string"
        }
      ],
      "name": "safeMint",
      "outputs": [
        {
          "internalType": "uint256",
          "name": "",
          "type": "uint256"
        }
      ],
      "stateMutability": "nonpayable",
      "type": "function"
    },
    {
      "inputs": [
        {
          "internalType": "address",
          "name": "from",
          "type": "address"
        },
        {
          "internalType": "address",
          "name": "to",
          "type": "address"
        },
        {
          "internalType": "uint256",
          "name": "tokenId",
          "type": "uint256"
        }
      ],
      "name": "safeTransferFrom",
      "outputs": [],
      "stateMutability": "nonpayable",
      "type": "function"
    },
    {
      "inputs": [
        {
          "internalType": "address",
          "name": "from",
          "type": "address"
        },
        {
          "internalType": "address",
          "name": "to",
          "type": "address"
        },
        {
          "internalType": "uint256",
          "name": "tokenId",
          "type": "uint256"
        },
        {
          "internalType": "bytes",
          "name": "_data",
          "type": "bytes"
        }
      ],
      "name": "safeTransferFrom",
      "outputs": [],
      "stateMutability": "nonpayable",
      "type": "function"
    },
    {
      "inputs": [
        {
          "internalType": "address",
          "name": "operator",
          "type": "address"
        },
        {
          "internalType": "bool",
          "name": "approved",
          "type": "bool"
        }
      ],
      "name": "setApprovalForAll",
      "outputs": [],
      "stateMutability": "nonpayable",
      "type": "function"
    },
    {
      "inputs": [
        {
          "internalType": "uint256",
          "name": "_percent",
          "type": "uint256"
        }
      ],
      "name": "setFee",
      "outputs": [],
      "stateMutability": "nonpayable",
      "type": "function"
    },
    {
      "inputs": [
        {
          "internalType": "address",
          "name": "_treasury",
          "type": "address"
        }
      ],
      "name": "setTreasury",
      "outputs": [],
      "stateMutability": "nonpayable",
      "type": "function"
    },
    {
      "inputs": [
        {
          "internalType": "bytes4",
          "name": "interfaceId",
          "type": "bytes4"
        }
      ],
      "name": "supportsInterface",
      "outputs": [
        {
          "internalType": "bool",
          "name": "",
          "type": "bool"
        }
      ],
      "stateMutability": "view",
      "type": "function"
    },
    {
      "inputs": [],
      "name": "symbol",
      "outputs": [
        {
          "internalType": "string",
          "name": "",
          "type": "string"
        }
      ],
      "stateMutability": "view",
      "type": "function"
    },
    {
      "inputs": [
        {
          "internalType": "uint256",
          "name": "tokenId",
          "type": "uint256"
        }
      ],
      "name": "tokenPrice",
      "outputs": [
        {
          "internalType": "uint256",
          "name": "",
          "type": "uint256"
        }
      ],
      "stateMutability": "view",
      "type": "function"
    },
    {
      "inputs": [
        {
          "internalType": "uint256",
          "name": "tokenId",
          "type": "uint256"
        }
      ],
      "name": "tokenURI",
      "outputs": [
        {
          "internalType": "string",
          "name": "",
          "type": "string"
        }
      ],
      "stateMutability": "view",
      "type": "function"
    },
    {
      "inputs": [
        {
          "internalType": "address",
          "name": "from",
          "type": "address"
        },
        {
          "internalType": "address",
          "name": "to",
          "type": "address"
        },
        {
          "internalType": "uint256",
          "name": "tokenId",
          "type": "uint256"
        }
      ],
      "name": "transferFrom",
      "outputs": [],
      "stateMutability": "nonpayable",
      "type": "function"
    },
    {
      "inputs": [
        {
          "internalType": "address",
          "name": "newOwner",
          "type": "address"
        }
      ],
      "name": "transferOwnership",
      "outputs": [],
      "stateMutability": "nonpayable",
      "type": "function"
    },
    {
      "inputs": [],
      "name": "treasury",
      "outputs": [
        {
          "internalType": "address",
          "name": "",
          "type": "address"
        }
      ],
      "stateMutability": "view",
      "type": "function"
    }
  ],
  "transactionHash": "0xc32fa33e5b573dfeb6bb6b3dfa2e8ea949b4f9708281e9b3c40264526b7b162f",
  "args": [],
  "solcInputHash": "8702474273a8e0ef06376c1613bd7fc2",
  "bytecode": "0x60c0604052601560808190527f68747470733a2f2f697066732e696f2f697066732f000000000000000000000060a0908152620000409160fe91906200005c565b506103e8610100553480156200005557600080fd5b506200013f565b8280546200006a9062000102565b90600052602060002090601f0160209004810192826200008e5760008555620000d9565b82601f10620000a957805160ff1916838001178555620000d9565b82800160010185558215620000d9579182015b82811115620000d9578251825591602001919060010190620000bc565b50620000e7929150620000eb565b5090565b5b80821115620000e75760008155600101620000ec565b600181811c908216806200011757607f821691505b602082108114156200013957634e487b7160e01b600052602260045260246000fd5b50919050565b612e59806200014f6000396000f3fe60806040526004361061019c5760003560e01c8063715018a6116100ec578063ced72f871161008a578063ddca3f4311610064578063ddca3f4314610484578063e985e9c51461049b578063f0f44260146104e4578063f2fde38b146105045761019c565b8063ced72f871461042e578063d204c45e14610444578063d4ddce8a146104645761019c565b8063a22cb465116100c6578063a22cb465146103bb578063b88d4fde146103db578063c0c53b8b146103fb578063c87b56dd1461040e5761019c565b8063715018a6146103735780638da5cb5b1461038857806395d89b41146103a65761019c565b806340c84b0e1161015957806361d027b31161013357806361d027b3146102e55780636352211e1461030557806369fe0e2d1461032557806370a08231146103455761019c565b806340c84b0e1461029057806342842e0e146102a557806342966c68146102c55761019c565b806301ffc9a7146101a157806306fdde03146101d6578063081812fc146101f8578063095ea7b31461023057806323b872dd146102525780633b19e84a14610272575b600080fd5b3480156101ad57600080fd5b506101c16101bc366004612a3d565b610524565b60405190151581526020015b60405180910390f35b3480156101e257600080fd5b506101eb610578565b6040516101cd9190612b72565b34801561020457600080fd5b50610218610213366004612a91565b61060a565b6040516001600160a01b0390911681526020016101cd565b34801561023c57600080fd5b5061025061024b3660046128b2565b610697565b005b34801561025e57600080fd5b5061025061026d366004612767565b6107ad565b34801561027e57600080fd5b5060ff546001600160a01b0316610218565b34801561029c57600080fd5b506101eb610ace565b3480156102b157600080fd5b506102506102c0366004612767565b610b5c565b3480156102d157600080fd5b506102506102e0366004612a91565b610b77565b3480156102f157600080fd5b5060ff54610218906001600160a01b031681565b34801561031157600080fd5b50610218610320366004612a91565b61103b565b34801561033157600080fd5b50610250610340366004612a91565b6110b2565b34801561035157600080fd5b506103656103603660046126c9565b6111ae565b6040519081526020016101cd565b34801561037f57600080fd5b50610250611235565b34801561039457600080fd5b506033546001600160a01b0316610218565b3480156103b257600080fd5b506101eb61126b565b3480156103c757600080fd5b506102506103d6366004612824565b61127a565b3480156103e757600080fd5b506102506103f63660046127a7565b611289565b61025061040936600461271d565b61130a565b34801561041a57600080fd5b506101eb610429366004612a91565b61145b565b34801561043a57600080fd5b5061010054610365565b34801561045057600080fd5b5061036561045f366004612851565b6115d3565b34801561047057600080fd5b5061036561047f366004612a91565b611849565b34801561049057600080fd5b506103656101005481565b3480156104a757600080fd5b506101c16104b63660046126e5565b6001600160a01b039182166000908152609c6020908152604080832093909416825291909152205460ff1690565b3480156104f057600080fd5b506102506104ff3660046126c9565b6118af565b34801561051057600080fd5b5061025061051f3660046126c9565b611951565b60006001600160e01b031982166380ac58cd60e01b148061055557506001600160e01b03198216635b5e139f60e01b145b8061057057506301ffc9a760e01b6001600160e01b03198316145b90505b919050565b60606097805461058790612d3e565b80601f01602080910402602001604051908101604052809291908181526020018280546105b390612d3e565b80156106005780601f106105d557610100808354040283529160200191610600565b820191906000526020600020905b8154815290600101906020018083116105e357829003601f168201915b5050505050905090565b6000610615826119ec565b61067b5760405162461bcd60e51b815260206004820152602c60248201527f4552433732313a20617070726f76656420717565727920666f72206e6f6e657860448201526b34b9ba32b73a103a37b5b2b760a11b60648201526084015b60405180910390fd5b506000908152609b60205260409020546001600160a01b031690565b60006106a28261103b565b9050806001600160a01b0316836001600160a01b031614156107105760405162461bcd60e51b815260206004820152602160248201527f4552433732313a20617070726f76616c20746f2063757272656e74206f776e656044820152603960f91b6064820152608401610672565b336001600160a01b038216148061072c575061072c81336104b6565b61079e5760405162461bcd60e51b815260206004820152603860248201527f4552433732313a20617070726f76652063616c6c6572206973206e6f74206f7760448201527f6e6572206e6f7220617070726f76656420666f7220616c6c00000000000000006064820152608401610672565b6107a88383611a09565b505050565b60006108d9611f406108cd6127106108d360fc60009054906101000a90046001600160a01b03166001600160a01b03166336ab348a6040518163ffffffff1660e01b815260040160206040518083038186803b15801561080c57600080fd5b505afa158015610820573d6000803e3d6000fd5b505050506040513d601f19601f820116820180604052508101906108449190612aa9565b60fc546040805163dc5c0eb160e01b815290516108cd926001600160a01b03169163dc5c0eb1916004808301926020929190829003018186803b15801561088a57600080fd5b505afa15801561089e573d6000803e3d6000fd5b505050506040513d601f19601f820116820180604052508101906108c29190612aa9565b6108cd3a5a90611a77565b90611a77565b90611a8a565b90506108e6335b83611a96565b61094b5760405162461bcd60e51b815260206004820152603060248201527f4552433732313a207472616e736665722063616c6c6572206973206e6f74206f60448201526f1ddb995c881bdc88185c1c1c9bdd995960821b6064820152608401610672565b600061095f610bb86108cd84612710611a8a565b905060006109756103e86108cd85612710611a8a565b9050610982868686611b7c565b60fc546040516340c10f1960e01b81526001600160a01b03909116906340c10f19906109b49033908690600401612b59565b600060405180830381600087803b1580156109ce57600080fd5b505af11580156109e2573d6000803e3d6000fd5b505060fc5460008781526101036020526040908190205490516340c10f1960e01b81526001600160a01b0392831694506340c10f199350610a2b92909116908690600401612b59565b600060405180830381600087803b158015610a4557600080fd5b505af1158015610a59573d6000803e3d6000fd5b505060fc5460ff546040516340c10f1960e01b81526001600160a01b0392831694506340c10f199350610a9492909116908590600401612b59565b600060405180830381600087803b158015610aae57600080fd5b505af1158015610ac2573d6000803e3d6000fd5b50505050505050505050565b60fe8054610adb90612d3e565b80601f0160208091040260200160405190810160405280929190818152602001828054610b0790612d3e565b8015610b545780601f10610b2957610100808354040283529160200191610b54565b820191906000526020600020905b815481529060010190602001808311610b3757829003601f168201915b505050505081565b6107a883838360405180602001604052806000815250611289565b6000610c8860fc60009054906101000a90046001600160a01b03166001600160a01b03166336ab348a6040518163ffffffff1660e01b815260040160206040518083038186803b158015610bca57600080fd5b505afa158015610bde573d6000803e3d6000fd5b505050506040513d601f19601f82011682018060405250810190610c029190612aa9565b60fc60009054906101000a90046001600160a01b03166001600160a01b031663dc5c0eb16040518163ffffffff1660e01b815260040160206040518083038186803b158015610c5057600080fd5b505afa158015610c64573d6000803e3d6000fd5b505050506040513d601f19601f820116820180604052508101906108cd9190612aa9565b90506000610ca7611f406108cd6127106108d3866108cd3a5a90611a77565b905033610cb38461103b565b6001600160a01b031614610d095760405162461bcd60e51b815260206004820152601c60248201527f4974277320706f737369626c65206f6e6c7920666f72206f776e6572000000006044820152606401610672565b60fd5460405163badf08eb60e01b81526000916001600160a01b03169063badf08eb90610d3c9030908890600401612b59565b60206040518083038186803b158015610d5457600080fd5b505afa158015610d68573d6000803e3d6000fd5b505050506040513d601f19601f82011682018060405250810190610d8c9190612a21565b90508015610f095760fd5460405163556aab9360e11b81526000916001600160a01b03169063aad5572690610dc79030908990600401612b59565b60206040518083038186803b158015610ddf57600080fd5b505afa158015610df3573d6000803e3d6000fd5b505050506040513d601f19601f82011682018060405250810190610e179190612a75565b90506000816001600160a01b03166391f3410c6040518163ffffffff1660e01b815260040160006040518083038186803b158015610e5457600080fd5b505afa158015610e68573d6000803e3d6000fd5b505050506040513d6000823e601f3d908101601f19168201604052610e9091908101906128dd565b905060005b8151811015610f05576000828281518110610ec057634e487b7160e01b600052603260045260246000fd5b60200260200101519050610ef0610ee9886108cd60028560800151611a7790919063ffffffff16565b8790611d1c565b50508080610efd90612d79565b915050610e95565b5050505b60fc546040516370a0823160e01b815233600482015283916001600160a01b0316906370a082319060240160206040518083038186803b158015610f4c57600080fd5b505afa158015610f60573d6000803e3d6000fd5b505050506040513d601f19601f82011682018060405250810190610f849190612aa9565b1015610fc85760405162461bcd60e51b81526020600482015260136024820152726e6f7420656e6f756768742062616c616e636560681b6044820152606401610672565b610fd184611d28565b60fc54604051632770a7eb60e21b81526001600160a01b0390911690639dc29fac906110039033908690600401612b59565b600060405180830381600087803b15801561101d57600080fd5b505af1158015611031573d6000803e3d6000fd5b5050505050505050565b6000818152609960205260408120546001600160a01b0316806105705760405162461bcd60e51b815260206004820152602960248201527f4552433732313a206f776e657220717565727920666f72206e6f6e657869737460448201526832b73a103a37b5b2b760b91b6064820152608401610672565b6033546001600160a01b031633146110dc5760405162461bcd60e51b815260040161067290612bd7565b600a8110156111425760405162461bcd60e51b815260206004820152602c60248201527f7365744d696e744665653a206d696e696d756d206d696e74206665652070657260448201526b63656e7420697320302e312560a01b6064820152608401610672565b610bb88111156111a85760405162461bcd60e51b815260206004820152602b60248201527f7365744d696e744665653a206d6178696d756d206d696e74206665652070657260448201526a63656e742069732033302560a81b6064820152608401610672565b61010055565b60006001600160a01b0382166112195760405162461bcd60e51b815260206004820152602a60248201527f4552433732313a2062616c616e636520717565727920666f7220746865207a65604482015269726f206164647265737360b01b6064820152608401610672565b506001600160a01b03166000908152609a602052604090205490565b6033546001600160a01b0316331461125f5760405162461bcd60e51b815260040161067290612bd7565b6112696000611d68565b565b60606098805461058790612d3e565b611285338383611dba565b5050565b611292336108e0565b6112f85760405162461bcd60e51b815260206004820152603160248201527f4552433732313a207472616e736665722063616c6c6572206973206e6f74206f6044820152701ddb995c881b9bdc88185c1c1c9bdd9959607a1b6064820152608401610672565b61130484848484611e89565b50505050565b600054610100900460ff166113255760005460ff1615611329565b303b155b61138c5760405162461bcd60e51b815260206004820152602e60248201527f496e697469616c697a61626c653a20636f6e747261637420697320616c72656160448201526d191e481a5b9a5d1a585b1a5e995960921b6064820152608401610672565b600054610100900460ff161580156113ae576000805461ffff19166101011790555b6113ff6040518060400160405280600f81526020016e10dc9e5c1d1bcb941859d948139195608a1b81525060405180604001604052806008815260200167141051d14b93919560c21b815250611ebc565b611407611efd565b60ff80546001600160a01b038087166001600160a01b03199283161790925560fc805486841690831617905560fd8054928516929091169190911790558015611304576000805461ff001916905550505050565b6060611466826119ec565b6114cc5760405162461bcd60e51b815260206004820152603160248201527f45524337323155524953746f726167653a2055524920717565727920666f72206044820152703737b732bc34b9ba32b73a103a37b5b2b760791b6064820152608401610672565b600082815260c96020526040812080546114e590612d3e565b80601f016020809104026020016040519081016040528092919081815260200182805461151190612d3e565b801561155e5780601f106115335761010080835404028352916020019161155e565b820191906000526020600020905b81548152906001019060200180831161154157829003601f168201915b50505050509050600061157c60408051602081019091526000815290565b905080516000141561159057509050610573565b8151156115c25780826040516020016115aa929190612aed565b60405160208183030381529060405292505050610573565b6115cb84611f2d565b949350505050565b600080611633611f406108cd6127106108d360fc60009054906101000a90046001600160a01b03166001600160a01b03166336ab348a6040518163ffffffff1660e01b815260040160206040518083038186803b15801561080c57600080fd5b905060006116418585612004565b90506000611661610100546108cd61271086611a8a90919063ffffffff16565b9050600061166f848361205c565b600084815261010260205260409081902086905560fc5460ff5491516340c10f1960e01b81529293506001600160a01b03908116926340c10f19926116ba9216908690600401612b59565b600060405180830381600087803b1580156116d457600080fd5b505af11580156116e8573d6000803e3d6000fd5b505050506001600160a01b0387163314156117665760fc546040516340c10f1960e01b81526001600160a01b03909116906340c10f199061172f908a908590600401612b59565b600060405180830381600087803b15801561174957600080fd5b505af115801561175d573d6000803e3d6000fd5b5050505061183e565b6000611773826002611a8a565b60fc546040516340c10f1960e01b81529192506001600160a01b0316906340c10f19906117a6908b908590600401612b59565b600060405180830381600087803b1580156117c057600080fd5b505af11580156117d4573d6000803e3d6000fd5b505060fc546040516340c10f1960e01b81526001600160a01b0390911692506340c10f19915061180a9033908590600401612b59565b600060405180830381600087803b15801561182457600080fd5b505af1158015611838573d6000803e3d6000fd5b50505050505b509095945050505050565b600061185460fb5490565b82111561189b5760405162461bcd60e51b8152602060048201526015602482015274139bc81d1bdad95b881dda5d1a081d1a1a5cc81259605a1b6044820152606401610672565b506000908152610102602052604090205490565b6033546001600160a01b031633146118d95760405162461bcd60e51b815260040161067290612bd7565b6001600160a01b03811661192f5760405162461bcd60e51b815260206004820152601c60248201527f73657454726561737572793a206973207a65726f2061646472657373000000006044820152606401610672565b60ff80546001600160a01b0319166001600160a01b0392909216919091179055565b6033546001600160a01b0316331461197b5760405162461bcd60e51b815260040161067290612bd7565b6001600160a01b0381166119e05760405162461bcd60e51b815260206004820152602660248201527f4f776e61626c653a206e6577206f776e657220697320746865207a65726f206160448201526564647265737360d01b6064820152608401610672565b6119e981611d68565b50565b6000908152609960205260409020546001600160a01b0316151590565b6000818152609b6020526040902080546001600160a01b0319166001600160a01b0384169081179091558190611a3e8261103b565b6001600160a01b03167f8c5be1e5ebec7d5bd14f71427d1e84f3dd0314c0f7b2291e5b200ac8c7c3b92560405160405180910390a45050565b6000611a838284612cdc565b9392505050565b6000611a838284612cc8565b6000611aa1826119ec565b611b025760405162461bcd60e51b815260206004820152602c60248201527f4552433732313a206f70657261746f7220717565727920666f72206e6f6e657860448201526b34b9ba32b73a103a37b5b2b760a11b6064820152608401610672565b6000611b0d8361103b565b9050806001600160a01b0316846001600160a01b03161480611b485750836001600160a01b0316611b3d8461060a565b6001600160a01b0316145b806115cb57506001600160a01b038082166000908152609c602090815260408083209388168352929052205460ff166115cb565b826001600160a01b0316611b8f8261103b565b6001600160a01b031614611bf75760405162461bcd60e51b815260206004820152602960248201527f4552433732313a207472616e73666572206f6620746f6b656e2074686174206960448201526839903737ba1037bbb760b91b6064820152608401610672565b6001600160a01b038216611c595760405162461bcd60e51b8152602060048201526024808201527f4552433732313a207472616e7366657220746f20746865207a65726f206164646044820152637265737360e01b6064820152608401610672565b611c64600082611a09565b6001600160a01b0383166000908152609a60205260408120805460019290611c8d908490612cfb565b90915550506001600160a01b0382166000908152609a60205260408120805460019290611cbb908490612cb0565b909155505060008181526099602052604080822080546001600160a01b0319166001600160a01b0386811691821790925591518493918716917fddf252ad1be2c89b69c2b068fc378daa952ba7f163c4a11628f55a4df523b3ef91a4505050565b6000611a838284612cb0565b611d3181612068565b600081815260c9602052604090208054611d4a90612d3e565b1590506119e957600081815260c9602052604081206119e9916125ab565b603380546001600160a01b038381166001600160a01b0319831681179093556040519116919082907f8be0079c531659141344cd1fd0a4f28419497f9722a3daafe3b4186f6b6457e090600090a35050565b816001600160a01b0316836001600160a01b03161415611e1c5760405162461bcd60e51b815260206004820152601960248201527f4552433732313a20617070726f766520746f2063616c6c6572000000000000006044820152606401610672565b6001600160a01b038381166000818152609c6020908152604080832094871680845294825291829020805460ff191686151590811790915591519182527f17307eab39ab6107e8899845ad3d59bd9653f200f220920489ca2b5937696c31910160405180910390a3505050565b611e94848484611b7c565b611ea084848484612103565b6113045760405162461bcd60e51b815260040161067290612b85565b600054610100900460ff16611ee35760405162461bcd60e51b815260040161067290612c0c565b611eeb612210565b611ef3612210565b6112858282612237565b600054610100900460ff16611f245760405162461bcd60e51b815260040161067290612c0c565b61126933611d68565b6060611f38826119ec565b611f9c5760405162461bcd60e51b815260206004820152602f60248201527f4552433732314d657461646174613a2055524920717565727920666f72206e6f60448201526e3732bc34b9ba32b73a103a37b5b2b760891b6064820152608401610672565b6000611fb360408051602081019091526000815290565b90506000815111611fd35760405180602001604052806000815250611a83565b80611fdd84612285565b604051602001611fee929190612aed565b6040516020818303038152906040529392505050565b60008061201060fb5490565b60008181526101036020526040902080546001600160a01b0319166001600160a01b038716179055905061204484826123a0565b61204e81846123ba565b611a8360fb80546001019055565b6000611a838284612cfb565b60006120738261103b565b9050612080600083611a09565b6001600160a01b0381166000908152609a602052604081208054600192906120a9908490612cfb565b909155505060008281526099602052604080822080546001600160a01b0319169055518391906001600160a01b038416907fddf252ad1be2c89b69c2b068fc378daa952ba7f163c4a11628f55a4df523b3ef908390a45050565b60006001600160a01b0384163b1561220557604051630a85bd0160e11b81526001600160a01b0385169063150b7a0290612147903390899088908890600401612b1c565b602060405180830381600087803b15801561216157600080fd5b505af1925050508015612191575060408051601f3d908101601f1916820190925261218e91810190612a59565b60015b6121eb573d8080156121bf576040519150601f19603f3d011682016040523d82523d6000602084013e6121c4565b606091505b5080516121e35760405162461bcd60e51b815260040161067290612b85565b805181602001fd5b6001600160e01b031916630a85bd0160e11b1490506115cb565b506001949350505050565b600054610100900460ff166112695760405162461bcd60e51b815260040161067290612c0c565b600054610100900460ff1661225e5760405162461bcd60e51b815260040161067290612c0c565b81516122719060979060208501906125e7565b5080516107a89060989060208401906125e7565b6060816122aa57506040805180820190915260018152600360fc1b6020820152610573565b8160005b81156122d457806122be81612d79565b91506122cd9050600a83612cc8565b91506122ae565b60008167ffffffffffffffff8111156122fd57634e487b7160e01b600052604160045260246000fd5b6040519080825280601f01601f191660200182016040528015612327576020820181803683370190505b5090505b84156115cb5761233c600183612cfb565b9150612349600a86612d94565b612354906030612cb0565b60f81b81838151811061237757634e487b7160e01b600052603260045260246000fd5b60200101906001600160f81b031916908160001a905350612399600a86612cc8565b945061232b565b611285828260405180602001604052806000815250612445565b6123c3826119ec565b6124265760405162461bcd60e51b815260206004820152602e60248201527f45524337323155524953746f726167653a2055524920736574206f66206e6f6e60448201526d32bc34b9ba32b73a103a37b5b2b760911b6064820152608401610672565b600082815260c96020908152604090912082516107a8928401906125e7565b61244f8383612478565b61245c6000848484612103565b6107a85760405162461bcd60e51b815260040161067290612b85565b6001600160a01b0382166124ce5760405162461bcd60e51b815260206004820181905260248201527f4552433732313a206d696e7420746f20746865207a65726f20616464726573736044820152606401610672565b6124d7816119ec565b156125245760405162461bcd60e51b815260206004820152601c60248201527f4552433732313a20746f6b656e20616c7265616479206d696e746564000000006044820152606401610672565b6001600160a01b0382166000908152609a6020526040812080546001929061254d908490612cb0565b909155505060008181526099602052604080822080546001600160a01b0319166001600160a01b03861690811790915590518392907fddf252ad1be2c89b69c2b068fc378daa952ba7f163c4a11628f55a4df523b3ef908290a45050565b5080546125b790612d3e565b6000825580601f106125c957506119e9565b601f0160209004906000526020600020908101906119e9919061266b565b8280546125f390612d3e565b90600052602060002090601f016020900481019282612615576000855561265b565b82601f1061262e57805160ff191683800117855561265b565b8280016001018555821561265b579182015b8281111561265b578251825591602001919060010190612640565b5061266792915061266b565b5090565b5b80821115612667576000815560010161266c565b600061269361268e84612c88565b612c57565b90508281528383830111156126a757600080fd5b828260208301376000602084830101529392505050565b805161057381612dff565b6000602082840312156126da578081fd5b8135611a8381612dea565b600080604083850312156126f7578081fd5b823561270281612dea565b9150602083013561271281612dea565b809150509250929050565b600080600060608486031215612731578081fd5b833561273c81612dea565b9250602084013561274c81612dea565b9150604084013561275c81612dea565b809150509250925092565b60008060006060848603121561277b578283fd5b833561278681612dea565b9250602084013561279681612dea565b929592945050506040919091013590565b600080600080608085870312156127bc578081fd5b84356127c781612dea565b935060208501356127d781612dea565b925060408501359150606085013567ffffffffffffffff8111156127f9578182fd5b8501601f81018713612809578182fd5b61281887823560208401612680565b91505092959194509250565b60008060408385031215612836578182fd5b823561284181612dea565b9150602083013561271281612dff565b60008060408385031215612863578182fd5b823561286e81612dea565b9150602083013567ffffffffffffffff811115612889578182fd5b8301601f81018513612899578182fd5b6128a885823560208401612680565b9150509250929050565b600080604083850312156128c4578182fd5b82356128cf81612dea565b946020939093013593505050565b600060208083850312156128ef578182fd5b825167ffffffffffffffff80821115612906578384fd5b818501915085601f830112612919578384fd5b81518181111561292b5761292b612dd4565b612939848260051b01612c57565b81815284810190848601875b84811015612a12578151870160a0818d03601f1901121561296457898afd5b61296e60a0612c57565b898201518152604082015161298281612dea565b818b0152606082015188811115612997578b8cfd5b8201603f81018e136129a7578b8cfd5b8a8101516129b761268e82612c88565b8181528f60408385010111156129cb578d8efd5b6129db828e830160408601612d12565b6040840152506129ef9050608083016126be565b606082015260a09190910151608082015284529287019290870190600101612945565b50909998505050505050505050565b600060208284031215612a32578081fd5b8151611a8381612dff565b600060208284031215612a4e578081fd5b8135611a8381612e0d565b600060208284031215612a6a578081fd5b8151611a8381612e0d565b600060208284031215612a86578081fd5b8151611a8381612dea565b600060208284031215612aa2578081fd5b5035919050565b600060208284031215612aba578081fd5b5051919050565b60008151808452612ad9816020860160208601612d12565b601f01601f19169290920160200192915050565b60008351612aff818460208801612d12565b835190830190612b13818360208801612d12565b01949350505050565b6001600160a01b0385811682528416602082015260408101839052608060608201819052600090612b4f90830184612ac1565b9695505050505050565b6001600160a01b03929092168252602082015260400190565b600060208252611a836020830184612ac1565b60208082526032908201527f4552433732313a207472616e7366657220746f206e6f6e20455243373231526560408201527131b2b4bb32b91034b6b83632b6b2b73a32b960711b606082015260800190565b6020808252818101527f4f776e61626c653a2063616c6c6572206973206e6f7420746865206f776e6572604082015260600190565b6020808252602b908201527f496e697469616c697a61626c653a20636f6e7472616374206973206e6f74206960408201526a6e697469616c697a696e6760a81b606082015260800190565b604051601f8201601f1916810167ffffffffffffffff81118282101715612c8057612c80612dd4565b604052919050565b600067ffffffffffffffff821115612ca257612ca2612dd4565b50601f01601f191660200190565b60008219821115612cc357612cc3612da8565b500190565b600082612cd757612cd7612dbe565b500490565b6000816000190483118215151615612cf657612cf6612da8565b500290565b600082821015612d0d57612d0d612da8565b500390565b60005b83811015612d2d578181015183820152602001612d15565b838111156113045750506000910152565b600181811c90821680612d5257607f821691505b60208210811415612d7357634e487b7160e01b600052602260045260246000fd5b50919050565b6000600019821415612d8d57612d8d612da8565b5060010190565b600082612da357612da3612dbe565b500690565b634e487b7160e01b600052601160045260246000fd5b634e487b7160e01b600052601260045260246000fd5b634e487b7160e01b600052604160045260246000fd5b6001600160a01b03811681146119e957600080fd5b80151581146119e957600080fd5b6001600160e01b0319811681146119e957600080fdfea2646970667358221220cb5011fb7785fcaf588b11b6e16ef3215f81ed3424d082b009e1217bf65d194c64736f6c63430008030033",
  "devdoc": {
    "kind": "dev",
    "methods": {
      "approve(address,uint256)": {
        "details": "See {IERC721-approve}."
      },
      "balanceOf(address)": {
        "details": "See {IERC721-balanceOf}."
      },
      "getApproved(uint256)": {
        "details": "See {IERC721-getApproved}."
      },
      "isApprovedForAll(address,address)": {
        "details": "See {IERC721-isApprovedForAll}."
      },
      "name()": {
        "details": "See {IERC721Metadata-name}."
      },
      "owner()": {
        "details": "Returns the address of the current owner."
      },
      "ownerOf(uint256)": {
        "details": "See {IERC721-ownerOf}."
      },
      "renounceOwnership()": {
        "details": "Leaves the contract without owner. It will not be possible to call `onlyOwner` functions anymore. Can only be called by the current owner. NOTE: Renouncing ownership will leave the contract without an owner, thereby removing any functionality that is only available to the owner."
      },
      "safeTransferFrom(address,address,uint256)": {
        "details": "See {IERC721-safeTransferFrom}."
      },
      "safeTransferFrom(address,address,uint256,bytes)": {
        "details": "See {IERC721-safeTransferFrom}."
      },
      "setApprovalForAll(address,bool)": {
        "details": "See {IERC721-setApprovalForAll}."
      },
      "supportsInterface(bytes4)": {
        "details": "See {IERC165-supportsInterface}."
      },
      "symbol()": {
        "details": "See {IERC721Metadata-symbol}."
      },
      "tokenURI(uint256)": {
        "details": "See {IERC721Metadata-tokenURI}."
      },
      "transferFrom(address,address,uint256)": {
        "details": "See {IERC721-transferFrom}."
      },
      "transferOwnership(address)": {
        "details": "Transfers ownership of the contract to a new account (`newOwner`). Can only be called by the current owner."
      }
    },
    "version": 1
  },
  "userdoc": {
    "kind": "user",
    "methods": {},
    "version": 1
  },
  "storageLayout": {
    "storage": [
      {
        "astId": 542,
        "contract": "contracts/CryptoPageNFT.sol:PageNFT",
        "label": "_initialized",
        "offset": 0,
        "slot": "0",
        "type": "t_bool"
      },
      {
        "astId": 545,
        "contract": "contracts/CryptoPageNFT.sol:PageNFT",
        "label": "_initializing",
        "offset": 1,
        "slot": "0",
        "type": "t_bool"
      },
      {
        "astId": 2751,
        "contract": "contracts/CryptoPageNFT.sol:PageNFT",
        "label": "__gap",
        "offset": 0,
        "slot": "1",
        "type": "t_array(t_uint256)50_storage"
      },
      {
        "astId": 420,
        "contract": "contracts/CryptoPageNFT.sol:PageNFT",
        "label": "_owner",
        "offset": 0,
        "slot": "51",
        "type": "t_address"
      },
      {
        "astId": 534,
        "contract": "contracts/CryptoPageNFT.sol:PageNFT",
        "label": "__gap",
        "offset": 0,
        "slot": "52",
        "type": "t_array(t_uint256)49_storage"
      },
      {
        "astId": 3074,
        "contract": "contracts/CryptoPageNFT.sol:PageNFT",
        "label": "__gap",
        "offset": 0,
        "slot": "101",
        "type": "t_array(t_uint256)50_storage"
      },
      {
        "astId": 1314,
        "contract": "contracts/CryptoPageNFT.sol:PageNFT",
        "label": "_name",
        "offset": 0,
        "slot": "151",
        "type": "t_string_storage"
      },
      {
        "astId": 1316,
        "contract": "contracts/CryptoPageNFT.sol:PageNFT",
        "label": "_symbol",
        "offset": 0,
        "slot": "152",
        "type": "t_string_storage"
      },
      {
        "astId": 1320,
        "contract": "contracts/CryptoPageNFT.sol:PageNFT",
        "label": "_owners",
        "offset": 0,
        "slot": "153",
        "type": "t_mapping(t_uint256,t_address)"
      },
      {
        "astId": 1324,
        "contract": "contracts/CryptoPageNFT.sol:PageNFT",
        "label": "_balances",
        "offset": 0,
        "slot": "154",
        "type": "t_mapping(t_address,t_uint256)"
      },
      {
        "astId": 1328,
        "contract": "contracts/CryptoPageNFT.sol:PageNFT",
        "label": "_tokenApprovals",
        "offset": 0,
        "slot": "155",
        "type": "t_mapping(t_uint256,t_address)"
      },
      {
        "astId": 1334,
        "contract": "contracts/CryptoPageNFT.sol:PageNFT",
        "label": "_operatorApprovals",
        "offset": 0,
        "slot": "156",
        "type": "t_mapping(t_address,t_mapping(t_address,t_bool))"
      },
      {
        "astId": 2145,
        "contract": "contracts/CryptoPageNFT.sol:PageNFT",
        "label": "__gap",
        "offset": 0,
        "slot": "157",
        "type": "t_array(t_uint256)44_storage"
      },
      {
        "astId": 2317,
        "contract": "contracts/CryptoPageNFT.sol:PageNFT",
        "label": "_tokenURIs",
        "offset": 0,
        "slot": "201",
        "type": "t_mapping(t_uint256,t_string_storage)"
      },
      {
        "astId": 2435,
        "contract": "contracts/CryptoPageNFT.sol:PageNFT",
        "label": "__gap",
        "offset": 0,
        "slot": "202",
        "type": "t_array(t_uint256)49_storage"
      },
      {
        "astId": 6349,
        "contract": "contracts/CryptoPageNFT.sol:PageNFT",
        "label": "_tokenIdCounter",
        "offset": 0,
        "slot": "251",
        "type": "t_struct(Counter)2758_storage"
      },
      {
        "astId": 6352,
        "contract": "contracts/CryptoPageNFT.sol:PageNFT",
        "label": "token",
        "offset": 0,
        "slot": "252",
        "type": "t_contract(PageToken)7083"
      },
      {
        "astId": 6355,
        "contract": "contracts/CryptoPageNFT.sol:PageNFT",
        "label": "commentMinter",
        "offset": 0,
        "slot": "253",
        "type": "t_contract(PageCommentMinter)6323"
      },
      {
        "astId": 6358,
        "contract": "contracts/CryptoPageNFT.sol:PageNFT",
        "label": "baseURL",
        "offset": 0,
        "slot": "254",
        "type": "t_string_storage"
      },
      {
        "astId": 6360,
        "contract": "contracts/CryptoPageNFT.sol:PageNFT",
        "label": "treasury",
        "offset": 0,
        "slot": "255",
        "type": "t_address"
      },
      {
        "astId": 6363,
        "contract": "contracts/CryptoPageNFT.sol:PageNFT",
        "label": "fee",
        "offset": 0,
        "slot": "256",
        "type": "t_uint256"
      },
      {
        "astId": 6367,
        "contract": "contracts/CryptoPageNFT.sol:PageNFT",
        "label": "commentsById",
        "offset": 0,
        "slot": "257",
        "type": "t_mapping(t_uint256,t_address)"
      },
      {
        "astId": 6371,
        "contract": "contracts/CryptoPageNFT.sol:PageNFT",
        "label": "pricesById",
        "offset": 0,
        "slot": "258",
        "type": "t_mapping(t_uint256,t_uint256)"
      },
      {
        "astId": 6375,
        "contract": "contracts/CryptoPageNFT.sol:PageNFT",
        "label": "creatorById",
        "offset": 0,
        "slot": "259",
        "type": "t_mapping(t_uint256,t_address)"
      }
    ],
    "types": {
      "t_address": {
        "encoding": "inplace",
        "label": "address",
        "numberOfBytes": "20"
      },
      "t_array(t_uint256)44_storage": {
        "base": "t_uint256",
        "encoding": "inplace",
        "label": "uint256[44]",
        "numberOfBytes": "1408"
      },
      "t_array(t_uint256)49_storage": {
        "base": "t_uint256",
        "encoding": "inplace",
        "label": "uint256[49]",
        "numberOfBytes": "1568"
      },
      "t_array(t_uint256)50_storage": {
        "base": "t_uint256",
        "encoding": "inplace",
        "label": "uint256[50]",
        "numberOfBytes": "1600"
      },
      "t_bool": {
        "encoding": "inplace",
        "label": "bool",
        "numberOfBytes": "1"
      },
      "t_contract(PageCommentMinter)6323": {
        "encoding": "inplace",
        "label": "contract PageCommentMinter",
        "numberOfBytes": "20"
      },
      "t_contract(PageToken)7083": {
        "encoding": "inplace",
        "label": "contract PageToken",
        "numberOfBytes": "20"
      },
      "t_mapping(t_address,t_bool)": {
        "encoding": "mapping",
        "key": "t_address",
        "label": "mapping(address => bool)",
        "numberOfBytes": "32",
        "value": "t_bool"
      },
      "t_mapping(t_address,t_mapping(t_address,t_bool))": {
        "encoding": "mapping",
        "key": "t_address",
        "label": "mapping(address => mapping(address => bool))",
        "numberOfBytes": "32",
        "value": "t_mapping(t_address,t_bool)"
      },
      "t_mapping(t_address,t_uint256)": {
        "encoding": "mapping",
        "key": "t_address",
        "label": "mapping(address => uint256)",
        "numberOfBytes": "32",
        "value": "t_uint256"
      },
      "t_mapping(t_uint256,t_address)": {
        "encoding": "mapping",
        "key": "t_uint256",
        "label": "mapping(uint256 => address)",
        "numberOfBytes": "32",
        "value": "t_address"
      },
      "t_mapping(t_uint256,t_string_storage)": {
        "encoding": "mapping",
        "key": "t_uint256",
        "label": "mapping(uint256 => string)",
        "numberOfBytes": "32",
        "value": "t_string_storage"
      },
      "t_mapping(t_uint256,t_uint256)": {
        "encoding": "mapping",
        "key": "t_uint256",
        "label": "mapping(uint256 => uint256)",
        "numberOfBytes": "32",
        "value": "t_uint256"
      },
      "t_string_storage": {
        "encoding": "bytes",
        "label": "string",
        "numberOfBytes": "32"
      },
      "t_struct(Counter)2758_storage": {
        "encoding": "inplace",
        "label": "struct CountersUpgradeable.Counter",
        "members": [
          {
            "astId": 2757,
            "contract": "contracts/CryptoPageNFT.sol:PageNFT",
            "label": "_value",
            "offset": 0,
            "slot": "0",
            "type": "t_uint256"
          }
        ],
        "numberOfBytes": "32"
      },
      "t_uint256": {
        "encoding": "inplace",
        "label": "uint256",
        "numberOfBytes": "32"
      }
    }
  }
}