{
  "address": "0x0352B5380D38c301cc74C8Be570E002A5A699a0b",
  "abi": [
    {
      "inputs": [
        {
          "internalType": "address",
          "name": "_treasury",
          "type": "address"
        },
        {
          "internalType": "address",
          "name": "_token",
          "type": "address"
        },
        {
          "internalType": "address",
          "name": "_commentMinter",
          "type": "address"
        }
      ],
      "stateMutability": "nonpayable",
      "type": "constructor"
    },
    {
      "anonymous": false,
      "inputs": [
        {
          "indexed": true,
          "internalType": "address",
          "name": "owner",
          "type": "address"
        },
        {
          "indexed": true,
          "internalType": "address",
          "name": "approved",
          "type": "address"
        },
        {
          "indexed": true,
          "internalType": "uint256",
          "name": "tokenId",
          "type": "uint256"
        }
      ],
      "name": "Approval",
      "type": "event"
    },
    {
      "anonymous": false,
      "inputs": [
        {
          "indexed": true,
          "internalType": "address",
          "name": "owner",
          "type": "address"
        },
        {
          "indexed": true,
          "internalType": "address",
          "name": "operator",
          "type": "address"
        },
        {
          "indexed": false,
          "internalType": "bool",
          "name": "approved",
          "type": "bool"
        }
      ],
      "name": "ApprovalForAll",
      "type": "event"
    },
    {
      "anonymous": false,
      "inputs": [
        {
          "indexed": true,
          "internalType": "address",
          "name": "previousOwner",
          "type": "address"
        },
        {
          "indexed": true,
          "internalType": "address",
          "name": "newOwner",
          "type": "address"
        }
      ],
      "name": "OwnershipTransferred",
      "type": "event"
    },
    {
      "anonymous": false,
      "inputs": [
        {
          "indexed": true,
          "internalType": "address",
          "name": "from",
          "type": "address"
        },
        {
          "indexed": true,
          "internalType": "address",
          "name": "to",
          "type": "address"
        },
        {
          "indexed": true,
          "internalType": "uint256",
          "name": "tokenId",
          "type": "uint256"
        }
      ],
      "name": "Transfer",
      "type": "event"
    },
    {
      "inputs": [
        {
          "internalType": "address",
          "name": "to",
          "type": "address"
        },
        {
          "internalType": "uint256",
          "name": "tokenId",
          "type": "uint256"
        }
      ],
      "name": "approve",
      "outputs": [],
      "stateMutability": "nonpayable",
      "type": "function"
    },
    {
      "inputs": [
        {
          "internalType": "address",
          "name": "owner",
          "type": "address"
        }
      ],
      "name": "balanceOf",
      "outputs": [
        {
          "internalType": "uint256",
          "name": "",
          "type": "uint256"
        }
      ],
      "stateMutability": "view",
      "type": "function"
    },
    {
      "inputs": [],
      "name": "baseURL",
      "outputs": [
        {
          "internalType": "string",
          "name": "",
          "type": "string"
        }
      ],
      "stateMutability": "view",
      "type": "function"
    },
    {
      "inputs": [
        {
          "internalType": "uint256",
          "name": "_tokenId",
          "type": "uint256"
        }
      ],
      "name": "burn",
      "outputs": [],
      "stateMutability": "nonpayable",
      "type": "function"
    },
    {
      "inputs": [],
      "name": "fee",
      "outputs": [
        {
          "internalType": "uint256",
          "name": "",
          "type": "uint256"
        }
      ],
      "stateMutability": "view",
      "type": "function"
    },
    {
      "inputs": [
        {
          "internalType": "uint256",
          "name": "tokenId",
          "type": "uint256"
        }
      ],
      "name": "getApproved",
      "outputs": [
        {
          "internalType": "address",
          "name": "",
          "type": "address"
        }
      ],
      "stateMutability": "view",
      "type": "function"
    },
    {
      "inputs": [],
      "name": "getBaseURL",
      "outputs": [
        {
          "internalType": "string",
          "name": "",
          "type": "string"
        }
      ],
      "stateMutability": "view",
      "type": "function"
    },
    {
      "inputs": [],
      "name": "getFee",
      "outputs": [
        {
          "internalType": "uint256",
          "name": "",
          "type": "uint256"
        }
      ],
      "stateMutability": "view",
      "type": "function"
    },
    {
      "inputs": [],
      "name": "getTreasury",
      "outputs": [
        {
          "internalType": "address",
          "name": "",
          "type": "address"
        }
      ],
      "stateMutability": "view",
      "type": "function"
    },
    {
      "inputs": [
        {
          "internalType": "address",
          "name": "owner",
          "type": "address"
        },
        {
          "internalType": "address",
          "name": "operator",
          "type": "address"
        }
      ],
      "name": "isApprovedForAll",
      "outputs": [
        {
          "internalType": "bool",
          "name": "",
          "type": "bool"
        }
      ],
      "stateMutability": "view",
      "type": "function"
    },
    {
      "inputs": [],
      "name": "name",
      "outputs": [
        {
          "internalType": "string",
          "name": "",
          "type": "string"
        }
      ],
      "stateMutability": "view",
      "type": "function"
    },
    {
      "inputs": [],
      "name": "owner",
      "outputs": [
        {
          "internalType": "address",
          "name": "",
          "type": "address"
        }
      ],
      "stateMutability": "view",
      "type": "function"
    },
    {
      "inputs": [
        {
          "internalType": "uint256",
          "name": "tokenId",
          "type": "uint256"
        }
      ],
      "name": "ownerOf",
      "outputs": [
        {
          "internalType": "address",
          "name": "",
          "type": "address"
        }
      ],
      "stateMutability": "view",
      "type": "function"
    },
    {
      "inputs": [],
      "name": "renounceOwnership",
      "outputs": [],
      "stateMutability": "nonpayable",
      "type": "function"
    },
    {
      "inputs": [
        {
          "internalType": "string",
          "name": "_tokenURI",
          "type": "string"
        },
        {
          "internalType": "bool",
          "name": "_commentActive",
          "type": "bool"
        }
      ],
      "name": "safeMint",
      "outputs": [
        {
          "internalType": "uint256",
          "name": "",
          "type": "uint256"
        }
      ],
      "stateMutability": "nonpayable",
      "type": "function"
    },
    {
      "inputs": [
        {
          "internalType": "address",
          "name": "from",
          "type": "address"
        },
        {
          "internalType": "address",
          "name": "to",
          "type": "address"
        },
        {
          "internalType": "uint256",
          "name": "tokenId",
          "type": "uint256"
        }
      ],
      "name": "safeTransferFrom",
      "outputs": [],
      "stateMutability": "nonpayable",
      "type": "function"
    },
    {
      "inputs": [
        {
          "internalType": "address",
          "name": "from",
          "type": "address"
        },
        {
          "internalType": "address",
          "name": "to",
          "type": "address"
        },
        {
          "internalType": "uint256",
          "name": "tokenId",
          "type": "uint256"
        },
        {
          "internalType": "bytes",
          "name": "_data",
          "type": "bytes"
        }
      ],
      "name": "safeTransferFrom",
      "outputs": [],
      "stateMutability": "nonpayable",
      "type": "function"
    },
    {
      "inputs": [
        {
          "internalType": "address",
          "name": "operator",
          "type": "address"
        },
        {
          "internalType": "bool",
          "name": "approved",
          "type": "bool"
        }
      ],
      "name": "setApprovalForAll",
      "outputs": [],
      "stateMutability": "nonpayable",
      "type": "function"
    },
    {
      "inputs": [
        {
          "internalType": "uint256",
          "name": "_percent",
          "type": "uint256"
        }
      ],
      "name": "setFee",
      "outputs": [],
      "stateMutability": "nonpayable",
      "type": "function"
    },
    {
      "inputs": [
        {
          "internalType": "address",
          "name": "_treasury",
          "type": "address"
        }
      ],
      "name": "setTreasury",
      "outputs": [],
      "stateMutability": "nonpayable",
      "type": "function"
    },
    {
      "inputs": [
        {
          "internalType": "bytes4",
          "name": "interfaceId",
          "type": "bytes4"
        }
      ],
      "name": "supportsInterface",
      "outputs": [
        {
          "internalType": "bool",
          "name": "",
          "type": "bool"
        }
      ],
      "stateMutability": "view",
      "type": "function"
    },
    {
      "inputs": [],
      "name": "symbol",
      "outputs": [
        {
          "internalType": "string",
          "name": "",
          "type": "string"
        }
      ],
      "stateMutability": "view",
      "type": "function"
    },
    {
      "inputs": [
        {
          "internalType": "uint256",
          "name": "tokenId",
          "type": "uint256"
        }
      ],
      "name": "tokenPrice",
      "outputs": [
        {
          "internalType": "uint256",
          "name": "",
          "type": "uint256"
        }
      ],
      "stateMutability": "view",
      "type": "function"
    },
    {
      "inputs": [
        {
          "internalType": "uint256",
          "name": "tokenId",
          "type": "uint256"
        }
      ],
      "name": "tokenURI",
      "outputs": [
        {
          "internalType": "string",
          "name": "",
          "type": "string"
        }
      ],
      "stateMutability": "view",
      "type": "function"
    },
    {
      "inputs": [
        {
          "internalType": "address",
          "name": "from",
          "type": "address"
        },
        {
          "internalType": "address",
          "name": "to",
          "type": "address"
        },
        {
          "internalType": "uint256",
          "name": "tokenId",
          "type": "uint256"
        }
      ],
      "name": "transferFrom",
      "outputs": [],
      "stateMutability": "nonpayable",
      "type": "function"
    },
    {
      "inputs": [
        {
          "internalType": "address",
          "name": "newOwner",
          "type": "address"
        }
      ],
      "name": "transferOwnership",
      "outputs": [],
      "stateMutability": "nonpayable",
      "type": "function"
    },
    {
      "inputs": [],
      "name": "treasury",
      "outputs": [
        {
          "internalType": "address",
          "name": "",
          "type": "address"
        }
      ],
      "stateMutability": "view",
      "type": "function"
    }
  ],
  "transactionHash": "0x1f22eaa23271d77047206f654dd80df5d19942ca463a5e2628978332920b5dc1",
  "args": [
    "0x42Ea7075F16e355DE9D9F69D146A439AC4Cb6030",
    "0xB2670B1Aa234a0f6BeF57a3e5549Ba803439De33",
    "0x6E60f2e9E2BFf74036bb9878FdBE28ca70C6Ac3C"
  ],
  "solcInputHash": "3d91cbbb9b5f327223005ea0a18fcaa5",
  "bytecode": "0x60c0604052601560808190527f68747470733a2f2f697066732e696f2f697066732f000000000000000000000060a09081526200004091600c91906200019d565b506103e8600e553480156200005457600080fd5b5060405162002cbe38038062002cbe833981016040819052620000779162000260565b60405180604001604052806008815260200167141859d94813919560c21b81525060405180604001604052806008815260200167141051d14b53919560c21b8152508160009080519060200190620000d19291906200019d565b508051620000e79060019060208401906200019d565b50505062000104620000fe6200014760201b60201c565b6200014b565b600d80546001600160a01b039485166001600160a01b0319918216179091556009805493851693821693909317909255600a8054919093169116179055620002e6565b3390565b600780546001600160a01b038381166001600160a01b0319831681179093556040519116919082907f8be0079c531659141344cd1fd0a4f28419497f9722a3daafe3b4186f6b6457e090600090a35050565b828054620001ab90620002a9565b90600052602060002090601f016020900481019282620001cf57600085556200021a565b82601f10620001ea57805160ff19168380011785556200021a565b828001600101855582156200021a579182015b828111156200021a578251825591602001919060010190620001fd565b50620002289291506200022c565b5090565b5b808211156200022857600081556001016200022d565b80516001600160a01b03811681146200025b57600080fd5b919050565b60008060006060848603121562000275578283fd5b620002808462000243565b9250620002906020850162000243565b9150620002a06040850162000243565b90509250925092565b600281046001821680620002be57607f821691505b60208210811415620002e057634e487b7160e01b600052602260045260246000fd5b50919050565b6129c880620002f66000396000f3fe608060405234801561001057600080fd5b50600436106101a95760003560e01c806369fe0e2d116100f9578063c87b56dd11610097578063ddca3f4311610071578063ddca3f431461033f578063e985e9c514610347578063f0f442601461035a578063f2fde38b1461036d576101a9565b8063c87b56dd14610311578063ced72f8714610324578063d4ddce8a1461032c576101a9565b80638da5cb5b116100d35780638da5cb5b146102db57806395d89b41146102e3578063a22cb465146102eb578063b88d4fde146102fe576101a9565b806369fe0e2d146102ad57806370a08231146102c0578063715018a6146102d3576101a9565b80633b19e84a1161016657806342842e0e1161014057806342842e0e1461026c57806342966c681461027f57806361d027b3146102925780636352211e1461029a576101a9565b80633b19e84a1461023c5780633fa2963f1461024457806340c84b0e14610264576101a9565b806301ffc9a7146101ae57806306fdde03146101d7578063081812fc146101ec578063095ea7b31461020c5780631c7ef2aa1461022157806323b872dd14610229575b600080fd5b6101c16101bc366004611f98565b610380565b6040516101ce9190612139565b60405180910390f35b6101df6103c8565b6040516101ce9190612144565b6101ff6101fa36600461205c565b61045a565b6040516101ce91906120cf565b61021f61021a366004611e51565b6104a6565b005b6101df61053e565b61021f610237366004611d67565b61054d565b6101ff61079f565b610257610252366004612004565b6107ae565b6040516101ce91906127c4565b6101df6109ea565b61021f61027a366004611d67565b610a78565b61021f61028d36600461205c565b610a93565b6101ff610ddd565b6101ff6102a836600461205c565b610dec565b61021f6102bb36600461205c565b610e21565b6102576102ce366004611d13565b610ea8565b61021f610eec565b6101ff610f37565b6101df610f46565b61021f6102f9366004611e24565b610f55565b61021f61030c366004611da7565b610f6b565b6101df61031f36600461205c565b610f9e565b610257610fd8565b61025761033a36600461205c565b610fde565b61025761101c565b6101c1610355366004611d2f565b611022565b61021f610368366004611d13565b611050565b61021f61037b366004611d13565b6110d7565b60006001600160e01b031982166380ac58cd60e01b14806103b157506001600160e01b03198216635b5e139f60e01b145b806103c057506103c082611148565b90505b919050565b6060600080546103d7906128ad565b80601f0160208091040260200160405190810160405280929190818152602001828054610403906128ad565b80156104505780601f1061042557610100808354040283529160200191610450565b820191906000526020600020905b81548152906001019060200180831161043357829003601f168201915b5050505050905090565b600061046582611161565b61048a5760405162461bcd60e51b815260040161048190612575565b60405180910390fd5b506000908152600460205260409020546001600160a01b031690565b60006104b182610dec565b9050806001600160a01b0316836001600160a01b031614156104e55760405162461bcd60e51b81526004016104819061268e565b806001600160a01b03166104f761117e565b6001600160a01b0316148061051357506105138161035561117e565b61052f5760405162461bcd60e51b815260040161048190612366565b6105398383611182565b505050565b6060600c80546103d7906128ad565b60005a905061056361055d61117e565b836111f0565b61057f5760405162461bcd60e51b815260040161048190612712565b600061061f3a610619600960009054906101000a90046001600160a01b03166001600160a01b03166398d5fdca6040518163ffffffff1660e01b815260040160206040518083038186803b1580156105d657600080fd5b505afa1580156105ea573d6000803e3d6000fd5b505050506040513d601f19601f8201168201806040525081019061060e9190611fec565b6106195a8790611275565b90611288565b90506000610633601e610619846064611294565b90506000610647600a610619856064611294565b6009546040516340c10f1960e01b81529192506001600160a01b0316906340c10f199061067a9033908690600401612120565b600060405180830381600087803b15801561069457600080fd5b505af11580156106a8573d6000803e3d6000fd5b5050600954600088815260116020526040908190205490516340c10f1960e01b81526001600160a01b0392831694506340c10f1993506106f092909116908690600401612120565b600060405180830381600087803b15801561070a57600080fd5b505af115801561071e573d6000803e3d6000fd5b5050600954600d546040516340c10f1960e01b81526001600160a01b0392831694506340c10f19935061075992909116908590600401612120565b600060405180830381600087803b15801561077357600080fd5b505af1158015610787573d6000803e3d6000fd5b505050506107968787876112a0565b50505050505050565b600d546001600160a01b031690565b6000805a905060006107c033866113cd565b9050831561082d57600a54604051631a55d03d60e21b81526001600160a01b039091169063695740f4906107fa9030908590600401612120565b600060405180830381600087803b15801561081457600080fd5b505af1158015610828573d6000803e3d6000fd5b505050505b60005a61083a908461286a565b90506108cc600960009054906101000a90046001600160a01b03166001600160a01b03166398d5fdca6040518163ffffffff1660e01b815260040160206040518083038186803b15801561088d57600080fd5b505afa1580156108a1573d6000803e3d6000fd5b505050506040513d601f19601f820116820180604052508101906108c59190611fec565b8290611288565b5060006108f06127106108ea600e548561128890919063ffffffff16565b90611294565b905060006108fe8383611275565b6000858152601060205260409081902085905560095490516340c10f1960e01b81529192506001600160a01b0316906340c10f19906109439033908590600401612120565b600060405180830381600087803b15801561095d57600080fd5b505af1158015610971573d6000803e3d6000fd5b5050600954600d546040516340c10f1960e01b81526001600160a01b0392831694506340c10f1993506109ac92909116908690600401612120565b600060405180830381600087803b1580156109c657600080fd5b505af11580156109da573d6000803e3d6000fd5b50959a9950505050505050505050565b600c80546109f7906128ad565b80601f0160208091040260200160405190810160405280929190818152602001828054610a23906128ad565b8015610a705780601f10610a4557610100808354040283529160200191610a70565b820191906000526020600020905b815481529060010190602001808311610a5357829003601f168201915b505050505081565b61053983838360405180602001604052806000815250610f6b565b33610a9d82610dec565b6001600160a01b031614610ac35760405162461bcd60e51b815260040161048190612763565b600a5460405163556aab9360e11b81526000916001600160a01b03169063aad5572690610af69030908690600401612120565b60206040518083038186803b158015610b0e57600080fd5b505afa158015610b22573d6000803e3d6000fd5b505050506040513d601f19601f82011682018060405250810190610b469190611fd0565b905060005a90506000826001600160a01b03166391f3410c6040518163ffffffff1660e01b815260040160006040518083038186803b158015610b8857600080fd5b505afa158015610b9c573d6000803e3d6000fd5b505050506040513d6000823e601f3d908101601f19168201604052610bc49190810190611e7c565b9050610bd53a6106195a8590611275565b915060005b8151811015610c46576000828281518110610c0557634e487b7160e01b600052603260045260246000fd5b60200260200101519050610c31610c2a6002836080015161128890919063ffffffff16565b8590611421565b50508080610c3e906128e8565b915050610bda565b506009546040516370a0823160e01b815283916001600160a01b0316906370a0823190610c779033906004016120cf565b60206040518083038186803b158015610c8f57600080fd5b505afa158015610ca3573d6000803e3d6000fd5b505050506040513d601f19601f82011682018060405250810190610cc79190611fec565b11610ce45760405162461bcd60e51b815260040161048190612226565b60095460408051634c6afee560e11b81529051610d69926001600160a01b0316916398d5fdca916004808301926020929190829003018186803b158015610d2a57600080fd5b505afa158015610d3e573d6000803e3d6000fd5b505050506040513d601f19601f82011682018060405250810190610d629190611fec565b8390611288565b50600954604051632770a7eb60e21b81526001600160a01b0390911690639dc29fac90610d9c9033908690600401612120565b600060405180830381600087803b158015610db657600080fd5b505af1158015610dca573d6000803e3d6000fd5b50505050610dd78461142d565b50505050565b600d546001600160a01b031681565b6000818152600260205260408120546001600160a01b0316806103c05760405162461bcd60e51b81526004016104819061240d565b610e2961117e565b6001600160a01b0316610e3a610f37565b6001600160a01b031614610e605760405162461bcd60e51b8152600401610481906125c1565b600a811015610e815760405162461bcd60e51b8152600401610481906122ce565b610bb8811115610ea35760405162461bcd60e51b8152600401610481906124a4565b600e55565b60006001600160a01b038216610ed05760405162461bcd60e51b8152600401610481906123c3565b506001600160a01b031660009081526003602052604090205490565b610ef461117e565b6001600160a01b0316610f05610f37565b6001600160a01b031614610f2b5760405162461bcd60e51b8152600401610481906125c1565b610f356000611436565b565b6007546001600160a01b031690565b6060600180546103d7906128ad565b610f67610f6061117e565b8383611488565b5050565b610f7661055d61117e565b610f925760405162461bcd60e51b815260040161048190612712565b610dd78484848461152b565b6060610fa861053e565b610fb18361155e565b604051602001610fc29291906120a0565b6040516020818303038152906040529050919050565b600e5490565b6000610fea6008611677565b8211156110095760405162461bcd60e51b81526004016104819061279a565b5060009081526010602052604090205490565b600e5481565b6001600160a01b03918216600090815260056020908152604080832093909416825291909152205460ff1690565b61105861117e565b6001600160a01b0316611069610f37565b6001600160a01b03161461108f5760405162461bcd60e51b8152600401610481906125c1565b6001600160a01b0381166110b55760405162461bcd60e51b8152600401610481906126cf565b600d80546001600160a01b0319166001600160a01b0392909216919091179055565b6110df61117e565b6001600160a01b03166110f0610f37565b6001600160a01b0316146111165760405162461bcd60e51b8152600401610481906125c1565b6001600160a01b03811661113c5760405162461bcd60e51b8152600401610481906121a9565b61114581611436565b50565b6001600160e01b031981166301ffc9a760e01b14919050565b6000908152600260205260409020546001600160a01b0316151590565b3390565b600081815260046020526040902080546001600160a01b0319166001600160a01b03841690811790915581906111b782610dec565b6001600160a01b03167f8c5be1e5ebec7d5bd14f71427d1e84f3dd0314c0f7b2291e5b200ac8c7c3b92560405160405180910390a45050565b60006111fb82611161565b6112175760405162461bcd60e51b81526004016104819061231a565b600061122283610dec565b9050806001600160a01b0316846001600160a01b0316148061125d5750836001600160a01b03166112528461045a565b6001600160a01b0316145b8061126d575061126d8185611022565b949350505050565b6000611281828461286a565b9392505050565b6000611281828461284b565b60006112818284612837565b826001600160a01b03166112b382610dec565b6001600160a01b0316146112d95760405162461bcd60e51b8152600401610481906125f6565b6001600160a01b0382166112ff5760405162461bcd60e51b815260040161048190612253565b61130a838383610539565b611315600082611182565b6001600160a01b038316600090815260036020526040812080546001929061133e90849061286a565b90915550506001600160a01b038216600090815260036020526040812080546001929061136c90849061281f565b909155505060008181526002602052604080822080546001600160a01b0319166001600160a01b0386811691821790925591518493918716917fddf252ad1be2c89b69c2b068fc378daa952ba7f163c4a11628f55a4df523b3ef91a4505050565b6000806113da6008611677565b600081815260116020526040902080546001600160a01b0319166001600160a01b038716179055905061140d848261167b565b6114178184611695565b61128160086116d9565b6000611281828461281f565b611145816116e2565b600780546001600160a01b038381166001600160a01b0319831681179093556040519116919082907f8be0079c531659141344cd1fd0a4f28419497f9722a3daafe3b4186f6b6457e090600090a35050565b816001600160a01b0316836001600160a01b031614156114ba5760405162461bcd60e51b815260040161048190612297565b6001600160a01b0383811660008181526005602090815260408083209487168084529490915290819020805460ff1916851515179055517f17307eab39ab6107e8899845ad3d59bd9653f200f220920489ca2b5937696c319061151e908590612139565b60405180910390a3505050565b6115368484846112a0565b61154284848484611722565b610dd75760405162461bcd60e51b815260040161048190612157565b606061156982611161565b6115855760405162461bcd60e51b815260040161048190612524565b6000828152600660205260408120805461159e906128ad565b80601f01602080910402602001604051908101604052809291908181526020018280546115ca906128ad565b80156116175780601f106115ec57610100808354040283529160200191611617565b820191906000526020600020905b8154815290600101906020018083116115fa57829003601f168201915b50505050509050600061162861183d565b905080516000141561163c575090506103c3565b81511561166e5780826040516020016116569291906120a0565b604051602081830303815290604052925050506103c3565b61126d8461184f565b5490565b610f678282604051806020016040528060008152506118d1565b61169e82611161565b6116ba5760405162461bcd60e51b815260040161048190612456565b6000828152600660209081526040909120825161053992840190611bab565b80546001019055565b6116eb81611904565b60008181526006602052604090208054611704906128ad565b15905061114557600081815260066020526040812061114591611c2f565b6000611736846001600160a01b03166119ab565b1561183257836001600160a01b031663150b7a0261175261117e565b8786866040518563ffffffff1660e01b815260040161177494939291906120e3565b602060405180830381600087803b15801561178e57600080fd5b505af19250505080156117be575060408051601f3d908101601f191682019092526117bb91810190611fb4565b60015b611818573d8080156117ec576040519150601f19603f3d011682016040523d82523d6000602084013e6117f1565b606091505b5080516118105760405162461bcd60e51b815260040161048190612157565b805181602001fd5b6001600160e01b031916630a85bd0160e11b14905061126d565b506001949350505050565b60408051602081019091526000815290565b606061185a82611161565b6118765760405162461bcd60e51b81526004016104819061263f565b600061188061183d565b905060008151116118a05760405180602001604052806000815250611281565b806118aa846119b1565b6040516020016118bb9291906120a0565b6040516020818303038152906040529392505050565b6118db8383611acc565b6118e86000848484611722565b6105395760405162461bcd60e51b815260040161048190612157565b600061190f82610dec565b905061191d81600084610539565b611928600083611182565b6001600160a01b038116600090815260036020526040812080546001929061195190849061286a565b909155505060008281526002602052604080822080546001600160a01b0319169055518391906001600160a01b038416907fddf252ad1be2c89b69c2b068fc378daa952ba7f163c4a11628f55a4df523b3ef908390a45050565b3b151590565b6060816119d657506040805180820190915260018152600360fc1b60208201526103c3565b8160005b8115611a0057806119ea816128e8565b91506119f99050600a83612837565b91506119da565b60008167ffffffffffffffff811115611a2957634e487b7160e01b600052604160045260246000fd5b6040519080825280601f01601f191660200182016040528015611a53576020820181803683370190505b5090505b841561126d57611a6860018361286a565b9150611a75600a86612903565b611a8090603061281f565b60f81b818381518110611aa357634e487b7160e01b600052603260045260246000fd5b60200101906001600160f81b031916908160001a905350611ac5600a86612837565b9450611a57565b6001600160a01b038216611af25760405162461bcd60e51b8152600401610481906124ef565b611afb81611161565b15611b185760405162461bcd60e51b8152600401610481906121ef565b611b2460008383610539565b6001600160a01b0382166000908152600360205260408120805460019290611b4d90849061281f565b909155505060008181526002602052604080822080546001600160a01b0319166001600160a01b03861690811790915590518392907fddf252ad1be2c89b69c2b068fc378daa952ba7f163c4a11628f55a4df523b3ef908290a45050565b828054611bb7906128ad565b90600052602060002090601f016020900481019282611bd95760008555611c1f565b82601f10611bf257805160ff1916838001178555611c1f565b82800160010185558215611c1f579182015b82811115611c1f578251825591602001919060010190611c04565b50611c2b929150611c67565b5090565b508054611c3b906128ad565b6000825580601f10611c4d5750611145565b601f01602090049060005260206000209081019061114591905b5b80821115611c2b5760008155600101611c68565b6000611c8f611c8a846127f7565b6127cd565b9050828152838383011115611ca357600080fd5b828260208301376000602084830101529392505050565b80516103c381612959565b80516103c38161296e565b600082601f830112611ce0578081fd5b8151611cee611c8a826127f7565b818152846020838601011115611d02578283fd5b61126d826020830160208701612881565b600060208284031215611d24578081fd5b813561128181612959565b60008060408385031215611d41578081fd5b8235611d4c81612959565b91506020830135611d5c81612959565b809150509250929050565b600080600060608486031215611d7b578081fd5b8335611d8681612959565b92506020840135611d9681612959565b929592945050506040919091013590565b60008060008060808587031215611dbc578081fd5b8435611dc781612959565b93506020850135611dd781612959565b925060408501359150606085013567ffffffffffffffff811115611df9578182fd5b8501601f81018713611e09578182fd5b611e1887823560208401611c7c565b91505092959194509250565b60008060408385031215611e36578182fd5b8235611e4181612959565b91506020830135611d5c8161296e565b60008060408385031215611e63578081fd5b8235611e6e81612959565b946020939093013593505050565b60006020808385031215611e8e578182fd5b825167ffffffffffffffff80821115611ea5578384fd5b818501915085601f830112611eb8578384fd5b815181811115611eca57611eca612943565b611ed784858302016127cd565b81815284810190848601875b84811015611f89578151870160a0818d03601f19011215611f0257898afd5b6040805160a081018181108a82111715611f1e57611f1e612943565b8252828b01518152611f31838301611cba565b8b820152606083015189811115611f46578c8dfd5b611f548f8d83870101611cd0565b8383015250611f6560808401611cc5565b606082015260a0929092015160808301525084529287019290870190600101611ee3565b50909998505050505050505050565b600060208284031215611fa9578081fd5b81356112818161297c565b600060208284031215611fc5578081fd5b81516112818161297c565b600060208284031215611fe1578081fd5b815161128181612959565b600060208284031215611ffd578081fd5b5051919050565b60008060408385031215612016578182fd5b823567ffffffffffffffff81111561202c578283fd5b8301601f8101851361203c578283fd5b61204b85823560208401611c7c565b9250506020830135611d5c8161296e565b60006020828403121561206d578081fd5b5035919050565b6000815180845261208c816020860160208601612881565b601f01601f19169290920160200192915050565b600083516120b2818460208801612881565b8351908301906120c6818360208801612881565b01949350505050565b6001600160a01b0391909116815260200190565b6001600160a01b038581168252841660208201526040810183905260806060820181905260009061211690830184612074565b9695505050505050565b6001600160a01b03929092168252602082015260400190565b901515815260200190565b6000602082526112816020830184612074565b60208082526032908201527f4552433732313a207472616e7366657220746f206e6f6e20455243373231526560408201527131b2b4bb32b91034b6b83632b6b2b73a32b960711b606082015260800190565b60208082526026908201527f4f776e61626c653a206e6577206f776e657220697320746865207a65726f206160408201526564647265737360d01b606082015260800190565b6020808252601c908201527f4552433732313a20746f6b656e20616c7265616479206d696e74656400000000604082015260600190565b6020808252601390820152726e6f7420656e6f756768742062616c616e636560681b604082015260600190565b60208082526024908201527f4552433732313a207472616e7366657220746f20746865207a65726f206164646040820152637265737360e01b606082015260800190565b60208082526019908201527f4552433732313a20617070726f766520746f2063616c6c657200000000000000604082015260600190565b6020808252602c908201527f7365744d696e744665653a206d696e696d756d206d696e74206665652070657260408201526b63656e7420697320302e312560a01b606082015260800190565b6020808252602c908201527f4552433732313a206f70657261746f7220717565727920666f72206e6f6e657860408201526b34b9ba32b73a103a37b5b2b760a11b606082015260800190565b60208082526038908201527f4552433732313a20617070726f76652063616c6c6572206973206e6f74206f7760408201527f6e6572206e6f7220617070726f76656420666f7220616c6c0000000000000000606082015260800190565b6020808252602a908201527f4552433732313a2062616c616e636520717565727920666f7220746865207a65604082015269726f206164647265737360b01b606082015260800190565b60208082526029908201527f4552433732313a206f776e657220717565727920666f72206e6f6e657869737460408201526832b73a103a37b5b2b760b91b606082015260800190565b6020808252602e908201527f45524337323155524953746f726167653a2055524920736574206f66206e6f6e60408201526d32bc34b9ba32b73a103a37b5b2b760911b606082015260800190565b6020808252602b908201527f7365744d696e744665653a206d6178696d756d206d696e74206665652070657260408201526a63656e742069732033302560a81b606082015260800190565b6020808252818101527f4552433732313a206d696e7420746f20746865207a65726f2061646472657373604082015260600190565b60208082526031908201527f45524337323155524953746f726167653a2055524920717565727920666f72206040820152703737b732bc34b9ba32b73a103a37b5b2b760791b606082015260800190565b6020808252602c908201527f4552433732313a20617070726f76656420717565727920666f72206e6f6e657860408201526b34b9ba32b73a103a37b5b2b760a11b606082015260800190565b6020808252818101527f4f776e61626c653a2063616c6c6572206973206e6f7420746865206f776e6572604082015260600190565b60208082526029908201527f4552433732313a207472616e73666572206f6620746f6b656e2074686174206960408201526839903737ba1037bbb760b91b606082015260800190565b6020808252602f908201527f4552433732314d657461646174613a2055524920717565727920666f72206e6f60408201526e3732bc34b9ba32b73a103a37b5b2b760891b606082015260800190565b60208082526021908201527f4552433732313a20617070726f76616c20746f2063757272656e74206f776e656040820152603960f91b606082015260800190565b60208082526023908201527f7365745472656173757279416464726573733a206973207a65726f206164647260408201526265737360e81b606082015260800190565b60208082526031908201527f4552433732313a207472616e736665722063616c6c6572206973206e6f74206f6040820152701ddb995c881b9bdc88185c1c1c9bdd9959607a1b606082015260800190565b6020808252601c908201527f4974277320706f737369626c65206f6e6c7920666f72206f776e657200000000604082015260600190565b60208082526010908201526f139bc81d1bdad95b881dda5d1a08125960821b604082015260600190565b90815260200190565b60405181810167ffffffffffffffff811182821017156127ef576127ef612943565b604052919050565b600067ffffffffffffffff82111561281157612811612943565b50601f01601f191660200190565b6000821982111561283257612832612917565b500190565b6000826128465761284661292d565b500490565b600081600019048311821515161561286557612865612917565b500290565b60008282101561287c5761287c612917565b500390565b60005b8381101561289c578181015183820152602001612884565b83811115610dd75750506000910152565b6002810460018216806128c157607f821691505b602082108114156128e257634e487b7160e01b600052602260045260246000fd5b50919050565b60006000198214156128fc576128fc612917565b5060010190565b6000826129125761291261292d565b500690565b634e487b7160e01b600052601160045260246000fd5b634e487b7160e01b600052601260045260246000fd5b634e487b7160e01b600052604160045260246000fd5b6001600160a01b038116811461114557600080fd5b801515811461114557600080fd5b6001600160e01b03198116811461114557600080fdfea26469706673582212208507371325e481ce82874e4f6ea2534951fa4a6bfd55ac66fc0a1f14eb76b02b64736f6c63430008000033",
  "devdoc": {
    "kind": "dev",
    "methods": {
      "approve(address,uint256)": {
        "details": "See {IERC721-approve}."
      },
      "balanceOf(address)": {
        "details": "See {IERC721-balanceOf}."
      },
      "getApproved(uint256)": {
        "details": "See {IERC721-getApproved}."
      },
      "isApprovedForAll(address,address)": {
        "details": "See {IERC721-isApprovedForAll}."
      },
      "name()": {
        "details": "See {IERC721Metadata-name}."
      },
      "owner()": {
        "details": "Returns the address of the current owner."
      },
      "ownerOf(uint256)": {
        "details": "See {IERC721-ownerOf}."
      },
      "renounceOwnership()": {
        "details": "Leaves the contract without owner. It will not be possible to call `onlyOwner` functions anymore. Can only be called by the current owner. NOTE: Renouncing ownership will leave the contract without an owner, thereby removing any functionality that is only available to the owner."
      },
      "safeTransferFrom(address,address,uint256)": {
        "details": "See {IERC721-safeTransferFrom}."
      },
      "safeTransferFrom(address,address,uint256,bytes)": {
        "details": "See {IERC721-safeTransferFrom}."
      },
      "setApprovalForAll(address,bool)": {
        "details": "See {IERC721-setApprovalForAll}."
      },
      "supportsInterface(bytes4)": {
        "details": "See {IERC165-supportsInterface}."
      },
      "symbol()": {
        "details": "See {IERC721Metadata-symbol}."
      },
      "transferFrom(address,address,uint256)": {
        "details": "See {IERC721-transferFrom}."
      },
      "transferOwnership(address)": {
        "details": "Transfers ownership of the contract to a new account (`newOwner`). Can only be called by the current owner."
      }
    },
    "version": 1
  },
  "userdoc": {
    "kind": "user",
    "methods": {},
    "version": 1
  },
  "storageLayout": {
    "storage": [
      {
        "astId": 1207,
        "contract": "contracts/CryptoPageNFT.sol:PageNFT",
        "label": "_name",
        "offset": 0,
        "slot": "0",
        "type": "t_string_storage"
      },
      {
        "astId": 1209,
        "contract": "contracts/CryptoPageNFT.sol:PageNFT",
        "label": "_symbol",
        "offset": 0,
        "slot": "1",
        "type": "t_string_storage"
      },
      {
        "astId": 1213,
        "contract": "contracts/CryptoPageNFT.sol:PageNFT",
        "label": "_owners",
        "offset": 0,
        "slot": "2",
        "type": "t_mapping(t_uint256,t_address)"
      },
      {
        "astId": 1217,
        "contract": "contracts/CryptoPageNFT.sol:PageNFT",
        "label": "_balances",
        "offset": 0,
        "slot": "3",
        "type": "t_mapping(t_address,t_uint256)"
      },
      {
        "astId": 1221,
        "contract": "contracts/CryptoPageNFT.sol:PageNFT",
        "label": "_tokenApprovals",
        "offset": 0,
        "slot": "4",
        "type": "t_mapping(t_uint256,t_address)"
      },
      {
        "astId": 1227,
        "contract": "contracts/CryptoPageNFT.sol:PageNFT",
        "label": "_operatorApprovals",
        "offset": 0,
        "slot": "5",
        "type": "t_mapping(t_address,t_mapping(t_address,t_bool))"
      },
      {
        "astId": 2159,
        "contract": "contracts/CryptoPageNFT.sol:PageNFT",
        "label": "_tokenURIs",
        "offset": 0,
        "slot": "6",
        "type": "t_mapping(t_uint256,t_string_storage)"
      },
      {
        "astId": 435,
        "contract": "contracts/CryptoPageNFT.sol:PageNFT",
        "label": "_owner",
        "offset": 0,
        "slot": "7",
        "type": "t_address"
      },
      {
        "astId": 5067,
        "contract": "contracts/CryptoPageNFT.sol:PageNFT",
        "label": "_tokenIdCounter",
        "offset": 0,
        "slot": "8",
        "type": "t_struct(Counter)2626_storage"
      },
      {
        "astId": 5070,
        "contract": "contracts/CryptoPageNFT.sol:PageNFT",
        "label": "token",
        "offset": 0,
        "slot": "9",
        "type": "t_contract(PageToken)5711"
      },
      {
        "astId": 5073,
        "contract": "contracts/CryptoPageNFT.sol:PageNFT",
        "label": "commentMinter",
        "offset": 0,
        "slot": "10",
        "type": "t_contract(PageCommentMinter)5036"
      },
      {
        "astId": 5076,
        "contract": "contracts/CryptoPageNFT.sol:PageNFT",
        "label": "priceFeed",
        "offset": 0,
        "slot": "11",
        "type": "t_contract(AggregatorV3Interface)45"
      },
      {
        "astId": 5079,
        "contract": "contracts/CryptoPageNFT.sol:PageNFT",
        "label": "baseURL",
        "offset": 0,
        "slot": "12",
        "type": "t_string_storage"
      },
      {
        "astId": 5081,
        "contract": "contracts/CryptoPageNFT.sol:PageNFT",
        "label": "treasury",
        "offset": 0,
        "slot": "13",
        "type": "t_address"
      },
      {
        "astId": 5084,
        "contract": "contracts/CryptoPageNFT.sol:PageNFT",
        "label": "fee",
        "offset": 0,
        "slot": "14",
        "type": "t_uint256"
      },
      {
        "astId": 5088,
        "contract": "contracts/CryptoPageNFT.sol:PageNFT",
        "label": "commentsById",
        "offset": 0,
        "slot": "15",
        "type": "t_mapping(t_uint256,t_address)"
      },
      {
        "astId": 5092,
        "contract": "contracts/CryptoPageNFT.sol:PageNFT",
        "label": "pricesById",
        "offset": 0,
        "slot": "16",
        "type": "t_mapping(t_uint256,t_uint256)"
      },
      {
        "astId": 5096,
        "contract": "contracts/CryptoPageNFT.sol:PageNFT",
        "label": "creatorById",
        "offset": 0,
        "slot": "17",
        "type": "t_mapping(t_uint256,t_address)"
      }
    ],
    "types": {
      "t_address": {
        "encoding": "inplace",
        "label": "address",
        "numberOfBytes": "20"
      },
      "t_bool": {
        "encoding": "inplace",
        "label": "bool",
        "numberOfBytes": "1"
      },
      "t_contract(AggregatorV3Interface)45": {
        "encoding": "inplace",
        "label": "contract AggregatorV3Interface",
        "numberOfBytes": "20"
      },
      "t_contract(PageCommentMinter)5036": {
        "encoding": "inplace",
        "label": "contract PageCommentMinter",
        "numberOfBytes": "20"
      },
      "t_contract(PageToken)5711": {
        "encoding": "inplace",
        "label": "contract PageToken",
        "numberOfBytes": "20"
      },
      "t_mapping(t_address,t_bool)": {
        "encoding": "mapping",
        "key": "t_address",
        "label": "mapping(address => bool)",
        "numberOfBytes": "32",
        "value": "t_bool"
      },
      "t_mapping(t_address,t_mapping(t_address,t_bool))": {
        "encoding": "mapping",
        "key": "t_address",
        "label": "mapping(address => mapping(address => bool))",
        "numberOfBytes": "32",
        "value": "t_mapping(t_address,t_bool)"
      },
      "t_mapping(t_address,t_uint256)": {
        "encoding": "mapping",
        "key": "t_address",
        "label": "mapping(address => uint256)",
        "numberOfBytes": "32",
        "value": "t_uint256"
      },
      "t_mapping(t_uint256,t_address)": {
        "encoding": "mapping",
        "key": "t_uint256",
        "label": "mapping(uint256 => address)",
        "numberOfBytes": "32",
        "value": "t_address"
      },
      "t_mapping(t_uint256,t_string_storage)": {
        "encoding": "mapping",
        "key": "t_uint256",
        "label": "mapping(uint256 => string)",
        "numberOfBytes": "32",
        "value": "t_string_storage"
      },
      "t_mapping(t_uint256,t_uint256)": {
        "encoding": "mapping",
        "key": "t_uint256",
        "label": "mapping(uint256 => uint256)",
        "numberOfBytes": "32",
        "value": "t_uint256"
      },
      "t_string_storage": {
        "encoding": "bytes",
        "label": "string",
        "numberOfBytes": "32"
      },
      "t_struct(Counter)2626_storage": {
        "encoding": "inplace",
        "label": "struct Counters.Counter",
        "members": [
          {
            "astId": 2625,
            "contract": "contracts/CryptoPageNFT.sol:PageNFT",
            "label": "_value",
            "offset": 0,
            "slot": "0",
            "type": "t_uint256"
          }
        ],
        "numberOfBytes": "32"
      },
      "t_uint256": {
        "encoding": "inplace",
        "label": "uint256",
        "numberOfBytes": "32"
      }
    }
  }
}