{
  "address": "0x909D1BCFbA91d6EfA2c1C6A2676a429F4987f514",
  "abi": [
    {
      "anonymous": false,
      "inputs": [
        {
          "indexed": true,
          "internalType": "address",
          "name": "previousOwner",
          "type": "address"
        },
        {
          "indexed": true,
          "internalType": "address",
          "name": "newOwner",
          "type": "address"
        }
      ],
      "name": "OwnershipTransferred",
      "type": "event"
    },
    {
      "inputs": [
        {
          "internalType": "address",
          "name": "_nft",
          "type": "address"
        },
        {
          "internalType": "uint256",
          "name": "_tokenId",
          "type": "uint256"
        },
        {
          "internalType": "address",
          "name": "_author",
          "type": "address"
        },
        {
          "internalType": "string",
          "name": "_text",
          "type": "string"
        },
        {
          "internalType": "bool",
          "name": "_like",
          "type": "bool"
        }
      ],
      "name": "createComment",
      "outputs": [],
      "stateMutability": "nonpayable",
      "type": "function"
    },
    {
      "inputs": [
        {
          "internalType": "address",
          "name": "_nft",
          "type": "address"
        },
        {
          "internalType": "uint256",
          "name": "_tokenId",
          "type": "uint256"
        }
      ],
      "name": "getContract",
      "outputs": [
        {
          "internalType": "contract PageComment",
          "name": "",
          "type": "address"
        }
      ],
      "stateMutability": "view",
      "type": "function"
    },
    {
      "inputs": [],
      "name": "getTreasury",
      "outputs": [
        {
          "internalType": "address",
          "name": "",
          "type": "address"
        }
      ],
      "stateMutability": "view",
      "type": "function"
    },
    {
      "inputs": [
        {
          "internalType": "address",
          "name": "_treasury",
          "type": "address"
        },
        {
          "internalType": "address",
          "name": "_token",
          "type": "address"
        }
      ],
      "name": "initialize",
      "outputs": [],
      "stateMutability": "payable",
      "type": "function"
    },
    {
      "inputs": [
        {
          "internalType": "address",
          "name": "_nft",
          "type": "address"
        },
        {
          "internalType": "uint256",
          "name": "_tokenId",
          "type": "uint256"
        }
      ],
      "name": "isExists",
      "outputs": [
        {
          "internalType": "bool",
          "name": "",
          "type": "bool"
        }
      ],
      "stateMutability": "view",
      "type": "function"
    },
    {
      "inputs": [],
      "name": "owner",
      "outputs": [
        {
          "internalType": "address",
          "name": "",
          "type": "address"
        }
      ],
      "stateMutability": "view",
      "type": "function"
    },
    {
      "inputs": [],
      "name": "renounceOwnership",
      "outputs": [],
      "stateMutability": "nonpayable",
      "type": "function"
    },
    {
      "inputs": [
        {
          "internalType": "address",
          "name": "_treasury",
          "type": "address"
        }
      ],
      "name": "setTreasury",
      "outputs": [],
      "stateMutability": "nonpayable",
      "type": "function"
    },
    {
      "inputs": [],
      "name": "token",
      "outputs": [
        {
          "internalType": "contract PageToken",
          "name": "",
          "type": "address"
        }
      ],
      "stateMutability": "view",
      "type": "function"
    },
    {
      "inputs": [
        {
          "internalType": "address",
          "name": "newOwner",
          "type": "address"
        }
      ],
      "name": "transferOwnership",
      "outputs": [],
      "stateMutability": "nonpayable",
      "type": "function"
    },
    {
      "inputs": [],
      "name": "treasury",
      "outputs": [
        {
          "internalType": "address",
          "name": "",
          "type": "address"
        }
      ],
      "stateMutability": "view",
      "type": "function"
    }
  ],
  "transactionHash": "0xa1862d3da703ebf8e0ccb4ae1c338a6d424c1251a437940e5173c47f977bad65",
  "args": [],
  "solcInputHash": "eb7d05d7117e69c836875fcb84676601",
  "bytecode": "0x608060405234801561001057600080fd5b50611e6e806100206000396000f3fe60806040526004361061009c5760003560e01c80638da5cb5b116100645780638da5cb5b14610142578063aad5572614610160578063badf08eb14610180578063f0f44260146101b0578063f2fde38b146101d0578063fc0c546a146101f05761009c565b80633b19e84a146100a15780634845f6ac146100d8578063485cc955146100fa57806361d027b31461010d578063715018a61461012d575b600080fd5b3480156100ad57600080fd5b506067546001600160a01b03165b6040516001600160a01b0390911681526020015b60405180910390f35b3480156100e457600080fd5b506100f86100f3366004610cf5565b610210565b005b6100f8610108366004610c92565b610651565b34801561011957600080fd5b506067546100bb906001600160a01b031681565b34801561013957600080fd5b506100f861074d565b34801561014e57600080fd5b506033546001600160a01b03166100bb565b34801561016c57600080fd5b506100bb61017b366004610cca565b610783565b34801561018c57600080fd5b506101a061019b366004610cca565b6107ee565b60405190151581526020016100cf565b3480156101bc57600080fd5b506100f86101cb366004610c5a565b6107fa565b3480156101dc57600080fd5b506100f86101eb366004610c5a565b6108a8565b3480156101fc57600080fd5b506066546100bb906001600160a01b031681565b600061033a600461032e6005610334606660009054906101000a90046001600160a01b03166001600160a01b03166336ab348a6040518163ffffffff1660e01b815260040160206040518083038186803b15801561026d57600080fd5b505afa158015610281573d6000803e3d6000fd5b505050506040513d601f19601f820116820180604052508101906102a59190610de0565b60665460408051630c2e39a160e11b8152905161032e926001600160a01b03169163185c7342916004808301926020929190829003018186803b1580156102eb57600080fd5b505afa1580156102ff573d6000803e3d6000fd5b505050506040513d601f19601f820116820180604052508101906103239190610de0565b61032e3a5a90610943565b90610943565b9061094f565b90506000610348878761095b565b905080156103e15761035a878761097d565b6001600160a01b0316639a60057e8686866040518463ffffffff1660e01b815260040161038993929190610df8565b602060405180830381600087803b1580156103a357600080fd5b505af11580156103b7573d6000803e3d6000fd5b505050506040513d601f19601f820116820180604052508101906103db9190610de0565b5061046e565b6103eb878761099f565b6001600160a01b0316639a60057e8686866040518463ffffffff1660e01b815260040161041a93929190610df8565b602060405180830381600087803b15801561043457600080fd5b505af1158015610448573d6000803e3d6000fd5b505050506040513d601f19601f8201168201806040525081019061046c9190610de0565b505b6000610480602d61032e85606461094f565b9050600061048e84836109f9565b6066546040516340c10f1960e01b8152336004820152602481018590529192508a916001600160a01b03909116906340c10f1990604401600060405180830381600087803b1580156104df57600080fd5b505af11580156104f3573d6000803e3d6000fd5b50506066546040516331a9108f60e11b8152600481018d90526001600160a01b0391821693506340c10f19925090841690636352211e9060240160206040518083038186803b15801561054557600080fd5b505afa158015610559573d6000803e3d6000fd5b505050506040513d601f19601f8201168201806040525081019061057d9190610c76565b6040516001600160e01b031960e084901b1681526001600160a01b03909116600482015260248101869052604401600060405180830381600087803b1580156105c557600080fd5b505af11580156105d9573d6000803e3d6000fd5b50506066546067546040516340c10f1960e01b81526001600160a01b03918216600482015260248101879052911692506340c10f199150604401600060405180830381600087803b15801561062d57600080fd5b505af1158015610641573d6000803e3d6000fd5b5050505050505050505050505050565b600054610100900460ff1661066c5760005460ff1615610674565b610674610a05565b6106dc5760405162461bcd60e51b815260206004820152602e60248201527f496e697469616c697a61626c653a20636f6e747261637420697320616c72656160448201526d191e481a5b9a5d1a585b1a5e995960921b60648201526084015b60405180910390fd5b600054610100900460ff161580156106fe576000805461ffff19166101011790555b606780546001600160a01b038086166001600160a01b0319928316179092556066805492851692909116919091179055610736610a16565b8015610748576000805461ff00191690555b505050565b6033546001600160a01b031633146107775760405162461bcd60e51b81526004016106d390610e63565b6107816000610a4d565b565b600061078f838361095b565b6107db5760405162461bcd60e51b815260206004820152601b60248201527f4e465420636f6e747261637420646f6573206e6f74206578697374000000000060448201526064016106d3565b6107e5838361097d565b90505b92915050565b60006107e5838361095b565b6033546001600160a01b031633146108245760405162461bcd60e51b81526004016106d390610e63565b6001600160a01b0381166108865760405162461bcd60e51b815260206004820152602360248201527f7365745472656173757279416464726573733a206973207a65726f206164647260448201526265737360e81b60648201526084016106d3565b606780546001600160a01b0319166001600160a01b0392909216919091179055565b6033546001600160a01b031633146108d25760405162461bcd60e51b81526004016106d390610e63565b6001600160a01b0381166109375760405162461bcd60e51b815260206004820152602660248201527f4f776e61626c653a206e6577206f776e657220697320746865207a65726f206160448201526564647265737360d01b60648201526084016106d3565b61094081610a4d565b50565b60006107e58284610f03565b60006107e58284610ee3565b6001600160a01b03821660009081526065602052604081206107e59083610a9f565b6001600160a01b03821660009081526065602052604081206107e59083610aab565b6000806040516109ae90610c3d565b604051809103906000f0801580156109ca573d6000803e3d6000fd5b506001600160a01b03851660009081526065602052604090209091506109f1908483610ab7565b509392505050565b60006107e58284610f22565b6000610a1030610ad5565b15905090565b600054610100900460ff16610a3d5760405162461bcd60e51b81526004016106d390610e98565b610a45610adf565b610781610b06565b603380546001600160a01b038381166001600160a01b0319831681179093556040519116919082907f8be0079c531659141344cd1fd0a4f28419497f9722a3daafe3b4186f6b6457e090600090a35050565b60006107e58383610b36565b60006107e58383610b42565b6000610acd84846001600160a01b038516610bb2565b949350505050565b803b15155b919050565b600054610100900460ff166107815760405162461bcd60e51b81526004016106d390610e98565b600054610100900460ff16610b2d5760405162461bcd60e51b81526004016106d390610e98565b61078133610a4d565b60006107e58383610bcf565b600081815260028301602052604081205480151580610b665750610b668484610b36565b6107e55760405162461bcd60e51b815260206004820152601e60248201527f456e756d657261626c654d61703a206e6f6e6578697374656e74206b6579000060448201526064016106d3565b60008281526002840160205260408120829055610acd8484610be7565b600081815260018301602052604081205415156107e5565b60006107e583836000818152600183016020526040812054610c35575081546001818101845560008481526020808220909301849055845484825282860190935260409020919091556107e8565b5060006107e8565b610ebe80610f7b83390190565b80358015158114610ada57600080fd5b600060208284031215610c6b578081fd5b81356107e581610f65565b600060208284031215610c87578081fd5b81516107e581610f65565b60008060408385031215610ca4578081fd5b8235610caf81610f65565b91506020830135610cbf81610f65565b809150509250929050565b60008060408385031215610cdc578182fd5b8235610ce781610f65565b946020939093013593505050565b600080600080600060a08688031215610d0c578081fd5b8535610d1781610f65565b9450602086013593506040860135610d2e81610f65565b9250606086013567ffffffffffffffff80821115610d4a578283fd5b818801915088601f830112610d5d578283fd5b813581811115610d6f57610d6f610f4f565b604051601f8201601f19908116603f01168101908382118183101715610d9757610d97610f4f565b816040528281528b6020848701011115610daf578586fd5b82602086016020830137918201602001859052509350610dd491505060808701610c4a565b90509295509295909350565b600060208284031215610df1578081fd5b5051919050565b600060018060a01b038516825260206060818401528451806060850152825b81811015610e3357868101830151858201608001528201610e17565b81811115610e445783608083870101525b5093151560408401525050601f91909101601f19160160800192915050565b6020808252818101527f4f776e61626c653a2063616c6c6572206973206e6f7420746865206f776e6572604082015260600190565b6020808252602b908201527f496e697469616c697a61626c653a20636f6e7472616374206973206e6f74206960408201526a6e697469616c697a696e6760a81b606082015260800190565b600082610efe57634e487b7160e01b81526012600452602481fd5b500490565b6000816000190483118215151615610f1d57610f1d610f39565b500290565b600082821015610f3457610f34610f39565b500390565b634e487b7160e01b600052601160045260246000fd5b634e487b7160e01b600052604160045260246000fd5b6001600160a01b038116811461094057600080fdfe608060405234801561001057600080fd5b50610e9e806100206000396000f3fe608060405234801561001057600080fd5b50600436106100935760003560e01c806391f3410c1161006657806391f3410c14610119578063989c1a7b146101215780639a60057e14610139578063be60741e1461015a578063c0e7c32d1461016d57610093565b8063360d03a11461009857806365b174e9146100c15780636c43dbb4146100e45780638ebed2e814610104575b600080fd5b6100ab6100a6366004610b0a565b610191565b6040516100b89190610cbf565b60405180910390f35b6100c96104bd565b604080519384526020840192909252908201526060016100b8565b6100f76100f2366004610bb2565b6104de565b6040516100b89190610d16565b61010c61061d565b6040516100b89190610cd2565b6100ab610675565b6101296106e3565b6040516100b89493929190610d67565b61014c610147366004610a4f565b610711565b6040519081526020016100b8565b61014c610168366004610bb2565b610872565b61018061017b366004610bb2565b610893565b6040516100b8959493929190610d29565b606060008251116101f45760405162461bcd60e51b815260206004820152602260248201527f5f696473206c656e677468206d757374206265206d6f7265207468616e207a65604482015261726f60f01b60648201526084015b60405180910390fd5b6000548251111561025d5760405162461bcd60e51b815260206004820152602d60248201527f5f696473206c656e677468206d757374206265206c657373206f72206571756160448201526c6c20636f6d6d656e747349647360981b60648201526084016101eb565b6000825167ffffffffffffffff81111561028757634e487b7160e01b600052604160045260246000fd5b6040519080825280602002602001820160405280156102c057816020015b6102ad61096c565b8152602001906001900390816102a55790505b50905060005b83518110156104b45760005484518590839081106102f457634e487b7160e01b600052603260045260246000fd5b602002602001015111156103445760405162461bcd60e51b8152602060048201526017602482015276139bc818dbdb5b595b9d081dda5d1a081d1a1a5cc81251604a1b60448201526064016101eb565b60006001600086848151811061036a57634e487b7160e01b600052603260045260246000fd5b602002602001015181526020019081526020016000209050806040518060a0016040529081600082015481526020016001820160009054906101000a90046001600160a01b03166001600160a01b03166001600160a01b031681526020016002820180546103d790610de6565b80601f016020809104026020016040519081016040528092919081815260200182805461040390610de6565b80156104505780601f1061042557610100808354040283529160200191610450565b820191906000526020600020905b81548152906001019060200180831161043357829003601f168201915b5050509183525050600382015460ff1615156020820152600490910154604090910152835184908490811061049557634e487b7160e01b600052603260045260246000fd5b60200260200101819052505080806104ac90610e21565b9150506102c6565b5090505b919050565b6000805490806104cc60025490565b91506104d760035490565b9050909192565b6104e661096c565b6000548211156105325760405162461bcd60e51b8152602060048201526017602482015276139bc818dbdb5b595b9d081dda5d1a081d1a1a5cc81251604a1b60448201526064016101eb565b600082815260016020818152604092839020835160a08101855281548152928101546001600160a01b031691830191909152600281018054929391929184019161057b90610de6565b80601f01602080910402602001604051908101604052809291908181526020018280546105a790610de6565b80156105f45780601f106105c9576101008083540402835291602001916105f4565b820191906000526020600020905b8154815290600101906020018083116105d757829003601f168201915b5050509183525050600382015460ff161515602082015260049091015460409091015292915050565b6060600080548060200260200160405190810160405280929190818152602001828054801561066b57602002820191906000526020600020905b815481526020019060010190808311610657575b5050505050905090565b6000546060908190156106de576106db60008054806020026020016040519081016040528092919081815260200182805480156106d157602002820191906000526020600020905b8154815260200190600101908083116106bd575b5050505050610191565b90505b905090565b60008054908060606106f460025490565b92506106ff60035490565b9150610709610675565b905090919293565b60008061071f3a5a90610959565b60008054600180820183557f290decd9548b62a8d60345a988386fc84ba6bc95484008f6362f93160ef3e56382018290556040805160a0810182528381526001600160a01b038b811660208084019182528385018d81528c15156060860152608085018990528789528682529490972083518155905194810180546001600160a01b03191695909216949094179055905180519596509294909391926107cc9260028501929101906109a6565b50606082015160038201805460ff1916911515919091179055608090910151600491820155600082815260016020526040902001829055831561081c57610817600280546001019055565b61082a565b61082a600380546001019055565b7f5df053adf33c5a266548317c9343442cbf99e989cb036ac715347cb9245f136d8187878786604051610861959493929190610d29565b60405180910390a195945050505050565b6000818154811061088257600080fd5b600091825260209091200154905081565b60016020819052600091825260409091208054918101546002820180546001600160a01b0390921692916108c690610de6565b80601f01602080910402602001604051908101604052809291908181526020018280546108f290610de6565b801561093f5780601f106109145761010080835404028352916020019161093f565b820191906000526020600020905b81548152906001019060200180831161092257829003601f168201915b505050506003830154600490930154919260ff1691905085565b60006109658284610dc7565b9392505050565b6040518060a001604052806000815260200160006001600160a01b0316815260200160608152602001600015158152602001600081525090565b8280546109b290610de6565b90600052602060002090601f0160209004810192826109d45760008555610a1a565b82601f106109ed57805160ff1916838001178555610a1a565b82800160010185558215610a1a579182015b82811115610a1a5782518255916020019190600101906109ff565b50610a26929150610a2a565b5090565b5b80821115610a265760008155600101610a2b565b803580151581146104b857600080fd5b600080600060608486031215610a63578283fd5b83356001600160a01b0381168114610a79578384fd5b925060208481013567ffffffffffffffff80821115610a96578485fd5b818701915087601f830112610aa9578485fd5b813581811115610abb57610abb610e52565b610acd601f8201601f19168501610d96565b91508082528884828501011115610ae2578586fd5b80848401858401378101909201939093529150610b0160408501610a3f565b90509250925092565b60006020808385031215610b1c578182fd5b823567ffffffffffffffff80821115610b33578384fd5b818501915085601f830112610b46578384fd5b813581811115610b5857610b58610e52565b8060051b9150610b69848301610d96565b8181528481019084860184860187018a1015610b83578788fd5b8795505b83861015610ba5578035835260019590950194918601918601610b87565b5098975050505050505050565b600060208284031215610bc3578081fd5b5035919050565b600082825180855260208086019550808260051b840101818601855b84811015610c1457601f19868403018952610c02838351610c6c565b98840198925090830190600101610be6565b5090979650505050505050565b60008151808452815b81811015610c4657602081850181015186830182015201610c2a565b81811115610c575782602083870101525b50601f01601f19169290920160200192915050565b60008151835260018060a01b036020830151166020840152604082015160a06040850152610c9d60a0850182610c21565b9050606083015115156060850152608083015160808501528091505092915050565b6000602082526109656020830184610bca565b6020808252825182820181905260009190848201906040850190845b81811015610d0a57835183529284019291840191600101610cee565b50909695505050505050565b6000602082526109656020830184610c6c565b8581526001600160a01b038516602082015260a060408201819052600090610d5390830186610c21565b931515606083015250608001529392505050565b600085825284602083015283604083015260806060830152610d8c6080830184610bca565b9695505050505050565b604051601f8201601f1916810167ffffffffffffffff81118282101715610dbf57610dbf610e52565b604052919050565b6000816000190483118215151615610de157610de1610e3c565b500290565b600181811c90821680610dfa57607f821691505b60208210811415610e1b57634e487b7160e01b600052602260045260246000fd5b50919050565b6000600019821415610e3557610e35610e3c565b5060010190565b634e487b7160e01b600052601160045260246000fd5b634e487b7160e01b600052604160045260246000fdfea264697066735822122040046a6229e0293061a2e1e867d87334040d87b0e528812e8d2ccde3b96dec4e64736f6c63430008030033a26469706673582212206a466956eb114dad611b99f03181dc40d8bd56fb190225b6a846fde83aa8380b64736f6c63430008030033",
  "devdoc": {
    "kind": "dev",
    "methods": {
      "owner()": {
        "details": "Returns the address of the current owner."
      },
      "renounceOwnership()": {
        "details": "Leaves the contract without owner. It will not be possible to call `onlyOwner` functions anymore. Can only be called by the current owner. NOTE: Renouncing ownership will leave the contract without an owner, thereby removing any functionality that is only available to the owner."
      },
      "transferOwnership(address)": {
        "details": "Transfers ownership of the contract to a new account (`newOwner`). Can only be called by the current owner."
      }
    },
    "version": 1
  },
  "userdoc": {
    "kind": "user",
    "methods": {},
    "version": 1
  },
  "storageLayout": {
    "storage": [
      {
        "astId": 542,
        "contract": "contracts/CryptoPageCommentMinter.sol:PageCommentMinter",
        "label": "_initialized",
        "offset": 0,
        "slot": "0",
        "type": "t_bool"
      },
      {
        "astId": 545,
        "contract": "contracts/CryptoPageCommentMinter.sol:PageCommentMinter",
        "label": "_initializing",
        "offset": 1,
        "slot": "0",
        "type": "t_bool"
      },
      {
        "astId": 2751,
        "contract": "contracts/CryptoPageCommentMinter.sol:PageCommentMinter",
        "label": "__gap",
        "offset": 0,
        "slot": "1",
        "type": "t_array(t_uint256)50_storage"
      },
      {
        "astId": 420,
        "contract": "contracts/CryptoPageCommentMinter.sol:PageCommentMinter",
        "label": "_owner",
        "offset": 0,
        "slot": "51",
        "type": "t_address"
      },
      {
        "astId": 534,
        "contract": "contracts/CryptoPageCommentMinter.sol:PageCommentMinter",
        "label": "__gap",
        "offset": 0,
        "slot": "52",
        "type": "t_array(t_uint256)49_storage"
      },
      {
        "astId": 5603,
        "contract": "contracts/CryptoPageCommentMinter.sol:PageCommentMinter",
        "label": "commentsByERC721",
        "offset": 0,
        "slot": "101",
        "type": "t_mapping(t_address,t_struct(UintToAddressMap)3645_storage)"
      },
      {
        "astId": 5606,
        "contract": "contracts/CryptoPageCommentMinter.sol:PageCommentMinter",
        "label": "token",
        "offset": 0,
        "slot": "102",
        "type": "t_contract(PageToken)6636"
      },
      {
        "astId": 5608,
        "contract": "contracts/CryptoPageCommentMinter.sol:PageCommentMinter",
        "label": "treasury",
        "offset": 0,
        "slot": "103",
        "type": "t_address"
      }
    ],
    "types": {
      "t_address": {
        "encoding": "inplace",
        "label": "address",
        "numberOfBytes": "20"
      },
      "t_array(t_bytes32)dyn_storage": {
        "base": "t_bytes32",
        "encoding": "dynamic_array",
        "label": "bytes32[]",
        "numberOfBytes": "32"
      },
      "t_array(t_uint256)49_storage": {
        "base": "t_uint256",
        "encoding": "inplace",
        "label": "uint256[49]",
        "numberOfBytes": "1568"
      },
      "t_array(t_uint256)50_storage": {
        "base": "t_uint256",
        "encoding": "inplace",
        "label": "uint256[50]",
        "numberOfBytes": "1600"
      },
      "t_bool": {
        "encoding": "inplace",
        "label": "bool",
        "numberOfBytes": "1"
      },
      "t_bytes32": {
        "encoding": "inplace",
        "label": "bytes32",
        "numberOfBytes": "32"
      },
      "t_contract(PageToken)6636": {
        "encoding": "inplace",
        "label": "contract PageToken",
        "numberOfBytes": "20"
      },
      "t_mapping(t_address,t_struct(UintToAddressMap)3645_storage)": {
        "encoding": "mapping",
        "key": "t_address",
        "label": "mapping(address => struct EnumerableMapUpgradeable.UintToAddressMap)",
        "numberOfBytes": "32",
        "value": "t_struct(UintToAddressMap)3645_storage"
      },
      "t_mapping(t_bytes32,t_bytes32)": {
        "encoding": "mapping",
        "key": "t_bytes32",
        "label": "mapping(bytes32 => bytes32)",
        "numberOfBytes": "32",
        "value": "t_bytes32"
      },
      "t_mapping(t_bytes32,t_uint256)": {
        "encoding": "mapping",
        "key": "t_bytes32",
        "label": "mapping(bytes32 => uint256)",
        "numberOfBytes": "32",
        "value": "t_uint256"
      },
      "t_struct(Bytes32Set)4084_storage": {
        "encoding": "inplace",
        "label": "struct EnumerableSetUpgradeable.Bytes32Set",
        "members": [
          {
            "astId": 4083,
            "contract": "contracts/CryptoPageCommentMinter.sol:PageCommentMinter",
            "label": "_inner",
            "offset": 0,
            "slot": "0",
            "type": "t_struct(Set)3890_storage"
          }
        ],
        "numberOfBytes": "64"
      },
      "t_struct(Map)3415_storage": {
        "encoding": "inplace",
        "label": "struct EnumerableMapUpgradeable.Map",
        "members": [
          {
            "astId": 3410,
            "contract": "contracts/CryptoPageCommentMinter.sol:PageCommentMinter",
            "label": "_keys",
            "offset": 0,
            "slot": "0",
            "type": "t_struct(Bytes32Set)4084_storage"
          },
          {
            "astId": 3414,
            "contract": "contracts/CryptoPageCommentMinter.sol:PageCommentMinter",
            "label": "_values",
            "offset": 0,
            "slot": "2",
            "type": "t_mapping(t_bytes32,t_bytes32)"
          }
        ],
        "numberOfBytes": "96"
      },
      "t_struct(Set)3890_storage": {
        "encoding": "inplace",
        "label": "struct EnumerableSetUpgradeable.Set",
        "members": [
          {
            "astId": 3885,
            "contract": "contracts/CryptoPageCommentMinter.sol:PageCommentMinter",
            "label": "_values",
            "offset": 0,
            "slot": "0",
            "type": "t_array(t_bytes32)dyn_storage"
          },
          {
            "astId": 3889,
            "contract": "contracts/CryptoPageCommentMinter.sol:PageCommentMinter",
            "label": "_indexes",
            "offset": 0,
            "slot": "1",
            "type": "t_mapping(t_bytes32,t_uint256)"
          }
        ],
        "numberOfBytes": "64"
      },
      "t_struct(UintToAddressMap)3645_storage": {
        "encoding": "inplace",
        "label": "struct EnumerableMapUpgradeable.UintToAddressMap",
        "members": [
          {
            "astId": 3644,
            "contract": "contracts/CryptoPageCommentMinter.sol:PageCommentMinter",
            "label": "_inner",
            "offset": 0,
            "slot": "0",
            "type": "t_struct(Map)3415_storage"
          }
        ],
        "numberOfBytes": "96"
      },
      "t_uint256": {
        "encoding": "inplace",
        "label": "uint256",
        "numberOfBytes": "32"
      }
    }
  }
}