{
  "_format": "hh-sol-artifact-1",
  "contractName": "PageComment",
  "sourceName": "contracts/CryptoPageComment.sol",
  "abi": [
    {
      "anonymous": false,
      "inputs": [
        {
          "indexed": false,
          "internalType": "uint256",
          "name": "id",
          "type": "uint256"
        },
        {
          "indexed": false,
          "internalType": "address",
          "name": "author",
          "type": "address"
        },
        {
          "indexed": false,
          "internalType": "string",
          "name": "text",
          "type": "string"
        },
        {
          "indexed": false,
          "internalType": "bool",
          "name": "like",
          "type": "bool"
        },
        {
          "indexed": false,
          "internalType": "uint256",
          "name": "price",
          "type": "uint256"
        }
      ],
      "name": "NewComment",
      "type": "event"
    },
    {
      "inputs": [
        {
          "internalType": "uint256",
          "name": "",
          "type": "uint256"
        }
      ],
      "name": "commentsById",
      "outputs": [
        {
          "internalType": "uint256",
          "name": "id",
          "type": "uint256"
        },
        {
          "internalType": "address",
          "name": "author",
          "type": "address"
        },
        {
          "internalType": "string",
          "name": "text",
          "type": "string"
        },
        {
          "internalType": "bool",
          "name": "like",
          "type": "bool"
        },
        {
          "internalType": "uint256",
          "name": "price",
          "type": "uint256"
        }
      ],
      "stateMutability": "view",
      "type": "function"
    },
    {
      "inputs": [
        {
          "internalType": "uint256",
          "name": "",
          "type": "uint256"
        }
      ],
      "name": "commentsIds",
      "outputs": [
        {
          "internalType": "uint256",
          "name": "",
          "type": "uint256"
        }
      ],
      "stateMutability": "view",
      "type": "function"
    },
    {
      "inputs": [
        {
          "internalType": "address",
          "name": "author",
          "type": "address"
        },
        {
          "internalType": "string",
          "name": "text",
          "type": "string"
        },
        {
          "internalType": "bool",
          "name": "like",
          "type": "bool"
        }
      ],
      "name": "createComment",
      "outputs": [
        {
          "internalType": "uint256",
          "name": "",
          "type": "uint256"
        }
      ],
      "stateMutability": "nonpayable",
      "type": "function"
    },
    {
      "inputs": [
        {
          "internalType": "uint256",
          "name": "id",
          "type": "uint256"
        }
      ],
      "name": "getCommentById",
      "outputs": [
        {
          "components": [
            {
              "internalType": "uint256",
              "name": "id",
              "type": "uint256"
            },
            {
              "internalType": "address",
              "name": "author",
              "type": "address"
            },
            {
              "internalType": "string",
              "name": "text",
              "type": "string"
            },
            {
              "internalType": "bool",
              "name": "like",
              "type": "bool"
            },
            {
              "internalType": "uint256",
              "name": "price",
              "type": "uint256"
            }
          ],
          "internalType": "struct PageComment.Comment",
          "name": "",
          "type": "tuple"
        }
      ],
      "stateMutability": "view",
      "type": "function"
    },
    {
      "inputs": [],
      "name": "getComments",
      "outputs": [
        {
          "components": [
            {
              "internalType": "uint256",
              "name": "id",
              "type": "uint256"
            },
            {
              "internalType": "address",
              "name": "author",
              "type": "address"
            },
            {
              "internalType": "string",
              "name": "text",
              "type": "string"
            },
            {
              "internalType": "bool",
              "name": "like",
              "type": "bool"
            },
            {
              "internalType": "uint256",
              "name": "price",
              "type": "uint256"
            }
          ],
          "internalType": "struct PageComment.Comment[]",
          "name": "",
          "type": "tuple[]"
        }
      ],
      "stateMutability": "view",
      "type": "function"
    },
    {
      "inputs": [
        {
          "internalType": "uint256[]",
          "name": "_ids",
          "type": "uint256[]"
        }
      ],
      "name": "getCommentsByIds",
      "outputs": [
        {
          "components": [
            {
              "internalType": "uint256",
              "name": "id",
              "type": "uint256"
            },
            {
              "internalType": "address",
              "name": "author",
              "type": "address"
            },
            {
              "internalType": "string",
              "name": "text",
              "type": "string"
            },
            {
              "internalType": "bool",
              "name": "like",
              "type": "bool"
            },
            {
              "internalType": "uint256",
              "name": "price",
              "type": "uint256"
            }
          ],
          "internalType": "struct PageComment.Comment[]",
          "name": "",
          "type": "tuple[]"
        }
      ],
      "stateMutability": "view",
      "type": "function"
    },
    {
      "inputs": [],
      "name": "getCommentsIds",
      "outputs": [
        {
          "internalType": "uint256[]",
          "name": "",
          "type": "uint256[]"
        }
      ],
      "stateMutability": "view",
      "type": "function"
    },
    {
      "inputs": [],
      "name": "getStatistic",
      "outputs": [
        {
          "internalType": "uint256",
          "name": "total",
          "type": "uint256"
        },
        {
          "internalType": "uint256",
          "name": "likes",
          "type": "uint256"
        },
        {
          "internalType": "uint256",
          "name": "dislikes",
          "type": "uint256"
        }
      ],
      "stateMutability": "view",
      "type": "function"
    },
    {
      "inputs": [],
      "name": "getStatisticWithComments",
      "outputs": [
        {
          "internalType": "uint256",
          "name": "total",
          "type": "uint256"
        },
        {
          "internalType": "uint256",
          "name": "likes",
          "type": "uint256"
        },
        {
          "internalType": "uint256",
          "name": "dislikes",
          "type": "uint256"
        },
        {
          "components": [
            {
              "internalType": "uint256",
              "name": "id",
              "type": "uint256"
            },
            {
              "internalType": "address",
              "name": "author",
              "type": "address"
            },
            {
              "internalType": "string",
              "name": "text",
              "type": "string"
            },
            {
              "internalType": "bool",
              "name": "like",
              "type": "bool"
            },
            {
              "internalType": "uint256",
              "name": "price",
              "type": "uint256"
            }
          ],
          "internalType": "struct PageComment.Comment[]",
          "name": "comments",
          "type": "tuple[]"
        }
      ],
      "stateMutability": "view",
      "type": "function"
    }
  ],
  "bytecode": "0x608060405234801561001057600080fd5b50610e9e806100206000396000f3fe608060405234801561001057600080fd5b50600436106100935760003560e01c806391f3410c1161006657806391f3410c14610119578063989c1a7b146101215780639a60057e14610139578063be60741e1461015a578063c0e7c32d1461016d57610093565b8063360d03a11461009857806365b174e9146100c15780636c43dbb4146100e45780638ebed2e814610104575b600080fd5b6100ab6100a6366004610b0a565b610191565b6040516100b89190610cbf565b60405180910390f35b6100c96104bd565b604080519384526020840192909252908201526060016100b8565b6100f76100f2366004610bb2565b6104de565b6040516100b89190610d16565b61010c61061d565b6040516100b89190610cd2565b6100ab610675565b6101296106e3565b6040516100b89493929190610d67565b61014c610147366004610a4f565b610711565b6040519081526020016100b8565b61014c610168366004610bb2565b610872565b61018061017b366004610bb2565b610893565b6040516100b8959493929190610d29565b606060008251116101f45760405162461bcd60e51b815260206004820152602260248201527f5f696473206c656e677468206d757374206265206d6f7265207468616e207a65604482015261726f60f01b60648201526084015b60405180910390fd5b6000548251111561025d5760405162461bcd60e51b815260206004820152602d60248201527f5f696473206c656e677468206d757374206265206c657373206f72206571756160448201526c6c20636f6d6d656e747349647360981b60648201526084016101eb565b6000825167ffffffffffffffff81111561028757634e487b7160e01b600052604160045260246000fd5b6040519080825280602002602001820160405280156102c057816020015b6102ad61096c565b8152602001906001900390816102a55790505b50905060005b83518110156104b45760005484518590839081106102f457634e487b7160e01b600052603260045260246000fd5b602002602001015111156103445760405162461bcd60e51b8152602060048201526017602482015276139bc818dbdb5b595b9d081dda5d1a081d1a1a5cc81251604a1b60448201526064016101eb565b60006001600086848151811061036a57634e487b7160e01b600052603260045260246000fd5b602002602001015181526020019081526020016000209050806040518060a0016040529081600082015481526020016001820160009054906101000a90046001600160a01b03166001600160a01b03166001600160a01b031681526020016002820180546103d790610de6565b80601f016020809104026020016040519081016040528092919081815260200182805461040390610de6565b80156104505780601f1061042557610100808354040283529160200191610450565b820191906000526020600020905b81548152906001019060200180831161043357829003601f168201915b5050509183525050600382015460ff1615156020820152600490910154604090910152835184908490811061049557634e487b7160e01b600052603260045260246000fd5b60200260200101819052505080806104ac90610e21565b9150506102c6565b5090505b919050565b6000805490806104cc60025490565b91506104d760035490565b9050909192565b6104e661096c565b6000548211156105325760405162461bcd60e51b8152602060048201526017602482015276139bc818dbdb5b595b9d081dda5d1a081d1a1a5cc81251604a1b60448201526064016101eb565b600082815260016020818152604092839020835160a08101855281548152928101546001600160a01b031691830191909152600281018054929391929184019161057b90610de6565b80601f01602080910402602001604051908101604052809291908181526020018280546105a790610de6565b80156105f45780601f106105c9576101008083540402835291602001916105f4565b820191906000526020600020905b8154815290600101906020018083116105d757829003601f168201915b5050509183525050600382015460ff161515602082015260049091015460409091015292915050565b6060600080548060200260200160405190810160405280929190818152602001828054801561066b57602002820191906000526020600020905b815481526020019060010190808311610657575b5050505050905090565b6000546060908190156106de576106db60008054806020026020016040519081016040528092919081815260200182805480156106d157602002820191906000526020600020905b8154815260200190600101908083116106bd575b5050505050610191565b90505b905090565b60008054908060606106f460025490565b92506106ff60035490565b9150610709610675565b905090919293565b60008061071f3a5a90610959565b60008054600180820183557f290decd9548b62a8d60345a988386fc84ba6bc95484008f6362f93160ef3e56382018290556040805160a0810182528381526001600160a01b038b811660208084019182528385018d81528c15156060860152608085018990528789528682529490972083518155905194810180546001600160a01b03191695909216949094179055905180519596509294909391926107cc9260028501929101906109a6565b50606082015160038201805460ff1916911515919091179055608090910151600491820155600082815260016020526040902001829055831561081c57610817600280546001019055565b61082a565b61082a600380546001019055565b7f5df053adf33c5a266548317c9343442cbf99e989cb036ac715347cb9245f136d8187878786604051610861959493929190610d29565b60405180910390a195945050505050565b6000818154811061088257600080fd5b600091825260209091200154905081565b60016020819052600091825260409091208054918101546002820180546001600160a01b0390921692916108c690610de6565b80601f01602080910402602001604051908101604052809291908181526020018280546108f290610de6565b801561093f5780601f106109145761010080835404028352916020019161093f565b820191906000526020600020905b81548152906001019060200180831161092257829003601f168201915b505050506003830154600490930154919260ff1691905085565b60006109658284610dc7565b9392505050565b6040518060a001604052806000815260200160006001600160a01b0316815260200160608152602001600015158152602001600081525090565b8280546109b290610de6565b90600052602060002090601f0160209004810192826109d45760008555610a1a565b82601f106109ed57805160ff1916838001178555610a1a565b82800160010185558215610a1a579182015b82811115610a1a5782518255916020019190600101906109ff565b50610a26929150610a2a565b5090565b5b80821115610a265760008155600101610a2b565b803580151581146104b857600080fd5b600080600060608486031215610a63578283fd5b83356001600160a01b0381168114610a79578384fd5b925060208481013567ffffffffffffffff80821115610a96578485fd5b818701915087601f830112610aa9578485fd5b813581811115610abb57610abb610e52565b610acd601f8201601f19168501610d96565b91508082528884828501011115610ae2578586fd5b80848401858401378101909201939093529150610b0160408501610a3f565b90509250925092565b60006020808385031215610b1c578182fd5b823567ffffffffffffffff80821115610b33578384fd5b818501915085601f830112610b46578384fd5b813581811115610b5857610b58610e52565b8060051b9150610b69848301610d96565b8181528481019084860184860187018a1015610b83578788fd5b8795505b83861015610ba5578035835260019590950194918601918601610b87565b5098975050505050505050565b600060208284031215610bc3578081fd5b5035919050565b600082825180855260208086019550808260051b840101818601855b84811015610c1457601f19868403018952610c02838351610c6c565b98840198925090830190600101610be6565b5090979650505050505050565b60008151808452815b81811015610c4657602081850181015186830182015201610c2a565b81811115610c575782602083870101525b50601f01601f19169290920160200192915050565b60008151835260018060a01b036020830151166020840152604082015160a06040850152610c9d60a0850182610c21565b9050606083015115156060850152608083015160808501528091505092915050565b6000602082526109656020830184610bca565b6020808252825182820181905260009190848201906040850190845b81811015610d0a57835183529284019291840191600101610cee565b50909695505050505050565b6000602082526109656020830184610c6c565b8581526001600160a01b038516602082015260a060408201819052600090610d5390830186610c21565b931515606083015250608001529392505050565b600085825284602083015283604083015260806060830152610d8c6080830184610bca565b9695505050505050565b604051601f8201601f1916810167ffffffffffffffff81118282101715610dbf57610dbf610e52565b604052919050565b6000816000190483118215151615610de157610de1610e3c565b500290565b600181811c90821680610dfa57607f821691505b60208210811415610e1b57634e487b7160e01b600052602260045260246000fd5b50919050565b6000600019821415610e3557610e35610e3c565b5060010190565b634e487b7160e01b600052601160045260246000fd5b634e487b7160e01b600052604160045260246000fdfea264697066735822122040046a6229e0293061a2e1e867d87334040d87b0e528812e8d2ccde3b96dec4e64736f6c63430008030033",
  "linkReferences": {},
  "deployedLinkReferences": {}
}