{
  "address": "0xC184bAE4Ca8c60f0a1F114539AFA7714b431C17d",
  "abi": [
    {
      "inputs": [
        {
          "internalType": "address",
          "name": "_treasury",
          "type": "address"
        },
        {
          "internalType": "address",
          "name": "_token",
          "type": "address"
        }
      ],
      "stateMutability": "nonpayable",
      "type": "constructor"
    },
    {
      "anonymous": false,
      "inputs": [
        {
          "indexed": true,
          "internalType": "address",
          "name": "previousOwner",
          "type": "address"
        },
        {
          "indexed": true,
          "internalType": "address",
          "name": "newOwner",
          "type": "address"
        }
      ],
      "name": "OwnershipTransferred",
      "type": "event"
    },
    {
      "inputs": [
        {
          "internalType": "address",
          "name": "_nft",
          "type": "address"
        },
        {
          "internalType": "uint256",
          "name": "_tokenId",
          "type": "uint256"
        },
        {
          "internalType": "address",
          "name": "_author",
          "type": "address"
        },
        {
          "internalType": "string",
          "name": "_text",
          "type": "string"
        },
        {
          "internalType": "bool",
          "name": "_like",
          "type": "bool"
        }
      ],
      "name": "createComment",
      "outputs": [],
      "stateMutability": "nonpayable",
      "type": "function"
    },
    {
      "inputs": [
        {
          "internalType": "address",
          "name": "_nft",
          "type": "address"
        },
        {
          "internalType": "uint256",
          "name": "_tokenId",
          "type": "uint256"
        }
      ],
      "name": "getContract",
      "outputs": [
        {
          "internalType": "contract PageComment",
          "name": "",
          "type": "address"
        }
      ],
      "stateMutability": "view",
      "type": "function"
    },
    {
      "inputs": [],
      "name": "getTreasury",
      "outputs": [
        {
          "internalType": "address",
          "name": "",
          "type": "address"
        }
      ],
      "stateMutability": "view",
      "type": "function"
    },
    {
      "inputs": [
        {
          "internalType": "address",
          "name": "_nft",
          "type": "address"
        },
        {
          "internalType": "uint256",
          "name": "_tokenId",
          "type": "uint256"
        }
      ],
      "name": "isExists",
      "outputs": [
        {
          "internalType": "bool",
          "name": "",
          "type": "bool"
        }
      ],
      "stateMutability": "view",
      "type": "function"
    },
    {
      "inputs": [],
      "name": "owner",
      "outputs": [
        {
          "internalType": "address",
          "name": "",
          "type": "address"
        }
      ],
      "stateMutability": "view",
      "type": "function"
    },
    {
      "inputs": [],
      "name": "renounceOwnership",
      "outputs": [],
      "stateMutability": "nonpayable",
      "type": "function"
    },
    {
      "inputs": [
        {
          "internalType": "address",
          "name": "_treasury",
          "type": "address"
        }
      ],
      "name": "setTreasury",
      "outputs": [],
      "stateMutability": "nonpayable",
      "type": "function"
    },
    {
      "inputs": [],
      "name": "token",
      "outputs": [
        {
          "internalType": "contract PageToken",
          "name": "",
          "type": "address"
        }
      ],
      "stateMutability": "view",
      "type": "function"
    },
    {
      "inputs": [
        {
          "internalType": "address",
          "name": "newOwner",
          "type": "address"
        }
      ],
      "name": "transferOwnership",
      "outputs": [],
      "stateMutability": "nonpayable",
      "type": "function"
    },
    {
      "inputs": [],
      "name": "treasury",
      "outputs": [
        {
          "internalType": "address",
          "name": "",
          "type": "address"
        }
      ],
      "stateMutability": "view",
      "type": "function"
    }
  ],
  "transactionHash": "0x03a7a2b6dc989b11242c78e3e1e367033718d66dc559dddbe9344a5f71925cb1",
  "args": [
    "0x42Ea7075F16e355DE9D9F69D146A439AC4Cb6030",
    "0xe7c8e227c8d831c759605e4dfce96d22b2ddcd60"
  ],
  "solcInputHash": "294f3416c735925776c6b2700051817f",
  "bytecode": "0x608060405234801561001057600080fd5b50604051611d2b380380611d2b83398101604081905261002f916100e0565b61003f61003a610070565b610074565b600380546001600160a01b039384166001600160a01b03199182161790915560028054929093169116179055610112565b3390565b600080546001600160a01b038381166001600160a01b0319831681178455604051919092169283917f8be0079c531659141344cd1fd0a4f28419497f9722a3daafe3b4186f6b6457e09190a35050565b80516001600160a01b03811681146100db57600080fd5b919050565b600080604083850312156100f2578182fd5b6100fb836100c4565b9150610109602084016100c4565b90509250929050565b611c0a806101216000396000f3fe608060405234801561001057600080fd5b506004361061009e5760003560e01c8063aad5572611610066578063aad55726146100ee578063badf08eb14610101578063f0f4426014610121578063f2fde38b14610134578063fc0c546a146101475761009e565b80633b19e84a146100a35780634845f6ac146100c157806361d027b3146100d6578063715018a6146100de5780638da5cb5b146100e6575b600080fd5b6100ab61014f565b6040516100b89190610aa3565b60405180910390f35b6100d46100cf3660046109a8565b61015e565b005b6100ab610534565b6100d4610543565b6100ab610597565b6100ab6100fc36600461097d565b6105a6565b61011461010f36600461097d565b6105e1565b6040516100b89190610b3b565b6100d461012f366004610945565b6105ed565b6100d4610142366004610945565b610674565b6100ab6106e5565b6003546001600160a01b031690565b600061028a611f4061027e612710610284600260009054906101000a90046001600160a01b03166001600160a01b03166336ab348a6040518163ffffffff1660e01b815260040160206040518083038186803b1580156101bd57600080fd5b505afa1580156101d1573d6000803e3d6000fd5b505050506040513d601f19601f820116820180604052508101906101f59190610a8b565b6002546040805163dc5c0eb160e01b8152905161027e926001600160a01b03169163dc5c0eb1916004808301926020929190829003018186803b15801561023b57600080fd5b505afa15801561024f573d6000803e3d6000fd5b505050506040513d601f19601f820116820180604052508101906102739190610a8b565b61027e3a5a906106f4565b906106f4565b90610700565b90506000610298878761070c565b90508015610331576102aa878761072e565b6001600160a01b0316639a60057e8686866040518463ffffffff1660e01b81526004016102d993929190610ab7565b602060405180830381600087803b1580156102f357600080fd5b505af1158015610307573d6000803e3d6000fd5b505050506040513d601f19601f8201168201806040525081019061032b9190610a8b565b506103be565b61033b8787610750565b6001600160a01b0316639a60057e8686866040518463ffffffff1660e01b815260040161036a93929190610ab7565b602060405180830381600087803b15801561038457600080fd5b505af1158015610398573d6000803e3d6000fd5b505050506040513d601f19601f820116820180604052508101906103bc9190610a8b565b505b60006103d261232861027e85612710610700565b905060006103e084836107aa565b6002546040516331a9108f60e11b81529192508a916001600160a01b03918216916340c10f199190841690636352211e9061041f908e90600401610c72565b60206040518083038186803b15801561043757600080fd5b505afa15801561044b573d6000803e3d6000fd5b505050506040513d601f19601f8201168201806040525081019061046f9190610961565b856040518363ffffffff1660e01b815260040161048d929190610b22565b600060405180830381600087803b1580156104a757600080fd5b505af11580156104bb573d6000803e3d6000fd5b50506002546003546040516340c10f1960e01b81526001600160a01b0392831694506340c10f1993506104f692909116908690600401610b22565b600060405180830381600087803b15801561051057600080fd5b505af1158015610524573d6000803e3d6000fd5b5050505050505050505050505050565b6003546001600160a01b031681565b61054b6107b6565b6001600160a01b031661055c610597565b6001600160a01b03161461058b5760405162461bcd60e51b815260040161058290610bc3565b60405180910390fd5b61059560006107ba565b565b6000546001600160a01b031690565b60006105b2838361070c565b6105ce5760405162461bcd60e51b815260040161058290610b8c565b6105d8838361072e565b90505b92915050565b60006105d8838361070c565b6105f56107b6565b6001600160a01b0316610606610597565b6001600160a01b03161461062c5760405162461bcd60e51b815260040161058290610bc3565b6001600160a01b0381166106525760405162461bcd60e51b815260040161058290610bf8565b600380546001600160a01b0319166001600160a01b0392909216919091179055565b61067c6107b6565b6001600160a01b031661068d610597565b6001600160a01b0316146106b35760405162461bcd60e51b815260040161058290610bc3565b6001600160a01b0381166106d95760405162461bcd60e51b815260040161058290610b46565b6106e2816107ba565b50565b6002546001600160a01b031681565b60006105d88284610c9b565b60006105d88284610c7b565b6001600160a01b03821660009081526001602052604081206105d8908361080a565b6001600160a01b03821660009081526001602052604081206105d89083610816565b60008060405161075f90610923565b604051809103906000f08015801561077b573d6000803e3d6000fd5b506001600160a01b03851660009081526001602052604090209091506107a2908483610822565b509392505050565b60006105d88284610cba565b3390565b600080546001600160a01b038381166001600160a01b0319831681178455604051919092169283917f8be0079c531659141344cd1fd0a4f28419497f9722a3daafe3b4186f6b6457e09190a35050565b60006105d88383610840565b60006105d8838361084c565b600061083884846001600160a01b03851661088c565b949350505050565b60006105d883836108a9565b60008181526002830160205260408120548015158061087057506108708484610840565b6105d85760405162461bcd60e51b815260040161058290610c3b565b6000828152600284016020526040812082905561083884846108b5565b60006105d883836108c1565b60006105d883836108d9565b60009081526001919091016020526040902054151590565b60006108e583836108c1565b61091b575081546001818101845560008481526020808220909301849055845484825282860190935260409020919091556105db565b5060006105db565b610ec280610d1383390190565b8035801515811461094057600080fd5b919050565b600060208284031215610956578081fd5b81356105d881610cfd565b600060208284031215610972578081fd5b81516105d881610cfd565b6000806040838503121561098f578081fd5b823561099a81610cfd565b946020939093013593505050565b600080600080600060a086880312156109bf578081fd5b85356109ca81610cfd565b9450602086810135945060408701356109e281610cfd565b9350606087013567ffffffffffffffff808211156109fe578384fd5b818901915089601f830112610a11578384fd5b813581811115610a2357610a23610ce7565b604051601f8201601f1916810185018381118282101715610a4657610a46610ce7565b60405281815283820185018c1015610a5c578586fd5b8185850186830137858583830101528096505050505050610a7f60808701610930565b90509295509295909350565b600060208284031215610a9c578081fd5b5051919050565b6001600160a01b0391909116815260200190565b600060018060a01b038516825260206060818401528451806060850152825b81811015610af257868101830151858201608001528201610ad6565b81811115610b035783608083870101525b5093151560408401525050601f91909101601f19160160800192915050565b6001600160a01b03929092168252602082015260400190565b901515815260200190565b60208082526026908201527f4f776e61626c653a206e6577206f776e657220697320746865207a65726f206160408201526564647265737360d01b606082015260800190565b6020808252601b908201527f4e465420636f6e747261637420646f6573206e6f742065786973740000000000604082015260600190565b6020808252818101527f4f776e61626c653a2063616c6c6572206973206e6f7420746865206f776e6572604082015260600190565b60208082526023908201527f7365745472656173757279416464726573733a206973207a65726f206164647260408201526265737360e81b606082015260800190565b6020808252601e908201527f456e756d657261626c654d61703a206e6f6e6578697374656e74206b65790000604082015260600190565b90815260200190565b600082610c9657634e487b7160e01b81526012600452602481fd5b500490565b6000816000190483118215151615610cb557610cb5610cd1565b500290565b600082821015610ccc57610ccc610cd1565b500390565b634e487b7160e01b600052601160045260246000fd5b634e487b7160e01b600052604160045260246000fd5b6001600160a01b03811681146106e257600080fdfe608060405234801561001057600080fd5b50610ea2806100206000396000f3fe608060405234801561001057600080fd5b50600436106100935760003560e01c806391f3410c1161006657806391f3410c1461010d578063989c1a7b146101155780639a60057e1461012d578063be60741e1461014d578063c0e7c32d1461016057610093565b8063360d03a11461009857806365b174e9146100c15780636c43dbb4146100d85780638ebed2e8146100f8575b600080fd5b6100ab6100a6366004610a35565b610184565b6040516100b89190610be5565b60405180910390f35b6100c9610409565b6040516100b893929190610d5c565b6100eb6100e6366004610adc565b61042c565b6040516100b89190610d02565b610100610541565b6040516100b89190610bf8565b6100ab610599565b61011d610607565b6040516100b89493929190610d72565b61014061013b36600461097a565b610637565b6040516100b89190610d15565b61014061015b366004610adc565b610790565b61017361016e366004610adc565b6107b1565b6040516100b8959493929190610d1e565b606060008251116101b05760405162461bcd60e51b81526004016101a790610c3c565b60405180910390fd5b600054825111156101d35760405162461bcd60e51b81526004016101a790610cb5565b6000825167ffffffffffffffff8111156101fd57634e487b7160e01b600052604160045260246000fd5b60405190808252806020026020018201604052801561023657816020015b610223610897565b81526020019060019003908161021b5790505b50905060005b835181101561040057600054845185908390811061026a57634e487b7160e01b600052603260045260246000fd5b602002602001015111156102905760405162461bcd60e51b81526004016101a790610c7e565b6000600160008684815181106102b657634e487b7160e01b600052603260045260246000fd5b602002602001015181526020019081526020016000209050806040518060a0016040529081600082015481526020016001820160009054906101000a90046001600160a01b03166001600160a01b03166001600160a01b0316815260200160028201805461032390610dea565b80601f016020809104026020016040519081016040528092919081815260200182805461034f90610dea565b801561039c5780601f106103715761010080835404028352916020019161039c565b820191906000526020600020905b81548152906001019060200180831161037f57829003601f168201915b5050509183525050600382015460ff161515602082015260049091015460409091015283518490849081106103e157634e487b7160e01b600052603260045260246000fd5b60200260200101819052505080806103f890610e25565b91505061023c565b5090505b919050565b6000805490806104196002610877565b91506104256003610877565b9050909192565b610434610897565b6000548211156104565760405162461bcd60e51b81526004016101a790610c7e565b600082815260016020818152604092839020835160a08101855281548152928101546001600160a01b031691830191909152600281018054929391929184019161049f90610dea565b80601f01602080910402602001604051908101604052809291908181526020018280546104cb90610dea565b80156105185780601f106104ed57610100808354040283529160200191610518565b820191906000526020600020905b8154815290600101906020018083116104fb57829003601f168201915b5050509183525050600382015460ff161515602082015260049091015460409091015292915050565b6060600080548060200260200160405190810160405280929190818152602001828054801561058f57602002820191906000526020600020905b81548152602001906001019080831161057b575b5050505050905090565b600054606090819015610602576105ff60008054806020026020016040519081016040528092919081815260200182805480156105f557602002820191906000526020600020905b8154815260200190600101908083116105e1575b5050505050610184565b90505b905090565b60008054908060606106196002610877565b92506106256003610877565b915061062f610599565b905090919293565b6000806106453a5a9061087b565b60008054600180820183557f290decd9548b62a8d60345a988386fc84ba6bc95484008f6362f93160ef3e56382018290556040805160a0810182528381526001600160a01b038b811660208084019182528385018d81528c15156060860152608085018990528789528682529490972083518155905194810180546001600160a01b03191695909216949094179055905180519596509294909391926106f29260028501929101906108d1565b50606082015160038201805460ff1916911515919091179055608090910151600491820155600082815260016020526040902001829055831561073e57610739600261088e565b610748565b610748600361088e565b7f5df053adf33c5a266548317c9343442cbf99e989cb036ac715347cb9245f136d818787878660405161077f959493929190610d1e565b60405180910390a195945050505050565b600081815481106107a057600080fd5b600091825260209091200154905081565b60016020819052600091825260409091208054918101546002820180546001600160a01b0390921692916107e490610dea565b80601f016020809104026020016040519081016040528092919081815260200182805461081090610dea565b801561085d5780601f106108325761010080835404028352916020019161085d565b820191906000526020600020905b81548152906001019060200180831161084057829003601f168201915b505050506003830154600490930154919260ff1691905085565b5490565b60006108878284610dcb565b9392505050565b80546001019055565b6040518060a001604052806000815260200160006001600160a01b0316815260200160608152602001600015158152602001600081525090565b8280546108dd90610dea565b90600052602060002090601f0160209004810192826108ff5760008555610945565b82601f1061091857805160ff1916838001178555610945565b82800160010185558215610945579182015b8281111561094557825182559160200191906001019061092a565b50610951929150610955565b5090565b5b808211156109515760008155600101610956565b8035801515811461040457600080fd5b60008060006060848603121561098e578283fd5b83356001600160a01b03811681146109a4578384fd5b925060208481013567ffffffffffffffff808211156109c1578485fd5b818701915087601f8301126109d4578485fd5b8135818111156109e6576109e6610e56565b6109f8601f8201601f19168501610da1565b91508082528884828501011115610a0d578586fd5b80848401858401378101909201939093529150610a2c6040850161096a565b90509250925092565b60006020808385031215610a47578182fd5b823567ffffffffffffffff80821115610a5e578384fd5b818501915085601f830112610a71578384fd5b813581811115610a8357610a83610e56565b8381029150610a93848301610da1565b8181528481019084860184860187018a1015610aad578788fd5b8795505b83861015610acf578035835260019590950194918601918601610ab1565b5098975050505050505050565b600060208284031215610aed578081fd5b5035919050565b6000815180845260208085018081965082840281019150828601855b85811015610b3a578284038952610b28848351610b92565b98850198935090840190600101610b10565b5091979650505050505050565b60008151808452815b81811015610b6c57602081850181015186830182015201610b50565b81811115610b7d5782602083870101525b50601f01601f19169290920160200192915050565b60008151835260018060a01b036020830151166020840152604082015160a06040850152610bc360a0850182610b47565b9050606083015115156060850152608083015160808501528091505092915050565b6000602082526108876020830184610af4565b6020808252825182820181905260009190848201906040850190845b81811015610c3057835183529284019291840191600101610c14565b50909695505050505050565b60208082526022908201527f5f696473206c656e677468206d757374206265206d6f7265207468616e207a65604082015261726f60f01b606082015260800190565b60208082526017908201527f4e6f20636f6d6d656e7420776974682074686973204944000000000000000000604082015260600190565b6020808252602d908201527f5f696473206c656e677468206d757374206265206c657373206f72206571756160408201526c6c20636f6d6d656e747349647360981b606082015260800190565b6000602082526108876020830184610b92565b90815260200190565b8581526001600160a01b038516602082015260a060408201819052600090610d4890830186610b47565b931515606083015250608001529392505050565b9283526020830191909152604082015260600190565b600085825284602083015283604083015260806060830152610d976080830184610af4565b9695505050505050565b60405181810167ffffffffffffffff81118282101715610dc357610dc3610e56565b604052919050565b6000816000190483118215151615610de557610de5610e40565b500290565b600281046001821680610dfe57607f821691505b60208210811415610e1f57634e487b7160e01b600052602260045260246000fd5b50919050565b6000600019821415610e3957610e39610e40565b5060010190565b634e487b7160e01b600052601160045260246000fd5b634e487b7160e01b600052604160045260246000fdfea2646970667358221220cb8c51d3088b19362a215970491f5efef5f4f55e27a22fe311f7eb6f57e834b264736f6c63430008000033a2646970667358221220f256810fdbe10bdfa178c17047a2e6db83f4878192f3528832ae2975e517c4c664736f6c63430008000033",
  "devdoc": {
    "kind": "dev",
    "methods": {
      "owner()": {
        "details": "Returns the address of the current owner."
      },
      "renounceOwnership()": {
        "details": "Leaves the contract without owner. It will not be possible to call `onlyOwner` functions anymore. Can only be called by the current owner. NOTE: Renouncing ownership will leave the contract without an owner, thereby removing any functionality that is only available to the owner."
      },
      "transferOwnership(address)": {
        "details": "Transfers ownership of the contract to a new account (`newOwner`). Can only be called by the current owner."
      }
    },
    "version": 1
  },
  "userdoc": {
    "kind": "user",
    "methods": {},
    "version": 1
  },
  "storageLayout": {
    "storage": [
      {
        "astId": 389,
        "contract": "contracts/CryptoPageCommentMinter.sol:PageCommentMinter",
        "label": "_owner",
        "offset": 0,
        "slot": "0",
        "type": "t_address"
      },
      {
        "astId": 5156,
        "contract": "contracts/CryptoPageCommentMinter.sol:PageCommentMinter",
        "label": "commentsByERC721",
        "offset": 0,
        "slot": "1",
        "type": "t_mapping(t_address,t_struct(UintToAddressMap)3445_storage)"
      },
      {
        "astId": 5159,
        "contract": "contracts/CryptoPageCommentMinter.sol:PageCommentMinter",
        "label": "token",
        "offset": 0,
        "slot": "2",
        "type": "t_contract(PageToken)6193"
      },
      {
        "astId": 5161,
        "contract": "contracts/CryptoPageCommentMinter.sol:PageCommentMinter",
        "label": "treasury",
        "offset": 0,
        "slot": "3",
        "type": "t_address"
      }
    ],
    "types": {
      "t_address": {
        "encoding": "inplace",
        "label": "address",
        "numberOfBytes": "20"
      },
      "t_array(t_bytes32)dyn_storage": {
        "base": "t_bytes32",
        "encoding": "dynamic_array",
        "label": "bytes32[]",
        "numberOfBytes": "32"
      },
      "t_bytes32": {
        "encoding": "inplace",
        "label": "bytes32",
        "numberOfBytes": "32"
      },
      "t_contract(PageToken)6193": {
        "encoding": "inplace",
        "label": "contract PageToken",
        "numberOfBytes": "20"
      },
      "t_mapping(t_address,t_struct(UintToAddressMap)3445_storage)": {
        "encoding": "mapping",
        "key": "t_address",
        "label": "mapping(address => struct EnumerableMap.UintToAddressMap)",
        "numberOfBytes": "32",
        "value": "t_struct(UintToAddressMap)3445_storage"
      },
      "t_mapping(t_bytes32,t_bytes32)": {
        "encoding": "mapping",
        "key": "t_bytes32",
        "label": "mapping(bytes32 => bytes32)",
        "numberOfBytes": "32",
        "value": "t_bytes32"
      },
      "t_mapping(t_bytes32,t_uint256)": {
        "encoding": "mapping",
        "key": "t_bytes32",
        "label": "mapping(bytes32 => uint256)",
        "numberOfBytes": "32",
        "value": "t_uint256"
      },
      "t_struct(Bytes32Set)3884_storage": {
        "encoding": "inplace",
        "label": "struct EnumerableSet.Bytes32Set",
        "members": [
          {
            "astId": 3883,
            "contract": "contracts/CryptoPageCommentMinter.sol:PageCommentMinter",
            "label": "_inner",
            "offset": 0,
            "slot": "0",
            "type": "t_struct(Set)3690_storage"
          }
        ],
        "numberOfBytes": "64"
      },
      "t_struct(Map)3215_storage": {
        "encoding": "inplace",
        "label": "struct EnumerableMap.Map",
        "members": [
          {
            "astId": 3210,
            "contract": "contracts/CryptoPageCommentMinter.sol:PageCommentMinter",
            "label": "_keys",
            "offset": 0,
            "slot": "0",
            "type": "t_struct(Bytes32Set)3884_storage"
          },
          {
            "astId": 3214,
            "contract": "contracts/CryptoPageCommentMinter.sol:PageCommentMinter",
            "label": "_values",
            "offset": 0,
            "slot": "2",
            "type": "t_mapping(t_bytes32,t_bytes32)"
          }
        ],
        "numberOfBytes": "96"
      },
      "t_struct(Set)3690_storage": {
        "encoding": "inplace",
        "label": "struct EnumerableSet.Set",
        "members": [
          {
            "astId": 3685,
            "contract": "contracts/CryptoPageCommentMinter.sol:PageCommentMinter",
            "label": "_values",
            "offset": 0,
            "slot": "0",
            "type": "t_array(t_bytes32)dyn_storage"
          },
          {
            "astId": 3689,
            "contract": "contracts/CryptoPageCommentMinter.sol:PageCommentMinter",
            "label": "_indexes",
            "offset": 0,
            "slot": "1",
            "type": "t_mapping(t_bytes32,t_uint256)"
          }
        ],
        "numberOfBytes": "64"
      },
      "t_struct(UintToAddressMap)3445_storage": {
        "encoding": "inplace",
        "label": "struct EnumerableMap.UintToAddressMap",
        "members": [
          {
            "astId": 3444,
            "contract": "contracts/CryptoPageCommentMinter.sol:PageCommentMinter",
            "label": "_inner",
            "offset": 0,
            "slot": "0",
            "type": "t_struct(Map)3215_storage"
          }
        ],
        "numberOfBytes": "96"
      },
      "t_uint256": {
        "encoding": "inplace",
        "label": "uint256",
        "numberOfBytes": "32"
      }
    }
  }
}