{
  "address": "0x18Db492111Ac2fec418A3eD575dD13A5a6FA5926",
  "abi": [
    {
      "inputs": [
        {
          "internalType": "address",
          "name": "_treasury",
          "type": "address"
        }
      ],
      "stateMutability": "nonpayable",
      "type": "constructor"
    },
    {
      "anonymous": false,
      "inputs": [
        {
          "indexed": true,
          "internalType": "address",
          "name": "owner",
          "type": "address"
        },
        {
          "indexed": true,
          "internalType": "address",
          "name": "spender",
          "type": "address"
        },
        {
          "indexed": false,
          "internalType": "uint256",
          "name": "value",
          "type": "uint256"
        }
      ],
      "name": "Approval",
      "type": "event"
    },
    {
      "anonymous": false,
      "inputs": [
        {
          "indexed": true,
          "internalType": "address",
          "name": "previousOwner",
          "type": "address"
        },
        {
          "indexed": true,
          "internalType": "address",
          "name": "newOwner",
          "type": "address"
        }
      ],
      "name": "OwnershipTransferred",
      "type": "event"
    },
    {
      "anonymous": false,
      "inputs": [
        {
          "indexed": true,
          "internalType": "bytes32",
          "name": "role",
          "type": "bytes32"
        },
        {
          "indexed": true,
          "internalType": "bytes32",
          "name": "previousAdminRole",
          "type": "bytes32"
        },
        {
          "indexed": true,
          "internalType": "bytes32",
          "name": "newAdminRole",
          "type": "bytes32"
        }
      ],
      "name": "RoleAdminChanged",
      "type": "event"
    },
    {
      "anonymous": false,
      "inputs": [
        {
          "indexed": true,
          "internalType": "bytes32",
          "name": "role",
          "type": "bytes32"
        },
        {
          "indexed": true,
          "internalType": "address",
          "name": "account",
          "type": "address"
        },
        {
          "indexed": true,
          "internalType": "address",
          "name": "sender",
          "type": "address"
        }
      ],
      "name": "RoleGranted",
      "type": "event"
    },
    {
      "anonymous": false,
      "inputs": [
        {
          "indexed": true,
          "internalType": "bytes32",
          "name": "role",
          "type": "bytes32"
        },
        {
          "indexed": true,
          "internalType": "address",
          "name": "account",
          "type": "address"
        },
        {
          "indexed": true,
          "internalType": "address",
          "name": "sender",
          "type": "address"
        }
      ],
      "name": "RoleRevoked",
      "type": "event"
    },
    {
      "anonymous": false,
      "inputs": [
        {
          "indexed": true,
          "internalType": "address",
          "name": "from",
          "type": "address"
        },
        {
          "indexed": true,
          "internalType": "address",
          "name": "to",
          "type": "address"
        },
        {
          "indexed": false,
          "internalType": "uint256",
          "name": "value",
          "type": "uint256"
        }
      ],
      "name": "Transfer",
      "type": "event"
    },
    {
      "inputs": [],
      "name": "DEFAULT_ADMIN_ROLE",
      "outputs": [
        {
          "internalType": "bytes32",
          "name": "",
          "type": "bytes32"
        }
      ],
      "stateMutability": "view",
      "type": "function"
    },
    {
      "inputs": [
        {
          "internalType": "address",
          "name": "owner",
          "type": "address"
        },
        {
          "internalType": "address",
          "name": "spender",
          "type": "address"
        }
      ],
      "name": "allowance",
      "outputs": [
        {
          "internalType": "uint256",
          "name": "",
          "type": "uint256"
        }
      ],
      "stateMutability": "view",
      "type": "function"
    },
    {
      "inputs": [
        {
          "internalType": "address",
          "name": "spender",
          "type": "address"
        },
        {
          "internalType": "uint256",
          "name": "amount",
          "type": "uint256"
        }
      ],
      "name": "approve",
      "outputs": [
        {
          "internalType": "bool",
          "name": "",
          "type": "bool"
        }
      ],
      "stateMutability": "nonpayable",
      "type": "function"
    },
    {
      "inputs": [
        {
          "internalType": "address",
          "name": "account",
          "type": "address"
        }
      ],
      "name": "balanceOf",
      "outputs": [
        {
          "internalType": "uint256",
          "name": "",
          "type": "uint256"
        }
      ],
      "stateMutability": "view",
      "type": "function"
    },
    {
      "inputs": [
        {
          "internalType": "address",
          "name": "to",
          "type": "address"
        },
        {
          "internalType": "uint256",
          "name": "amount",
          "type": "uint256"
        }
      ],
      "name": "burn",
      "outputs": [],
      "stateMutability": "nonpayable",
      "type": "function"
    },
    {
      "inputs": [],
      "name": "decimals",
      "outputs": [
        {
          "internalType": "uint8",
          "name": "",
          "type": "uint8"
        }
      ],
      "stateMutability": "view",
      "type": "function"
    },
    {
      "inputs": [
        {
          "internalType": "address",
          "name": "spender",
          "type": "address"
        },
        {
          "internalType": "uint256",
          "name": "subtractedValue",
          "type": "uint256"
        }
      ],
      "name": "decreaseAllowance",
      "outputs": [
        {
          "internalType": "bool",
          "name": "",
          "type": "bool"
        }
      ],
      "stateMutability": "nonpayable",
      "type": "function"
    },
    {
      "inputs": [],
      "name": "getPrice",
      "outputs": [
        {
          "internalType": "uint256",
          "name": "price",
          "type": "uint256"
        }
      ],
      "stateMutability": "view",
      "type": "function"
    },
    {
      "inputs": [
        {
          "internalType": "bytes32",
          "name": "role",
          "type": "bytes32"
        }
      ],
      "name": "getRoleAdmin",
      "outputs": [
        {
          "internalType": "bytes32",
          "name": "",
          "type": "bytes32"
        }
      ],
      "stateMutability": "view",
      "type": "function"
    },
    {
      "inputs": [
        {
          "internalType": "bytes32",
          "name": "role",
          "type": "bytes32"
        },
        {
          "internalType": "address",
          "name": "account",
          "type": "address"
        }
      ],
      "name": "grantRole",
      "outputs": [],
      "stateMutability": "nonpayable",
      "type": "function"
    },
    {
      "inputs": [
        {
          "internalType": "bytes32",
          "name": "role",
          "type": "bytes32"
        },
        {
          "internalType": "address",
          "name": "account",
          "type": "address"
        }
      ],
      "name": "hasRole",
      "outputs": [
        {
          "internalType": "bool",
          "name": "",
          "type": "bool"
        }
      ],
      "stateMutability": "view",
      "type": "function"
    },
    {
      "inputs": [
        {
          "internalType": "address",
          "name": "spender",
          "type": "address"
        },
        {
          "internalType": "uint256",
          "name": "addedValue",
          "type": "uint256"
        }
      ],
      "name": "increaseAllowance",
      "outputs": [
        {
          "internalType": "bool",
          "name": "",
          "type": "bool"
        }
      ],
      "stateMutability": "nonpayable",
      "type": "function"
    },
    {
      "inputs": [
        {
          "internalType": "address",
          "name": "to",
          "type": "address"
        },
        {
          "internalType": "uint256",
          "name": "amount",
          "type": "uint256"
        }
      ],
      "name": "mint",
      "outputs": [],
      "stateMutability": "nonpayable",
      "type": "function"
    },
    {
      "inputs": [],
      "name": "name",
      "outputs": [
        {
          "internalType": "string",
          "name": "",
          "type": "string"
        }
      ],
      "stateMutability": "view",
      "type": "function"
    },
    {
      "inputs": [],
      "name": "owner",
      "outputs": [
        {
          "internalType": "address",
          "name": "",
          "type": "address"
        }
      ],
      "stateMutability": "view",
      "type": "function"
    },
    {
      "inputs": [],
      "name": "pool",
      "outputs": [
        {
          "internalType": "contract IUniswapV3Pool",
          "name": "",
          "type": "address"
        }
      ],
      "stateMutability": "view",
      "type": "function"
    },
    {
      "inputs": [],
      "name": "renounceOwnership",
      "outputs": [],
      "stateMutability": "nonpayable",
      "type": "function"
    },
    {
      "inputs": [
        {
          "internalType": "bytes32",
          "name": "role",
          "type": "bytes32"
        },
        {
          "internalType": "address",
          "name": "account",
          "type": "address"
        }
      ],
      "name": "renounceRole",
      "outputs": [],
      "stateMutability": "nonpayable",
      "type": "function"
    },
    {
      "inputs": [
        {
          "internalType": "bytes32",
          "name": "role",
          "type": "bytes32"
        },
        {
          "internalType": "address",
          "name": "account",
          "type": "address"
        }
      ],
      "name": "revokeRole",
      "outputs": [],
      "stateMutability": "nonpayable",
      "type": "function"
    },
    {
      "inputs": [
        {
          "internalType": "address",
          "name": "_factory",
          "type": "address"
        },
        {
          "internalType": "address",
          "name": "_tokenB",
          "type": "address"
        },
        {
          "internalType": "uint24",
          "name": "_fee",
          "type": "uint24"
        },
        {
          "internalType": "uint160",
          "name": "_price",
          "type": "uint160"
        }
      ],
      "name": "setPool",
      "outputs": [],
      "stateMutability": "nonpayable",
      "type": "function"
    },
    {
      "inputs": [
        {
          "internalType": "bytes4",
          "name": "interfaceId",
          "type": "bytes4"
        }
      ],
      "name": "supportsInterface",
      "outputs": [
        {
          "internalType": "bool",
          "name": "",
          "type": "bool"
        }
      ],
      "stateMutability": "view",
      "type": "function"
    },
    {
      "inputs": [],
      "name": "symbol",
      "outputs": [
        {
          "internalType": "string",
          "name": "",
          "type": "string"
        }
      ],
      "stateMutability": "view",
      "type": "function"
    },
    {
      "inputs": [],
      "name": "tokenB",
      "outputs": [
        {
          "internalType": "contract ERC20",
          "name": "",
          "type": "address"
        }
      ],
      "stateMutability": "view",
      "type": "function"
    },
    {
      "inputs": [],
      "name": "totalSupply",
      "outputs": [
        {
          "internalType": "uint256",
          "name": "",
          "type": "uint256"
        }
      ],
      "stateMutability": "view",
      "type": "function"
    },
    {
      "inputs": [
        {
          "internalType": "address",
          "name": "recipient",
          "type": "address"
        },
        {
          "internalType": "uint256",
          "name": "amount",
          "type": "uint256"
        }
      ],
      "name": "transfer",
      "outputs": [
        {
          "internalType": "bool",
          "name": "",
          "type": "bool"
        }
      ],
      "stateMutability": "nonpayable",
      "type": "function"
    },
    {
      "inputs": [
        {
          "internalType": "address",
          "name": "sender",
          "type": "address"
        },
        {
          "internalType": "address",
          "name": "recipient",
          "type": "address"
        },
        {
          "internalType": "uint256",
          "name": "amount",
          "type": "uint256"
        }
      ],
      "name": "transferFrom",
      "outputs": [
        {
          "internalType": "bool",
          "name": "",
          "type": "bool"
        }
      ],
      "stateMutability": "nonpayable",
      "type": "function"
    },
    {
      "inputs": [
        {
          "internalType": "address",
          "name": "newOwner",
          "type": "address"
        }
      ],
      "name": "transferOwnership",
      "outputs": [],
      "stateMutability": "nonpayable",
      "type": "function"
    }
  ],
  "transactionHash": "0x1a7360c7ee63b7893c79cf3b7567fdd675b7d5ab48c19bfd553ea68954e7f696",
  "args": [
    "0x42Ea7075F16e355DE9D9F69D146A439AC4Cb6030"
  ],
  "solcInputHash": "895fc2f7a0dae65ab9584b76556f7e4c",
  "bytecode": "0x60806040523480156200001157600080fd5b5060405162001e2538038062001e25833981016040819052620000349162000385565b60408051808201825260098152682830b3b2aa37b5b2b760b91b6020808301918252835180850190945260048452635041474560e01b9084015281519192916200008191600391620002df565b50805162000097906004906020840190620002df565b505050620000b4620000ae620000df60201b60201c565b620000e3565b620000c160003362000135565b620000d8816a084595161401484a00000062000145565b5062000457565b3390565b600680546001600160a01b038381166001600160a01b0319831681179093556040519116919082907f8be0079c531659141344cd1fd0a4f28419497f9722a3daafe3b4186f6b6457e090600090a35050565b62000141828262000223565b5050565b6001600160a01b038216620001775760405162461bcd60e51b81526004016200016e90620003b5565b60405180910390fd5b6200018560008383620002af565b8060026000828254620001999190620003f5565b90915550506001600160a01b03821660009081526020819052604081208054839290620001c8908490620003f5565b90915550506040516001600160a01b038316906000907fddf252ad1be2c89b69c2b068fc378daa952ba7f163c4a11628f55a4df523b3ef906200020d908590620003ec565b60405180910390a36200014160008383620002af565b6200022f8282620002b4565b620001415760008281526005602090815260408083206001600160a01b03851684529091529020805460ff191660011790556200026b620000df565b6001600160a01b0316816001600160a01b0316837f2f8788117e7eff1d82e926ec794901d17c78024a50270940304540a733656f0d60405160405180910390a45050565b505050565b60009182526005602090815260408084206001600160a01b0393909316845291905290205460ff1690565b828054620002ed906200041a565b90600052602060002090601f0160209004810192826200031157600085556200035c565b82601f106200032c57805160ff19168380011785556200035c565b828001600101855582156200035c579182015b828111156200035c5782518255916020019190600101906200033f565b506200036a9291506200036e565b5090565b5b808211156200036a57600081556001016200036f565b60006020828403121562000397578081fd5b81516001600160a01b0381168114620003ae578182fd5b9392505050565b6020808252601f908201527f45524332303a206d696e7420746f20746865207a65726f206164647265737300604082015260600190565b90815260200190565b600082198211156200041557634e487b7160e01b81526011600452602481fd5b500190565b6002810460018216806200042f57607f821691505b602082108114156200045157634e487b7160e01b600052602260045260246000fd5b50919050565b6119be80620004676000396000f3fe608060405234801561001057600080fd5b50600436106101a95760003560e01c806370a08231116100f9578063a217fddf11610097578063b427462311610071578063b427462314610341578063d547741f14610354578063dd62ed3e14610367578063f2fde38b1461037a576101a9565b8063a217fddf14610313578063a457c2d71461031b578063a9059cbb1461032e576101a9565b806391d14854116100d357806391d14854146102dd57806395d89b41146102f057806398d5fdca146102f85780639dc29fac14610300576101a9565b806370a08231146102ba578063715018a6146102cd5780638da5cb5b146102d5576101a9565b8063248a9ca31161016657806336568abe1161014057806336568abe14610279578063395093511461028c57806340c10f191461029f5780635f64b55b146102b2576101a9565b8063248a9ca31461023c5780632f2ff15d1461024f578063313ce56714610264576101a9565b806301ffc9a7146101ae57806306fdde03146101d7578063095ea7b3146101ec57806316f0115b146101ff57806318160ddd1461021457806323b872dd14610229575b600080fd5b6101c16101bc366004611329565b61038d565b6040516101ce91906114a2565b60405180910390f35b6101df6103ba565b6040516101ce91906114b6565b6101c16101fa3660046112c2565b61044c565b610207610469565b6040516101ce9190611466565b61021c610478565b6040516101ce91906114ad565b6101c1610237366004611282565b61047e565b61021c61024a3660046112ed565b610517565b61026261025d366004611305565b61052c565b005b61026c610555565b6040516101ce9190611883565b610262610287366004611305565b61055a565b6101c161029a3660046112c2565b6105a0565b6102626102ad3660046112c2565b6105f4565b61020761062b565b61021c6102c83660046111b0565b61063a565b610262610655565b6102076106a0565b6101c16102eb366004611305565b6106af565b6101df6106da565b61021c6106e9565b61026261030e3660046112c2565b610789565b61021c6107c0565b6101c16103293660046112c2565b6107c5565b6101c161033c3660046112c2565b61083e565b61026261034f366004611220565b610852565b610262610362366004611305565b6109b4565b61021c6103753660046111e8565b6109d3565b6102626103883660046111b0565b6109fe565b60006001600160e01b03198216637965db0b60e01b14806103b257506103b282610a6f565b90505b919050565b6060600380546103c990611922565b80601f01602080910402602001604051908101604052809291908181526020018280546103f590611922565b80156104425780601f1061041757610100808354040283529160200191610442565b820191906000526020600020905b81548152906001019060200180831161042557829003601f168201915b5050505050905090565b6000610460610459610a88565b8484610a8c565b50600192915050565b6008546001600160a01b031681565b60025490565b600061048b848484610b40565b6001600160a01b0384166000908152600160205260408120816104ac610a88565b6001600160a01b03166001600160a01b03168152602001908152602001600020549050828110156104f85760405162461bcd60e51b81526004016104ef90611671565b60405180910390fd5b61050c85610504610a88565b858403610a8c565b506001949350505050565b60009081526005602052604090206001015490565b61053582610517565b61054681610541610a88565b610c6a565b6105508383610cce565b505050565b601290565b610562610a88565b6001600160a01b0316816001600160a01b0316146105925760405162461bcd60e51b81526004016104ef906117fd565b61059c8282610d55565b5050565b60006104606105ad610a88565b8484600160006105bb610a88565b6001600160a01b03908116825260208083019390935260409182016000908120918b16815292529020546105ef9190611891565b610a8c565b7f9f2df0fed2c77648de5860a4cc508cd0818c85b8b8a1ab4ceeef8d981c8956a661062181610541610a88565b6105508383610dda565b6007546001600160a01b031681565b6001600160a01b031660009081526020819052604090205490565b61065d610a88565b6001600160a01b031661066e6106a0565b6001600160a01b0316146106945760405162461bcd60e51b81526004016104ef906116b9565b61069e6000610ea2565b565b6006546001600160a01b031690565b60009182526005602090815260408084206001600160a01b0393909316845291905290205460ff1690565b6060600480546103c990611922565b600080600860009054906101000a90046001600160a01b03166001600160a01b0316633850c7bd6040518163ffffffff1660e01b815260040160e06040518083038186803b15801561073a57600080fd5b505afa15801561074e573d6000803e3d6000fd5b505050506040513d601f19601f820116820180604052508101906107729190611351565b50506001600160a01b039094169550505050505090565b7f3c11d16cbaffd01df69ce1c404f6340ee057498f5f00246190ea54220576a8486107b681610541610a88565b6105508383610ef4565b600081565b600080600160006107d4610a88565b6001600160a01b03908116825260208083019390935260409182016000908120918816815292529020549050828110156108205760405162461bcd60e51b81526004016104ef906117b8565b61083461082b610a88565b85858403610a8c565b5060019392505050565b600061046061084b610a88565b8484610b40565b61085a610a88565b6001600160a01b031661086b6106a0565b6001600160a01b0316146108915760405162461bcd60e51b81526004016104ef906116b9565b600780546001600160a01b0319166001600160a01b03858116919091179182905560405163a167129560e01b815286926000928481169263a1671295926108e1923092911690899060040161147a565b602060405180830381600087803b1580156108fb57600080fd5b505af115801561090f573d6000803e3d6000fd5b505050506040513d601f19601f8201168201806040525081019061093391906111cc565b600880546001600160a01b0319166001600160a01b03838116919091179182905560405163f637731d60e01b8152929350169063f637731d9061097a908690600401611466565b600060405180830381600087803b15801561099457600080fd5b505af11580156109a8573d6000803e3d6000fd5b50505050505050505050565b6109bd82610517565b6109c981610541610a88565b6105508383610d55565b6001600160a01b03918216600090815260016020908152604080832093909416825291909152205490565b610a06610a88565b6001600160a01b0316610a176106a0565b6001600160a01b031614610a3d5760405162461bcd60e51b81526004016104ef906116b9565b6001600160a01b038116610a635760405162461bcd60e51b81526004016104ef906115a3565b610a6c81610ea2565b50565b6001600160e01b031981166301ffc9a760e01b14919050565b3390565b6001600160a01b038316610ab25760405162461bcd60e51b81526004016104ef90611774565b6001600160a01b038216610ad85760405162461bcd60e51b81526004016104ef906115e9565b6001600160a01b0380841660008181526001602090815260408083209487168084529490915290819020849055517f8c5be1e5ebec7d5bd14f71427d1e84f3dd0314c0f7b2291e5b200ac8c7c3b92590610b339085906114ad565b60405180910390a3505050565b6001600160a01b038316610b665760405162461bcd60e51b81526004016104ef9061172f565b6001600160a01b038216610b8c5760405162461bcd60e51b81526004016104ef9061151e565b610b97838383610550565b6001600160a01b03831660009081526020819052604090205481811015610bd05760405162461bcd60e51b81526004016104ef9061162b565b6001600160a01b03808516600090815260208190526040808220858503905591851681529081208054849290610c07908490611891565b92505081905550826001600160a01b0316846001600160a01b03167fddf252ad1be2c89b69c2b068fc378daa952ba7f163c4a11628f55a4df523b3ef84604051610c5191906114ad565b60405180910390a3610c64848484610550565b50505050565b610c7482826106af565b61059c57610c8c816001600160a01b03166014610fe5565b610c97836020610fe5565b604051602001610ca89291906113f1565b60408051601f198184030181529082905262461bcd60e51b82526104ef916004016114b6565b610cd882826106af565b61059c5760008281526005602090815260408083206001600160a01b03851684529091529020805460ff19166001179055610d11610a88565b6001600160a01b0316816001600160a01b0316837f2f8788117e7eff1d82e926ec794901d17c78024a50270940304540a733656f0d60405160405180910390a45050565b610d5f82826106af565b1561059c5760008281526005602090815260408083206001600160a01b03851684529091529020805460ff19169055610d96610a88565b6001600160a01b0316816001600160a01b0316837ff6391f5c32d9c69d2a47ea670b442974b53935d1edc7fd64eb21e047a839171b60405160405180910390a45050565b6001600160a01b038216610e005760405162461bcd60e51b81526004016104ef9061184c565b610e0c60008383610550565b8060026000828254610e1e9190611891565b90915550506001600160a01b03821660009081526020819052604081208054839290610e4b908490611891565b90915550506040516001600160a01b038316906000907fddf252ad1be2c89b69c2b068fc378daa952ba7f163c4a11628f55a4df523b3ef90610e8e9085906114ad565b60405180910390a361059c60008383610550565b600680546001600160a01b038381166001600160a01b0319831681179093556040519116919082907f8be0079c531659141344cd1fd0a4f28419497f9722a3daafe3b4186f6b6457e090600090a35050565b6001600160a01b038216610f1a5760405162461bcd60e51b81526004016104ef906116ee565b610f2682600083610550565b6001600160a01b03821660009081526020819052604090205481811015610f5f5760405162461bcd60e51b81526004016104ef90611561565b6001600160a01b0383166000908152602081905260408120838303905560028054849290610f8e9084906118c8565b90915550506040516000906001600160a01b038516907fddf252ad1be2c89b69c2b068fc378daa952ba7f163c4a11628f55a4df523b3ef90610fd19086906114ad565b60405180910390a361055083600084610550565b60606000610ff48360026118a9565b610fff906002611891565b67ffffffffffffffff81111561102557634e487b7160e01b600052604160045260246000fd5b6040519080825280601f01601f19166020018201604052801561104f576020820181803683370190505b509050600360fc1b8160008151811061107857634e487b7160e01b600052603260045260246000fd5b60200101906001600160f81b031916908160001a905350600f60fb1b816001815181106110b557634e487b7160e01b600052603260045260246000fd5b60200101906001600160f81b031916908160001a90535060006110d98460026118a9565b6110e4906001611891565b90505b6001811115611178576f181899199a1a9b1b9c1cb0b131b232b360811b85600f166010811061112657634e487b7160e01b600052603260045260246000fd5b1a60f81b82828151811061114a57634e487b7160e01b600052603260045260246000fd5b60200101906001600160f81b031916908160001a90535060049490941c936111718161190b565b90506110e7565b5083156111975760405162461bcd60e51b81526004016104ef906114e9565b9392505050565b805161ffff811681146103b557600080fd5b6000602082840312156111c1578081fd5b813561119781611973565b6000602082840312156111dd578081fd5b815161119781611973565b600080604083850312156111fa578081fd5b823561120581611973565b9150602083013561121581611973565b809150509250929050565b60008060008060808587031215611235578182fd5b843561124081611973565b9350602085013561125081611973565b9250604085013562ffffff81168114611267578283fd5b9150606085013561127781611973565b939692955090935050565b600080600060608486031215611296578283fd5b83356112a181611973565b925060208401356112b181611973565b929592945050506040919091013590565b600080604083850312156112d4578182fd5b82356112df81611973565b946020939093013593505050565b6000602082840312156112fe578081fd5b5035919050565b60008060408385031215611317578182fd5b82359150602083013561121581611973565b60006020828403121561133a578081fd5b81356001600160e01b031981168114611197578182fd5b600080600080600080600060e0888a03121561136b578283fd5b875161137681611973565b8097505060208801518060020b811461138d578384fd5b955061139b6040890161119e565b94506113a96060890161119e565b93506113b76080890161119e565b925060a088015160ff811681146113cc578283fd5b60c089015190925080151581146113e1578182fd5b8091505092959891949750929550565b60007f416363657373436f6e74726f6c3a206163636f756e7420000000000000000000825283516114298160178501602088016118df565b7001034b99036b4b9b9b4b733903937b6329607d1b601791840191820152835161145a8160288401602088016118df565b01602801949350505050565b6001600160a01b0391909116815260200190565b6001600160a01b03938416815291909216602082015262ffffff909116604082015260600190565b901515815260200190565b90815260200190565b60006020825282518060208401526114d58160408501602087016118df565b601f01601f19169190910160400192915050565b6020808252818101527f537472696e67733a20686578206c656e67746820696e73756666696369656e74604082015260600190565b60208082526023908201527f45524332303a207472616e7366657220746f20746865207a65726f206164647260408201526265737360e81b606082015260800190565b60208082526022908201527f45524332303a206275726e20616d6f756e7420657863656564732062616c616e604082015261636560f01b606082015260800190565b60208082526026908201527f4f776e61626c653a206e6577206f776e657220697320746865207a65726f206160408201526564647265737360d01b606082015260800190565b60208082526022908201527f45524332303a20617070726f766520746f20746865207a65726f206164647265604082015261737360f01b606082015260800190565b60208082526026908201527f45524332303a207472616e7366657220616d6f756e7420657863656564732062604082015265616c616e636560d01b606082015260800190565b60208082526028908201527f45524332303a207472616e7366657220616d6f756e74206578636565647320616040820152676c6c6f77616e636560c01b606082015260800190565b6020808252818101527f4f776e61626c653a2063616c6c6572206973206e6f7420746865206f776e6572604082015260600190565b60208082526021908201527f45524332303a206275726e2066726f6d20746865207a65726f206164647265736040820152607360f81b606082015260800190565b60208082526025908201527f45524332303a207472616e736665722066726f6d20746865207a65726f206164604082015264647265737360d81b606082015260800190565b60208082526024908201527f45524332303a20617070726f76652066726f6d20746865207a65726f206164646040820152637265737360e01b606082015260800190565b60208082526025908201527f45524332303a2064656372656173656420616c6c6f77616e63652062656c6f77604082015264207a65726f60d81b606082015260800190565b6020808252602f908201527f416363657373436f6e74726f6c3a2063616e206f6e6c792072656e6f756e636560408201526e103937b632b9903337b91039b2b63360891b606082015260800190565b6020808252601f908201527f45524332303a206d696e7420746f20746865207a65726f206164647265737300604082015260600190565b60ff91909116815260200190565b600082198211156118a4576118a461195d565b500190565b60008160001904831182151516156118c3576118c361195d565b500290565b6000828210156118da576118da61195d565b500390565b60005b838110156118fa5781810151838201526020016118e2565b83811115610c645750506000910152565b60008161191a5761191a61195d565b506000190190565b60028104600182168061193657607f821691505b6020821081141561195757634e487b7160e01b600052602260045260246000fd5b50919050565b634e487b7160e01b600052601160045260246000fd5b6001600160a01b0381168114610a6c57600080fdfea2646970667358221220d5a17a5864544c845d31e79e0fd7f2bbe02501ffa88002ab4521ef7c53742daf64736f6c63430008000033",
  "devdoc": {
    "kind": "dev",
    "methods": {
      "allowance(address,address)": {
        "details": "See {IERC20-allowance}."
      },
      "approve(address,uint256)": {
        "details": "See {IERC20-approve}. Requirements: - `spender` cannot be the zero address."
      },
      "balanceOf(address)": {
        "details": "See {IERC20-balanceOf}."
      },
      "decimals()": {
        "details": "Returns the number of decimals used to get its user representation. For example, if `decimals` equals `2`, a balance of `505` tokens should be displayed to a user as `5.05` (`505 / 10 ** 2`). Tokens usually opt for a value of 18, imitating the relationship between Ether and Wei. This is the value {ERC20} uses, unless this function is overridden; NOTE: This information is only used for _display_ purposes: it in no way affects any of the arithmetic of the contract, including {IERC20-balanceOf} and {IERC20-transfer}."
      },
      "decreaseAllowance(address,uint256)": {
        "details": "Atomically decreases the allowance granted to `spender` by the caller. This is an alternative to {approve} that can be used as a mitigation for problems described in {IERC20-approve}. Emits an {Approval} event indicating the updated allowance. Requirements: - `spender` cannot be the zero address. - `spender` must have allowance for the caller of at least `subtractedValue`."
      },
      "getRoleAdmin(bytes32)": {
        "details": "Returns the admin role that controls `role`. See {grantRole} and {revokeRole}. To change a role's admin, use {_setRoleAdmin}."
      },
      "grantRole(bytes32,address)": {
        "details": "Grants `role` to `account`. If `account` had not been already granted `role`, emits a {RoleGranted} event. Requirements: - the caller must have ``role``'s admin role."
      },
      "hasRole(bytes32,address)": {
        "details": "Returns `true` if `account` has been granted `role`."
      },
      "increaseAllowance(address,uint256)": {
        "details": "Atomically increases the allowance granted to `spender` by the caller. This is an alternative to {approve} that can be used as a mitigation for problems described in {IERC20-approve}. Emits an {Approval} event indicating the updated allowance. Requirements: - `spender` cannot be the zero address."
      },
      "name()": {
        "details": "Returns the name of the token."
      },
      "owner()": {
        "details": "Returns the address of the current owner."
      },
      "renounceOwnership()": {
        "details": "Leaves the contract without owner. It will not be possible to call `onlyOwner` functions anymore. Can only be called by the current owner. NOTE: Renouncing ownership will leave the contract without an owner, thereby removing any functionality that is only available to the owner."
      },
      "renounceRole(bytes32,address)": {
        "details": "Revokes `role` from the calling account. Roles are often managed via {grantRole} and {revokeRole}: this function's purpose is to provide a mechanism for accounts to lose their privileges if they are compromised (such as when a trusted device is misplaced). If the calling account had been revoked `role`, emits a {RoleRevoked} event. Requirements: - the caller must be `account`."
      },
      "revokeRole(bytes32,address)": {
        "details": "Revokes `role` from `account`. If `account` had been granted `role`, emits a {RoleRevoked} event. Requirements: - the caller must have ``role``'s admin role."
      },
      "supportsInterface(bytes4)": {
        "details": "See {IERC165-supportsInterface}."
      },
      "symbol()": {
        "details": "Returns the symbol of the token, usually a shorter version of the name."
      },
      "totalSupply()": {
        "details": "See {IERC20-totalSupply}."
      },
      "transfer(address,uint256)": {
        "details": "See {IERC20-transfer}. Requirements: - `recipient` cannot be the zero address. - the caller must have a balance of at least `amount`."
      },
      "transferFrom(address,address,uint256)": {
        "details": "See {IERC20-transferFrom}. Emits an {Approval} event indicating the updated allowance. This is not required by the EIP. See the note at the beginning of {ERC20}. Requirements: - `sender` and `recipient` cannot be the zero address. - `sender` must have a balance of at least `amount`. - the caller must have allowance for ``sender``'s tokens of at least `amount`."
      },
      "transferOwnership(address)": {
        "details": "Transfers ownership of the contract to a new account (`newOwner`). Can only be called by the current owner."
      }
    },
    "version": 1
  },
  "userdoc": {
    "kind": "user",
    "methods": {},
    "version": 1
  },
  "storageLayout": {
    "storage": [
      {
        "astId": 502,
        "contract": "contracts/CryptoPageToken.sol:PageToken",
        "label": "_balances",
        "offset": 0,
        "slot": "0",
        "type": "t_mapping(t_address,t_uint256)"
      },
      {
        "astId": 508,
        "contract": "contracts/CryptoPageToken.sol:PageToken",
        "label": "_allowances",
        "offset": 0,
        "slot": "1",
        "type": "t_mapping(t_address,t_mapping(t_address,t_uint256))"
      },
      {
        "astId": 510,
        "contract": "contracts/CryptoPageToken.sol:PageToken",
        "label": "_totalSupply",
        "offset": 0,
        "slot": "2",
        "type": "t_uint256"
      },
      {
        "astId": 512,
        "contract": "contracts/CryptoPageToken.sol:PageToken",
        "label": "_name",
        "offset": 0,
        "slot": "3",
        "type": "t_string_storage"
      },
      {
        "astId": 514,
        "contract": "contracts/CryptoPageToken.sol:PageToken",
        "label": "_symbol",
        "offset": 0,
        "slot": "4",
        "type": "t_string_storage"
      },
      {
        "astId": 24,
        "contract": "contracts/CryptoPageToken.sol:PageToken",
        "label": "_roles",
        "offset": 0,
        "slot": "5",
        "type": "t_mapping(t_bytes32,t_struct(RoleData)19_storage)"
      },
      {
        "astId": 389,
        "contract": "contracts/CryptoPageToken.sol:PageToken",
        "label": "_owner",
        "offset": 0,
        "slot": "6",
        "type": "t_address"
      },
      {
        "astId": 6080,
        "contract": "contracts/CryptoPageToken.sol:PageToken",
        "label": "tokenB",
        "offset": 0,
        "slot": "7",
        "type": "t_contract(ERC20)1032"
      },
      {
        "astId": 6083,
        "contract": "contracts/CryptoPageToken.sol:PageToken",
        "label": "pool",
        "offset": 0,
        "slot": "8",
        "type": "t_contract(IUniswapV3Pool)4383"
      }
    ],
    "types": {
      "t_address": {
        "encoding": "inplace",
        "label": "address",
        "numberOfBytes": "20"
      },
      "t_bool": {
        "encoding": "inplace",
        "label": "bool",
        "numberOfBytes": "1"
      },
      "t_bytes32": {
        "encoding": "inplace",
        "label": "bytes32",
        "numberOfBytes": "32"
      },
      "t_contract(ERC20)1032": {
        "encoding": "inplace",
        "label": "contract ERC20",
        "numberOfBytes": "20"
      },
      "t_contract(IUniswapV3Pool)4383": {
        "encoding": "inplace",
        "label": "contract IUniswapV3Pool",
        "numberOfBytes": "20"
      },
      "t_mapping(t_address,t_bool)": {
        "encoding": "mapping",
        "key": "t_address",
        "label": "mapping(address => bool)",
        "numberOfBytes": "32",
        "value": "t_bool"
      },
      "t_mapping(t_address,t_mapping(t_address,t_uint256))": {
        "encoding": "mapping",
        "key": "t_address",
        "label": "mapping(address => mapping(address => uint256))",
        "numberOfBytes": "32",
        "value": "t_mapping(t_address,t_uint256)"
      },
      "t_mapping(t_address,t_uint256)": {
        "encoding": "mapping",
        "key": "t_address",
        "label": "mapping(address => uint256)",
        "numberOfBytes": "32",
        "value": "t_uint256"
      },
      "t_mapping(t_bytes32,t_struct(RoleData)19_storage)": {
        "encoding": "mapping",
        "key": "t_bytes32",
        "label": "mapping(bytes32 => struct AccessControl.RoleData)",
        "numberOfBytes": "32",
        "value": "t_struct(RoleData)19_storage"
      },
      "t_string_storage": {
        "encoding": "bytes",
        "label": "string",
        "numberOfBytes": "32"
      },
      "t_struct(RoleData)19_storage": {
        "encoding": "inplace",
        "label": "struct AccessControl.RoleData",
        "members": [
          {
            "astId": 16,
            "contract": "contracts/CryptoPageToken.sol:PageToken",
            "label": "members",
            "offset": 0,
            "slot": "0",
            "type": "t_mapping(t_address,t_bool)"
          },
          {
            "astId": 18,
            "contract": "contracts/CryptoPageToken.sol:PageToken",
            "label": "adminRole",
            "offset": 0,
            "slot": "1",
            "type": "t_bytes32"
          }
        ],
        "numberOfBytes": "64"
      },
      "t_uint256": {
        "encoding": "inplace",
        "label": "uint256",
        "numberOfBytes": "32"
      }
    }
  }
}