{
  "address": "0x46a4d7E1A3C8251e1b9f0661bAb4B55B6EF60BA7",
  "abi": [
    {
      "inputs": [
        {
          "internalType": "address",
          "name": "_treasury",
          "type": "address"
        },
        {
          "internalType": "address",
          "name": "_token",
          "type": "address"
        },
        {
          "internalType": "address",
          "name": "_commentMinter",
          "type": "address"
        }
      ],
      "stateMutability": "nonpayable",
      "type": "constructor"
    },
    {
      "anonymous": false,
      "inputs": [
        {
          "indexed": true,
          "internalType": "address",
          "name": "owner",
          "type": "address"
        },
        {
          "indexed": true,
          "internalType": "address",
          "name": "approved",
          "type": "address"
        },
        {
          "indexed": true,
          "internalType": "uint256",
          "name": "tokenId",
          "type": "uint256"
        }
      ],
      "name": "Approval",
      "type": "event"
    },
    {
      "anonymous": false,
      "inputs": [
        {
          "indexed": true,
          "internalType": "address",
          "name": "owner",
          "type": "address"
        },
        {
          "indexed": true,
          "internalType": "address",
          "name": "operator",
          "type": "address"
        },
        {
          "indexed": false,
          "internalType": "bool",
          "name": "approved",
          "type": "bool"
        }
      ],
      "name": "ApprovalForAll",
      "type": "event"
    },
    {
      "anonymous": false,
      "inputs": [
        {
          "indexed": true,
          "internalType": "address",
          "name": "previousOwner",
          "type": "address"
        },
        {
          "indexed": true,
          "internalType": "address",
          "name": "newOwner",
          "type": "address"
        }
      ],
      "name": "OwnershipTransferred",
      "type": "event"
    },
    {
      "anonymous": false,
      "inputs": [
        {
          "indexed": true,
          "internalType": "address",
          "name": "from",
          "type": "address"
        },
        {
          "indexed": true,
          "internalType": "address",
          "name": "to",
          "type": "address"
        },
        {
          "indexed": true,
          "internalType": "uint256",
          "name": "tokenId",
          "type": "uint256"
        }
      ],
      "name": "Transfer",
      "type": "event"
    },
    {
      "inputs": [
        {
          "internalType": "address",
          "name": "to",
          "type": "address"
        },
        {
          "internalType": "uint256",
          "name": "tokenId",
          "type": "uint256"
        }
      ],
      "name": "approve",
      "outputs": [],
      "stateMutability": "nonpayable",
      "type": "function"
    },
    {
      "inputs": [
        {
          "internalType": "address",
          "name": "owner",
          "type": "address"
        }
      ],
      "name": "balanceOf",
      "outputs": [
        {
          "internalType": "uint256",
          "name": "",
          "type": "uint256"
        }
      ],
      "stateMutability": "view",
      "type": "function"
    },
    {
      "inputs": [],
      "name": "baseURL",
      "outputs": [
        {
          "internalType": "string",
          "name": "",
          "type": "string"
        }
      ],
      "stateMutability": "view",
      "type": "function"
    },
    {
      "inputs": [
        {
          "internalType": "uint256",
          "name": "_tokenId",
          "type": "uint256"
        }
      ],
      "name": "burn",
      "outputs": [],
      "stateMutability": "nonpayable",
      "type": "function"
    },
    {
      "inputs": [],
      "name": "fee",
      "outputs": [
        {
          "internalType": "uint256",
          "name": "",
          "type": "uint256"
        }
      ],
      "stateMutability": "view",
      "type": "function"
    },
    {
      "inputs": [
        {
          "internalType": "uint256",
          "name": "tokenId",
          "type": "uint256"
        }
      ],
      "name": "getApproved",
      "outputs": [
        {
          "internalType": "address",
          "name": "",
          "type": "address"
        }
      ],
      "stateMutability": "view",
      "type": "function"
    },
    {
      "inputs": [],
      "name": "getBaseURL",
      "outputs": [
        {
          "internalType": "string",
          "name": "",
          "type": "string"
        }
      ],
      "stateMutability": "view",
      "type": "function"
    },
    {
      "inputs": [],
      "name": "getFee",
      "outputs": [
        {
          "internalType": "uint256",
          "name": "",
          "type": "uint256"
        }
      ],
      "stateMutability": "view",
      "type": "function"
    },
    {
      "inputs": [],
      "name": "getTreasury",
      "outputs": [
        {
          "internalType": "address",
          "name": "",
          "type": "address"
        }
      ],
      "stateMutability": "view",
      "type": "function"
    },
    {
      "inputs": [
        {
          "internalType": "address",
          "name": "owner",
          "type": "address"
        },
        {
          "internalType": "address",
          "name": "operator",
          "type": "address"
        }
      ],
      "name": "isApprovedForAll",
      "outputs": [
        {
          "internalType": "bool",
          "name": "",
          "type": "bool"
        }
      ],
      "stateMutability": "view",
      "type": "function"
    },
    {
      "inputs": [],
      "name": "name",
      "outputs": [
        {
          "internalType": "string",
          "name": "",
          "type": "string"
        }
      ],
      "stateMutability": "view",
      "type": "function"
    },
    {
      "inputs": [],
      "name": "owner",
      "outputs": [
        {
          "internalType": "address",
          "name": "",
          "type": "address"
        }
      ],
      "stateMutability": "view",
      "type": "function"
    },
    {
      "inputs": [
        {
          "internalType": "uint256",
          "name": "tokenId",
          "type": "uint256"
        }
      ],
      "name": "ownerOf",
      "outputs": [
        {
          "internalType": "address",
          "name": "",
          "type": "address"
        }
      ],
      "stateMutability": "view",
      "type": "function"
    },
    {
      "inputs": [],
      "name": "renounceOwnership",
      "outputs": [],
      "stateMutability": "nonpayable",
      "type": "function"
    },
    {
      "inputs": [
        {
          "internalType": "address",
          "name": "_owner",
          "type": "address"
        },
        {
          "internalType": "string",
          "name": "_tokenURI",
          "type": "string"
        }
      ],
      "name": "safeMint",
      "outputs": [
        {
          "internalType": "uint256",
          "name": "",
          "type": "uint256"
        }
      ],
      "stateMutability": "nonpayable",
      "type": "function"
    },
    {
      "inputs": [
        {
          "internalType": "address",
          "name": "from",
          "type": "address"
        },
        {
          "internalType": "address",
          "name": "to",
          "type": "address"
        },
        {
          "internalType": "uint256",
          "name": "tokenId",
          "type": "uint256"
        }
      ],
      "name": "safeTransferFrom",
      "outputs": [],
      "stateMutability": "nonpayable",
      "type": "function"
    },
    {
      "inputs": [
        {
          "internalType": "address",
          "name": "from",
          "type": "address"
        },
        {
          "internalType": "address",
          "name": "to",
          "type": "address"
        },
        {
          "internalType": "uint256",
          "name": "tokenId",
          "type": "uint256"
        },
        {
          "internalType": "bytes",
          "name": "_data",
          "type": "bytes"
        }
      ],
      "name": "safeTransferFrom",
      "outputs": [],
      "stateMutability": "nonpayable",
      "type": "function"
    },
    {
      "inputs": [
        {
          "internalType": "address",
          "name": "operator",
          "type": "address"
        },
        {
          "internalType": "bool",
          "name": "approved",
          "type": "bool"
        }
      ],
      "name": "setApprovalForAll",
      "outputs": [],
      "stateMutability": "nonpayable",
      "type": "function"
    },
    {
      "inputs": [
        {
          "internalType": "uint256",
          "name": "_percent",
          "type": "uint256"
        }
      ],
      "name": "setFee",
      "outputs": [],
      "stateMutability": "nonpayable",
      "type": "function"
    },
    {
      "inputs": [
        {
          "internalType": "address",
          "name": "_treasury",
          "type": "address"
        }
      ],
      "name": "setTreasury",
      "outputs": [],
      "stateMutability": "nonpayable",
      "type": "function"
    },
    {
      "inputs": [
        {
          "internalType": "bytes4",
          "name": "interfaceId",
          "type": "bytes4"
        }
      ],
      "name": "supportsInterface",
      "outputs": [
        {
          "internalType": "bool",
          "name": "",
          "type": "bool"
        }
      ],
      "stateMutability": "view",
      "type": "function"
    },
    {
      "inputs": [],
      "name": "symbol",
      "outputs": [
        {
          "internalType": "string",
          "name": "",
          "type": "string"
        }
      ],
      "stateMutability": "view",
      "type": "function"
    },
    {
      "inputs": [
        {
          "internalType": "uint256",
          "name": "tokenId",
          "type": "uint256"
        }
      ],
      "name": "tokenPrice",
      "outputs": [
        {
          "internalType": "uint256",
          "name": "",
          "type": "uint256"
        }
      ],
      "stateMutability": "view",
      "type": "function"
    },
    {
      "inputs": [
        {
          "internalType": "uint256",
          "name": "tokenId",
          "type": "uint256"
        }
      ],
      "name": "tokenURI",
      "outputs": [
        {
          "internalType": "string",
          "name": "",
          "type": "string"
        }
      ],
      "stateMutability": "view",
      "type": "function"
    },
    {
      "inputs": [
        {
          "internalType": "address",
          "name": "from",
          "type": "address"
        },
        {
          "internalType": "address",
          "name": "to",
          "type": "address"
        },
        {
          "internalType": "uint256",
          "name": "tokenId",
          "type": "uint256"
        }
      ],
      "name": "transferFrom",
      "outputs": [],
      "stateMutability": "nonpayable",
      "type": "function"
    },
    {
      "inputs": [
        {
          "internalType": "address",
          "name": "newOwner",
          "type": "address"
        }
      ],
      "name": "transferOwnership",
      "outputs": [],
      "stateMutability": "nonpayable",
      "type": "function"
    },
    {
      "inputs": [],
      "name": "treasury",
      "outputs": [
        {
          "internalType": "address",
          "name": "",
          "type": "address"
        }
      ],
      "stateMutability": "view",
      "type": "function"
    }
  ],
  "transactionHash": "0x8c21580c032c478995802481c4ef192708f9fc573723803fe25c446e75b84db9",
  "args": [
    "0x42Ea7075F16e355DE9D9F69D146A439AC4Cb6030",
    "0x6fa320aC907225c9f6Bc1A69f0baA8791c35E5f8",
    "0xbCDFcA8897E09C58043bd8684051365E2f198c76"
  ],
  "solcInputHash": "4ca851e7939aacfa60e31101408b2e44",
  "bytecode": "0x60c0604052601560808190527f68747470733a2f2f697066732e696f2f697066732f000000000000000000000060a09081526200004091600b91906200019d565b506103e8600d553480156200005457600080fd5b5060405162002f1238038062002f12833981016040819052620000779162000260565b60405180604001604052806008815260200167141859d94813919560c21b81525060405180604001604052806008815260200167141051d14b53919560c21b8152508160009080519060200190620000d19291906200019d565b508051620000e79060019060208401906200019d565b50505062000104620000fe6200014760201b60201c565b6200014b565b600c80546001600160a01b039485166001600160a01b0319918216179091556009805493851693821693909317909255600a8054919093169116179055620002e6565b3390565b600780546001600160a01b038381166001600160a01b0319831681179093556040519116919082907f8be0079c531659141344cd1fd0a4f28419497f9722a3daafe3b4186f6b6457e090600090a35050565b828054620001ab90620002a9565b90600052602060002090601f016020900481019282620001cf57600085556200021a565b82601f10620001ea57805160ff19168380011785556200021a565b828001600101855582156200021a579182015b828111156200021a578251825591602001919060010190620001fd565b50620002289291506200022c565b5090565b5b808211156200022857600081556001016200022d565b80516001600160a01b03811681146200025b57600080fd5b919050565b60008060006060848603121562000275578283fd5b620002808462000243565b9250620002906020850162000243565b9150620002a06040850162000243565b90509250925092565b600281046001821680620002be57607f821691505b60208210811415620002e057634e487b7160e01b600052602260045260246000fd5b50919050565b612c1c80620002f66000396000f3fe608060405234801561001057600080fd5b50600436106101a95760003560e01c806370a08231116100f9578063ced72f8711610097578063ddca3f4311610071578063ddca3f431461033f578063e985e9c514610347578063f0f442601461035a578063f2fde38b1461036d576101a9565b8063ced72f8714610311578063d204c45e14610319578063d4ddce8a1461032c576101a9565b806395d89b41116100d357806395d89b41146102d0578063a22cb465146102d8578063b88d4fde146102eb578063c87b56dd146102fe576101a9565b806370a08231146102a0578063715018a6146102c05780638da5cb5b146102c8576101a9565b80633b19e84a1161016657806342966c681161014057806342966c681461025f57806361d027b3146102725780636352211e1461027a57806369fe0e2d1461028d576101a9565b80633b19e84a1461023c57806340c84b0e1461024457806342842e0e1461024c576101a9565b806301ffc9a7146101ae57806306fdde03146101d7578063081812fc146101ec578063095ea7b31461020c5780631c7ef2aa1461022157806323b872dd14610229575b600080fd5b6101c16101bc3660046121fb565b610380565b6040516101ce9190612344565b60405180910390f35b6101df6103c8565b6040516101ce919061234f565b6101ff6101fa36600461224f565b61045a565b6040516101ce91906122da565b61021f61021a366004612098565b6104a6565b005b6101df61053e565b61021f610237366004611f4d565b61054d565b6101ff61082a565b6101df610839565b61021f61025a366004611f4d565b6108c7565b61021f61026d36600461224f565b6108e2565b6101ff610d45565b6101ff61028836600461224f565b610d54565b61021f61029b36600461224f565b610d89565b6102b36102ae366004611ef9565b610e10565b6040516101ce9190612a18565b61021f610e54565b6101ff610e9f565b6101df610eae565b61021f6102e636600461200a565b610ebd565b61021f6102f9366004611f8d565b610ed3565b6101df61030c36600461224f565b610f0c565b6102b3610f46565b6102b3610327366004612037565b610f4c565b6102b361033a36600461224f565b6111c0565b6102b36111fe565b6101c1610355366004611f15565b611204565b61021f610368366004611ef9565b611232565b61021f61037b366004611ef9565b6112b9565b60006001600160e01b031982166380ac58cd60e01b14806103b157506001600160e01b03198216635b5e139f60e01b145b806103c057506103c08261132a565b90505b919050565b6060600080546103d790612b01565b80601f016020809104026020016040519081016040528092919081815260200182805461040390612b01565b80156104505780601f1061042557610100808354040283529160200191610450565b820191906000526020600020905b81548152906001019060200180831161043357829003601f168201915b5050505050905090565b600061046582611343565b61048a5760405162461bcd60e51b8152600401610481906127b7565b60405180910390fd5b506000908152600460205260409020546001600160a01b031690565b60006104b182610d54565b9050806001600160a01b0316836001600160a01b031614156104e55760405162461bcd60e51b8152600401610481906128d0565b806001600160a01b03166104f7611360565b6001600160a01b03161480610513575061051381610355611360565b61052f5760405162461bcd60e51b8152600401610481906125a8565b6105398383611364565b505050565b6060600b80546103d790612b01565b6000610679611f4061066d612710610673600960009054906101000a90046001600160a01b03166001600160a01b03166336ab348a6040518163ffffffff1660e01b815260040160206040518083038186803b1580156105ac57600080fd5b505afa1580156105c0573d6000803e3d6000fd5b505050506040513d601f19601f820116820180604052508101906105e49190612267565b6009546040805163dc5c0eb160e01b8152905161066d926001600160a01b03169163dc5c0eb1916004808301926020929190829003018186803b15801561062a57600080fd5b505afa15801561063e573d6000803e3d6000fd5b505050506040513d601f19601f820116820180604052508101906106629190612267565b61066d3a5a906113d2565b906113d2565b906113e5565b905061068c610686611360565b836113f1565b6106a85760405162461bcd60e51b8152600401610481906129c8565b60006106bc610bb861066d846127106113e5565b905060006106d26103e861066d856127106113e5565b90506106df868686611476565b6009546040516340c10f1960e01b81526001600160a01b03909116906340c10f1990610711903390869060040161232b565b600060405180830381600087803b15801561072b57600080fd5b505af115801561073f573d6000803e3d6000fd5b5050600954600087815260106020526040908190205490516340c10f1960e01b81526001600160a01b0392831694506340c10f1993506107879290911690869060040161232b565b600060405180830381600087803b1580156107a157600080fd5b505af11580156107b5573d6000803e3d6000fd5b5050600954600c546040516340c10f1960e01b81526001600160a01b0392831694506340c10f1993506107f09290911690859060040161232b565b600060405180830381600087803b15801561080a57600080fd5b505af115801561081e573d6000803e3d6000fd5b50505050505050505050565b600c546001600160a01b031690565b600b805461084690612b01565b80601f016020809104026020016040519081016040528092919081815260200182805461087290612b01565b80156108bf5780601f10610894576101008083540402835291602001916108bf565b820191906000526020600020905b8154815290600101906020018083116108a257829003601f168201915b505050505081565b61053983838360405180602001604052806000815250610ed3565b60095460408051631b559a4560e11b815290516000926001600160a01b0316916336ab348a916004808301926020929190829003018186803b15801561092757600080fd5b505afa15801561093b573d6000803e3d6000fd5b505050506040513d601f19601f8201168201806040525081019061095f9190612267565b600960009054906101000a90046001600160a01b03166001600160a01b031663dc5c0eb16040518163ffffffff1660e01b815260040160206040518083038186803b1580156109ad57600080fd5b505afa1580156109c1573d6000803e3d6000fd5b505050506040513d601f19601f820116820180604052508101906109e59190612267565b6109ef9190612a9f565b90506000610a028261066d3a5a906113d2565b905033610a0e84610d54565b6001600160a01b031614610a345760405162461bcd60e51b815260040161048190612991565b600a5460405163badf08eb60e01b81526000916001600160a01b03169063badf08eb90610a67903090889060040161232b565b60206040518083038186803b158015610a7f57600080fd5b505afa158015610a93573d6000803e3d6000fd5b505050506040513d601f19601f82011682018060405250810190610ab791906121df565b90508015610c3457600a5460405163556aab9360e11b81526000916001600160a01b03169063aad5572690610af2903090899060040161232b565b60206040518083038186803b158015610b0a57600080fd5b505afa158015610b1e573d6000803e3d6000fd5b505050506040513d601f19601f82011682018060405250810190610b429190612233565b90506000816001600160a01b03166391f3410c6040518163ffffffff1660e01b815260040160006040518083038186803b158015610b7f57600080fd5b505afa158015610b93573d6000803e3d6000fd5b505050506040513d6000823e601f3d908101601f19168201604052610bbb91908101906120c3565b905060005b8151811015610c30576000828281518110610beb57634e487b7160e01b600052603260045260246000fd5b60200260200101519050610c1b610c148861066d600285608001516113d290919063ffffffff16565b87906115a3565b50508080610c2890612b3c565b915050610bc0565b5050505b6009546040516370a0823160e01b815283916001600160a01b0316906370a0823190610c649033906004016122da565b60206040518083038186803b158015610c7c57600080fd5b505afa158015610c90573d6000803e3d6000fd5b505050506040513d601f19601f82011682018060405250810190610cb49190612267565b1015610cd25760405162461bcd60e51b815260040161048190612431565b610cdb846115af565b600954604051632770a7eb60e21b81526001600160a01b0390911690639dc29fac90610d0d903390869060040161232b565b600060405180830381600087803b158015610d2757600080fd5b505af1158015610d3b573d6000803e3d6000fd5b5050505050505050565b600c546001600160a01b031681565b6000818152600260205260408120546001600160a01b0316806103c05760405162461bcd60e51b81526004016104819061264f565b610d91611360565b6001600160a01b0316610da2610e9f565b6001600160a01b031614610dc85760405162461bcd60e51b815260040161048190612803565b600a811015610de95760405162461bcd60e51b8152600401610481906124d9565b610bb8811115610e0b5760405162461bcd60e51b8152600401610481906126e6565b600d55565b60006001600160a01b038216610e385760405162461bcd60e51b815260040161048190612605565b506001600160a01b031660009081526003602052604090205490565b610e5c611360565b6001600160a01b0316610e6d610e9f565b6001600160a01b031614610e935760405162461bcd60e51b815260040161048190612803565b610e9d60006115b8565b565b6007546001600160a01b031690565b6060600180546103d790612b01565b610ecf610ec8611360565b838361160a565b5050565b610ede610686611360565b610efa5760405162461bcd60e51b815260040161048190612940565b610f06848484846116ad565b50505050565b6060610f1661053e565b610f1f836116e0565b604051602001610f309291906122ab565b6040516020818303038152906040529050919050565b600d5490565b600080610fac611f4061066d612710610673600960009054906101000a90046001600160a01b03166001600160a01b03166336ab348a6040518163ffffffff1660e01b815260040160206040518083038186803b1580156105ac57600080fd5b90506000610fba85856117f9565b90506000610fd9600d5461066d612710866113e590919063ffffffff16565b90506000610fe7848361184d565b6000848152600f602052604090819020869055600954600c5491516340c10f1960e01b81529293506001600160a01b03908116926340c10f1992611031921690869060040161232b565b600060405180830381600087803b15801561104b57600080fd5b505af115801561105f573d6000803e3d6000fd5b505050506001600160a01b0387163314156110dd576009546040516340c10f1960e01b81526001600160a01b03909116906340c10f19906110a6908a90859060040161232b565b600060405180830381600087803b1580156110c057600080fd5b505af11580156110d4573d6000803e3d6000fd5b505050506111b5565b60006110ea8260026113e5565b6009546040516340c10f1960e01b81529192506001600160a01b0316906340c10f199061111d908b90859060040161232b565b600060405180830381600087803b15801561113757600080fd5b505af115801561114b573d6000803e3d6000fd5b50506009546040516340c10f1960e01b81526001600160a01b0390911692506340c10f199150611181903390859060040161232b565b600060405180830381600087803b15801561119b57600080fd5b505af11580156111af573d6000803e3d6000fd5b50505050505b509095945050505050565b60006111cc6008611859565b8211156111eb5760405162461bcd60e51b815260040161048190612911565b506000908152600f602052604090205490565b600d5481565b6001600160a01b03918216600090815260056020908152604080832093909416825291909152205460ff1690565b61123a611360565b6001600160a01b031661124b610e9f565b6001600160a01b0316146112715760405162461bcd60e51b815260040161048190612803565b6001600160a01b0381166112975760405162461bcd60e51b815260040161048190612571565b600c80546001600160a01b0319166001600160a01b0392909216919091179055565b6112c1611360565b6001600160a01b03166112d2610e9f565b6001600160a01b0316146112f85760405162461bcd60e51b815260040161048190612803565b6001600160a01b03811661131e5760405162461bcd60e51b8152600401610481906123b4565b611327816115b8565b50565b6001600160e01b031981166301ffc9a760e01b14919050565b6000908152600260205260409020546001600160a01b0316151590565b3390565b600081815260046020526040902080546001600160a01b0319166001600160a01b038416908117909155819061139982610d54565b6001600160a01b03167f8c5be1e5ebec7d5bd14f71427d1e84f3dd0314c0f7b2291e5b200ac8c7c3b92560405160405180910390a45050565b60006113de8284612a9f565b9392505050565b60006113de8284612a8b565b60006113fc82611343565b6114185760405162461bcd60e51b815260040161048190612525565b600061142383610d54565b9050806001600160a01b0316846001600160a01b0316148061145e5750836001600160a01b03166114538461045a565b6001600160a01b0316145b8061146e575061146e8185611204565b949350505050565b826001600160a01b031661148982610d54565b6001600160a01b0316146114af5760405162461bcd60e51b815260040161048190612838565b6001600160a01b0382166114d55760405162461bcd60e51b81526004016104819061245e565b6114e0838383610539565b6114eb600082611364565b6001600160a01b0383166000908152600360205260408120805460019290611514908490612abe565b90915550506001600160a01b0382166000908152600360205260408120805460019290611542908490612a73565b909155505060008181526002602052604080822080546001600160a01b0319166001600160a01b0386811691821790925591518493918716917fddf252ad1be2c89b69c2b068fc378daa952ba7f163c4a11628f55a4df523b3ef91a4505050565b60006113de8284612a73565b6113278161185d565b600780546001600160a01b038381166001600160a01b0319831681179093556040519116919082907f8be0079c531659141344cd1fd0a4f28419497f9722a3daafe3b4186f6b6457e090600090a35050565b816001600160a01b0316836001600160a01b0316141561163c5760405162461bcd60e51b8152600401610481906124a2565b6001600160a01b0383811660008181526005602090815260408083209487168084529490915290819020805460ff1916851515179055517f17307eab39ab6107e8899845ad3d59bd9653f200f220920489ca2b5937696c31906116a0908590612344565b60405180910390a3505050565b6116b8848484611476565b6116c48484848461189d565b610f065760405162461bcd60e51b815260040161048190612362565b60606116eb82611343565b6117075760405162461bcd60e51b815260040161048190612766565b6000828152600660205260408120805461172090612b01565b80601f016020809104026020016040519081016040528092919081815260200182805461174c90612b01565b80156117995780601f1061176e57610100808354040283529160200191611799565b820191906000526020600020905b81548152906001019060200180831161177c57829003601f168201915b5050505050905060006117aa6119b8565b90508051600014156117be575090506103c3565b8151156117f05780826040516020016117d89291906122ab565b604051602081830303815290604052925050506103c3565b61146e846119ca565b6000806118066008611859565b600081815260106020526040902080546001600160a01b0319166001600160a01b03871617905590506118398482611a4c565b6118438184611a66565b6113de6008611aaa565b60006113de8284612abe565b5490565b61186681611ab3565b6000818152600660205260409020805461187f90612b01565b15905061132757600081815260066020526040812061132791611d8d565b60006118b1846001600160a01b0316611b5a565b156119ad57836001600160a01b031663150b7a026118cd611360565b8786866040518563ffffffff1660e01b81526004016118ef94939291906122ee565b602060405180830381600087803b15801561190957600080fd5b505af1925050508015611939575060408051601f3d908101601f1916820190925261193691810190612217565b60015b611993573d808015611967576040519150601f19603f3d011682016040523d82523d6000602084013e61196c565b606091505b50805161198b5760405162461bcd60e51b815260040161048190612362565b805181602001fd5b6001600160e01b031916630a85bd0160e11b14905061146e565b506001949350505050565b60408051602081019091526000815290565b60606119d582611343565b6119f15760405162461bcd60e51b815260040161048190612881565b60006119fb6119b8565b90506000815111611a1b57604051806020016040528060008152506113de565b80611a2584611b60565b604051602001611a369291906122ab565b6040516020818303038152906040529392505050565b610ecf828260405180602001604052806000815250611c7b565b611a6f82611343565b611a8b5760405162461bcd60e51b815260040161048190612698565b6000828152600660209081526040909120825161053992840190611dc9565b80546001019055565b6000611abe82610d54565b9050611acc81600084610539565b611ad7600083611364565b6001600160a01b0381166000908152600360205260408120805460019290611b00908490612abe565b909155505060008281526002602052604080822080546001600160a01b0319169055518391906001600160a01b038416907fddf252ad1be2c89b69c2b068fc378daa952ba7f163c4a11628f55a4df523b3ef908390a45050565b3b151590565b606081611b8557506040805180820190915260018152600360fc1b60208201526103c3565b8160005b8115611baf5780611b9981612b3c565b9150611ba89050600a83612a8b565b9150611b89565b60008167ffffffffffffffff811115611bd857634e487b7160e01b600052604160045260246000fd5b6040519080825280601f01601f191660200182016040528015611c02576020820181803683370190505b5090505b841561146e57611c17600183612abe565b9150611c24600a86612b57565b611c2f906030612a73565b60f81b818381518110611c5257634e487b7160e01b600052603260045260246000fd5b60200101906001600160f81b031916908160001a905350611c74600a86612a8b565b9450611c06565b611c858383611cae565b611c92600084848461189d565b6105395760405162461bcd60e51b815260040161048190612362565b6001600160a01b038216611cd45760405162461bcd60e51b815260040161048190612731565b611cdd81611343565b15611cfa5760405162461bcd60e51b8152600401610481906123fa565b611d0660008383610539565b6001600160a01b0382166000908152600360205260408120805460019290611d2f908490612a73565b909155505060008181526002602052604080822080546001600160a01b0319166001600160a01b03861690811790915590518392907fddf252ad1be2c89b69c2b068fc378daa952ba7f163c4a11628f55a4df523b3ef908290a45050565b508054611d9990612b01565b6000825580601f10611dab5750611327565b601f0160209004906000526020600020908101906113279190611e4d565b828054611dd590612b01565b90600052602060002090601f016020900481019282611df75760008555611e3d565b82601f10611e1057805160ff1916838001178555611e3d565b82800160010185558215611e3d579182015b82811115611e3d578251825591602001919060010190611e22565b50611e49929150611e4d565b5090565b5b80821115611e495760008155600101611e4e565b6000611e75611e7084612a4b565b612a21565b9050828152838383011115611e8957600080fd5b828260208301376000602084830101529392505050565b80516103c381612bad565b80516103c381612bc2565b600082601f830112611ec6578081fd5b8151611ed4611e7082612a4b565b818152846020838601011115611ee8578283fd5b61146e826020830160208701612ad5565b600060208284031215611f0a578081fd5b81356113de81612bad565b60008060408385031215611f27578081fd5b8235611f3281612bad565b91506020830135611f4281612bad565b809150509250929050565b600080600060608486031215611f61578081fd5b8335611f6c81612bad565b92506020840135611f7c81612bad565b929592945050506040919091013590565b60008060008060808587031215611fa2578081fd5b8435611fad81612bad565b93506020850135611fbd81612bad565b925060408501359150606085013567ffffffffffffffff811115611fdf578182fd5b8501601f81018713611fef578182fd5b611ffe87823560208401611e62565b91505092959194509250565b6000806040838503121561201c578182fd5b823561202781612bad565b91506020830135611f4281612bc2565b60008060408385031215612049578182fd5b823561205481612bad565b9150602083013567ffffffffffffffff81111561206f578182fd5b8301601f8101851361207f578182fd5b61208e85823560208401611e62565b9150509250929050565b600080604083850312156120aa578182fd5b82356120b581612bad565b946020939093013593505050565b600060208083850312156120d5578182fd5b825167ffffffffffffffff808211156120ec578384fd5b818501915085601f8301126120ff578384fd5b81518181111561211157612111612b97565b61211e8485830201612a21565b81815284810190848601875b848110156121d0578151870160a0818d03601f1901121561214957898afd5b6040805160a081018181108a8211171561216557612165612b97565b8252828b01518152612178838301611ea0565b8b82015260608301518981111561218d578c8dfd5b61219b8f8d83870101611eb6565b83830152506121ac60808401611eab565b606082015260a092909201516080830152508452928701929087019060010161212a565b50909998505050505050505050565b6000602082840312156121f0578081fd5b81516113de81612bc2565b60006020828403121561220c578081fd5b81356113de81612bd0565b600060208284031215612228578081fd5b81516113de81612bd0565b600060208284031215612244578081fd5b81516113de81612bad565b600060208284031215612260578081fd5b5035919050565b600060208284031215612278578081fd5b5051919050565b60008151808452612297816020860160208601612ad5565b601f01601f19169290920160200192915050565b600083516122bd818460208801612ad5565b8351908301906122d1818360208801612ad5565b01949350505050565b6001600160a01b0391909116815260200190565b6001600160a01b03858116825284166020820152604081018390526080606082018190526000906123219083018461227f565b9695505050505050565b6001600160a01b03929092168252602082015260400190565b901515815260200190565b6000602082526113de602083018461227f565b60208082526032908201527f4552433732313a207472616e7366657220746f206e6f6e20455243373231526560408201527131b2b4bb32b91034b6b83632b6b2b73a32b960711b606082015260800190565b60208082526026908201527f4f776e61626c653a206e6577206f776e657220697320746865207a65726f206160408201526564647265737360d01b606082015260800190565b6020808252601c908201527f4552433732313a20746f6b656e20616c7265616479206d696e74656400000000604082015260600190565b6020808252601390820152726e6f7420656e6f756768742062616c616e636560681b604082015260600190565b60208082526024908201527f4552433732313a207472616e7366657220746f20746865207a65726f206164646040820152637265737360e01b606082015260800190565b60208082526019908201527f4552433732313a20617070726f766520746f2063616c6c657200000000000000604082015260600190565b6020808252602c908201527f7365744d696e744665653a206d696e696d756d206d696e74206665652070657260408201526b63656e7420697320302e312560a01b606082015260800190565b6020808252602c908201527f4552433732313a206f70657261746f7220717565727920666f72206e6f6e657860408201526b34b9ba32b73a103a37b5b2b760a11b606082015260800190565b6020808252601c908201527f73657454726561737572793a206973207a65726f206164647265737300000000604082015260600190565b60208082526038908201527f4552433732313a20617070726f76652063616c6c6572206973206e6f74206f7760408201527f6e6572206e6f7220617070726f76656420666f7220616c6c0000000000000000606082015260800190565b6020808252602a908201527f4552433732313a2062616c616e636520717565727920666f7220746865207a65604082015269726f206164647265737360b01b606082015260800190565b60208082526029908201527f4552433732313a206f776e657220717565727920666f72206e6f6e657869737460408201526832b73a103a37b5b2b760b91b606082015260800190565b6020808252602e908201527f45524337323155524953746f726167653a2055524920736574206f66206e6f6e60408201526d32bc34b9ba32b73a103a37b5b2b760911b606082015260800190565b6020808252602b908201527f7365744d696e744665653a206d6178696d756d206d696e74206665652070657260408201526a63656e742069732033302560a81b606082015260800190565b6020808252818101527f4552433732313a206d696e7420746f20746865207a65726f2061646472657373604082015260600190565b60208082526031908201527f45524337323155524953746f726167653a2055524920717565727920666f72206040820152703737b732bc34b9ba32b73a103a37b5b2b760791b606082015260800190565b6020808252602c908201527f4552433732313a20617070726f76656420717565727920666f72206e6f6e657860408201526b34b9ba32b73a103a37b5b2b760a11b606082015260800190565b6020808252818101527f4f776e61626c653a2063616c6c6572206973206e6f7420746865206f776e6572604082015260600190565b60208082526029908201527f4552433732313a207472616e73666572206f6620746f6b656e2074686174206960408201526839903737ba1037bbb760b91b606082015260800190565b6020808252602f908201527f4552433732314d657461646174613a2055524920717565727920666f72206e6f60408201526e3732bc34b9ba32b73a103a37b5b2b760891b606082015260800190565b60208082526021908201527f4552433732313a20617070726f76616c20746f2063757272656e74206f776e656040820152603960f91b606082015260800190565b602080825260159082015274139bc81d1bdad95b881dda5d1a081d1a1a5cc81259605a1b604082015260600190565b60208082526031908201527f4552433732313a207472616e736665722063616c6c6572206973206e6f74206f6040820152701ddb995c881b9bdc88185c1c1c9bdd9959607a1b606082015260800190565b6020808252601c908201527f4974277320706f737369626c65206f6e6c7920666f72206f776e657200000000604082015260600190565b60208082526030908201527f4552433732313a207472616e736665722063616c6c6572206973206e6f74206f60408201526f1ddb995c881bdc88185c1c1c9bdd995960821b606082015260800190565b90815260200190565b60405181810167ffffffffffffffff81118282101715612a4357612a43612b97565b604052919050565b600067ffffffffffffffff821115612a6557612a65612b97565b50601f01601f191660200190565b60008219821115612a8657612a86612b6b565b500190565b600082612a9a57612a9a612b81565b500490565b6000816000190483118215151615612ab957612ab9612b6b565b500290565b600082821015612ad057612ad0612b6b565b500390565b60005b83811015612af0578181015183820152602001612ad8565b83811115610f065750506000910152565b600281046001821680612b1557607f821691505b60208210811415612b3657634e487b7160e01b600052602260045260246000fd5b50919050565b6000600019821415612b5057612b50612b6b565b5060010190565b600082612b6657612b66612b81565b500690565b634e487b7160e01b600052601160045260246000fd5b634e487b7160e01b600052601260045260246000fd5b634e487b7160e01b600052604160045260246000fd5b6001600160a01b038116811461132757600080fd5b801515811461132757600080fd5b6001600160e01b03198116811461132757600080fdfea2646970667358221220e297679ea7ca266edbe457efd8c843ecef1edaaf5565547d4ec08c34a924853164736f6c63430008000033",
  "devdoc": {
    "kind": "dev",
    "methods": {
      "approve(address,uint256)": {
        "details": "See {IERC721-approve}."
      },
      "balanceOf(address)": {
        "details": "See {IERC721-balanceOf}."
      },
      "getApproved(uint256)": {
        "details": "See {IERC721-getApproved}."
      },
      "isApprovedForAll(address,address)": {
        "details": "See {IERC721-isApprovedForAll}."
      },
      "name()": {
        "details": "See {IERC721Metadata-name}."
      },
      "owner()": {
        "details": "Returns the address of the current owner."
      },
      "ownerOf(uint256)": {
        "details": "See {IERC721-ownerOf}."
      },
      "renounceOwnership()": {
        "details": "Leaves the contract without owner. It will not be possible to call `onlyOwner` functions anymore. Can only be called by the current owner. NOTE: Renouncing ownership will leave the contract without an owner, thereby removing any functionality that is only available to the owner."
      },
      "safeTransferFrom(address,address,uint256)": {
        "details": "See {IERC721-safeTransferFrom}."
      },
      "safeTransferFrom(address,address,uint256,bytes)": {
        "details": "See {IERC721-safeTransferFrom}."
      },
      "setApprovalForAll(address,bool)": {
        "details": "See {IERC721-setApprovalForAll}."
      },
      "supportsInterface(bytes4)": {
        "details": "See {IERC165-supportsInterface}."
      },
      "symbol()": {
        "details": "See {IERC721Metadata-symbol}."
      },
      "transferFrom(address,address,uint256)": {
        "details": "See {IERC721-transferFrom}."
      },
      "transferOwnership(address)": {
        "details": "Transfers ownership of the contract to a new account (`newOwner`). Can only be called by the current owner."
      }
    },
    "version": 1
  },
  "userdoc": {
    "kind": "user",
    "methods": {},
    "version": 1
  },
  "storageLayout": {
    "storage": [
      {
        "astId": 1161,
        "contract": "contracts/CryptoPageNFT.sol:PageNFT",
        "label": "_name",
        "offset": 0,
        "slot": "0",
        "type": "t_string_storage"
      },
      {
        "astId": 1163,
        "contract": "contracts/CryptoPageNFT.sol:PageNFT",
        "label": "_symbol",
        "offset": 0,
        "slot": "1",
        "type": "t_string_storage"
      },
      {
        "astId": 1167,
        "contract": "contracts/CryptoPageNFT.sol:PageNFT",
        "label": "_owners",
        "offset": 0,
        "slot": "2",
        "type": "t_mapping(t_uint256,t_address)"
      },
      {
        "astId": 1171,
        "contract": "contracts/CryptoPageNFT.sol:PageNFT",
        "label": "_balances",
        "offset": 0,
        "slot": "3",
        "type": "t_mapping(t_address,t_uint256)"
      },
      {
        "astId": 1175,
        "contract": "contracts/CryptoPageNFT.sol:PageNFT",
        "label": "_tokenApprovals",
        "offset": 0,
        "slot": "4",
        "type": "t_mapping(t_uint256,t_address)"
      },
      {
        "astId": 1181,
        "contract": "contracts/CryptoPageNFT.sol:PageNFT",
        "label": "_operatorApprovals",
        "offset": 0,
        "slot": "5",
        "type": "t_mapping(t_address,t_mapping(t_address,t_bool))"
      },
      {
        "astId": 2113,
        "contract": "contracts/CryptoPageNFT.sol:PageNFT",
        "label": "_tokenURIs",
        "offset": 0,
        "slot": "6",
        "type": "t_mapping(t_uint256,t_string_storage)"
      },
      {
        "astId": 389,
        "contract": "contracts/CryptoPageNFT.sol:PageNFT",
        "label": "_owner",
        "offset": 0,
        "slot": "7",
        "type": "t_address"
      },
      {
        "astId": 5457,
        "contract": "contracts/CryptoPageNFT.sol:PageNFT",
        "label": "_tokenIdCounter",
        "offset": 0,
        "slot": "8",
        "type": "t_struct(Counter)2580_storage"
      },
      {
        "astId": 5460,
        "contract": "contracts/CryptoPageNFT.sol:PageNFT",
        "label": "token",
        "offset": 0,
        "slot": "9",
        "type": "t_contract(PageToken)6193"
      },
      {
        "astId": 5463,
        "contract": "contracts/CryptoPageNFT.sol:PageNFT",
        "label": "commentMinter",
        "offset": 0,
        "slot": "10",
        "type": "t_contract(PageCommentMinter)5429"
      },
      {
        "astId": 5466,
        "contract": "contracts/CryptoPageNFT.sol:PageNFT",
        "label": "baseURL",
        "offset": 0,
        "slot": "11",
        "type": "t_string_storage"
      },
      {
        "astId": 5468,
        "contract": "contracts/CryptoPageNFT.sol:PageNFT",
        "label": "treasury",
        "offset": 0,
        "slot": "12",
        "type": "t_address"
      },
      {
        "astId": 5471,
        "contract": "contracts/CryptoPageNFT.sol:PageNFT",
        "label": "fee",
        "offset": 0,
        "slot": "13",
        "type": "t_uint256"
      },
      {
        "astId": 5475,
        "contract": "contracts/CryptoPageNFT.sol:PageNFT",
        "label": "commentsById",
        "offset": 0,
        "slot": "14",
        "type": "t_mapping(t_uint256,t_address)"
      },
      {
        "astId": 5479,
        "contract": "contracts/CryptoPageNFT.sol:PageNFT",
        "label": "pricesById",
        "offset": 0,
        "slot": "15",
        "type": "t_mapping(t_uint256,t_uint256)"
      },
      {
        "astId": 5483,
        "contract": "contracts/CryptoPageNFT.sol:PageNFT",
        "label": "creatorById",
        "offset": 0,
        "slot": "16",
        "type": "t_mapping(t_uint256,t_address)"
      }
    ],
    "types": {
      "t_address": {
        "encoding": "inplace",
        "label": "address",
        "numberOfBytes": "20"
      },
      "t_bool": {
        "encoding": "inplace",
        "label": "bool",
        "numberOfBytes": "1"
      },
      "t_contract(PageCommentMinter)5429": {
        "encoding": "inplace",
        "label": "contract PageCommentMinter",
        "numberOfBytes": "20"
      },
      "t_contract(PageToken)6193": {
        "encoding": "inplace",
        "label": "contract PageToken",
        "numberOfBytes": "20"
      },
      "t_mapping(t_address,t_bool)": {
        "encoding": "mapping",
        "key": "t_address",
        "label": "mapping(address => bool)",
        "numberOfBytes": "32",
        "value": "t_bool"
      },
      "t_mapping(t_address,t_mapping(t_address,t_bool))": {
        "encoding": "mapping",
        "key": "t_address",
        "label": "mapping(address => mapping(address => bool))",
        "numberOfBytes": "32",
        "value": "t_mapping(t_address,t_bool)"
      },
      "t_mapping(t_address,t_uint256)": {
        "encoding": "mapping",
        "key": "t_address",
        "label": "mapping(address => uint256)",
        "numberOfBytes": "32",
        "value": "t_uint256"
      },
      "t_mapping(t_uint256,t_address)": {
        "encoding": "mapping",
        "key": "t_uint256",
        "label": "mapping(uint256 => address)",
        "numberOfBytes": "32",
        "value": "t_address"
      },
      "t_mapping(t_uint256,t_string_storage)": {
        "encoding": "mapping",
        "key": "t_uint256",
        "label": "mapping(uint256 => string)",
        "numberOfBytes": "32",
        "value": "t_string_storage"
      },
      "t_mapping(t_uint256,t_uint256)": {
        "encoding": "mapping",
        "key": "t_uint256",
        "label": "mapping(uint256 => uint256)",
        "numberOfBytes": "32",
        "value": "t_uint256"
      },
      "t_string_storage": {
        "encoding": "bytes",
        "label": "string",
        "numberOfBytes": "32"
      },
      "t_struct(Counter)2580_storage": {
        "encoding": "inplace",
        "label": "struct Counters.Counter",
        "members": [
          {
            "astId": 2579,
            "contract": "contracts/CryptoPageNFT.sol:PageNFT",
            "label": "_value",
            "offset": 0,
            "slot": "0",
            "type": "t_uint256"
          }
        ],
        "numberOfBytes": "32"
      },
      "t_uint256": {
        "encoding": "inplace",
        "label": "uint256",
        "numberOfBytes": "32"
      }
    }
  }
}