{
  "address": "0xe7c8e227c8d831c759605e4dfce96d22b2ddcd60",
  "abi": [
    {
      "inputs": [
        {
          "internalType": "address",
          "name": "_treasury",
          "type": "address"
        }
      ],
      "stateMutability": "nonpayable",
      "type": "constructor"
    },
    {
      "anonymous": false,
      "inputs": [
        {
          "indexed": true,
          "internalType": "address",
          "name": "owner",
          "type": "address"
        },
        {
          "indexed": true,
          "internalType": "address",
          "name": "spender",
          "type": "address"
        },
        {
          "indexed": false,
          "internalType": "uint256",
          "name": "value",
          "type": "uint256"
        }
      ],
      "name": "Approval",
      "type": "event"
    },
    {
      "anonymous": false,
      "inputs": [
        {
          "indexed": true,
          "internalType": "address",
          "name": "previousOwner",
          "type": "address"
        },
        {
          "indexed": true,
          "internalType": "address",
          "name": "newOwner",
          "type": "address"
        }
      ],
      "name": "OwnershipTransferred",
      "type": "event"
    },
    {
      "anonymous": false,
      "inputs": [
        {
          "indexed": true,
          "internalType": "bytes32",
          "name": "role",
          "type": "bytes32"
        },
        {
          "indexed": true,
          "internalType": "bytes32",
          "name": "previousAdminRole",
          "type": "bytes32"
        },
        {
          "indexed": true,
          "internalType": "bytes32",
          "name": "newAdminRole",
          "type": "bytes32"
        }
      ],
      "name": "RoleAdminChanged",
      "type": "event"
    },
    {
      "anonymous": false,
      "inputs": [
        {
          "indexed": true,
          "internalType": "bytes32",
          "name": "role",
          "type": "bytes32"
        },
        {
          "indexed": true,
          "internalType": "address",
          "name": "account",
          "type": "address"
        },
        {
          "indexed": true,
          "internalType": "address",
          "name": "sender",
          "type": "address"
        }
      ],
      "name": "RoleGranted",
      "type": "event"
    },
    {
      "anonymous": false,
      "inputs": [
        {
          "indexed": true,
          "internalType": "bytes32",
          "name": "role",
          "type": "bytes32"
        },
        {
          "indexed": true,
          "internalType": "address",
          "name": "account",
          "type": "address"
        },
        {
          "indexed": true,
          "internalType": "address",
          "name": "sender",
          "type": "address"
        }
      ],
      "name": "RoleRevoked",
      "type": "event"
    },
    {
      "anonymous": false,
      "inputs": [
        {
          "indexed": true,
          "internalType": "address",
          "name": "from",
          "type": "address"
        },
        {
          "indexed": true,
          "internalType": "address",
          "name": "to",
          "type": "address"
        },
        {
          "indexed": false,
          "internalType": "uint256",
          "name": "value",
          "type": "uint256"
        }
      ],
      "name": "Transfer",
      "type": "event"
    },
    {
      "inputs": [],
      "name": "DEFAULT_ADMIN_ROLE",
      "outputs": [
        {
          "internalType": "bytes32",
          "name": "",
          "type": "bytes32"
        }
      ],
      "stateMutability": "view",
      "type": "function"
    },
    {
      "inputs": [
        {
          "internalType": "address",
          "name": "owner",
          "type": "address"
        },
        {
          "internalType": "address",
          "name": "spender",
          "type": "address"
        }
      ],
      "name": "allowance",
      "outputs": [
        {
          "internalType": "uint256",
          "name": "",
          "type": "uint256"
        }
      ],
      "stateMutability": "view",
      "type": "function"
    },
    {
      "inputs": [
        {
          "internalType": "address",
          "name": "spender",
          "type": "address"
        },
        {
          "internalType": "uint256",
          "name": "amount",
          "type": "uint256"
        }
      ],
      "name": "approve",
      "outputs": [
        {
          "internalType": "bool",
          "name": "",
          "type": "bool"
        }
      ],
      "stateMutability": "nonpayable",
      "type": "function"
    },
    {
      "inputs": [
        {
          "internalType": "address",
          "name": "account",
          "type": "address"
        }
      ],
      "name": "balanceOf",
      "outputs": [
        {
          "internalType": "uint256",
          "name": "",
          "type": "uint256"
        }
      ],
      "stateMutability": "view",
      "type": "function"
    },
    {
      "inputs": [
        {
          "internalType": "address",
          "name": "to",
          "type": "address"
        },
        {
          "internalType": "uint256",
          "name": "amount",
          "type": "uint256"
        }
      ],
      "name": "burn",
      "outputs": [],
      "stateMutability": "nonpayable",
      "type": "function"
    },
    {
      "inputs": [],
      "name": "decimals",
      "outputs": [
        {
          "internalType": "uint8",
          "name": "",
          "type": "uint8"
        }
      ],
      "stateMutability": "view",
      "type": "function"
    },
    {
      "inputs": [
        {
          "internalType": "address",
          "name": "spender",
          "type": "address"
        },
        {
          "internalType": "uint256",
          "name": "subtractedValue",
          "type": "uint256"
        }
      ],
      "name": "decreaseAllowance",
      "outputs": [
        {
          "internalType": "bool",
          "name": "",
          "type": "bool"
        }
      ],
      "stateMutability": "nonpayable",
      "type": "function"
    },
    {
      "inputs": [
        {
          "internalType": "bytes32",
          "name": "role",
          "type": "bytes32"
        }
      ],
      "name": "getRoleAdmin",
      "outputs": [
        {
          "internalType": "bytes32",
          "name": "",
          "type": "bytes32"
        }
      ],
      "stateMutability": "view",
      "type": "function"
    },
    {
      "inputs": [],
      "name": "getUSDTPAGEPrice",
      "outputs": [
        {
          "internalType": "uint256",
          "name": "",
          "type": "uint256"
        }
      ],
      "stateMutability": "view",
      "type": "function"
    },
    {
      "inputs": [],
      "name": "getWETHUSDTPrice",
      "outputs": [
        {
          "internalType": "uint256",
          "name": "",
          "type": "uint256"
        }
      ],
      "stateMutability": "view",
      "type": "function"
    },
    {
      "inputs": [
        {
          "internalType": "bytes32",
          "name": "role",
          "type": "bytes32"
        },
        {
          "internalType": "address",
          "name": "account",
          "type": "address"
        }
      ],
      "name": "grantRole",
      "outputs": [],
      "stateMutability": "nonpayable",
      "type": "function"
    },
    {
      "inputs": [
        {
          "internalType": "bytes32",
          "name": "role",
          "type": "bytes32"
        },
        {
          "internalType": "address",
          "name": "account",
          "type": "address"
        }
      ],
      "name": "hasRole",
      "outputs": [
        {
          "internalType": "bool",
          "name": "",
          "type": "bool"
        }
      ],
      "stateMutability": "view",
      "type": "function"
    },
    {
      "inputs": [
        {
          "internalType": "address",
          "name": "spender",
          "type": "address"
        },
        {
          "internalType": "uint256",
          "name": "addedValue",
          "type": "uint256"
        }
      ],
      "name": "increaseAllowance",
      "outputs": [
        {
          "internalType": "bool",
          "name": "",
          "type": "bool"
        }
      ],
      "stateMutability": "nonpayable",
      "type": "function"
    },
    {
      "inputs": [
        {
          "internalType": "address",
          "name": "to",
          "type": "address"
        },
        {
          "internalType": "uint256",
          "name": "amount",
          "type": "uint256"
        }
      ],
      "name": "mint",
      "outputs": [],
      "stateMutability": "nonpayable",
      "type": "function"
    },
    {
      "inputs": [],
      "name": "name",
      "outputs": [
        {
          "internalType": "string",
          "name": "",
          "type": "string"
        }
      ],
      "stateMutability": "view",
      "type": "function"
    },
    {
      "inputs": [],
      "name": "owner",
      "outputs": [
        {
          "internalType": "address",
          "name": "",
          "type": "address"
        }
      ],
      "stateMutability": "view",
      "type": "function"
    },
    {
      "inputs": [],
      "name": "renounceOwnership",
      "outputs": [],
      "stateMutability": "nonpayable",
      "type": "function"
    },
    {
      "inputs": [
        {
          "internalType": "bytes32",
          "name": "role",
          "type": "bytes32"
        },
        {
          "internalType": "address",
          "name": "account",
          "type": "address"
        }
      ],
      "name": "renounceRole",
      "outputs": [],
      "stateMutability": "nonpayable",
      "type": "function"
    },
    {
      "inputs": [
        {
          "internalType": "bytes32",
          "name": "role",
          "type": "bytes32"
        },
        {
          "internalType": "address",
          "name": "account",
          "type": "address"
        }
      ],
      "name": "revokeRole",
      "outputs": [],
      "stateMutability": "nonpayable",
      "type": "function"
    },
    {
      "inputs": [
        {
          "internalType": "address",
          "name": "_usdtPool",
          "type": "address"
        }
      ],
      "name": "setUSDTPAGEPool",
      "outputs": [],
      "stateMutability": "nonpayable",
      "type": "function"
    },
    {
      "inputs": [
        {
          "internalType": "address",
          "name": "_wethPool",
          "type": "address"
        }
      ],
      "name": "setWETHUSDTPool",
      "outputs": [],
      "stateMutability": "nonpayable",
      "type": "function"
    },
    {
      "inputs": [
        {
          "internalType": "bytes4",
          "name": "interfaceId",
          "type": "bytes4"
        }
      ],
      "name": "supportsInterface",
      "outputs": [
        {
          "internalType": "bool",
          "name": "",
          "type": "bool"
        }
      ],
      "stateMutability": "view",
      "type": "function"
    },
    {
      "inputs": [],
      "name": "symbol",
      "outputs": [
        {
          "internalType": "string",
          "name": "",
          "type": "string"
        }
      ],
      "stateMutability": "view",
      "type": "function"
    },
    {
      "inputs": [],
      "name": "totalSupply",
      "outputs": [
        {
          "internalType": "uint256",
          "name": "",
          "type": "uint256"
        }
      ],
      "stateMutability": "view",
      "type": "function"
    },
    {
      "inputs": [
        {
          "internalType": "address",
          "name": "recipient",
          "type": "address"
        },
        {
          "internalType": "uint256",
          "name": "amount",
          "type": "uint256"
        }
      ],
      "name": "transfer",
      "outputs": [
        {
          "internalType": "bool",
          "name": "",
          "type": "bool"
        }
      ],
      "stateMutability": "nonpayable",
      "type": "function"
    },
    {
      "inputs": [
        {
          "internalType": "address",
          "name": "sender",
          "type": "address"
        },
        {
          "internalType": "address",
          "name": "recipient",
          "type": "address"
        },
        {
          "internalType": "uint256",
          "name": "amount",
          "type": "uint256"
        }
      ],
      "name": "transferFrom",
      "outputs": [
        {
          "internalType": "bool",
          "name": "",
          "type": "bool"
        }
      ],
      "stateMutability": "nonpayable",
      "type": "function"
    },
    {
      "inputs": [
        {
          "internalType": "address",
          "name": "newOwner",
          "type": "address"
        }
      ],
      "name": "transferOwnership",
      "outputs": [],
      "stateMutability": "nonpayable",
      "type": "function"
    },
    {
      "inputs": [],
      "name": "usdtpagePool",
      "outputs": [
        {
          "internalType": "contract IUniswapV3Pool",
          "name": "",
          "type": "address"
        }
      ],
      "stateMutability": "view",
      "type": "function"
    },
    {
      "inputs": [],
      "name": "wethusdtPool",
      "outputs": [
        {
          "internalType": "contract IUniswapV3Pool",
          "name": "",
          "type": "address"
        }
      ],
      "stateMutability": "view",
      "type": "function"
    }
  ],
  "transactionHash": "0x21070dca08f76bbeaca6ce0bca15aaa36b4e5dda472526733db6e781c00d080b",
  "args": [
    "0x42Ea7075F16e355DE9D9F69D146A439AC4Cb6030"
  ],
  "solcInputHash": "294f3416c735925776c6b2700051817f",
  "bytecode": "0x60806040523480156200001157600080fd5b5060405162001f6538038062001f65833981016040819052620000349162000385565b60408051808201825260098152682830b3b2aa37b5b2b760b91b6020808301918252835180850190945260048452635041474560e01b9084015281519192916200008191600391620002df565b50805162000097906004906020840190620002df565b505050620000b4620000ae620000df60201b60201c565b620000e3565b620000c160003362000135565b620000d8816a084595161401484a00000062000145565b5062000457565b3390565b600680546001600160a01b038381166001600160a01b0319831681179093556040519116919082907f8be0079c531659141344cd1fd0a4f28419497f9722a3daafe3b4186f6b6457e090600090a35050565b62000141828262000223565b5050565b6001600160a01b038216620001775760405162461bcd60e51b81526004016200016e90620003b5565b60405180910390fd5b6200018560008383620002af565b8060026000828254620001999190620003f5565b90915550506001600160a01b03821660009081526020819052604081208054839290620001c8908490620003f5565b90915550506040516001600160a01b038316906000907fddf252ad1be2c89b69c2b068fc378daa952ba7f163c4a11628f55a4df523b3ef906200020d908590620003ec565b60405180910390a36200014160008383620002af565b6200022f8282620002b4565b620001415760008281526005602090815260408083206001600160a01b03851684529091529020805460ff191660011790556200026b620000df565b6001600160a01b0316816001600160a01b0316837f2f8788117e7eff1d82e926ec794901d17c78024a50270940304540a733656f0d60405160405180910390a45050565b505050565b60009182526005602090815260408084206001600160a01b0393909316845291905290205460ff1690565b828054620002ed906200041a565b90600052602060002090601f0160209004810192826200031157600085556200035c565b82601f106200032c57805160ff19168380011785556200035c565b828001600101855582156200035c579182015b828111156200035c5782518255916020019190600101906200033f565b506200036a9291506200036e565b5090565b5b808211156200036a57600081556001016200036f565b60006020828403121562000397578081fd5b81516001600160a01b0381168114620003ae578182fd5b9392505050565b6020808252601f908201527f45524332303a206d696e7420746f20746865207a65726f206164647265737300604082015260600190565b90815260200190565b600082198211156200041557634e487b7160e01b81526011600452602481fd5b500190565b6002810460018216806200042f57607f821691505b602082108114156200045157634e487b7160e01b600052602260045260246000fd5b50919050565b611afe80620004676000396000f3fe608060405234801561001057600080fd5b50600436106101cf5760003560e01c80635bee559e116101045780639dc29fac116100a2578063d547741f11610071578063d547741f1461038d578063dc5c0eb1146103a0578063dd62ed3e146103a8578063f2fde38b146103bb576101cf565b80639dc29fac1461034c578063a217fddf1461035f578063a457c2d714610367578063a9059cbb1461037a576101cf565b80638da5cb5b116100de5780638da5cb5b1461031657806391d148541461031e57806395d89b41146103315780639c7b5b2614610339576101cf565b80635bee559e146102f357806370a08231146102fb578063715018a61461030e576101cf565b8063248a9ca31161017157806336568abe1161014b57806336568abe146102b257806336ab348a146102c557806339509351146102cd57806340c10f19146102e0576101cf565b8063248a9ca3146102775780632f2ff15d1461028a578063313ce5671461029d576101cf565b80630bbffd1b116101ad5780630bbffd1b1461022557806318160ddd1461023a57806323b872dd1461024f57806323c2b41f14610262576101cf565b806301ffc9a7146101d457806306fdde03146101fd578063095ea7b314610212575b600080fd5b6101e76101e2366004611333565b6103ce565b6040516101f49190611484565b60405180910390f35b6102056103fb565b6040516101f49190611498565b6101e76102203660046112cc565b61048d565b61022d6104aa565b6040516101f49190611470565b6102426104b9565b6040516101f4919061148f565b6101e761025d36600461128c565b6104bf565b610275610270366004611238565b61055a565b005b6102426102853660046112f7565b6105bb565b61027561029836600461130f565b6105d0565b6102a56105f9565b6040516101f49190611865565b6102756102c036600461130f565b6105fe565b610242610644565b6101e76102db3660046112cc565b610711565b6102756102ee3660046112cc565b610765565b61022d61079c565b610242610309366004611238565b6107ab565b6102756107c6565b61022d610811565b6101e761032c36600461130f565b610820565b61020561084b565b610275610347366004611238565b61085a565b61027561035a3660046112cc565b6108bb565b6102426108f2565b6101e76103753660046112cc565b6108f7565b6101e76103883660046112cc565b610970565b61027561039b36600461130f565b610984565b6102426109a3565b6102426103b6366004611254565b610a62565b6102756103c9366004611238565b610a8d565b60006001600160e01b03198216637965db0b60e01b14806103f357506103f382610afe565b90505b919050565b60606003805461040a90611a62565b80601f016020809104026020016040519081016040528092919081815260200182805461043690611a62565b80156104835780601f1061045857610100808354040283529160200191610483565b820191906000526020600020905b81548152906001019060200180831161046657829003601f168201915b5050505050905090565b60006104a161049a610b17565b8484610b1b565b50600192915050565b6007546001600160a01b031681565b60025490565b60006104cc848484610bcf565b6001600160a01b0384166000908152600160205260408120816104ed610b17565b6001600160a01b03166001600160a01b03168152602001908152602001600020549050828110156105395760405162461bcd60e51b815260040161053090611653565b60405180910390fd5b61054d85610545610b17565b858403610b1b565b60019150505b9392505050565b610562610b17565b6001600160a01b0316610573610811565b6001600160a01b0316146105995760405162461bcd60e51b81526004016105309061169b565b600880546001600160a01b0319166001600160a01b0392909216919091179055565b60009081526005602052604090206001015490565b6105d9826105bb565b6105ea816105e5610b17565b610cf9565b6105f48383610d5d565b505050565b601290565b610606610b17565b6001600160a01b0316816001600160a01b0316146106365760405162461bcd60e51b8152600401610530906117df565b6106408282610de4565b5050565b600080600760009054906101000a90046001600160a01b03166001600160a01b0316633850c7bd6040518163ffffffff1660e01b815260040160e06040518083038186803b15801561069557600080fd5b505afa1580156106a9573d6000803e3d6000fd5b505050506040513d601f19601f820116820180604052508101906106cd919061135b565b505050505050905060006002600160601b836106e9919061188b565b6106f39190611903565b6001600160a01b03169050606481111561070b575060645b91505090565b60006104a161071e610b17565b84846001600061072c610b17565b6001600160a01b03908116825260208083019390935260409182016000908120918b16815292529020546107609190611873565b610b1b565b7f9f2df0fed2c77648de5860a4cc508cd0818c85b8b8a1ab4ceeef8d981c8956a6610792816105e5610b17565b6105f48383610e69565b6008546001600160a01b031681565b6001600160a01b031660009081526020819052604090205490565b6107ce610b17565b6001600160a01b03166107df610811565b6001600160a01b0316146108055760405162461bcd60e51b81526004016105309061169b565b61080f6000610f31565b565b6006546001600160a01b031690565b60009182526005602090815260408084206001600160a01b0393909316845291905290205460ff1690565b60606004805461040a90611a62565b610862610b17565b6001600160a01b0316610873610811565b6001600160a01b0316146108995760405162461bcd60e51b81526004016105309061169b565b600780546001600160a01b0319166001600160a01b0392909216919091179055565b7f3c11d16cbaffd01df69ce1c404f6340ee057498f5f00246190ea54220576a8486108e8816105e5610b17565b6105f48383610f83565b600081565b60008060016000610906610b17565b6001600160a01b03908116825260208083019390935260409182016000908120918816815292529020549050828110156109525760405162461bcd60e51b81526004016105309061179a565b61096661095d610b17565b85858403610b1b565b5060019392505050565b60006104a161097d610b17565b8484610bcf565b61098d826105bb565b610999816105e5610b17565b6105f48383610de4565b600080600860009054906101000a90046001600160a01b03166001600160a01b0316633850c7bd6040518163ffffffff1660e01b815260040160e06040518083038186803b1580156109f457600080fd5b505afa158015610a08573d6000803e3d6000fd5b505050506040513d601f19601f82011682018060405250810190610a2c919061135b565b505050505050905060006002600160601b83610a48919061188b565b610a529190611903565b6001600160a01b03169250505090565b6001600160a01b03918216600090815260016020908152604080832093909416825291909152205490565b610a95610b17565b6001600160a01b0316610aa6610811565b6001600160a01b031614610acc5760405162461bcd60e51b81526004016105309061169b565b6001600160a01b038116610af25760405162461bcd60e51b815260040161053090611585565b610afb81610f31565b50565b6001600160e01b031981166301ffc9a760e01b14919050565b3390565b6001600160a01b038316610b415760405162461bcd60e51b815260040161053090611756565b6001600160a01b038216610b675760405162461bcd60e51b8152600401610530906115cb565b6001600160a01b0380841660008181526001602090815260408083209487168084529490915290819020849055517f8c5be1e5ebec7d5bd14f71427d1e84f3dd0314c0f7b2291e5b200ac8c7c3b92590610bc290859061148f565b60405180910390a3505050565b6001600160a01b038316610bf55760405162461bcd60e51b815260040161053090611711565b6001600160a01b038216610c1b5760405162461bcd60e51b815260040161053090611500565b610c268383836105f4565b6001600160a01b03831660009081526020819052604090205481811015610c5f5760405162461bcd60e51b81526004016105309061160d565b6001600160a01b03808516600090815260208190526040808220858503905591851681529081208054849290610c96908490611873565b92505081905550826001600160a01b0316846001600160a01b03167fddf252ad1be2c89b69c2b068fc378daa952ba7f163c4a11628f55a4df523b3ef84604051610ce0919061148f565b60405180910390a3610cf38484846105f4565b50505050565b610d038282610820565b61064057610d1b816001600160a01b03166014611074565b610d26836020611074565b604051602001610d379291906113fb565b60408051601f198184030181529082905262461bcd60e51b825261053091600401611498565b610d678282610820565b6106405760008281526005602090815260408083206001600160a01b03851684529091529020805460ff19166001179055610da0610b17565b6001600160a01b0316816001600160a01b0316837f2f8788117e7eff1d82e926ec794901d17c78024a50270940304540a733656f0d60405160405180910390a45050565b610dee8282610820565b156106405760008281526005602090815260408083206001600160a01b03851684529091529020805460ff19169055610e25610b17565b6001600160a01b0316816001600160a01b0316837ff6391f5c32d9c69d2a47ea670b442974b53935d1edc7fd64eb21e047a839171b60405160405180910390a45050565b6001600160a01b038216610e8f5760405162461bcd60e51b81526004016105309061182e565b610e9b600083836105f4565b8060026000828254610ead9190611873565b90915550506001600160a01b03821660009081526020819052604081208054839290610eda908490611873565b90915550506040516001600160a01b038316906000907fddf252ad1be2c89b69c2b068fc378daa952ba7f163c4a11628f55a4df523b3ef90610f1d90859061148f565b60405180910390a3610640600083836105f4565b600680546001600160a01b038381166001600160a01b0319831681179093556040519116919082907f8be0079c531659141344cd1fd0a4f28419497f9722a3daafe3b4186f6b6457e090600090a35050565b6001600160a01b038216610fa95760405162461bcd60e51b8152600401610530906116d0565b610fb5826000836105f4565b6001600160a01b03821660009081526020819052604090205481811015610fee5760405162461bcd60e51b815260040161053090611543565b6001600160a01b038316600090815260208190526040812083830390556002805484929061101d908490611a08565b90915550506040516000906001600160a01b038516907fddf252ad1be2c89b69c2b068fc378daa952ba7f163c4a11628f55a4df523b3ef9061106090869061148f565b60405180910390a36105f4836000846105f4565b606060006110838360026119e9565b61108e906002611873565b67ffffffffffffffff8111156110b457634e487b7160e01b600052604160045260246000fd5b6040519080825280601f01601f1916602001820160405280156110de576020820181803683370190505b509050600360fc1b8160008151811061110757634e487b7160e01b600052603260045260246000fd5b60200101906001600160f81b031916908160001a905350600f60fb1b8160018151811061114457634e487b7160e01b600052603260045260246000fd5b60200101906001600160f81b031916908160001a90535060006111688460026119e9565b611173906001611873565b90505b6001811115611207576f181899199a1a9b1b9c1cb0b131b232b360811b85600f16601081106111b557634e487b7160e01b600052603260045260246000fd5b1a60f81b8282815181106111d957634e487b7160e01b600052603260045260246000fd5b60200101906001600160f81b031916908160001a90535060049490941c9361120081611a4b565b9050611176565b5083156105535760405162461bcd60e51b8152600401610530906114cb565b805161ffff811681146103f657600080fd5b600060208284031215611249578081fd5b813561055381611ab3565b60008060408385031215611266578081fd5b823561127181611ab3565b9150602083013561128181611ab3565b809150509250929050565b6000806000606084860312156112a0578081fd5b83356112ab81611ab3565b925060208401356112bb81611ab3565b929592945050506040919091013590565b600080604083850312156112de578182fd5b82356112e981611ab3565b946020939093013593505050565b600060208284031215611308578081fd5b5035919050565b60008060408385031215611321578182fd5b82359150602083013561128181611ab3565b600060208284031215611344578081fd5b81356001600160e01b031981168114610553578182fd5b600080600080600080600060e0888a031215611375578283fd5b875161138081611ab3565b8097505060208801518060020b8114611397578384fd5b95506113a560408901611226565b94506113b360608901611226565b93506113c160808901611226565b925060a088015160ff811681146113d6578283fd5b60c089015190925080151581146113eb578182fd5b8091505092959891949750929550565b60007f416363657373436f6e74726f6c3a206163636f756e742000000000000000000082528351611433816017850160208801611a1f565b7001034b99036b4b9b9b4b733903937b6329607d1b6017918401918201528351611464816028840160208801611a1f565b01602801949350505050565b6001600160a01b0391909116815260200190565b901515815260200190565b90815260200190565b60006020825282518060208401526114b7816040850160208701611a1f565b601f01601f19169190910160400192915050565b6020808252818101527f537472696e67733a20686578206c656e67746820696e73756666696369656e74604082015260600190565b60208082526023908201527f45524332303a207472616e7366657220746f20746865207a65726f206164647260408201526265737360e81b606082015260800190565b60208082526022908201527f45524332303a206275726e20616d6f756e7420657863656564732062616c616e604082015261636560f01b606082015260800190565b60208082526026908201527f4f776e61626c653a206e6577206f776e657220697320746865207a65726f206160408201526564647265737360d01b606082015260800190565b60208082526022908201527f45524332303a20617070726f766520746f20746865207a65726f206164647265604082015261737360f01b606082015260800190565b60208082526026908201527f45524332303a207472616e7366657220616d6f756e7420657863656564732062604082015265616c616e636560d01b606082015260800190565b60208082526028908201527f45524332303a207472616e7366657220616d6f756e74206578636565647320616040820152676c6c6f77616e636560c01b606082015260800190565b6020808252818101527f4f776e61626c653a2063616c6c6572206973206e6f7420746865206f776e6572604082015260600190565b60208082526021908201527f45524332303a206275726e2066726f6d20746865207a65726f206164647265736040820152607360f81b606082015260800190565b60208082526025908201527f45524332303a207472616e736665722066726f6d20746865207a65726f206164604082015264647265737360d81b606082015260800190565b60208082526024908201527f45524332303a20617070726f76652066726f6d20746865207a65726f206164646040820152637265737360e01b606082015260800190565b60208082526025908201527f45524332303a2064656372656173656420616c6c6f77616e63652062656c6f77604082015264207a65726f60d81b606082015260800190565b6020808252602f908201527f416363657373436f6e74726f6c3a2063616e206f6e6c792072656e6f756e636560408201526e103937b632b9903337b91039b2b63360891b606082015260800190565b6020808252601f908201527f45524332303a206d696e7420746f20746865207a65726f206164647265737300604082015260600190565b60ff91909116815260200190565b6000821982111561188657611886611a9d565b500190565b60006001600160a01b03838116806118b157634e487b7160e01b83526012600452602483fd5b92169190910492915050565b80825b60018086116118cf57506118fa565b8187048211156118e1576118e1611a9d565b808616156118ee57918102915b9490941c9380026118c0565b94509492505050565b60006001600160a01b0361191d8160ff8616858216611925565b949350505050565b60008261193457506001610553565b8161194157506000610553565b816001811461195757600281146119615761198e565b6001915050610553565b60ff84111561197257611972611a9d565b6001841b91508482111561198857611988611a9d565b50610553565b5060208310610133831016604e8410600b84101617156119c1575081810a838111156119bc576119bc611a9d565b610553565b6119ce84848460016118bd565b8086048211156119e0576119e0611a9d565b02949350505050565b6000816000190483118215151615611a0357611a03611a9d565b500290565b600082821015611a1a57611a1a611a9d565b500390565b60005b83811015611a3a578181015183820152602001611a22565b83811115610cf35750506000910152565b600081611a5a57611a5a611a9d565b506000190190565b600281046001821680611a7657607f821691505b60208210811415611a9757634e487b7160e01b600052602260045260246000fd5b50919050565b634e487b7160e01b600052601160045260246000fd5b6001600160a01b0381168114610afb57600080fdfea264697066735822122051cc4a23e16897f47b4c345758da76f5491c1e264404c71b6036726e76050a5564736f6c63430008000033",
  "devdoc": {
    "kind": "dev",
    "methods": {
      "allowance(address,address)": {
        "details": "See {IERC20-allowance}."
      },
      "approve(address,uint256)": {
        "details": "See {IERC20-approve}. Requirements: - `spender` cannot be the zero address."
      },
      "balanceOf(address)": {
        "details": "See {IERC20-balanceOf}."
      },
      "decimals()": {
        "details": "Returns the number of decimals used to get its user representation. For example, if `decimals` equals `2`, a balance of `505` tokens should be displayed to a user as `5.05` (`505 / 10 ** 2`). Tokens usually opt for a value of 18, imitating the relationship between Ether and Wei. This is the value {ERC20} uses, unless this function is overridden; NOTE: This information is only used for _display_ purposes: it in no way affects any of the arithmetic of the contract, including {IERC20-balanceOf} and {IERC20-transfer}."
      },
      "decreaseAllowance(address,uint256)": {
        "details": "Atomically decreases the allowance granted to `spender` by the caller. This is an alternative to {approve} that can be used as a mitigation for problems described in {IERC20-approve}. Emits an {Approval} event indicating the updated allowance. Requirements: - `spender` cannot be the zero address. - `spender` must have allowance for the caller of at least `subtractedValue`."
      },
      "getRoleAdmin(bytes32)": {
        "details": "Returns the admin role that controls `role`. See {grantRole} and {revokeRole}. To change a role's admin, use {_setRoleAdmin}."
      },
      "grantRole(bytes32,address)": {
        "details": "Grants `role` to `account`. If `account` had not been already granted `role`, emits a {RoleGranted} event. Requirements: - the caller must have ``role``'s admin role."
      },
      "hasRole(bytes32,address)": {
        "details": "Returns `true` if `account` has been granted `role`."
      },
      "increaseAllowance(address,uint256)": {
        "details": "Atomically increases the allowance granted to `spender` by the caller. This is an alternative to {approve} that can be used as a mitigation for problems described in {IERC20-approve}. Emits an {Approval} event indicating the updated allowance. Requirements: - `spender` cannot be the zero address."
      },
      "name()": {
        "details": "Returns the name of the token."
      },
      "owner()": {
        "details": "Returns the address of the current owner."
      },
      "renounceOwnership()": {
        "details": "Leaves the contract without owner. It will not be possible to call `onlyOwner` functions anymore. Can only be called by the current owner. NOTE: Renouncing ownership will leave the contract without an owner, thereby removing any functionality that is only available to the owner."
      },
      "renounceRole(bytes32,address)": {
        "details": "Revokes `role` from the calling account. Roles are often managed via {grantRole} and {revokeRole}: this function's purpose is to provide a mechanism for accounts to lose their privileges if they are compromised (such as when a trusted device is misplaced). If the calling account had been revoked `role`, emits a {RoleRevoked} event. Requirements: - the caller must be `account`."
      },
      "revokeRole(bytes32,address)": {
        "details": "Revokes `role` from `account`. If `account` had been granted `role`, emits a {RoleRevoked} event. Requirements: - the caller must have ``role``'s admin role."
      },
      "supportsInterface(bytes4)": {
        "details": "See {IERC165-supportsInterface}."
      },
      "symbol()": {
        "details": "Returns the symbol of the token, usually a shorter version of the name."
      },
      "totalSupply()": {
        "details": "See {IERC20-totalSupply}."
      },
      "transfer(address,uint256)": {
        "details": "See {IERC20-transfer}. Requirements: - `recipient` cannot be the zero address. - the caller must have a balance of at least `amount`."
      },
      "transferFrom(address,address,uint256)": {
        "details": "See {IERC20-transferFrom}. Emits an {Approval} event indicating the updated allowance. This is not required by the EIP. See the note at the beginning of {ERC20}. Requirements: - `sender` and `recipient` cannot be the zero address. - `sender` must have a balance of at least `amount`. - the caller must have allowance for ``sender``'s tokens of at least `amount`."
      },
      "transferOwnership(address)": {
        "details": "Transfers ownership of the contract to a new account (`newOwner`). Can only be called by the current owner."
      }
    },
    "version": 1
  },
  "userdoc": {
    "kind": "user",
    "methods": {},
    "version": 1
  },
  "storageLayout": {
    "storage": [
      {
        "astId": 502,
        "contract": "contracts/CryptoPageToken.sol:PageToken",
        "label": "_balances",
        "offset": 0,
        "slot": "0",
        "type": "t_mapping(t_address,t_uint256)"
      },
      {
        "astId": 508,
        "contract": "contracts/CryptoPageToken.sol:PageToken",
        "label": "_allowances",
        "offset": 0,
        "slot": "1",
        "type": "t_mapping(t_address,t_mapping(t_address,t_uint256))"
      },
      {
        "astId": 510,
        "contract": "contracts/CryptoPageToken.sol:PageToken",
        "label": "_totalSupply",
        "offset": 0,
        "slot": "2",
        "type": "t_uint256"
      },
      {
        "astId": 512,
        "contract": "contracts/CryptoPageToken.sol:PageToken",
        "label": "_name",
        "offset": 0,
        "slot": "3",
        "type": "t_string_storage"
      },
      {
        "astId": 514,
        "contract": "contracts/CryptoPageToken.sol:PageToken",
        "label": "_symbol",
        "offset": 0,
        "slot": "4",
        "type": "t_string_storage"
      },
      {
        "astId": 24,
        "contract": "contracts/CryptoPageToken.sol:PageToken",
        "label": "_roles",
        "offset": 0,
        "slot": "5",
        "type": "t_mapping(t_bytes32,t_struct(RoleData)19_storage)"
      },
      {
        "astId": 389,
        "contract": "contracts/CryptoPageToken.sol:PageToken",
        "label": "_owner",
        "offset": 0,
        "slot": "6",
        "type": "t_address"
      },
      {
        "astId": 6051,
        "contract": "contracts/CryptoPageToken.sol:PageToken",
        "label": "usdtpagePool",
        "offset": 0,
        "slot": "7",
        "type": "t_contract(IUniswapV3Pool)4383"
      },
      {
        "astId": 6054,
        "contract": "contracts/CryptoPageToken.sol:PageToken",
        "label": "wethusdtPool",
        "offset": 0,
        "slot": "8",
        "type": "t_contract(IUniswapV3Pool)4383"
      }
    ],
    "types": {
      "t_address": {
        "encoding": "inplace",
        "label": "address",
        "numberOfBytes": "20"
      },
      "t_bool": {
        "encoding": "inplace",
        "label": "bool",
        "numberOfBytes": "1"
      },
      "t_bytes32": {
        "encoding": "inplace",
        "label": "bytes32",
        "numberOfBytes": "32"
      },
      "t_contract(IUniswapV3Pool)4383": {
        "encoding": "inplace",
        "label": "contract IUniswapV3Pool",
        "numberOfBytes": "20"
      },
      "t_mapping(t_address,t_bool)": {
        "encoding": "mapping",
        "key": "t_address",
        "label": "mapping(address => bool)",
        "numberOfBytes": "32",
        "value": "t_bool"
      },
      "t_mapping(t_address,t_mapping(t_address,t_uint256))": {
        "encoding": "mapping",
        "key": "t_address",
        "label": "mapping(address => mapping(address => uint256))",
        "numberOfBytes": "32",
        "value": "t_mapping(t_address,t_uint256)"
      },
      "t_mapping(t_address,t_uint256)": {
        "encoding": "mapping",
        "key": "t_address",
        "label": "mapping(address => uint256)",
        "numberOfBytes": "32",
        "value": "t_uint256"
      },
      "t_mapping(t_bytes32,t_struct(RoleData)19_storage)": {
        "encoding": "mapping",
        "key": "t_bytes32",
        "label": "mapping(bytes32 => struct AccessControl.RoleData)",
        "numberOfBytes": "32",
        "value": "t_struct(RoleData)19_storage"
      },
      "t_string_storage": {
        "encoding": "bytes",
        "label": "string",
        "numberOfBytes": "32"
      },
      "t_struct(RoleData)19_storage": {
        "encoding": "inplace",
        "label": "struct AccessControl.RoleData",
        "members": [
          {
            "astId": 16,
            "contract": "contracts/CryptoPageToken.sol:PageToken",
            "label": "members",
            "offset": 0,
            "slot": "0",
            "type": "t_mapping(t_address,t_bool)"
          },
          {
            "astId": 18,
            "contract": "contracts/CryptoPageToken.sol:PageToken",
            "label": "adminRole",
            "offset": 0,
            "slot": "1",
            "type": "t_bytes32"
          }
        ],
        "numberOfBytes": "64"
      },
      "t_uint256": {
        "encoding": "inplace",
        "label": "uint256",
        "numberOfBytes": "32"
      }
    }
  }
}