{
  "address": "0xe23160ec72e500bc1C9c2d19E71FeE67ebcEdc0e",
  "abi": [
    {
      "inputs": [
        {
          "internalType": "address",
          "name": "_treasury",
          "type": "address"
        },
        {
          "internalType": "contract PageToken",
          "name": "_token",
          "type": "address"
        },
        {
          "internalType": "contract PageCommentMinter",
          "name": "_commentMinter",
          "type": "address"
        }
      ],
      "stateMutability": "nonpayable",
      "type": "constructor"
    },
    {
      "anonymous": false,
      "inputs": [
        {
          "indexed": true,
          "internalType": "address",
          "name": "owner",
          "type": "address"
        },
        {
          "indexed": true,
          "internalType": "address",
          "name": "approved",
          "type": "address"
        },
        {
          "indexed": true,
          "internalType": "uint256",
          "name": "tokenId",
          "type": "uint256"
        }
      ],
      "name": "Approval",
      "type": "event"
    },
    {
      "anonymous": false,
      "inputs": [
        {
          "indexed": true,
          "internalType": "address",
          "name": "owner",
          "type": "address"
        },
        {
          "indexed": true,
          "internalType": "address",
          "name": "operator",
          "type": "address"
        },
        {
          "indexed": false,
          "internalType": "bool",
          "name": "approved",
          "type": "bool"
        }
      ],
      "name": "ApprovalForAll",
      "type": "event"
    },
    {
      "anonymous": false,
      "inputs": [
        {
          "indexed": true,
          "internalType": "address",
          "name": "previousOwner",
          "type": "address"
        },
        {
          "indexed": true,
          "internalType": "address",
          "name": "newOwner",
          "type": "address"
        }
      ],
      "name": "OwnershipTransferred",
      "type": "event"
    },
    {
      "anonymous": false,
      "inputs": [
        {
          "indexed": true,
          "internalType": "address",
          "name": "from",
          "type": "address"
        },
        {
          "indexed": true,
          "internalType": "address",
          "name": "to",
          "type": "address"
        },
        {
          "indexed": true,
          "internalType": "uint256",
          "name": "tokenId",
          "type": "uint256"
        }
      ],
      "name": "Transfer",
      "type": "event"
    },
    {
      "inputs": [],
      "name": "amount",
      "outputs": [
        {
          "internalType": "uint256",
          "name": "",
          "type": "uint256"
        }
      ],
      "stateMutability": "view",
      "type": "function"
    },
    {
      "inputs": [
        {
          "internalType": "address",
          "name": "to",
          "type": "address"
        },
        {
          "internalType": "uint256",
          "name": "tokenId",
          "type": "uint256"
        }
      ],
      "name": "approve",
      "outputs": [],
      "stateMutability": "nonpayable",
      "type": "function"
    },
    {
      "inputs": [
        {
          "internalType": "address",
          "name": "owner",
          "type": "address"
        }
      ],
      "name": "balanceOf",
      "outputs": [
        {
          "internalType": "uint256",
          "name": "",
          "type": "uint256"
        }
      ],
      "stateMutability": "view",
      "type": "function"
    },
    {
      "inputs": [],
      "name": "baseURL",
      "outputs": [
        {
          "internalType": "string",
          "name": "",
          "type": "string"
        }
      ],
      "stateMutability": "view",
      "type": "function"
    },
    {
      "inputs": [
        {
          "internalType": "uint256",
          "name": "_tokenId",
          "type": "uint256"
        }
      ],
      "name": "burn",
      "outputs": [],
      "stateMutability": "nonpayable",
      "type": "function"
    },
    {
      "inputs": [],
      "name": "burnFee",
      "outputs": [
        {
          "internalType": "uint256",
          "name": "",
          "type": "uint256"
        }
      ],
      "stateMutability": "view",
      "type": "function"
    },
    {
      "inputs": [],
      "name": "fee",
      "outputs": [
        {
          "internalType": "uint256",
          "name": "",
          "type": "uint256"
        }
      ],
      "stateMutability": "view",
      "type": "function"
    },
    {
      "inputs": [
        {
          "internalType": "uint256",
          "name": "tokenId",
          "type": "uint256"
        }
      ],
      "name": "getApproved",
      "outputs": [
        {
          "internalType": "address",
          "name": "",
          "type": "address"
        }
      ],
      "stateMutability": "view",
      "type": "function"
    },
    {
      "inputs": [],
      "name": "getBaseURL",
      "outputs": [
        {
          "internalType": "string",
          "name": "",
          "type": "string"
        }
      ],
      "stateMutability": "view",
      "type": "function"
    },
    {
      "inputs": [],
      "name": "getBurnFee",
      "outputs": [
        {
          "internalType": "uint256",
          "name": "",
          "type": "uint256"
        }
      ],
      "stateMutability": "view",
      "type": "function"
    },
    {
      "inputs": [],
      "name": "getMintFee",
      "outputs": [
        {
          "internalType": "uint256",
          "name": "",
          "type": "uint256"
        }
      ],
      "stateMutability": "view",
      "type": "function"
    },
    {
      "inputs": [],
      "name": "getTreasury",
      "outputs": [
        {
          "internalType": "address",
          "name": "",
          "type": "address"
        }
      ],
      "stateMutability": "view",
      "type": "function"
    },
    {
      "inputs": [
        {
          "internalType": "address",
          "name": "owner",
          "type": "address"
        },
        {
          "internalType": "address",
          "name": "operator",
          "type": "address"
        }
      ],
      "name": "isApprovedForAll",
      "outputs": [
        {
          "internalType": "bool",
          "name": "",
          "type": "bool"
        }
      ],
      "stateMutability": "view",
      "type": "function"
    },
    {
      "inputs": [],
      "name": "mintFee",
      "outputs": [
        {
          "internalType": "uint256",
          "name": "",
          "type": "uint256"
        }
      ],
      "stateMutability": "view",
      "type": "function"
    },
    {
      "inputs": [],
      "name": "name",
      "outputs": [
        {
          "internalType": "string",
          "name": "",
          "type": "string"
        }
      ],
      "stateMutability": "view",
      "type": "function"
    },
    {
      "inputs": [],
      "name": "owner",
      "outputs": [
        {
          "internalType": "address",
          "name": "",
          "type": "address"
        }
      ],
      "stateMutability": "view",
      "type": "function"
    },
    {
      "inputs": [
        {
          "internalType": "uint256",
          "name": "tokenId",
          "type": "uint256"
        }
      ],
      "name": "ownerOf",
      "outputs": [
        {
          "internalType": "address",
          "name": "",
          "type": "address"
        }
      ],
      "stateMutability": "view",
      "type": "function"
    },
    {
      "inputs": [],
      "name": "renounceOwnership",
      "outputs": [],
      "stateMutability": "nonpayable",
      "type": "function"
    },
    {
      "inputs": [
        {
          "internalType": "string",
          "name": "_tokenURI",
          "type": "string"
        },
        {
          "internalType": "bool",
          "name": "_commentActive",
          "type": "bool"
        }
      ],
      "name": "safeMint",
      "outputs": [
        {
          "internalType": "uint256",
          "name": "",
          "type": "uint256"
        }
      ],
      "stateMutability": "nonpayable",
      "type": "function"
    },
    {
      "inputs": [
        {
          "internalType": "address",
          "name": "from",
          "type": "address"
        },
        {
          "internalType": "address",
          "name": "to",
          "type": "address"
        },
        {
          "internalType": "uint256",
          "name": "tokenId",
          "type": "uint256"
        }
      ],
      "name": "safeTransferFrom",
      "outputs": [],
      "stateMutability": "nonpayable",
      "type": "function"
    },
    {
      "inputs": [
        {
          "internalType": "address",
          "name": "from",
          "type": "address"
        },
        {
          "internalType": "address",
          "name": "to",
          "type": "address"
        },
        {
          "internalType": "uint256",
          "name": "tokenId",
          "type": "uint256"
        },
        {
          "internalType": "bytes",
          "name": "_data",
          "type": "bytes"
        }
      ],
      "name": "safeTransferFrom",
      "outputs": [],
      "stateMutability": "nonpayable",
      "type": "function"
    },
    {
      "inputs": [
        {
          "internalType": "address",
          "name": "operator",
          "type": "address"
        },
        {
          "internalType": "bool",
          "name": "approved",
          "type": "bool"
        }
      ],
      "name": "setApprovalForAll",
      "outputs": [],
      "stateMutability": "nonpayable",
      "type": "function"
    },
    {
      "inputs": [
        {
          "internalType": "uint256",
          "name": "_percent",
          "type": "uint256"
        }
      ],
      "name": "setBurnFee",
      "outputs": [],
      "stateMutability": "nonpayable",
      "type": "function"
    },
    {
      "inputs": [
        {
          "internalType": "uint256",
          "name": "_percent",
          "type": "uint256"
        }
      ],
      "name": "setMintFee",
      "outputs": [],
      "stateMutability": "nonpayable",
      "type": "function"
    },
    {
      "inputs": [
        {
          "internalType": "address",
          "name": "_treasury",
          "type": "address"
        }
      ],
      "name": "setTreasury",
      "outputs": [],
      "stateMutability": "nonpayable",
      "type": "function"
    },
    {
      "inputs": [
        {
          "internalType": "bytes4",
          "name": "interfaceId",
          "type": "bytes4"
        }
      ],
      "name": "supportsInterface",
      "outputs": [
        {
          "internalType": "bool",
          "name": "",
          "type": "bool"
        }
      ],
      "stateMutability": "view",
      "type": "function"
    },
    {
      "inputs": [],
      "name": "symbol",
      "outputs": [
        {
          "internalType": "string",
          "name": "",
          "type": "string"
        }
      ],
      "stateMutability": "view",
      "type": "function"
    },
    {
      "inputs": [
        {
          "internalType": "uint256",
          "name": "tokenId",
          "type": "uint256"
        }
      ],
      "name": "tokenURI",
      "outputs": [
        {
          "internalType": "string",
          "name": "",
          "type": "string"
        }
      ],
      "stateMutability": "view",
      "type": "function"
    },
    {
      "inputs": [
        {
          "internalType": "address",
          "name": "from",
          "type": "address"
        },
        {
          "internalType": "address",
          "name": "to",
          "type": "address"
        },
        {
          "internalType": "uint256",
          "name": "tokenId",
          "type": "uint256"
        }
      ],
      "name": "transferFrom",
      "outputs": [],
      "stateMutability": "nonpayable",
      "type": "function"
    },
    {
      "inputs": [
        {
          "internalType": "address",
          "name": "newOwner",
          "type": "address"
        }
      ],
      "name": "transferOwnership",
      "outputs": [],
      "stateMutability": "nonpayable",
      "type": "function"
    },
    {
      "inputs": [],
      "name": "treasury",
      "outputs": [
        {
          "internalType": "address",
          "name": "",
          "type": "address"
        }
      ],
      "stateMutability": "view",
      "type": "function"
    }
  ],
  "transactionHash": "0x678320dab3491e138b48921929e7aad52c4ae7410f9afb1f82142f3d70b767c0",
  "args": [
    "0x42Ea7075F16e355DE9D9F69D146A439AC4Cb6030",
    "0x2863d3bd80d2Fb24068418AEfc45437C6Ffc8561",
    "0x829705949d2933A6b030bD5F356d6731B5E0295B"
  ],
  "solcInputHash": "4ff1bf8c692ec44af8c58c3181638448",
  "bytecode": "0x60c0604052601560808190527f68747470733a2f2f697066732e696f2f697066732f000000000000000000000060a09081526200004091600b9190620001ba565b506103e8600d556000600e55677ce66c50e2840000600f55670de0b6b3a76400006010553480156200007157600080fd5b506040516200244138038062002441833981016040819052620000949162000260565b60405180604001604052806008815260200167141859d94813919560c21b81525060405180604001604052806008815260200167141051d14b53919560c21b8152508160009080519060200190620000ee929190620001ba565b50805162000104906001906020840190620001ba565b505050620001216200011b6200016460201b60201c565b62000168565b600c80546001600160a01b039485166001600160a01b0319918216179091556009805493851693821693909317909255600a805491909316911617905562000309565b3390565b600780546001600160a01b038381166001600160a01b0319831681179093556040519116919082907f8be0079c531659141344cd1fd0a4f28419497f9722a3daafe3b4186f6b6457e090600090a35050565b828054620001c890620002b3565b90600052602060002090601f016020900481019282620001ec576000855562000237565b82601f106200020757805160ff191683800117855562000237565b8280016001018555821562000237579182015b82811115620002375782518255916020019190600101906200021a565b506200024592915062000249565b5090565b5b808211156200024557600081556001016200024a565b60008060006060848603121562000275578283fd5b83516200028281620002f0565b60208501519093506200029581620002f0565b6040850151909250620002a881620002f0565b809150509250925092565b600181811c90821680620002c857607f821691505b60208210811415620002ea57634e487b7160e01b600052602260045260246000fd5b50919050565b6001600160a01b03811681146200030657600080fd5b50565b61212880620003196000396000f3fe608060405234801561001057600080fd5b50600436106101e55760003560e01c806370a082311161010f578063b88d4fde116100a2578063eddd0d9c11610071578063eddd0d9c146103ef578063f0f4426014610402578063f2fde38b14610415578063fce589d81461042857600080fd5b8063b88d4fde14610384578063c87b56dd14610397578063ddca3f43146103aa578063e985e9c5146103b357600080fd5b806395d89b41116100de57806395d89b4114610358578063a22cb46514610360578063aa4b10d114610373578063aa8c217c1461037b57600080fd5b806370a0823114610324578063715018a6146103375780637a5caab31461033f5780638da5cb5b1461034757600080fd5b80633b19e84a1161018757806342966c681161015657806342966c68146102d85780634bf2c7c9146102eb57806361d027b3146102fe5780636352211e1461031157600080fd5b80633b19e84a146102995780633fa2963f146102aa57806340c84b0e146102bd57806342842e0e146102c557600080fd5b8063095ea7b3116101c3578063095ea7b31461025257806313966db5146102675780631c7ef2aa1461027e57806323b872dd1461028657600080fd5b806301ffc9a7146101ea57806306fdde0314610212578063081812fc14610227575b600080fd5b6101fd6101f8366004611d98565b610431565b60405190151581526020015b60405180910390f35b61021a610483565b6040516102099190611ed6565b61023a610235366004611e26565b610515565b6040516001600160a01b039091168152602001610209565b610265610260366004611d6f565b6105a2565b005b610270600d5481565b604051908152602001610209565b61021a6106b8565b610265610294366004611c92565b6106c7565b600c546001600160a01b031661023a565b6102706102b8366004611dd0565b6106f8565b61021a61084e565b6102656102d3366004611c92565b6108dc565b6102656102e6366004611e26565b6108f7565b6102656102f9366004611e26565b6109c7565b600c5461023a906001600160a01b031681565b61023a61031f366004611e26565b610ac2565b610270610332366004611c46565b610b39565b610265610bc0565b600d54610270565b6007546001600160a01b031661023a565b61021a610bf6565b61026561036e366004611d46565b610c05565b600e54610270565b610270600f5481565b610265610392366004611ccd565b610cca565b61021a6103a5366004611e26565b610d02565b61027060105481565b6101fd6103c1366004611c60565b6001600160a01b03918216600090815260056020908152604080832093909416825291909152205460ff1690565b6102656103fd366004611e26565b610d3c565b610265610410366004611c46565b610e37565b610265610423366004611c46565b610ee5565b610270600e5481565b60006001600160e01b031982166380ac58cd60e01b148061046257506001600160e01b03198216635b5e139f60e01b145b8061047d57506301ffc9a760e01b6001600160e01b03198316145b92915050565b60606000805461049290612030565b80601f01602080910402602001604051908101604052809291908181526020018280546104be90612030565b801561050b5780601f106104e05761010080835404028352916020019161050b565b820191906000526020600020905b8154815290600101906020018083116104ee57829003601f168201915b5050505050905090565b600061052082610f7d565b6105865760405162461bcd60e51b815260206004820152602c60248201527f4552433732313a20617070726f76656420717565727920666f72206e6f6e657860448201526b34b9ba32b73a103a37b5b2b760a11b60648201526084015b60405180910390fd5b506000908152600460205260409020546001600160a01b031690565b60006105ad82610ac2565b9050806001600160a01b0316836001600160a01b0316141561061b5760405162461bcd60e51b815260206004820152602160248201527f4552433732313a20617070726f76616c20746f2063757272656e74206f776e656044820152603960f91b606482015260840161057d565b336001600160a01b0382161480610637575061063781336103c1565b6106a95760405162461bcd60e51b815260206004820152603860248201527f4552433732313a20617070726f76652063616c6c6572206973206e6f74206f7760448201527f6e6572206e6f7220617070726f76656420666f7220616c6c0000000000000000606482015260840161057d565b6106b38383610f9a565b505050565b6060600b805461049290612030565b6106d13382611008565b6106ed5760405162461bcd60e51b815260040161057d90611f70565b6106b38383836110f2565b6000806107053385611292565b9050821561077257600a54604051631a55d03d60e21b8152306004820152602481018390526001600160a01b039091169063695740f490604401600060405180830381600087803b15801561075957600080fd5b505af115801561076d573d6000803e3d6000fd5b505050505b600954600f546040516340c10f1960e01b815233600482015260248101919091526001600160a01b03909116906340c10f1990604401600060405180830381600087803b1580156107c257600080fd5b505af11580156107d6573d6000803e3d6000fd5b5050600954600c546010546040516340c10f1960e01b81526001600160a01b0392831660048201526024810191909152911692506340c10f199150604401600060405180830381600087803b15801561082e57600080fd5b505af1158015610842573d6000803e3d6000fd5b50929695505050505050565b600b805461085b90612030565b80601f016020809104026020016040519081016040528092919081815260200182805461088790612030565b80156108d45780601f106108a9576101008083540402835291602001916108d4565b820191906000526020600020905b8154815290600101906020018083116108b757829003601f168201915b505050505081565b6106b383838360405180602001604052806000815250610cca565b3361090182610ac2565b6001600160a01b0316146109575760405162461bcd60e51b815260206004820152601c60248201527f4974277320706f737369626c65206f6e6c7920666f72206f776e657200000000604482015260640161057d565b600954604051632770a7eb60e21b8152336004820152600a60248201526001600160a01b0390911690639dc29fac90604401600060405180830381600087803b1580156109a357600080fd5b505af11580156109b7573d6000803e3d6000fd5b505050506109c4816112f0565b50565b6007546001600160a01b031633146109f15760405162461bcd60e51b815260040161057d90611f3b565b600a811015610a575760405162461bcd60e51b815260206004820152602c60248201527f7365744275726e4665653a206d696e696d756d206275726e206665652070657260448201526b63656e7420697320302e312560a01b606482015260840161057d565b610bb8811115610abd5760405162461bcd60e51b815260206004820152602b60248201527f7365744275726e4665653a206d6178696d756d206275726e206665652070657260448201526a63656e742069732033302560a81b606482015260840161057d565b600e55565b6000818152600260205260408120546001600160a01b03168061047d5760405162461bcd60e51b815260206004820152602960248201527f4552433732313a206f776e657220717565727920666f72206e6f6e657869737460448201526832b73a103a37b5b2b760b91b606482015260840161057d565b60006001600160a01b038216610ba45760405162461bcd60e51b815260206004820152602a60248201527f4552433732313a2062616c616e636520717565727920666f7220746865207a65604482015269726f206164647265737360b01b606482015260840161057d565b506001600160a01b031660009081526003602052604090205490565b6007546001600160a01b03163314610bea5760405162461bcd60e51b815260040161057d90611f3b565b610bf460006112f9565b565b60606001805461049290612030565b6001600160a01b038216331415610c5e5760405162461bcd60e51b815260206004820152601960248201527f4552433732313a20617070726f766520746f2063616c6c657200000000000000604482015260640161057d565b3360008181526005602090815260408083206001600160a01b03871680855290835292819020805460ff191686151590811790915590519081529192917f17307eab39ab6107e8899845ad3d59bd9653f200f220920489ca2b5937696c31910160405180910390a35050565b610cd43383611008565b610cf05760405162461bcd60e51b815260040161057d90611f70565b610cfc8484848461134b565b50505050565b6060610d0c6106b8565b610d158361137e565b604051602001610d26929190611e6a565b6040516020818303038152906040529050919050565b6007546001600160a01b03163314610d665760405162461bcd60e51b815260040161057d90611f3b565b600a811015610dcc5760405162461bcd60e51b815260206004820152602c60248201527f7365744d696e744665653a206d696e696d756d206d696e74206665652070657260448201526b63656e7420697320302e312560a01b606482015260840161057d565b610bb8811115610e325760405162461bcd60e51b815260206004820152602b60248201527f7365744d696e744665653a206d6178696d756d206d696e74206665652070657260448201526a63656e742069732033302560a81b606482015260840161057d565b600d55565b6007546001600160a01b03163314610e615760405162461bcd60e51b815260040161057d90611f3b565b6001600160a01b038116610ec35760405162461bcd60e51b815260206004820152602360248201527f7365745472656173757279416464726573733a206973207a65726f206164647260448201526265737360e81b606482015260840161057d565b600c80546001600160a01b0319166001600160a01b0392909216919091179055565b6007546001600160a01b03163314610f0f5760405162461bcd60e51b815260040161057d90611f3b565b6001600160a01b038116610f745760405162461bcd60e51b815260206004820152602660248201527f4f776e61626c653a206e6577206f776e657220697320746865207a65726f206160448201526564647265737360d01b606482015260840161057d565b6109c4816112f9565b6000908152600260205260409020546001600160a01b0316151590565b600081815260046020526040902080546001600160a01b0319166001600160a01b0384169081179091558190610fcf82610ac2565b6001600160a01b03167f8c5be1e5ebec7d5bd14f71427d1e84f3dd0314c0f7b2291e5b200ac8c7c3b92560405160405180910390a45050565b600061101382610f7d565b6110745760405162461bcd60e51b815260206004820152602c60248201527f4552433732313a206f70657261746f7220717565727920666f72206e6f6e657860448201526b34b9ba32b73a103a37b5b2b760a11b606482015260840161057d565b600061107f83610ac2565b9050806001600160a01b0316846001600160a01b031614806110ba5750836001600160a01b03166110af84610515565b6001600160a01b0316145b806110ea57506001600160a01b0380821660009081526005602090815260408083209388168352929052205460ff165b949350505050565b826001600160a01b031661110582610ac2565b6001600160a01b03161461116d5760405162461bcd60e51b815260206004820152602960248201527f4552433732313a207472616e73666572206f6620746f6b656e2074686174206960448201526839903737ba1037bbb760b91b606482015260840161057d565b6001600160a01b0382166111cf5760405162461bcd60e51b8152602060048201526024808201527f4552433732313a207472616e7366657220746f20746865207a65726f206164646044820152637265737360e01b606482015260840161057d565b6111da600082610f9a565b6001600160a01b0383166000908152600360205260408120805460019290611203908490611fed565b90915550506001600160a01b0382166000908152600360205260408120805460019290611231908490611fc1565b909155505060008181526002602052604080822080546001600160a01b0319166001600160a01b0386811691821790925591518493918716917fddf252ad1be2c89b69c2b068fc378daa952ba7f163c4a11628f55a4df523b3ef91a4505050565b60008061129e60085490565b600081815260126020526040902080546001600160a01b0319166001600160a01b03871617905590506112d184826114ed565b6112db818461150b565b6112e9600880546001019055565b9392505050565b6109c481611596565b600780546001600160a01b038381166001600160a01b0319831681179093556040519116919082907f8be0079c531659141344cd1fd0a4f28419497f9722a3daafe3b4186f6b6457e090600090a35050565b6113568484846110f2565b611362848484846115d6565b610cfc5760405162461bcd60e51b815260040161057d90611ee9565b606061138982610f7d565b6113ef5760405162461bcd60e51b815260206004820152603160248201527f45524337323155524953746f726167653a2055524920717565727920666f72206044820152703737b732bc34b9ba32b73a103a37b5b2b760791b606482015260840161057d565b6000828152600660205260408120805461140890612030565b80601f016020809104026020016040519081016040528092919081815260200182805461143490612030565b80156114815780601f1061145657610100808354040283529160200191611481565b820191906000526020600020905b81548152906001019060200180831161146457829003601f168201915b50505050509050600061149f60408051602081019091526000815290565b90508051600014156114b2575092915050565b8151156114e45780826040516020016114cc929190611e6a565b60405160208183030381529060405292505050919050565b6110ea846116e3565b6115078282604051806020016040528060008152506117ba565b5050565b61151482610f7d565b6115775760405162461bcd60e51b815260206004820152602e60248201527f45524337323155524953746f726167653a2055524920736574206f66206e6f6e60448201526d32bc34b9ba32b73a103a37b5b2b760911b606482015260840161057d565b600082815260066020908152604090912082516106b392840190611ad5565b61159f816117ed565b600081815260066020526040902080546115b890612030565b1590506109c45760008181526006602052604081206109c491611b59565b60006001600160a01b0384163b156116d857604051630a85bd0160e11b81526001600160a01b0385169063150b7a029061161a903390899088908890600401611e99565b602060405180830381600087803b15801561163457600080fd5b505af1925050508015611664575060408051601f3d908101601f1916820190925261166191810190611db4565b60015b6116be573d808015611692576040519150601f19603f3d011682016040523d82523d6000602084013e611697565b606091505b5080516116b65760405162461bcd60e51b815260040161057d90611ee9565b805181602001fd5b6001600160e01b031916630a85bd0160e11b1490506110ea565b506001949350505050565b60606116ee82610f7d565b6117525760405162461bcd60e51b815260206004820152602f60248201527f4552433732314d657461646174613a2055524920717565727920666f72206e6f60448201526e3732bc34b9ba32b73a103a37b5b2b760891b606482015260840161057d565b600061176960408051602081019091526000815290565b9050600081511161178957604051806020016040528060008152506112e9565b8061179384611888565b6040516020016117a4929190611e6a565b6040516020818303038152906040529392505050565b6117c483836119a2565b6117d160008484846115d6565b6106b35760405162461bcd60e51b815260040161057d90611ee9565b60006117f882610ac2565b9050611805600083610f9a565b6001600160a01b038116600090815260036020526040812080546001929061182e908490611fed565b909155505060008281526002602052604080822080546001600160a01b0319169055518391906001600160a01b038416907fddf252ad1be2c89b69c2b068fc378daa952ba7f163c4a11628f55a4df523b3ef908390a45050565b6060816118ac5750506040805180820190915260018152600360fc1b602082015290565b8160005b81156118d657806118c08161206b565b91506118cf9050600a83611fd9565b91506118b0565b60008167ffffffffffffffff8111156118ff57634e487b7160e01b600052604160045260246000fd5b6040519080825280601f01601f191660200182016040528015611929576020820181803683370190505b5090505b84156110ea5761193e600183611fed565b915061194b600a86612086565b611956906030611fc1565b60f81b81838151811061197957634e487b7160e01b600052603260045260246000fd5b60200101906001600160f81b031916908160001a90535061199b600a86611fd9565b945061192d565b6001600160a01b0382166119f85760405162461bcd60e51b815260206004820181905260248201527f4552433732313a206d696e7420746f20746865207a65726f2061646472657373604482015260640161057d565b611a0181610f7d565b15611a4e5760405162461bcd60e51b815260206004820152601c60248201527f4552433732313a20746f6b656e20616c7265616479206d696e74656400000000604482015260640161057d565b6001600160a01b0382166000908152600360205260408120805460019290611a77908490611fc1565b909155505060008181526002602052604080822080546001600160a01b0319166001600160a01b03861690811790915590518392907fddf252ad1be2c89b69c2b068fc378daa952ba7f163c4a11628f55a4df523b3ef908290a45050565b828054611ae190612030565b90600052602060002090601f016020900481019282611b035760008555611b49565b82601f10611b1c57805160ff1916838001178555611b49565b82800160010185558215611b49579182015b82811115611b49578251825591602001919060010190611b2e565b50611b55929150611b8f565b5090565b508054611b6590612030565b6000825580601f10611b75575050565b601f0160209004906000526020600020908101906109c491905b5b80821115611b555760008155600101611b90565b600067ffffffffffffffff80841115611bbf57611bbf6120c6565b604051601f8501601f19908116603f01168101908282118183101715611be757611be76120c6565b81604052809350858152868686011115611c0057600080fd5b858560208301376000602087830101525050509392505050565b80356001600160a01b0381168114611c3157600080fd5b919050565b80358015158114611c3157600080fd5b600060208284031215611c57578081fd5b6112e982611c1a565b60008060408385031215611c72578081fd5b611c7b83611c1a565b9150611c8960208401611c1a565b90509250929050565b600080600060608486031215611ca6578081fd5b611caf84611c1a565b9250611cbd60208501611c1a565b9150604084013590509250925092565b60008060008060808587031215611ce2578081fd5b611ceb85611c1a565b9350611cf960208601611c1a565b925060408501359150606085013567ffffffffffffffff811115611d1b578182fd5b8501601f81018713611d2b578182fd5b611d3a87823560208401611ba4565b91505092959194509250565b60008060408385031215611d58578182fd5b611d6183611c1a565b9150611c8960208401611c36565b60008060408385031215611d81578182fd5b611d8a83611c1a565b946020939093013593505050565b600060208284031215611da9578081fd5b81356112e9816120dc565b600060208284031215611dc5578081fd5b81516112e9816120dc565b60008060408385031215611de2578182fd5b823567ffffffffffffffff811115611df8578283fd5b8301601f81018513611e08578283fd5b611e1785823560208401611ba4565b925050611c8960208401611c36565b600060208284031215611e37578081fd5b5035919050565b60008151808452611e56816020860160208601612004565b601f01601f19169290920160200192915050565b60008351611e7c818460208801612004565b835190830190611e90818360208801612004565b01949350505050565b6001600160a01b0385811682528416602082015260408101839052608060608201819052600090611ecc90830184611e3e565b9695505050505050565b6020815260006112e96020830184611e3e565b60208082526032908201527f4552433732313a207472616e7366657220746f206e6f6e20455243373231526560408201527131b2b4bb32b91034b6b83632b6b2b73a32b960711b606082015260800190565b6020808252818101527f4f776e61626c653a2063616c6c6572206973206e6f7420746865206f776e6572604082015260600190565b60208082526031908201527f4552433732313a207472616e736665722063616c6c6572206973206e6f74206f6040820152701ddb995c881b9bdc88185c1c1c9bdd9959607a1b606082015260800190565b60008219821115611fd457611fd461209a565b500190565b600082611fe857611fe86120b0565b500490565b600082821015611fff57611fff61209a565b500390565b60005b8381101561201f578181015183820152602001612007565b83811115610cfc5750506000910152565b600181811c9082168061204457607f821691505b6020821081141561206557634e487b7160e01b600052602260045260246000fd5b50919050565b600060001982141561207f5761207f61209a565b5060010190565b600082612095576120956120b0565b500690565b634e487b7160e01b600052601160045260246000fd5b634e487b7160e01b600052601260045260246000fd5b634e487b7160e01b600052604160045260246000fd5b6001600160e01b0319811681146109c457600080fdfea2646970667358221220f8510717b1a40de77d63da75c03c9e729a9dc9c320fd48c0fdaf855f51b9391b64736f6c63430008040033",
  "devdoc": {
    "kind": "dev",
    "methods": {
      "approve(address,uint256)": {
        "details": "See {IERC721-approve}."
      },
      "balanceOf(address)": {
        "details": "See {IERC721-balanceOf}."
      },
      "getApproved(uint256)": {
        "details": "See {IERC721-getApproved}."
      },
      "isApprovedForAll(address,address)": {
        "details": "See {IERC721-isApprovedForAll}."
      },
      "name()": {
        "details": "See {IERC721Metadata-name}."
      },
      "owner()": {
        "details": "Returns the address of the current owner."
      },
      "ownerOf(uint256)": {
        "details": "See {IERC721-ownerOf}."
      },
      "renounceOwnership()": {
        "details": "Leaves the contract without owner. It will not be possible to call `onlyOwner` functions anymore. Can only be called by the current owner. NOTE: Renouncing ownership will leave the contract without an owner, thereby removing any functionality that is only available to the owner."
      },
      "safeTransferFrom(address,address,uint256)": {
        "details": "See {IERC721-safeTransferFrom}."
      },
      "safeTransferFrom(address,address,uint256,bytes)": {
        "details": "See {IERC721-safeTransferFrom}."
      },
      "setApprovalForAll(address,bool)": {
        "details": "See {IERC721-setApprovalForAll}."
      },
      "supportsInterface(bytes4)": {
        "details": "See {IERC165-supportsInterface}."
      },
      "symbol()": {
        "details": "See {IERC721Metadata-symbol}."
      },
      "transferFrom(address,address,uint256)": {
        "details": "See {IERC721-transferFrom}."
      },
      "transferOwnership(address)": {
        "details": "Transfers ownership of the contract to a new account (`newOwner`). Can only be called by the current owner."
      }
    },
    "version": 1
  },
  "userdoc": {
    "kind": "user",
    "methods": {},
    "version": 1
  },
  "storageLayout": {
    "storage": [
      {
        "astId": 1158,
        "contract": "contracts/CryptoPageNFT.sol:PageNFT",
        "label": "_name",
        "offset": 0,
        "slot": "0",
        "type": "t_string_storage"
      },
      {
        "astId": 1160,
        "contract": "contracts/CryptoPageNFT.sol:PageNFT",
        "label": "_symbol",
        "offset": 0,
        "slot": "1",
        "type": "t_string_storage"
      },
      {
        "astId": 1164,
        "contract": "contracts/CryptoPageNFT.sol:PageNFT",
        "label": "_owners",
        "offset": 0,
        "slot": "2",
        "type": "t_mapping(t_uint256,t_address)"
      },
      {
        "astId": 1168,
        "contract": "contracts/CryptoPageNFT.sol:PageNFT",
        "label": "_balances",
        "offset": 0,
        "slot": "3",
        "type": "t_mapping(t_address,t_uint256)"
      },
      {
        "astId": 1172,
        "contract": "contracts/CryptoPageNFT.sol:PageNFT",
        "label": "_tokenApprovals",
        "offset": 0,
        "slot": "4",
        "type": "t_mapping(t_uint256,t_address)"
      },
      {
        "astId": 1178,
        "contract": "contracts/CryptoPageNFT.sol:PageNFT",
        "label": "_operatorApprovals",
        "offset": 0,
        "slot": "5",
        "type": "t_mapping(t_address,t_mapping(t_address,t_bool))"
      },
      {
        "astId": 2095,
        "contract": "contracts/CryptoPageNFT.sol:PageNFT",
        "label": "_tokenURIs",
        "offset": 0,
        "slot": "6",
        "type": "t_mapping(t_uint256,t_string_storage)"
      },
      {
        "astId": 387,
        "contract": "contracts/CryptoPageNFT.sol:PageNFT",
        "label": "_owner",
        "offset": 0,
        "slot": "7",
        "type": "t_address"
      },
      {
        "astId": 4643,
        "contract": "contracts/CryptoPageNFT.sol:PageNFT",
        "label": "_tokenIdCounter",
        "offset": 0,
        "slot": "8",
        "type": "t_struct(Counter)2562_storage"
      },
      {
        "astId": 4646,
        "contract": "contracts/CryptoPageNFT.sol:PageNFT",
        "label": "token",
        "offset": 0,
        "slot": "9",
        "type": "t_contract(PageToken)5077"
      },
      {
        "astId": 4649,
        "contract": "contracts/CryptoPageNFT.sol:PageNFT",
        "label": "commentMinter",
        "offset": 0,
        "slot": "10",
        "type": "t_contract(PageCommentMinter)4617"
      },
      {
        "astId": 4652,
        "contract": "contracts/CryptoPageNFT.sol:PageNFT",
        "label": "baseURL",
        "offset": 0,
        "slot": "11",
        "type": "t_string_storage"
      },
      {
        "astId": 4654,
        "contract": "contracts/CryptoPageNFT.sol:PageNFT",
        "label": "treasury",
        "offset": 0,
        "slot": "12",
        "type": "t_address"
      },
      {
        "astId": 4657,
        "contract": "contracts/CryptoPageNFT.sol:PageNFT",
        "label": "mintFee",
        "offset": 0,
        "slot": "13",
        "type": "t_uint256"
      },
      {
        "astId": 4660,
        "contract": "contracts/CryptoPageNFT.sol:PageNFT",
        "label": "burnFee",
        "offset": 0,
        "slot": "14",
        "type": "t_uint256"
      },
      {
        "astId": 4663,
        "contract": "contracts/CryptoPageNFT.sol:PageNFT",
        "label": "amount",
        "offset": 0,
        "slot": "15",
        "type": "t_uint256"
      },
      {
        "astId": 4666,
        "contract": "contracts/CryptoPageNFT.sol:PageNFT",
        "label": "fee",
        "offset": 0,
        "slot": "16",
        "type": "t_uint256"
      },
      {
        "astId": 4670,
        "contract": "contracts/CryptoPageNFT.sol:PageNFT",
        "label": "commentsById",
        "offset": 0,
        "slot": "17",
        "type": "t_mapping(t_uint256,t_address)"
      },
      {
        "astId": 4674,
        "contract": "contracts/CryptoPageNFT.sol:PageNFT",
        "label": "creatorById",
        "offset": 0,
        "slot": "18",
        "type": "t_mapping(t_uint256,t_address)"
      }
    ],
    "types": {
      "t_address": {
        "encoding": "inplace",
        "label": "address",
        "numberOfBytes": "20"
      },
      "t_bool": {
        "encoding": "inplace",
        "label": "bool",
        "numberOfBytes": "1"
      },
      "t_contract(PageCommentMinter)4617": {
        "encoding": "inplace",
        "label": "contract PageCommentMinter",
        "numberOfBytes": "20"
      },
      "t_contract(PageToken)5077": {
        "encoding": "inplace",
        "label": "contract PageToken",
        "numberOfBytes": "20"
      },
      "t_mapping(t_address,t_bool)": {
        "encoding": "mapping",
        "key": "t_address",
        "label": "mapping(address => bool)",
        "numberOfBytes": "32",
        "value": "t_bool"
      },
      "t_mapping(t_address,t_mapping(t_address,t_bool))": {
        "encoding": "mapping",
        "key": "t_address",
        "label": "mapping(address => mapping(address => bool))",
        "numberOfBytes": "32",
        "value": "t_mapping(t_address,t_bool)"
      },
      "t_mapping(t_address,t_uint256)": {
        "encoding": "mapping",
        "key": "t_address",
        "label": "mapping(address => uint256)",
        "numberOfBytes": "32",
        "value": "t_uint256"
      },
      "t_mapping(t_uint256,t_address)": {
        "encoding": "mapping",
        "key": "t_uint256",
        "label": "mapping(uint256 => address)",
        "numberOfBytes": "32",
        "value": "t_address"
      },
      "t_mapping(t_uint256,t_string_storage)": {
        "encoding": "mapping",
        "key": "t_uint256",
        "label": "mapping(uint256 => string)",
        "numberOfBytes": "32",
        "value": "t_string_storage"
      },
      "t_string_storage": {
        "encoding": "bytes",
        "label": "string",
        "numberOfBytes": "32"
      },
      "t_struct(Counter)2562_storage": {
        "encoding": "inplace",
        "label": "struct Counters.Counter",
        "members": [
          {
            "astId": 2561,
            "contract": "contracts/CryptoPageNFT.sol:PageNFT",
            "label": "_value",
            "offset": 0,
            "slot": "0",
            "type": "t_uint256"
          }
        ],
        "numberOfBytes": "32"
      },
      "t_uint256": {
        "encoding": "inplace",
        "label": "uint256",
        "numberOfBytes": "32"
      }
    }
  }
}