{
  "address": "0x3CbeE15787477E578042043B34Ce98210dE1e184",
  "abi": [
    {
      "inputs": [
        {
          "internalType": "address",
          "name": "_treasury",
          "type": "address"
        },
        {
          "internalType": "address",
          "name": "_token",
          "type": "address"
        },
        {
          "internalType": "address",
          "name": "_commentMinter",
          "type": "address"
        }
      ],
      "stateMutability": "nonpayable",
      "type": "constructor"
    },
    {
      "anonymous": false,
      "inputs": [
        {
          "indexed": true,
          "internalType": "address",
          "name": "owner",
          "type": "address"
        },
        {
          "indexed": true,
          "internalType": "address",
          "name": "approved",
          "type": "address"
        },
        {
          "indexed": true,
          "internalType": "uint256",
          "name": "tokenId",
          "type": "uint256"
        }
      ],
      "name": "Approval",
      "type": "event"
    },
    {
      "anonymous": false,
      "inputs": [
        {
          "indexed": true,
          "internalType": "address",
          "name": "owner",
          "type": "address"
        },
        {
          "indexed": true,
          "internalType": "address",
          "name": "operator",
          "type": "address"
        },
        {
          "indexed": false,
          "internalType": "bool",
          "name": "approved",
          "type": "bool"
        }
      ],
      "name": "ApprovalForAll",
      "type": "event"
    },
    {
      "anonymous": false,
      "inputs": [
        {
          "indexed": true,
          "internalType": "address",
          "name": "previousOwner",
          "type": "address"
        },
        {
          "indexed": true,
          "internalType": "address",
          "name": "newOwner",
          "type": "address"
        }
      ],
      "name": "OwnershipTransferred",
      "type": "event"
    },
    {
      "anonymous": false,
      "inputs": [
        {
          "indexed": true,
          "internalType": "address",
          "name": "from",
          "type": "address"
        },
        {
          "indexed": true,
          "internalType": "address",
          "name": "to",
          "type": "address"
        },
        {
          "indexed": true,
          "internalType": "uint256",
          "name": "tokenId",
          "type": "uint256"
        }
      ],
      "name": "Transfer",
      "type": "event"
    },
    {
      "inputs": [
        {
          "internalType": "address",
          "name": "to",
          "type": "address"
        },
        {
          "internalType": "uint256",
          "name": "tokenId",
          "type": "uint256"
        }
      ],
      "name": "approve",
      "outputs": [],
      "stateMutability": "nonpayable",
      "type": "function"
    },
    {
      "inputs": [
        {
          "internalType": "address",
          "name": "owner",
          "type": "address"
        }
      ],
      "name": "balanceOf",
      "outputs": [
        {
          "internalType": "uint256",
          "name": "",
          "type": "uint256"
        }
      ],
      "stateMutability": "view",
      "type": "function"
    },
    {
      "inputs": [],
      "name": "baseURL",
      "outputs": [
        {
          "internalType": "string",
          "name": "",
          "type": "string"
        }
      ],
      "stateMutability": "view",
      "type": "function"
    },
    {
      "inputs": [
        {
          "internalType": "uint256",
          "name": "_tokenId",
          "type": "uint256"
        }
      ],
      "name": "burn",
      "outputs": [],
      "stateMutability": "nonpayable",
      "type": "function"
    },
    {
      "inputs": [],
      "name": "fee",
      "outputs": [
        {
          "internalType": "uint256",
          "name": "",
          "type": "uint256"
        }
      ],
      "stateMutability": "view",
      "type": "function"
    },
    {
      "inputs": [
        {
          "internalType": "uint256",
          "name": "tokenId",
          "type": "uint256"
        }
      ],
      "name": "getApproved",
      "outputs": [
        {
          "internalType": "address",
          "name": "",
          "type": "address"
        }
      ],
      "stateMutability": "view",
      "type": "function"
    },
    {
      "inputs": [],
      "name": "getBaseURL",
      "outputs": [
        {
          "internalType": "string",
          "name": "",
          "type": "string"
        }
      ],
      "stateMutability": "view",
      "type": "function"
    },
    {
      "inputs": [],
      "name": "getFee",
      "outputs": [
        {
          "internalType": "uint256",
          "name": "",
          "type": "uint256"
        }
      ],
      "stateMutability": "view",
      "type": "function"
    },
    {
      "inputs": [],
      "name": "getTreasury",
      "outputs": [
        {
          "internalType": "address",
          "name": "",
          "type": "address"
        }
      ],
      "stateMutability": "view",
      "type": "function"
    },
    {
      "inputs": [
        {
          "internalType": "address",
          "name": "owner",
          "type": "address"
        },
        {
          "internalType": "address",
          "name": "operator",
          "type": "address"
        }
      ],
      "name": "isApprovedForAll",
      "outputs": [
        {
          "internalType": "bool",
          "name": "",
          "type": "bool"
        }
      ],
      "stateMutability": "view",
      "type": "function"
    },
    {
      "inputs": [],
      "name": "name",
      "outputs": [
        {
          "internalType": "string",
          "name": "",
          "type": "string"
        }
      ],
      "stateMutability": "view",
      "type": "function"
    },
    {
      "inputs": [],
      "name": "owner",
      "outputs": [
        {
          "internalType": "address",
          "name": "",
          "type": "address"
        }
      ],
      "stateMutability": "view",
      "type": "function"
    },
    {
      "inputs": [
        {
          "internalType": "uint256",
          "name": "tokenId",
          "type": "uint256"
        }
      ],
      "name": "ownerOf",
      "outputs": [
        {
          "internalType": "address",
          "name": "",
          "type": "address"
        }
      ],
      "stateMutability": "view",
      "type": "function"
    },
    {
      "inputs": [],
      "name": "renounceOwnership",
      "outputs": [],
      "stateMutability": "nonpayable",
      "type": "function"
    },
    {
      "inputs": [
        {
          "internalType": "string",
          "name": "_tokenURI",
          "type": "string"
        },
        {
          "internalType": "bool",
          "name": "_commentActive",
          "type": "bool"
        }
      ],
      "name": "safeMint",
      "outputs": [
        {
          "internalType": "uint256",
          "name": "",
          "type": "uint256"
        }
      ],
      "stateMutability": "nonpayable",
      "type": "function"
    },
    {
      "inputs": [
        {
          "internalType": "address",
          "name": "from",
          "type": "address"
        },
        {
          "internalType": "address",
          "name": "to",
          "type": "address"
        },
        {
          "internalType": "uint256",
          "name": "tokenId",
          "type": "uint256"
        }
      ],
      "name": "safeTransferFrom",
      "outputs": [],
      "stateMutability": "nonpayable",
      "type": "function"
    },
    {
      "inputs": [
        {
          "internalType": "address",
          "name": "from",
          "type": "address"
        },
        {
          "internalType": "address",
          "name": "to",
          "type": "address"
        },
        {
          "internalType": "uint256",
          "name": "tokenId",
          "type": "uint256"
        },
        {
          "internalType": "bytes",
          "name": "_data",
          "type": "bytes"
        }
      ],
      "name": "safeTransferFrom",
      "outputs": [],
      "stateMutability": "nonpayable",
      "type": "function"
    },
    {
      "inputs": [
        {
          "internalType": "address",
          "name": "operator",
          "type": "address"
        },
        {
          "internalType": "bool",
          "name": "approved",
          "type": "bool"
        }
      ],
      "name": "setApprovalForAll",
      "outputs": [],
      "stateMutability": "nonpayable",
      "type": "function"
    },
    {
      "inputs": [
        {
          "internalType": "uint256",
          "name": "_percent",
          "type": "uint256"
        }
      ],
      "name": "setFee",
      "outputs": [],
      "stateMutability": "nonpayable",
      "type": "function"
    },
    {
      "inputs": [
        {
          "internalType": "address",
          "name": "_treasury",
          "type": "address"
        }
      ],
      "name": "setTreasury",
      "outputs": [],
      "stateMutability": "nonpayable",
      "type": "function"
    },
    {
      "inputs": [
        {
          "internalType": "bytes4",
          "name": "interfaceId",
          "type": "bytes4"
        }
      ],
      "name": "supportsInterface",
      "outputs": [
        {
          "internalType": "bool",
          "name": "",
          "type": "bool"
        }
      ],
      "stateMutability": "view",
      "type": "function"
    },
    {
      "inputs": [],
      "name": "symbol",
      "outputs": [
        {
          "internalType": "string",
          "name": "",
          "type": "string"
        }
      ],
      "stateMutability": "view",
      "type": "function"
    },
    {
      "inputs": [
        {
          "internalType": "uint256",
          "name": "tokenId",
          "type": "uint256"
        }
      ],
      "name": "tokenPrice",
      "outputs": [
        {
          "internalType": "uint256",
          "name": "",
          "type": "uint256"
        }
      ],
      "stateMutability": "view",
      "type": "function"
    },
    {
      "inputs": [
        {
          "internalType": "uint256",
          "name": "tokenId",
          "type": "uint256"
        }
      ],
      "name": "tokenURI",
      "outputs": [
        {
          "internalType": "string",
          "name": "",
          "type": "string"
        }
      ],
      "stateMutability": "view",
      "type": "function"
    },
    {
      "inputs": [
        {
          "internalType": "address",
          "name": "from",
          "type": "address"
        },
        {
          "internalType": "address",
          "name": "to",
          "type": "address"
        },
        {
          "internalType": "uint256",
          "name": "tokenId",
          "type": "uint256"
        }
      ],
      "name": "transferFrom",
      "outputs": [],
      "stateMutability": "nonpayable",
      "type": "function"
    },
    {
      "inputs": [
        {
          "internalType": "address",
          "name": "newOwner",
          "type": "address"
        }
      ],
      "name": "transferOwnership",
      "outputs": [],
      "stateMutability": "nonpayable",
      "type": "function"
    },
    {
      "inputs": [],
      "name": "treasury",
      "outputs": [
        {
          "internalType": "address",
          "name": "",
          "type": "address"
        }
      ],
      "stateMutability": "view",
      "type": "function"
    }
  ],
  "transactionHash": "0x04c403c6a14e48de19c40eaa265cfeaaf2048a198214cbcb432245a430281538",
  "args": [
    "0x42Ea7075F16e355DE9D9F69D146A439AC4Cb6030",
    "0x12c03644D6de71f727Ae93365Dd88C004971ad62",
    "0x86074214F0161D5BcA48eBB791E5eA1133a04002"
  ],
  "solcInputHash": "d83356337ba7a370c9f16605dd6e0790",
  "bytecode": "0x60c0604052601560808190527f68747470733a2f2f697066732e696f2f697066732f000000000000000000000060a09081526200004091600b91906200019d565b506103e8600d553480156200005457600080fd5b5060405162002d7b38038062002d7b833981016040819052620000779162000260565b60405180604001604052806008815260200167141859d94813919560c21b81525060405180604001604052806008815260200167141051d14b53919560c21b8152508160009080519060200190620000d19291906200019d565b508051620000e79060019060208401906200019d565b50505062000104620000fe6200014760201b60201c565b6200014b565b600c80546001600160a01b039485166001600160a01b0319918216179091556009805493851693821693909317909255600a8054919093169116179055620002e6565b3390565b600780546001600160a01b038381166001600160a01b0319831681179093556040519116919082907f8be0079c531659141344cd1fd0a4f28419497f9722a3daafe3b4186f6b6457e090600090a35050565b828054620001ab90620002a9565b90600052602060002090601f016020900481019282620001cf57600085556200021a565b82601f10620001ea57805160ff19168380011785556200021a565b828001600101855582156200021a579182015b828111156200021a578251825591602001919060010190620001fd565b50620002289291506200022c565b5090565b5b808211156200022857600081556001016200022d565b80516001600160a01b03811681146200025b57600080fd5b919050565b60008060006060848603121562000275578283fd5b620002808462000243565b9250620002906020850162000243565b9150620002a06040850162000243565b90509250925092565b600281046001821680620002be57607f821691505b60208210811415620002e057634e487b7160e01b600052602260045260246000fd5b50919050565b612a8580620002f66000396000f3fe608060405234801561001057600080fd5b50600436106101a95760003560e01c806369fe0e2d116100f9578063c87b56dd11610097578063ddca3f4311610071578063ddca3f431461033f578063e985e9c514610347578063f0f442601461035a578063f2fde38b1461036d576101a9565b8063c87b56dd14610311578063ced72f8714610324578063d4ddce8a1461032c576101a9565b80638da5cb5b116100d35780638da5cb5b146102db57806395d89b41146102e3578063a22cb465146102eb578063b88d4fde146102fe576101a9565b806369fe0e2d146102ad57806370a08231146102c0578063715018a6146102d3576101a9565b80633b19e84a1161016657806342842e0e1161014057806342842e0e1461026c57806342966c681461027f57806361d027b3146102925780636352211e1461029a576101a9565b80633b19e84a1461023c5780633fa2963f1461024457806340c84b0e14610264576101a9565b806301ffc9a7146101ae57806306fdde03146101d7578063081812fc146101ec578063095ea7b31461020c5780631c7ef2aa1461022157806323b872dd14610229575b600080fd5b6101c16101bc366004612055565b610380565b6040516101ce91906121f6565b60405180910390f35b6101df6103c8565b6040516101ce9190612201565b6101ff6101fa366004612101565b61045a565b6040516101ce919061218c565b61021f61021a366004611f0e565b6104a6565b005b6101df61053e565b61021f610237366004611e24565b61054d565b6101ff610796565b6102576102523660046120a9565b6107a5565b6040516101ce9190612881565b6101df6109e1565b61021f61027a366004611e24565b610a6f565b61021f61028d366004612101565b610a8a565b6101ff610e94565b6101ff6102a8366004612101565b610ea3565b61021f6102bb366004612101565b610ed8565b6102576102ce366004611dd0565b610f5f565b61021f610fa3565b6101ff610fee565b6101df610ffd565b61021f6102f9366004611ee1565b61100c565b61021f61030c366004611e64565b611022565b6101df61031f366004612101565b61105b565b610257611095565b61025761033a366004612101565b61109b565b6102576110d9565b6101c1610355366004611dec565b6110df565b61021f610368366004611dd0565b61110d565b61021f61037b366004611dd0565b611194565b60006001600160e01b031982166380ac58cd60e01b14806103b157506001600160e01b03198216635b5e139f60e01b145b806103c057506103c082611205565b90505b919050565b6060600080546103d79061296a565b80601f01602080910402602001604051908101604052809291908181526020018280546104039061296a565b80156104505780601f1061042557610100808354040283529160200191610450565b820191906000526020600020905b81548152906001019060200180831161043357829003601f168201915b5050505050905090565b60006104658261121e565b61048a5760405162461bcd60e51b815260040161048190612632565b60405180910390fd5b506000908152600460205260409020546001600160a01b031690565b60006104b182610ea3565b9050806001600160a01b0316836001600160a01b031614156104e55760405162461bcd60e51b81526004016104819061274b565b806001600160a01b03166104f761123b565b6001600160a01b0316148061051357506105138161035561123b565b61052f5760405162461bcd60e51b815260040161048190612423565b610539838361123f565b505050565b6060600b80546103d79061296a565b60006105e9600960009054906101000a90046001600160a01b03166001600160a01b03166398d5fdca6040518163ffffffff1660e01b815260040160206040518083038186803b1580156105a057600080fd5b505afa1580156105b4573d6000803e3d6000fd5b505050506040513d601f19601f820116820180604052508101906105d89190612119565b6105e33a5a906112ad565b906112ad565b90506105fc6105f661123b565b836112c0565b6106185760405162461bcd60e51b8152600401610481906127cf565b600061062a601e6105e3846064611345565b9050600061063e600a6105e3856064611345565b905061064b868686611351565b6009546040516340c10f1960e01b81526001600160a01b03909116906340c10f199061067d90339086906004016121dd565b600060405180830381600087803b15801561069757600080fd5b505af11580156106ab573d6000803e3d6000fd5b5050600954600087815260106020526040908190205490516340c10f1960e01b81526001600160a01b0392831694506340c10f1993506106f3929091169086906004016121dd565b600060405180830381600087803b15801561070d57600080fd5b505af1158015610721573d6000803e3d6000fd5b5050600954600c546040516340c10f1960e01b81526001600160a01b0392831694506340c10f19935061075c929091169085906004016121dd565b600060405180830381600087803b15801561077657600080fd5b505af115801561078a573d6000803e3d6000fd5b50505050505050505050565b600c546001600160a01b031690565b6000805a905060006107b7338661147e565b9050831561082457600a54604051631a55d03d60e21b81526001600160a01b039091169063695740f4906107f190309085906004016121dd565b600060405180830381600087803b15801561080b57600080fd5b505af115801561081f573d6000803e3d6000fd5b505050505b60005a6108319084612927565b90506108c3600960009054906101000a90046001600160a01b03166001600160a01b03166398d5fdca6040518163ffffffff1660e01b815260040160206040518083038186803b15801561088457600080fd5b505afa158015610898573d6000803e3d6000fd5b505050506040513d601f19601f820116820180604052508101906108bc9190612119565b82906112ad565b5060006108e76127106108e1600d54856112ad90919063ffffffff16565b90611345565b905060006108f583836114d2565b6000858152600f60205260409081902085905560095490516340c10f1960e01b81529192506001600160a01b0316906340c10f199061093a90339085906004016121dd565b600060405180830381600087803b15801561095457600080fd5b505af1158015610968573d6000803e3d6000fd5b5050600954600c546040516340c10f1960e01b81526001600160a01b0392831694506340c10f1993506109a3929091169086906004016121dd565b600060405180830381600087803b1580156109bd57600080fd5b505af11580156109d1573d6000803e3d6000fd5b50959a9950505050505050505050565b600b80546109ee9061296a565b80601f0160208091040260200160405190810160405280929190818152602001828054610a1a9061296a565b8015610a675780601f10610a3c57610100808354040283529160200191610a67565b820191906000526020600020905b815481529060010190602001808311610a4a57829003601f168201915b505050505081565b61053983838360405180602001604052806000815250611022565b6000610add600960009054906101000a90046001600160a01b03166001600160a01b03166398d5fdca6040518163ffffffff1660e01b815260040160206040518083038186803b1580156105a057600080fd5b905033610ae983610ea3565b6001600160a01b031614610b0f5760405162461bcd60e51b815260040161048190612820565b600a5460405163556aab9360e11b81526000916001600160a01b03169063aad5572690610b4290309087906004016121dd565b60206040518083038186803b158015610b5a57600080fd5b505afa158015610b6e573d6000803e3d6000fd5b505050506040513d601f19601f82011682018060405250810190610b92919061208d565b90506000816001600160a01b03166391f3410c6040518163ffffffff1660e01b815260040160006040518083038186803b158015610bcf57600080fd5b505afa158015610be3573d6000803e3d6000fd5b505050506040513d6000823e601f3d908101601f19168201604052610c0b9190810190611f39565b905060005b8151811015610cfd576000828281518110610c3b57634e487b7160e01b600052603260045260246000fd5b60200260200101519050610ce8610ce160026105e3600960009054906101000a90046001600160a01b03166001600160a01b03166398d5fdca6040518163ffffffff1660e01b815260040160206040518083038186803b158015610c9e57600080fd5b505afa158015610cb2573d6000803e3d6000fd5b505050506040513d601f19601f82011682018060405250810190610cd69190612119565b6080860151906112ad565b86906114de565b50508080610cf5906129a5565b915050610c10565b506009546040516370a0823160e01b815284916001600160a01b0316906370a0823190610d2e90339060040161218c565b60206040518083038186803b158015610d4657600080fd5b505afa158015610d5a573d6000803e3d6000fd5b505050506040513d601f19601f82011682018060405250810190610d7e9190612119565b11610d9b5760405162461bcd60e51b8152600401610481906122e3565b610da4846114ea565b60095460408051634c6afee560e11b81529051610e29926001600160a01b0316916398d5fdca916004808301926020929190829003018186803b158015610dea57600080fd5b505afa158015610dfe573d6000803e3d6000fd5b505050506040513d601f19601f82011682018060405250810190610e229190612119565b84906112ad565b50600954604051632770a7eb60e21b81526001600160a01b0390911690639dc29fac90610e5c90339087906004016121dd565b600060405180830381600087803b158015610e7657600080fd5b505af1158015610e8a573d6000803e3d6000fd5b5050505050505050565b600c546001600160a01b031681565b6000818152600260205260408120546001600160a01b0316806103c05760405162461bcd60e51b8152600401610481906124ca565b610ee061123b565b6001600160a01b0316610ef1610fee565b6001600160a01b031614610f175760405162461bcd60e51b81526004016104819061267e565b600a811015610f385760405162461bcd60e51b81526004016104819061238b565b610bb8811115610f5a5760405162461bcd60e51b815260040161048190612561565b600d55565b60006001600160a01b038216610f875760405162461bcd60e51b815260040161048190612480565b506001600160a01b031660009081526003602052604090205490565b610fab61123b565b6001600160a01b0316610fbc610fee565b6001600160a01b031614610fe25760405162461bcd60e51b81526004016104819061267e565b610fec60006114f3565b565b6007546001600160a01b031690565b6060600180546103d79061296a565b61101e61101761123b565b8383611545565b5050565b61102d6105f661123b565b6110495760405162461bcd60e51b8152600401610481906127cf565b611055848484846115e8565b50505050565b606061106561053e565b61106e8361161b565b60405160200161107f92919061215d565b6040516020818303038152906040529050919050565b600d5490565b60006110a76008611734565b8211156110c65760405162461bcd60e51b815260040161048190612857565b506000908152600f602052604090205490565b600d5481565b6001600160a01b03918216600090815260056020908152604080832093909416825291909152205460ff1690565b61111561123b565b6001600160a01b0316611126610fee565b6001600160a01b03161461114c5760405162461bcd60e51b81526004016104819061267e565b6001600160a01b0381166111725760405162461bcd60e51b81526004016104819061278c565b600c80546001600160a01b0319166001600160a01b0392909216919091179055565b61119c61123b565b6001600160a01b03166111ad610fee565b6001600160a01b0316146111d35760405162461bcd60e51b81526004016104819061267e565b6001600160a01b0381166111f95760405162461bcd60e51b815260040161048190612266565b611202816114f3565b50565b6001600160e01b031981166301ffc9a760e01b14919050565b6000908152600260205260409020546001600160a01b0316151590565b3390565b600081815260046020526040902080546001600160a01b0319166001600160a01b038416908117909155819061127482610ea3565b6001600160a01b03167f8c5be1e5ebec7d5bd14f71427d1e84f3dd0314c0f7b2291e5b200ac8c7c3b92560405160405180910390a45050565b60006112b98284612908565b9392505050565b60006112cb8261121e565b6112e75760405162461bcd60e51b8152600401610481906123d7565b60006112f283610ea3565b9050806001600160a01b0316846001600160a01b0316148061132d5750836001600160a01b03166113228461045a565b6001600160a01b0316145b8061133d575061133d81856110df565b949350505050565b60006112b982846128f4565b826001600160a01b031661136482610ea3565b6001600160a01b03161461138a5760405162461bcd60e51b8152600401610481906126b3565b6001600160a01b0382166113b05760405162461bcd60e51b815260040161048190612310565b6113bb838383610539565b6113c660008261123f565b6001600160a01b03831660009081526003602052604081208054600192906113ef908490612927565b90915550506001600160a01b038216600090815260036020526040812080546001929061141d9084906128dc565b909155505060008181526002602052604080822080546001600160a01b0319166001600160a01b0386811691821790925591518493918716917fddf252ad1be2c89b69c2b068fc378daa952ba7f163c4a11628f55a4df523b3ef91a4505050565b60008061148b6008611734565b600081815260106020526040902080546001600160a01b0319166001600160a01b03871617905590506114be8482611738565b6114c88184611752565b6112b96008611796565b60006112b98284612927565b60006112b982846128dc565b6112028161179f565b600780546001600160a01b038381166001600160a01b0319831681179093556040519116919082907f8be0079c531659141344cd1fd0a4f28419497f9722a3daafe3b4186f6b6457e090600090a35050565b816001600160a01b0316836001600160a01b031614156115775760405162461bcd60e51b815260040161048190612354565b6001600160a01b0383811660008181526005602090815260408083209487168084529490915290819020805460ff1916851515179055517f17307eab39ab6107e8899845ad3d59bd9653f200f220920489ca2b5937696c31906115db9085906121f6565b60405180910390a3505050565b6115f3848484611351565b6115ff848484846117df565b6110555760405162461bcd60e51b815260040161048190612214565b60606116268261121e565b6116425760405162461bcd60e51b8152600401610481906125e1565b6000828152600660205260408120805461165b9061296a565b80601f01602080910402602001604051908101604052809291908181526020018280546116879061296a565b80156116d45780601f106116a9576101008083540402835291602001916116d4565b820191906000526020600020905b8154815290600101906020018083116116b757829003601f168201915b5050505050905060006116e56118fa565b90508051600014156116f9575090506103c3565b81511561172b57808260405160200161171392919061215d565b604051602081830303815290604052925050506103c3565b61133d8461190c565b5490565b61101e82826040518060200160405280600081525061198e565b61175b8261121e565b6117775760405162461bcd60e51b815260040161048190612513565b6000828152600660209081526040909120825161053992840190611c68565b80546001019055565b6117a8816119c1565b600081815260066020526040902080546117c19061296a565b15905061120257600081815260066020526040812061120291611cec565b60006117f3846001600160a01b0316611a68565b156118ef57836001600160a01b031663150b7a0261180f61123b565b8786866040518563ffffffff1660e01b815260040161183194939291906121a0565b602060405180830381600087803b15801561184b57600080fd5b505af192505050801561187b575060408051601f3d908101601f1916820190925261187891810190612071565b60015b6118d5573d8080156118a9576040519150601f19603f3d011682016040523d82523d6000602084013e6118ae565b606091505b5080516118cd5760405162461bcd60e51b815260040161048190612214565b805181602001fd5b6001600160e01b031916630a85bd0160e11b14905061133d565b506001949350505050565b60408051602081019091526000815290565b60606119178261121e565b6119335760405162461bcd60e51b8152600401610481906126fc565b600061193d6118fa565b9050600081511161195d57604051806020016040528060008152506112b9565b8061196784611a6e565b60405160200161197892919061215d565b6040516020818303038152906040529392505050565b6119988383611b89565b6119a560008484846117df565b6105395760405162461bcd60e51b815260040161048190612214565b60006119cc82610ea3565b90506119da81600084610539565b6119e560008361123f565b6001600160a01b0381166000908152600360205260408120805460019290611a0e908490612927565b909155505060008281526002602052604080822080546001600160a01b0319169055518391906001600160a01b038416907fddf252ad1be2c89b69c2b068fc378daa952ba7f163c4a11628f55a4df523b3ef908390a45050565b3b151590565b606081611a9357506040805180820190915260018152600360fc1b60208201526103c3565b8160005b8115611abd5780611aa7816129a5565b9150611ab69050600a836128f4565b9150611a97565b60008167ffffffffffffffff811115611ae657634e487b7160e01b600052604160045260246000fd5b6040519080825280601f01601f191660200182016040528015611b10576020820181803683370190505b5090505b841561133d57611b25600183612927565b9150611b32600a866129c0565b611b3d9060306128dc565b60f81b818381518110611b6057634e487b7160e01b600052603260045260246000fd5b60200101906001600160f81b031916908160001a905350611b82600a866128f4565b9450611b14565b6001600160a01b038216611baf5760405162461bcd60e51b8152600401610481906125ac565b611bb88161121e565b15611bd55760405162461bcd60e51b8152600401610481906122ac565b611be160008383610539565b6001600160a01b0382166000908152600360205260408120805460019290611c0a9084906128dc565b909155505060008181526002602052604080822080546001600160a01b0319166001600160a01b03861690811790915590518392907fddf252ad1be2c89b69c2b068fc378daa952ba7f163c4a11628f55a4df523b3ef908290a45050565b828054611c749061296a565b90600052602060002090601f016020900481019282611c965760008555611cdc565b82601f10611caf57805160ff1916838001178555611cdc565b82800160010185558215611cdc579182015b82811115611cdc578251825591602001919060010190611cc1565b50611ce8929150611d24565b5090565b508054611cf89061296a565b6000825580601f10611d0a5750611202565b601f01602090049060005260206000209081019061120291905b5b80821115611ce85760008155600101611d25565b6000611d4c611d47846128b4565b61288a565b9050828152838383011115611d6057600080fd5b828260208301376000602084830101529392505050565b80516103c381612a16565b80516103c381612a2b565b600082601f830112611d9d578081fd5b8151611dab611d47826128b4565b818152846020838601011115611dbf578283fd5b61133d82602083016020870161293e565b600060208284031215611de1578081fd5b81356112b981612a16565b60008060408385031215611dfe578081fd5b8235611e0981612a16565b91506020830135611e1981612a16565b809150509250929050565b600080600060608486031215611e38578081fd5b8335611e4381612a16565b92506020840135611e5381612a16565b929592945050506040919091013590565b60008060008060808587031215611e79578081fd5b8435611e8481612a16565b93506020850135611e9481612a16565b925060408501359150606085013567ffffffffffffffff811115611eb6578182fd5b8501601f81018713611ec6578182fd5b611ed587823560208401611d39565b91505092959194509250565b60008060408385031215611ef3578182fd5b8235611efe81612a16565b91506020830135611e1981612a2b565b60008060408385031215611f20578182fd5b8235611f2b81612a16565b946020939093013593505050565b60006020808385031215611f4b578182fd5b825167ffffffffffffffff80821115611f62578384fd5b818501915085601f830112611f75578384fd5b815181811115611f8757611f87612a00565b611f94848583020161288a565b81815284810190848601875b84811015612046578151870160a0818d03601f19011215611fbf57898afd5b6040805160a081018181108a82111715611fdb57611fdb612a00565b8252828b01518152611fee838301611d77565b8b820152606083015189811115612003578c8dfd5b6120118f8d83870101611d8d565b838301525061202260808401611d82565b606082015260a0929092015160808301525084529287019290870190600101611fa0565b50909998505050505050505050565b600060208284031215612066578081fd5b81356112b981612a39565b600060208284031215612082578081fd5b81516112b981612a39565b60006020828403121561209e578081fd5b81516112b981612a16565b600080604083850312156120bb578182fd5b823567ffffffffffffffff8111156120d1578283fd5b8301601f810185136120e1578283fd5b6120f085823560208401611d39565b9250506020830135611e1981612a2b565b600060208284031215612112578081fd5b5035919050565b60006020828403121561212a578081fd5b5051919050565b6000815180845261214981602086016020860161293e565b601f01601f19169290920160200192915050565b6000835161216f81846020880161293e565b83519083019061218381836020880161293e565b01949350505050565b6001600160a01b0391909116815260200190565b6001600160a01b03858116825284166020820152604081018390526080606082018190526000906121d390830184612131565b9695505050505050565b6001600160a01b03929092168252602082015260400190565b901515815260200190565b6000602082526112b96020830184612131565b60208082526032908201527f4552433732313a207472616e7366657220746f206e6f6e20455243373231526560408201527131b2b4bb32b91034b6b83632b6b2b73a32b960711b606082015260800190565b60208082526026908201527f4f776e61626c653a206e6577206f776e657220697320746865207a65726f206160408201526564647265737360d01b606082015260800190565b6020808252601c908201527f4552433732313a20746f6b656e20616c7265616479206d696e74656400000000604082015260600190565b6020808252601390820152726e6f7420656e6f756768742062616c616e636560681b604082015260600190565b60208082526024908201527f4552433732313a207472616e7366657220746f20746865207a65726f206164646040820152637265737360e01b606082015260800190565b60208082526019908201527f4552433732313a20617070726f766520746f2063616c6c657200000000000000604082015260600190565b6020808252602c908201527f7365744d696e744665653a206d696e696d756d206d696e74206665652070657260408201526b63656e7420697320302e312560a01b606082015260800190565b6020808252602c908201527f4552433732313a206f70657261746f7220717565727920666f72206e6f6e657860408201526b34b9ba32b73a103a37b5b2b760a11b606082015260800190565b60208082526038908201527f4552433732313a20617070726f76652063616c6c6572206973206e6f74206f7760408201527f6e6572206e6f7220617070726f76656420666f7220616c6c0000000000000000606082015260800190565b6020808252602a908201527f4552433732313a2062616c616e636520717565727920666f7220746865207a65604082015269726f206164647265737360b01b606082015260800190565b60208082526029908201527f4552433732313a206f776e657220717565727920666f72206e6f6e657869737460408201526832b73a103a37b5b2b760b91b606082015260800190565b6020808252602e908201527f45524337323155524953746f726167653a2055524920736574206f66206e6f6e60408201526d32bc34b9ba32b73a103a37b5b2b760911b606082015260800190565b6020808252602b908201527f7365744d696e744665653a206d6178696d756d206d696e74206665652070657260408201526a63656e742069732033302560a81b606082015260800190565b6020808252818101527f4552433732313a206d696e7420746f20746865207a65726f2061646472657373604082015260600190565b60208082526031908201527f45524337323155524953746f726167653a2055524920717565727920666f72206040820152703737b732bc34b9ba32b73a103a37b5b2b760791b606082015260800190565b6020808252602c908201527f4552433732313a20617070726f76656420717565727920666f72206e6f6e657860408201526b34b9ba32b73a103a37b5b2b760a11b606082015260800190565b6020808252818101527f4f776e61626c653a2063616c6c6572206973206e6f7420746865206f776e6572604082015260600190565b60208082526029908201527f4552433732313a207472616e73666572206f6620746f6b656e2074686174206960408201526839903737ba1037bbb760b91b606082015260800190565b6020808252602f908201527f4552433732314d657461646174613a2055524920717565727920666f72206e6f60408201526e3732bc34b9ba32b73a103a37b5b2b760891b606082015260800190565b60208082526021908201527f4552433732313a20617070726f76616c20746f2063757272656e74206f776e656040820152603960f91b606082015260800190565b60208082526023908201527f7365745472656173757279416464726573733a206973207a65726f206164647260408201526265737360e81b606082015260800190565b60208082526031908201527f4552433732313a207472616e736665722063616c6c6572206973206e6f74206f6040820152701ddb995c881b9bdc88185c1c1c9bdd9959607a1b606082015260800190565b6020808252601c908201527f4974277320706f737369626c65206f6e6c7920666f72206f776e657200000000604082015260600190565b60208082526010908201526f139bc81d1bdad95b881dda5d1a08125960821b604082015260600190565b90815260200190565b60405181810167ffffffffffffffff811182821017156128ac576128ac612a00565b604052919050565b600067ffffffffffffffff8211156128ce576128ce612a00565b50601f01601f191660200190565b600082198211156128ef576128ef6129d4565b500190565b600082612903576129036129ea565b500490565b6000816000190483118215151615612922576129226129d4565b500290565b600082821015612939576129396129d4565b500390565b60005b83811015612959578181015183820152602001612941565b838111156110555750506000910152565b60028104600182168061297e57607f821691505b6020821081141561299f57634e487b7160e01b600052602260045260246000fd5b50919050565b60006000198214156129b9576129b96129d4565b5060010190565b6000826129cf576129cf6129ea565b500690565b634e487b7160e01b600052601160045260246000fd5b634e487b7160e01b600052601260045260246000fd5b634e487b7160e01b600052604160045260246000fd5b6001600160a01b038116811461120257600080fd5b801515811461120257600080fd5b6001600160e01b03198116811461120257600080fdfea2646970667358221220f8755fca1aafce598c23f2e0328677f654c21bc1b5257727731a7329b4f3abb364736f6c63430008000033",
  "devdoc": {
    "kind": "dev",
    "methods": {
      "approve(address,uint256)": {
        "details": "See {IERC721-approve}."
      },
      "balanceOf(address)": {
        "details": "See {IERC721-balanceOf}."
      },
      "getApproved(uint256)": {
        "details": "See {IERC721-getApproved}."
      },
      "isApprovedForAll(address,address)": {
        "details": "See {IERC721-isApprovedForAll}."
      },
      "name()": {
        "details": "See {IERC721Metadata-name}."
      },
      "owner()": {
        "details": "Returns the address of the current owner."
      },
      "ownerOf(uint256)": {
        "details": "See {IERC721-ownerOf}."
      },
      "renounceOwnership()": {
        "details": "Leaves the contract without owner. It will not be possible to call `onlyOwner` functions anymore. Can only be called by the current owner. NOTE: Renouncing ownership will leave the contract without an owner, thereby removing any functionality that is only available to the owner."
      },
      "safeTransferFrom(address,address,uint256)": {
        "details": "See {IERC721-safeTransferFrom}."
      },
      "safeTransferFrom(address,address,uint256,bytes)": {
        "details": "See {IERC721-safeTransferFrom}."
      },
      "setApprovalForAll(address,bool)": {
        "details": "See {IERC721-setApprovalForAll}."
      },
      "supportsInterface(bytes4)": {
        "details": "See {IERC165-supportsInterface}."
      },
      "symbol()": {
        "details": "See {IERC721Metadata-symbol}."
      },
      "transferFrom(address,address,uint256)": {
        "details": "See {IERC721-transferFrom}."
      },
      "transferOwnership(address)": {
        "details": "Transfers ownership of the contract to a new account (`newOwner`). Can only be called by the current owner."
      }
    },
    "version": 1
  },
  "userdoc": {
    "kind": "user",
    "methods": {},
    "version": 1
  },
  "storageLayout": {
    "storage": [
      {
        "astId": 1161,
        "contract": "contracts/CryptoPageNFT.sol:PageNFT",
        "label": "_name",
        "offset": 0,
        "slot": "0",
        "type": "t_string_storage"
      },
      {
        "astId": 1163,
        "contract": "contracts/CryptoPageNFT.sol:PageNFT",
        "label": "_symbol",
        "offset": 0,
        "slot": "1",
        "type": "t_string_storage"
      },
      {
        "astId": 1167,
        "contract": "contracts/CryptoPageNFT.sol:PageNFT",
        "label": "_owners",
        "offset": 0,
        "slot": "2",
        "type": "t_mapping(t_uint256,t_address)"
      },
      {
        "astId": 1171,
        "contract": "contracts/CryptoPageNFT.sol:PageNFT",
        "label": "_balances",
        "offset": 0,
        "slot": "3",
        "type": "t_mapping(t_address,t_uint256)"
      },
      {
        "astId": 1175,
        "contract": "contracts/CryptoPageNFT.sol:PageNFT",
        "label": "_tokenApprovals",
        "offset": 0,
        "slot": "4",
        "type": "t_mapping(t_uint256,t_address)"
      },
      {
        "astId": 1181,
        "contract": "contracts/CryptoPageNFT.sol:PageNFT",
        "label": "_operatorApprovals",
        "offset": 0,
        "slot": "5",
        "type": "t_mapping(t_address,t_mapping(t_address,t_bool))"
      },
      {
        "astId": 2113,
        "contract": "contracts/CryptoPageNFT.sol:PageNFT",
        "label": "_tokenURIs",
        "offset": 0,
        "slot": "6",
        "type": "t_mapping(t_uint256,t_string_storage)"
      },
      {
        "astId": 389,
        "contract": "contracts/CryptoPageNFT.sol:PageNFT",
        "label": "_owner",
        "offset": 0,
        "slot": "7",
        "type": "t_address"
      },
      {
        "astId": 5534,
        "contract": "contracts/CryptoPageNFT.sol:PageNFT",
        "label": "_tokenIdCounter",
        "offset": 0,
        "slot": "8",
        "type": "t_struct(Counter)2580_storage"
      },
      {
        "astId": 5537,
        "contract": "contracts/CryptoPageNFT.sol:PageNFT",
        "label": "token",
        "offset": 0,
        "slot": "9",
        "type": "t_contract(PageToken)6229"
      },
      {
        "astId": 5540,
        "contract": "contracts/CryptoPageNFT.sol:PageNFT",
        "label": "commentMinter",
        "offset": 0,
        "slot": "10",
        "type": "t_contract(PageCommentMinter)5504"
      },
      {
        "astId": 5543,
        "contract": "contracts/CryptoPageNFT.sol:PageNFT",
        "label": "baseURL",
        "offset": 0,
        "slot": "11",
        "type": "t_string_storage"
      },
      {
        "astId": 5545,
        "contract": "contracts/CryptoPageNFT.sol:PageNFT",
        "label": "treasury",
        "offset": 0,
        "slot": "12",
        "type": "t_address"
      },
      {
        "astId": 5548,
        "contract": "contracts/CryptoPageNFT.sol:PageNFT",
        "label": "fee",
        "offset": 0,
        "slot": "13",
        "type": "t_uint256"
      },
      {
        "astId": 5552,
        "contract": "contracts/CryptoPageNFT.sol:PageNFT",
        "label": "commentsById",
        "offset": 0,
        "slot": "14",
        "type": "t_mapping(t_uint256,t_address)"
      },
      {
        "astId": 5556,
        "contract": "contracts/CryptoPageNFT.sol:PageNFT",
        "label": "pricesById",
        "offset": 0,
        "slot": "15",
        "type": "t_mapping(t_uint256,t_uint256)"
      },
      {
        "astId": 5560,
        "contract": "contracts/CryptoPageNFT.sol:PageNFT",
        "label": "creatorById",
        "offset": 0,
        "slot": "16",
        "type": "t_mapping(t_uint256,t_address)"
      }
    ],
    "types": {
      "t_address": {
        "encoding": "inplace",
        "label": "address",
        "numberOfBytes": "20"
      },
      "t_bool": {
        "encoding": "inplace",
        "label": "bool",
        "numberOfBytes": "1"
      },
      "t_contract(PageCommentMinter)5504": {
        "encoding": "inplace",
        "label": "contract PageCommentMinter",
        "numberOfBytes": "20"
      },
      "t_contract(PageToken)6229": {
        "encoding": "inplace",
        "label": "contract PageToken",
        "numberOfBytes": "20"
      },
      "t_mapping(t_address,t_bool)": {
        "encoding": "mapping",
        "key": "t_address",
        "label": "mapping(address => bool)",
        "numberOfBytes": "32",
        "value": "t_bool"
      },
      "t_mapping(t_address,t_mapping(t_address,t_bool))": {
        "encoding": "mapping",
        "key": "t_address",
        "label": "mapping(address => mapping(address => bool))",
        "numberOfBytes": "32",
        "value": "t_mapping(t_address,t_bool)"
      },
      "t_mapping(t_address,t_uint256)": {
        "encoding": "mapping",
        "key": "t_address",
        "label": "mapping(address => uint256)",
        "numberOfBytes": "32",
        "value": "t_uint256"
      },
      "t_mapping(t_uint256,t_address)": {
        "encoding": "mapping",
        "key": "t_uint256",
        "label": "mapping(uint256 => address)",
        "numberOfBytes": "32",
        "value": "t_address"
      },
      "t_mapping(t_uint256,t_string_storage)": {
        "encoding": "mapping",
        "key": "t_uint256",
        "label": "mapping(uint256 => string)",
        "numberOfBytes": "32",
        "value": "t_string_storage"
      },
      "t_mapping(t_uint256,t_uint256)": {
        "encoding": "mapping",
        "key": "t_uint256",
        "label": "mapping(uint256 => uint256)",
        "numberOfBytes": "32",
        "value": "t_uint256"
      },
      "t_string_storage": {
        "encoding": "bytes",
        "label": "string",
        "numberOfBytes": "32"
      },
      "t_struct(Counter)2580_storage": {
        "encoding": "inplace",
        "label": "struct Counters.Counter",
        "members": [
          {
            "astId": 2579,
            "contract": "contracts/CryptoPageNFT.sol:PageNFT",
            "label": "_value",
            "offset": 0,
            "slot": "0",
            "type": "t_uint256"
          }
        ],
        "numberOfBytes": "32"
      },
      "t_uint256": {
        "encoding": "inplace",
        "label": "uint256",
        "numberOfBytes": "32"
      }
    }
  }
}