{
  "address": "0x271B8565cCaC7c98AD6064D8eE0173B4669F1361",
  "abi": [
    {
      "inputs": [
        {
          "internalType": "address",
          "name": "_treasury",
          "type": "address"
        },
        {
          "internalType": "address",
          "name": "_token",
          "type": "address"
        }
      ],
      "stateMutability": "nonpayable",
      "type": "constructor"
    },
    {
      "anonymous": false,
      "inputs": [
        {
          "indexed": true,
          "internalType": "address",
          "name": "previousOwner",
          "type": "address"
        },
        {
          "indexed": true,
          "internalType": "address",
          "name": "newOwner",
          "type": "address"
        }
      ],
      "name": "OwnershipTransferred",
      "type": "event"
    },
    {
      "inputs": [
        {
          "internalType": "address",
          "name": "_nft",
          "type": "address"
        },
        {
          "internalType": "uint256",
          "name": "_tokenId",
          "type": "uint256"
        }
      ],
      "name": "_exists",
      "outputs": [
        {
          "internalType": "bool",
          "name": "",
          "type": "bool"
        }
      ],
      "stateMutability": "view",
      "type": "function"
    },
    {
      "inputs": [
        {
          "internalType": "address",
          "name": "_nft",
          "type": "address"
        },
        {
          "internalType": "uint256",
          "name": "_tokenId",
          "type": "uint256"
        }
      ],
      "name": "_get",
      "outputs": [
        {
          "internalType": "contract PageComment",
          "name": "",
          "type": "address"
        }
      ],
      "stateMutability": "view",
      "type": "function"
    },
    {
      "inputs": [
        {
          "internalType": "address",
          "name": "_nft",
          "type": "address"
        },
        {
          "internalType": "uint256",
          "name": "_tokenId",
          "type": "uint256"
        }
      ],
      "name": "_set",
      "outputs": [
        {
          "internalType": "contract PageComment",
          "name": "",
          "type": "address"
        }
      ],
      "stateMutability": "nonpayable",
      "type": "function"
    },
    {
      "inputs": [
        {
          "internalType": "address",
          "name": "_nft",
          "type": "address"
        },
        {
          "internalType": "uint256",
          "name": "_tokenId",
          "type": "uint256"
        }
      ],
      "name": "activateComments",
      "outputs": [],
      "stateMutability": "nonpayable",
      "type": "function"
    },
    {
      "inputs": [
        {
          "internalType": "address",
          "name": "_nft",
          "type": "address"
        },
        {
          "internalType": "uint256",
          "name": "_tokenId",
          "type": "uint256"
        },
        {
          "internalType": "address",
          "name": "_author",
          "type": "address"
        },
        {
          "internalType": "string",
          "name": "_text",
          "type": "string"
        },
        {
          "internalType": "bool",
          "name": "_like",
          "type": "bool"
        }
      ],
      "name": "createComment",
      "outputs": [],
      "stateMutability": "nonpayable",
      "type": "function"
    },
    {
      "inputs": [
        {
          "internalType": "address",
          "name": "_nft",
          "type": "address"
        },
        {
          "internalType": "uint256",
          "name": "_tokenId",
          "type": "uint256"
        }
      ],
      "name": "getContract",
      "outputs": [
        {
          "internalType": "contract PageComment",
          "name": "",
          "type": "address"
        }
      ],
      "stateMutability": "view",
      "type": "function"
    },
    {
      "inputs": [],
      "name": "getTreasury",
      "outputs": [
        {
          "internalType": "address",
          "name": "",
          "type": "address"
        }
      ],
      "stateMutability": "view",
      "type": "function"
    },
    {
      "inputs": [
        {
          "internalType": "address",
          "name": "_nft",
          "type": "address"
        },
        {
          "internalType": "uint256",
          "name": "_tokenId",
          "type": "uint256"
        }
      ],
      "name": "isActive",
      "outputs": [
        {
          "internalType": "bool",
          "name": "",
          "type": "bool"
        }
      ],
      "stateMutability": "view",
      "type": "function"
    },
    {
      "inputs": [],
      "name": "owner",
      "outputs": [
        {
          "internalType": "address",
          "name": "",
          "type": "address"
        }
      ],
      "stateMutability": "view",
      "type": "function"
    },
    {
      "inputs": [],
      "name": "renounceOwnership",
      "outputs": [],
      "stateMutability": "nonpayable",
      "type": "function"
    },
    {
      "inputs": [
        {
          "internalType": "address",
          "name": "_treasury",
          "type": "address"
        }
      ],
      "name": "setTreasury",
      "outputs": [],
      "stateMutability": "nonpayable",
      "type": "function"
    },
    {
      "inputs": [],
      "name": "token",
      "outputs": [
        {
          "internalType": "contract PageToken",
          "name": "",
          "type": "address"
        }
      ],
      "stateMutability": "view",
      "type": "function"
    },
    {
      "inputs": [
        {
          "internalType": "address",
          "name": "newOwner",
          "type": "address"
        }
      ],
      "name": "transferOwnership",
      "outputs": [],
      "stateMutability": "nonpayable",
      "type": "function"
    },
    {
      "inputs": [],
      "name": "treasury",
      "outputs": [
        {
          "internalType": "address",
          "name": "",
          "type": "address"
        }
      ],
      "stateMutability": "view",
      "type": "function"
    }
  ],
  "transactionHash": "0x53334499787db848d9469dba6242edb96242a9d852d0e2c1cc9982a76d38d6a7",
  "args": [
    "0x42Ea7075F16e355DE9D9F69D146A439AC4Cb6030",
    "0xf613470078D1Ac4618a3fF213D8A9805c9ec6d07"
  ],
  "solcInputHash": "5f3a54a72e9310fff5714fb5274cb881",
  "bytecode": "0x608060405234801561001057600080fd5b5060405161236b38038061236b83398101604081905261002f916100e0565b61003f61003a610070565b610074565b600380546001600160a01b039384166001600160a01b03199182161790915560028054929093169116179055610112565b3390565b600080546001600160a01b038381166001600160a01b0319831681178455604051919092169283917f8be0079c531659141344cd1fd0a4f28419497f9722a3daafe3b4186f6b6457e09190a35050565b80516001600160a01b03811681146100db57600080fd5b919050565b600080604083850312156100f2578182fd5b6100fb836100c4565b9150610109602084016100c4565b90509250929050565b61224a806101216000396000f3fe60806040523480156200001157600080fd5b5060043610620001005760003560e01c8063715018a61162000099578063d266e83b116200006f578063d266e83b14620001e0578063f0f4426014620001f7578063f2fde38b146200020e578063fc0c546a14620002255762000100565b8063715018a614620001b55780638da5cb5b14620001bf578063aad5572614620001c95762000100565b80635400e4b711620000db5780635400e4b7146200016657806361d027b3146200017d578063664629c21462000187578063695740f4146200019e5762000100565b806324024d7414620001055780633b19e84a14620001345780634845f6ac146200014d575b600080fd5b6200011c6200011636600462000afa565b6200022f565b6040516200012b919062000ccf565b60405180910390f35b6200013e6200025c565b6040516200012b919062000c34565b620001646200015e36600462000b28565b6200026b565b005b6200013e6200017736600462000afa565b620005ea565b6200013e620006e2565b6200013e6200019836600462000afa565b620006f1565b62000164620001af36600462000afa565b62000715565b6200016462000726565b6200013e62000783565b6200013e620001da36600462000afa565b62000792565b6200011c620001f136600462000afa565b620007cb565b620001646200020836600462000abc565b620007d9565b620001646200021f36600462000abc565b6200086a565b6200013e620008e7565b6001600160a01b0382166000908152600160205260408120620002539083620008f6565b90505b92915050565b6003546001600160a01b031690565b60006200030f600260009054906101000a90046001600160a01b03166001600160a01b03166398d5fdca6040518163ffffffff1660e01b815260040160206040518083038186803b158015620002c057600080fd5b505afa158015620002d5573d6000803e3d6000fd5b505050506040513d601f19601f82011682018060405250810190620002fb919062000c1b565b620003083a5a9062000904565b9062000904565b905060006200031f87876200022f565b905060008115620003c557620003368888620006f1565b6001600160a01b0316639a60057e8787876040518463ffffffff1660e01b8152600401620003679392919062000c48565b602060405180830381600087803b1580156200038257600080fd5b505af115801562000397573d6000803e3d6000fd5b505050506040513d601f19601f82011682018060405250810190620003bd919062000c1b565b90506200045b565b620003d18888620005ea565b6001600160a01b0316639a60057e8787876040518463ffffffff1660e01b8152600401620004029392919062000c48565b602060405180830381600087803b1580156200041d57600080fd5b505af115801562000432573d6000803e3d6000fd5b505050506040513d601f19601f8201168201806040525081019062000458919062000c1b565b90505b600062000470605a6200030886606462000912565b9050600062000487600a6200030887606462000912565b6002546040516331a9108f60e11b81529192508b916001600160a01b03918216916340c10f199190841690636352211e90620004c890899060040162000e06565b60206040518083038186803b158015620004e157600080fd5b505afa158015620004f6573d6000803e3d6000fd5b505050506040513d601f19601f820116820180604052508101906200051c919062000adb565b856040518363ffffffff1660e01b81526004016200053c92919062000cb6565b600060405180830381600087803b1580156200055757600080fd5b505af11580156200056c573d6000803e3d6000fd5b50506002546003546040516340c10f1960e01b81526001600160a01b0392831694506340c10f199350620005a99290911690869060040162000cb6565b600060405180830381600087803b158015620005c457600080fd5b505af1158015620005d9573d6000803e3d6000fd5b505050505050505050505050505050565b6040516331a9108f60e11b8152600090839082906001600160a01b03831690636352211e906200061f90879060040162000e06565b60206040518083038186803b1580156200063857600080fd5b505afa1580156200064d573d6000803e3d6000fd5b505050506040513d601f19601f8201168201806040525081019062000673919062000adb565b9050600081604051620006869062000a98565b62000692919062000c34565b604051809103906000f080158015620006af573d6000803e3d6000fd5b506001600160a01b0387166000908152600160205260409020909150620006d890868362000920565b5095945050505050565b6003546001600160a01b031681565b6001600160a01b038216600090815260016020526040812062000253908362000940565b620007218282620005ea565b505050565b620007306200094e565b6001600160a01b03166200074362000783565b6001600160a01b031614620007755760405162461bcd60e51b81526004016200076c9062000d57565b60405180910390fd5b62000781600062000952565b565b6000546001600160a01b031690565b6000620007a083836200022f565b620007bf5760405162461bcd60e51b81526004016200076c9062000d20565b620002538383620006f1565b60006200025383836200022f565b620007e36200094e565b6001600160a01b0316620007f662000783565b6001600160a01b0316146200081f5760405162461bcd60e51b81526004016200076c9062000d57565b6001600160a01b038116620008485760405162461bcd60e51b81526004016200076c9062000d8c565b600380546001600160a01b0319166001600160a01b0392909216919091179055565b620008746200094e565b6001600160a01b03166200088762000783565b6001600160a01b031614620008b05760405162461bcd60e51b81526004016200076c9062000d57565b6001600160a01b038116620008d95760405162461bcd60e51b81526004016200076c9062000cda565b620008e48162000952565b50565b6002546001600160a01b031681565b6000620002538383620009a2565b600062000253828462000e30565b600062000253828462000e0f565b60006200093884846001600160a01b038516620009b0565b949350505050565b6000620002538383620009cf565b3390565b600080546001600160a01b038381166001600160a01b0319831681178455604051919092169283917f8be0079c531659141344cd1fd0a4f28419497f9722a3daafe3b4186f6b6457e09190a35050565b600062000253838362000a15565b6000828152600284016020526040812082905562000938848462000a23565b600081815260028301602052604081205480151580620009f65750620009f68484620009a2565b620002535760405162461bcd60e51b81526004016200076c9062000dcf565b600062000253838362000a31565b600062000253838362000a49565b60009081526001919091016020526040902054151590565b600062000a57838362000a31565b62000a8f5750815460018181018455600084815260208082209093018490558454848252828601909352604090209190915562000256565b50600062000256565b61138c8062000e8983390190565b8035801515811462000ab757600080fd5b919050565b60006020828403121562000ace578081fd5b8135620002538162000e72565b60006020828403121562000aed578081fd5b8151620002538162000e72565b6000806040838503121562000b0d578081fd5b823562000b1a8162000e72565b946020939093013593505050565b600080600080600060a0868803121562000b40578081fd5b853562000b4d8162000e72565b94506020868101359450604087013562000b678162000e72565b9350606087013567ffffffffffffffff8082111562000b84578384fd5b818901915089601f83011262000b98578384fd5b81358181111562000bad5762000bad62000e5c565b604051601f8201601f191681018501838111828210171562000bd35762000bd362000e5c565b60405281815283820185018c101562000bea578586fd5b818585018683013785858383010152809650505050505062000c0f6080870162000aa6565b90509295509295909350565b60006020828403121562000c2d578081fd5b5051919050565b6001600160a01b0391909116815260200190565b600060018060a01b038516825260206060818401528451806060850152825b8181101562000c855786810183015185820160800152820162000c67565b8181111562000c975783608083870101525b5093151560408401525050601f91909101601f19160160800192915050565b6001600160a01b03929092168252602082015260400190565b901515815260200190565b60208082526026908201527f4f776e61626c653a206e6577206f776e657220697320746865207a65726f206160408201526564647265737360d01b606082015260800190565b6020808252601b908201527f4e465420636f6e747261637420646f6573206e6f742065786973740000000000604082015260600190565b6020808252818101527f4f776e61626c653a2063616c6c6572206973206e6f7420746865206f776e6572604082015260600190565b60208082526023908201527f7365745472656173757279416464726573733a206973207a65726f206164647260408201526265737360e81b606082015260800190565b6020808252601e908201527f456e756d657261626c654d61703a206e6f6e6578697374656e74206b65790000604082015260600190565b90815260200190565b60008262000e2b57634e487b7160e01b81526012600452602481fd5b500490565b600081600019048311821515161562000e5757634e487b7160e01b81526011600452602481fd5b500290565b634e487b7160e01b600052604160045260246000fd5b6001600160a01b0381168114620008e457600080fdfe60806040526000805460ff60a01b1916600160a01b1790553480156200002457600080fd5b506040516200138c3803806200138c833981016040819052620000479162000156565b6200005b620000556200006d565b62000071565b6200006681620000c1565b5062000201565b3390565b600080546001600160a01b038381166001600160a01b0319831681178455604051919092169283917f8be0079c531659141344cd1fd0a4f28419497f9722a3daafe3b4186f6b6457e09190a35050565b620000cb6200006d565b6001600160a01b0316620000de62000147565b6001600160a01b031614620001105760405162461bcd60e51b81526004016200010790620001cc565b60405180910390fd5b6001600160a01b038116620001395760405162461bcd60e51b8152600401620001079062000186565b620001448162000071565b50565b6000546001600160a01b031690565b60006020828403121562000168578081fd5b81516001600160a01b03811681146200017f578182fd5b9392505050565b60208082526026908201527f4f776e61626c653a206e6577206f776e657220697320746865207a65726f206160408201526564647265737360d01b606082015260800190565b6020808252818101527f4f776e61626c653a2063616c6c6572206973206e6f7420746865206f776e6572604082015260600190565b61117b80620002116000396000f3fe608060405234801561001057600080fd5b50600436106100ce5760003560e01c80638da5cb5b1161008c5780639a60057e116100665780639a60057e1461018f578063be60741e146101af578063c0e7c32d146101c2578063f2fde38b146101e6576100ce565b80638da5cb5b1461015d5780638ebed2e81461017257806391f3410c14610187576100ce565b80629ebb10146100d357806329c68dc1146100f1578063360d03a1146100fb57806365b174e91461011b5780636c43dbb414610132578063715018a614610155575b600080fd5b6100db6101f9565b6040516100e89190610e5d565b60405180910390f35b6100f9610209565b005b61010e610109366004610c5c565b61028b565b6040516100e89190610d7a565b610123610507565b6040516100e893929190611064565b610145610140366004610d03565b61052a565b6040516100e89493929190610fe9565b6100f9610627565b610165610670565b6040516100e89190610d66565b61017a61067f565b6040516100e89190610e19565b61010e6106d7565b6101a261019d366004610bae565b610745565b6040516100e89190610fe0565b6101a26101bd366004610d03565b6108b3565b6101d56101d0366004610d03565b6108d4565b6040516100e8959493929190611026565b6100f96101f4366004610b94565b61099a565b600054600160a01b900460ff1690565b610211610a0b565b6001600160a01b0316610222610670565b6001600160a01b0316146102515760405162461bcd60e51b815260040161024890610ee5565b60405180910390fd5b600054600160a01b900460ff1615610275576000805460ff60a01b19169055610289565b6000805460ff60a01b1916600160a01b1790555b565b606060008251116102ae5760405162461bcd60e51b815260040161024890610f1a565b600154825111156102d15760405162461bcd60e51b815260040161024890610f93565b6000825167ffffffffffffffff8111156102fb57634e487b7160e01b600052604160045260246000fd5b60405190808252806020026020018201604052801561033457816020015b610321610a9a565b8152602001906001900390816103195790505b50905060005b83518110156104fe57600154845185908390811061036857634e487b7160e01b600052603260045260246000fd5b6020026020010151111561038e5760405162461bcd60e51b815260040161024890610f5c565b6000600260008684815181106103b457634e487b7160e01b600052603260045260246000fd5b602002602001015181526020019081526020016000209050806040518060a0016040529081600082015481526020016001820160009054906101000a90046001600160a01b03166001600160a01b03166001600160a01b03168152602001600282018054610421906110c3565b80601f016020809104026020016040519081016040528092919081815260200182805461044d906110c3565b801561049a5780601f1061046f5761010080835404028352916020019161049a565b820191906000526020600020905b81548152906001019060200180831161047d57829003601f168201915b5050509183525050600382015460ff161515602082015260049091015460409091015283518490849081106104df57634e487b7160e01b600052603260045260246000fd5b60200260200101819052505080806104f6906110fe565b91505061033a565b5090505b919050565b6001546000806105176003610a0f565b91506105236004610a0f565b9050909192565b600080606060006001805490508511156105565760405162461bcd60e51b815260040161024890610f5c565b600085815260026020819052604090912080546001820154600383015492909301805491936001600160a01b031692909160ff909116908290610598906110c3565b80601f01602080910402602001604051908101604052809291908181526020018280546105c4906110c3565b80156106115780601f106105e657610100808354040283529160200191610611565b820191906000526020600020905b8154815290600101906020018083116105f457829003601f168201915b5050505050915093509350935093509193509193565b61062f610a0b565b6001600160a01b0316610640610670565b6001600160a01b0316146106665760405162461bcd60e51b815260040161024890610ee5565b6102896000610a13565b6000546001600160a01b031690565b606060018054806020026020016040519081016040528092919081815260200182805480156106cd57602002820191906000526020600020905b8154815260200190600101908083116106b9575b5050505050905090565b6001546060908190156107405761073d600180548060200260200160405190810160405280929190818152602001828054801561073357602002820191906000526020600020905b81548152602001906001019080831161071f575b505050505061028b565b90505b905090565b60008054600160a01b900460ff1661076f5760405162461bcd60e51b815260040161024890610eae565b600061077c3a5a90610a63565b6001805480820182557fb10e2d527612073b26eecdfd717e6a320cf44b4afac2b0732d9fcbe2b7fa0cf681018190556040805160a0810182528281526001600160a01b038a811660208084019182528385018c81528b15156060860152600060808601819052878152600280845296902085518155925197830180546001600160a01b031916989094169790971790925594518051969750939591949361082893850192910190610ad4565b50606082015160038201805460ff191691151591909117905560809091015160049182015560008281526002602052604090819020909101839055517f5df053adf33c5a266548317c9343442cbf99e989cb036ac715347cb9245f136d906108999083908990899089908890611026565b60405180910390a16108aa84610a76565b95945050505050565b600181815481106108c357600080fd5b600091825260209091200154905081565b600260208190526000918252604090912080546001820154928201805491936001600160a01b03169291610907906110c3565b80601f0160208091040260200160405190810160405280929190818152602001828054610933906110c3565b80156109805780601f1061095557610100808354040283529160200191610980565b820191906000526020600020905b81548152906001019060200180831161096357829003601f168201915b505050506003830154600490930154919260ff1691905085565b6109a2610a0b565b6001600160a01b03166109b3610670565b6001600160a01b0316146109d95760405162461bcd60e51b815260040161024890610ee5565b6001600160a01b0381166109ff5760405162461bcd60e51b815260040161024890610e68565b610a0881610a13565b50565b3390565b5490565b600080546001600160a01b038381166001600160a01b0319831681178455604051919092169283917f8be0079c531659141344cd1fd0a4f28419497f9722a3daafe3b4186f6b6457e09190a35050565b6000610a6f82846110a4565b9392505050565b8015610a8b57610a866003610a91565b610a08565b610a0860045b80546001019055565b6040518060a001604052806000815260200160006001600160a01b0316815260200160608152602001600015158152602001600081525090565b828054610ae0906110c3565b90600052602060002090601f016020900481019282610b025760008555610b48565b82601f10610b1b57805160ff1916838001178555610b48565b82800160010185558215610b48579182015b82811115610b48578251825591602001919060010190610b2d565b50610b54929150610b58565b5090565b5b80821115610b545760008155600101610b59565b80356001600160a01b038116811461050257600080fd5b8035801515811461050257600080fd5b600060208284031215610ba5578081fd5b610a6f82610b6d565b600080600060608486031215610bc2578182fd5b610bcb84610b6d565b925060208085013567ffffffffffffffff80821115610be8578485fd5b818701915087601f830112610bfb578485fd5b813581811115610c0d57610c0d61112f565b610c1f601f8201601f1916850161107a565b91508082528884828501011115610c34578586fd5b80848401858401378101909201939093529150610c5360408501610b84565b90509250925092565b60006020808385031215610c6e578182fd5b823567ffffffffffffffff80821115610c85578384fd5b818501915085601f830112610c98578384fd5b813581811115610caa57610caa61112f565b8381029150610cba84830161107a565b8181528481019084860184860187018a1015610cd4578788fd5b8795505b83861015610cf6578035835260019590950194918601918601610cd8565b5098975050505050505050565b600060208284031215610d14578081fd5b5035919050565b60008151808452815b81811015610d4057602081850181015186830182015201610d24565b81811115610d515782602083870101525b50601f01601f19169290920160200192915050565b6001600160a01b0391909116815260200190565b60208082528251828201819052600091906040908185019080840286018301878501865b83811015610e0b57888303603f19018552815180518452878101516001600160a01b0316888501528681015160a088860181905290610ddf82870182610d1b565b606084810151151590880152608093840151939096019290925250509386019390860190600101610d9e565b509098975050505050505050565b6020808252825182820181905260009190848201906040850190845b81811015610e5157835183529284019291840191600101610e35565b50909695505050505050565b901515815260200190565b60208082526026908201527f4f776e61626c653a206e6577206f776e657220697320746865207a65726f206160408201526564647265737360d01b606082015260800190565b60208082526017908201527f436f6d6d656e7473206e6f74206163746976617465642e000000000000000000604082015260600190565b6020808252818101527f4f776e61626c653a2063616c6c6572206973206e6f7420746865206f776e6572604082015260600190565b60208082526022908201527f5f696473206c656e677468206d757374206265206d6f7265207468616e207a65604082015261726f60f01b606082015260800190565b60208082526017908201527f4e6f20636f6d6d656e7420776974682074686973204944000000000000000000604082015260600190565b6020808252602d908201527f5f696473206c656e677468206d757374206265206c657373206f72206571756160408201526c6c20636f6d6d656e747349647360981b606082015260800190565b90815260200190565b8481526001600160a01b038416602082015260806040820181905260009061101390830185610d1b565b9050821515606083015295945050505050565b8581526001600160a01b038516602082015260a06040820181905260009061105090830186610d1b565b931515606083015250608001529392505050565b9283526020830191909152604082015260600190565b60405181810167ffffffffffffffff8111828210171561109c5761109c61112f565b604052919050565b60008160001904831182151516156110be576110be611119565b500290565b6002810460018216806110d757607f821691505b602082108114156110f857634e487b7160e01b600052602260045260246000fd5b50919050565b600060001982141561111257611112611119565b5060010190565b634e487b7160e01b600052601160045260246000fd5b634e487b7160e01b600052604160045260246000fdfea26469706673582212206277939490ec4784f95b497dfb269626c623e7ade36c8bfdfecf48778f6b1fdd64736f6c63430008000033a26469706673582212200c0b290b09148f75b0ca6e7d5d7461407f3b944b638681328ccee928d688b85964736f6c63430008000033",
  "devdoc": {
    "kind": "dev",
    "methods": {
      "owner()": {
        "details": "Returns the address of the current owner."
      },
      "renounceOwnership()": {
        "details": "Leaves the contract without owner. It will not be possible to call `onlyOwner` functions anymore. Can only be called by the current owner. NOTE: Renouncing ownership will leave the contract without an owner, thereby removing any functionality that is only available to the owner."
      },
      "transferOwnership(address)": {
        "details": "Transfers ownership of the contract to a new account (`newOwner`). Can only be called by the current owner."
      }
    },
    "version": 1
  },
  "userdoc": {
    "kind": "user",
    "methods": {},
    "version": 1
  },
  "storageLayout": {
    "storage": [
      {
        "astId": 389,
        "contract": "contracts/CryptoPageCommentMinter.sol:PageCommentMinter",
        "label": "_owner",
        "offset": 0,
        "slot": "0",
        "type": "t_address"
      },
      {
        "astId": 5204,
        "contract": "contracts/CryptoPageCommentMinter.sol:PageCommentMinter",
        "label": "commentsByERC721",
        "offset": 0,
        "slot": "1",
        "type": "t_mapping(t_address,t_struct(UintToAddressMap)3445_storage)"
      },
      {
        "astId": 5207,
        "contract": "contracts/CryptoPageCommentMinter.sol:PageCommentMinter",
        "label": "token",
        "offset": 0,
        "slot": "2",
        "type": "t_contract(PageToken)6202"
      },
      {
        "astId": 5209,
        "contract": "contracts/CryptoPageCommentMinter.sol:PageCommentMinter",
        "label": "treasury",
        "offset": 0,
        "slot": "3",
        "type": "t_address"
      }
    ],
    "types": {
      "t_address": {
        "encoding": "inplace",
        "label": "address",
        "numberOfBytes": "20"
      },
      "t_array(t_bytes32)dyn_storage": {
        "base": "t_bytes32",
        "encoding": "dynamic_array",
        "label": "bytes32[]",
        "numberOfBytes": "32"
      },
      "t_bytes32": {
        "encoding": "inplace",
        "label": "bytes32",
        "numberOfBytes": "32"
      },
      "t_contract(PageToken)6202": {
        "encoding": "inplace",
        "label": "contract PageToken",
        "numberOfBytes": "20"
      },
      "t_mapping(t_address,t_struct(UintToAddressMap)3445_storage)": {
        "encoding": "mapping",
        "key": "t_address",
        "label": "mapping(address => struct EnumerableMap.UintToAddressMap)",
        "numberOfBytes": "32",
        "value": "t_struct(UintToAddressMap)3445_storage"
      },
      "t_mapping(t_bytes32,t_bytes32)": {
        "encoding": "mapping",
        "key": "t_bytes32",
        "label": "mapping(bytes32 => bytes32)",
        "numberOfBytes": "32",
        "value": "t_bytes32"
      },
      "t_mapping(t_bytes32,t_uint256)": {
        "encoding": "mapping",
        "key": "t_bytes32",
        "label": "mapping(bytes32 => uint256)",
        "numberOfBytes": "32",
        "value": "t_uint256"
      },
      "t_struct(Bytes32Set)3884_storage": {
        "encoding": "inplace",
        "label": "struct EnumerableSet.Bytes32Set",
        "members": [
          {
            "astId": 3883,
            "contract": "contracts/CryptoPageCommentMinter.sol:PageCommentMinter",
            "label": "_inner",
            "offset": 0,
            "slot": "0",
            "type": "t_struct(Set)3690_storage"
          }
        ],
        "numberOfBytes": "64"
      },
      "t_struct(Map)3215_storage": {
        "encoding": "inplace",
        "label": "struct EnumerableMap.Map",
        "members": [
          {
            "astId": 3210,
            "contract": "contracts/CryptoPageCommentMinter.sol:PageCommentMinter",
            "label": "_keys",
            "offset": 0,
            "slot": "0",
            "type": "t_struct(Bytes32Set)3884_storage"
          },
          {
            "astId": 3214,
            "contract": "contracts/CryptoPageCommentMinter.sol:PageCommentMinter",
            "label": "_values",
            "offset": 0,
            "slot": "2",
            "type": "t_mapping(t_bytes32,t_bytes32)"
          }
        ],
        "numberOfBytes": "96"
      },
      "t_struct(Set)3690_storage": {
        "encoding": "inplace",
        "label": "struct EnumerableSet.Set",
        "members": [
          {
            "astId": 3685,
            "contract": "contracts/CryptoPageCommentMinter.sol:PageCommentMinter",
            "label": "_values",
            "offset": 0,
            "slot": "0",
            "type": "t_array(t_bytes32)dyn_storage"
          },
          {
            "astId": 3689,
            "contract": "contracts/CryptoPageCommentMinter.sol:PageCommentMinter",
            "label": "_indexes",
            "offset": 0,
            "slot": "1",
            "type": "t_mapping(t_bytes32,t_uint256)"
          }
        ],
        "numberOfBytes": "64"
      },
      "t_struct(UintToAddressMap)3445_storage": {
        "encoding": "inplace",
        "label": "struct EnumerableMap.UintToAddressMap",
        "members": [
          {
            "astId": 3444,
            "contract": "contracts/CryptoPageCommentMinter.sol:PageCommentMinter",
            "label": "_inner",
            "offset": 0,
            "slot": "0",
            "type": "t_struct(Map)3215_storage"
          }
        ],
        "numberOfBytes": "96"
      },
      "t_uint256": {
        "encoding": "inplace",
        "label": "uint256",
        "numberOfBytes": "32"
      }
    }
  }
}