{
  "address": "0x889A42fC8Bc7B480D1A0a73D8F4ce7b2353Dc074",
  "abi": [
    {
      "inputs": [],
      "stateMutability": "nonpayable",
      "type": "constructor"
    },
    {
      "anonymous": false,
      "inputs": [
        {
          "indexed": true,
          "internalType": "address",
          "name": "owner",
          "type": "address"
        },
        {
          "indexed": true,
          "internalType": "address",
          "name": "spender",
          "type": "address"
        },
        {
          "indexed": false,
          "internalType": "uint256",
          "name": "value",
          "type": "uint256"
        }
      ],
      "name": "Approval",
      "type": "event"
    },
    {
      "anonymous": false,
      "inputs": [
        {
          "indexed": true,
          "internalType": "address",
          "name": "previousOwner",
          "type": "address"
        },
        {
          "indexed": true,
          "internalType": "address",
          "name": "newOwner",
          "type": "address"
        }
      ],
      "name": "OwnershipTransferred",
      "type": "event"
    },
    {
      "anonymous": false,
      "inputs": [
        {
          "indexed": true,
          "internalType": "bytes32",
          "name": "role",
          "type": "bytes32"
        },
        {
          "indexed": true,
          "internalType": "bytes32",
          "name": "previousAdminRole",
          "type": "bytes32"
        },
        {
          "indexed": true,
          "internalType": "bytes32",
          "name": "newAdminRole",
          "type": "bytes32"
        }
      ],
      "name": "RoleAdminChanged",
      "type": "event"
    },
    {
      "anonymous": false,
      "inputs": [
        {
          "indexed": true,
          "internalType": "bytes32",
          "name": "role",
          "type": "bytes32"
        },
        {
          "indexed": true,
          "internalType": "address",
          "name": "account",
          "type": "address"
        },
        {
          "indexed": true,
          "internalType": "address",
          "name": "sender",
          "type": "address"
        }
      ],
      "name": "RoleGranted",
      "type": "event"
    },
    {
      "anonymous": false,
      "inputs": [
        {
          "indexed": true,
          "internalType": "bytes32",
          "name": "role",
          "type": "bytes32"
        },
        {
          "indexed": true,
          "internalType": "address",
          "name": "account",
          "type": "address"
        },
        {
          "indexed": true,
          "internalType": "address",
          "name": "sender",
          "type": "address"
        }
      ],
      "name": "RoleRevoked",
      "type": "event"
    },
    {
      "anonymous": false,
      "inputs": [
        {
          "indexed": true,
          "internalType": "address",
          "name": "from",
          "type": "address"
        },
        {
          "indexed": true,
          "internalType": "address",
          "name": "to",
          "type": "address"
        },
        {
          "indexed": false,
          "internalType": "uint256",
          "name": "value",
          "type": "uint256"
        }
      ],
      "name": "Transfer",
      "type": "event"
    },
    {
      "inputs": [],
      "name": "DEFAULT_ADMIN_ROLE",
      "outputs": [
        {
          "internalType": "bytes32",
          "name": "",
          "type": "bytes32"
        }
      ],
      "stateMutability": "view",
      "type": "function"
    },
    {
      "inputs": [
        {
          "internalType": "address",
          "name": "owner",
          "type": "address"
        },
        {
          "internalType": "address",
          "name": "spender",
          "type": "address"
        }
      ],
      "name": "allowance",
      "outputs": [
        {
          "internalType": "uint256",
          "name": "",
          "type": "uint256"
        }
      ],
      "stateMutability": "view",
      "type": "function"
    },
    {
      "inputs": [
        {
          "internalType": "address",
          "name": "spender",
          "type": "address"
        },
        {
          "internalType": "uint256",
          "name": "amount",
          "type": "uint256"
        }
      ],
      "name": "approve",
      "outputs": [
        {
          "internalType": "bool",
          "name": "",
          "type": "bool"
        }
      ],
      "stateMutability": "nonpayable",
      "type": "function"
    },
    {
      "inputs": [
        {
          "internalType": "address",
          "name": "account",
          "type": "address"
        }
      ],
      "name": "balanceOf",
      "outputs": [
        {
          "internalType": "uint256",
          "name": "",
          "type": "uint256"
        }
      ],
      "stateMutability": "view",
      "type": "function"
    },
    {
      "inputs": [
        {
          "internalType": "address",
          "name": "to",
          "type": "address"
        },
        {
          "internalType": "uint256",
          "name": "amount",
          "type": "uint256"
        }
      ],
      "name": "burn",
      "outputs": [],
      "stateMutability": "nonpayable",
      "type": "function"
    },
    {
      "inputs": [],
      "name": "decimals",
      "outputs": [
        {
          "internalType": "uint8",
          "name": "",
          "type": "uint8"
        }
      ],
      "stateMutability": "view",
      "type": "function"
    },
    {
      "inputs": [
        {
          "internalType": "address",
          "name": "spender",
          "type": "address"
        },
        {
          "internalType": "uint256",
          "name": "subtractedValue",
          "type": "uint256"
        }
      ],
      "name": "decreaseAllowance",
      "outputs": [
        {
          "internalType": "bool",
          "name": "",
          "type": "bool"
        }
      ],
      "stateMutability": "nonpayable",
      "type": "function"
    },
    {
      "inputs": [],
      "name": "getPrice",
      "outputs": [
        {
          "internalType": "uint256",
          "name": "price",
          "type": "uint256"
        }
      ],
      "stateMutability": "view",
      "type": "function"
    },
    {
      "inputs": [
        {
          "internalType": "bytes32",
          "name": "role",
          "type": "bytes32"
        }
      ],
      "name": "getRoleAdmin",
      "outputs": [
        {
          "internalType": "bytes32",
          "name": "",
          "type": "bytes32"
        }
      ],
      "stateMutability": "view",
      "type": "function"
    },
    {
      "inputs": [
        {
          "internalType": "bytes32",
          "name": "role",
          "type": "bytes32"
        },
        {
          "internalType": "address",
          "name": "account",
          "type": "address"
        }
      ],
      "name": "grantRole",
      "outputs": [],
      "stateMutability": "nonpayable",
      "type": "function"
    },
    {
      "inputs": [
        {
          "internalType": "bytes32",
          "name": "role",
          "type": "bytes32"
        },
        {
          "internalType": "address",
          "name": "account",
          "type": "address"
        }
      ],
      "name": "hasRole",
      "outputs": [
        {
          "internalType": "bool",
          "name": "",
          "type": "bool"
        }
      ],
      "stateMutability": "view",
      "type": "function"
    },
    {
      "inputs": [
        {
          "internalType": "address",
          "name": "spender",
          "type": "address"
        },
        {
          "internalType": "uint256",
          "name": "addedValue",
          "type": "uint256"
        }
      ],
      "name": "increaseAllowance",
      "outputs": [
        {
          "internalType": "bool",
          "name": "",
          "type": "bool"
        }
      ],
      "stateMutability": "nonpayable",
      "type": "function"
    },
    {
      "inputs": [
        {
          "internalType": "address",
          "name": "to",
          "type": "address"
        },
        {
          "internalType": "uint256",
          "name": "amount",
          "type": "uint256"
        }
      ],
      "name": "mint",
      "outputs": [],
      "stateMutability": "nonpayable",
      "type": "function"
    },
    {
      "inputs": [],
      "name": "name",
      "outputs": [
        {
          "internalType": "string",
          "name": "",
          "type": "string"
        }
      ],
      "stateMutability": "view",
      "type": "function"
    },
    {
      "inputs": [],
      "name": "owner",
      "outputs": [
        {
          "internalType": "address",
          "name": "",
          "type": "address"
        }
      ],
      "stateMutability": "view",
      "type": "function"
    },
    {
      "inputs": [],
      "name": "pool",
      "outputs": [
        {
          "internalType": "contract IUniswapV3Pool",
          "name": "",
          "type": "address"
        }
      ],
      "stateMutability": "view",
      "type": "function"
    },
    {
      "inputs": [],
      "name": "renounceOwnership",
      "outputs": [],
      "stateMutability": "nonpayable",
      "type": "function"
    },
    {
      "inputs": [
        {
          "internalType": "bytes32",
          "name": "role",
          "type": "bytes32"
        },
        {
          "internalType": "address",
          "name": "account",
          "type": "address"
        }
      ],
      "name": "renounceRole",
      "outputs": [],
      "stateMutability": "nonpayable",
      "type": "function"
    },
    {
      "inputs": [
        {
          "internalType": "bytes32",
          "name": "role",
          "type": "bytes32"
        },
        {
          "internalType": "address",
          "name": "account",
          "type": "address"
        }
      ],
      "name": "revokeRole",
      "outputs": [],
      "stateMutability": "nonpayable",
      "type": "function"
    },
    {
      "inputs": [],
      "name": "setup",
      "outputs": [],
      "stateMutability": "nonpayable",
      "type": "function"
    },
    {
      "inputs": [
        {
          "internalType": "bytes4",
          "name": "interfaceId",
          "type": "bytes4"
        }
      ],
      "name": "supportsInterface",
      "outputs": [
        {
          "internalType": "bool",
          "name": "",
          "type": "bool"
        }
      ],
      "stateMutability": "view",
      "type": "function"
    },
    {
      "inputs": [],
      "name": "symbol",
      "outputs": [
        {
          "internalType": "string",
          "name": "",
          "type": "string"
        }
      ],
      "stateMutability": "view",
      "type": "function"
    },
    {
      "inputs": [],
      "name": "totalSupply",
      "outputs": [
        {
          "internalType": "uint256",
          "name": "",
          "type": "uint256"
        }
      ],
      "stateMutability": "view",
      "type": "function"
    },
    {
      "inputs": [
        {
          "internalType": "address",
          "name": "recipient",
          "type": "address"
        },
        {
          "internalType": "uint256",
          "name": "amount",
          "type": "uint256"
        }
      ],
      "name": "transfer",
      "outputs": [
        {
          "internalType": "bool",
          "name": "",
          "type": "bool"
        }
      ],
      "stateMutability": "nonpayable",
      "type": "function"
    },
    {
      "inputs": [
        {
          "internalType": "address",
          "name": "sender",
          "type": "address"
        },
        {
          "internalType": "address",
          "name": "recipient",
          "type": "address"
        },
        {
          "internalType": "uint256",
          "name": "amount",
          "type": "uint256"
        }
      ],
      "name": "transferFrom",
      "outputs": [
        {
          "internalType": "bool",
          "name": "",
          "type": "bool"
        }
      ],
      "stateMutability": "nonpayable",
      "type": "function"
    },
    {
      "inputs": [
        {
          "internalType": "address",
          "name": "newOwner",
          "type": "address"
        }
      ],
      "name": "transferOwnership",
      "outputs": [],
      "stateMutability": "nonpayable",
      "type": "function"
    }
  ],
  "transactionHash": "0x233891b48dfdb6dc180a72889ab0ea4ad265c86e7dd330e465a903b4ce6c0a9a",
  "args": [],
  "solcInputHash": "cb200f28504dda5c9c2d319bfacc0c83",
  "bytecode": "0x60806040523480156200001157600080fd5b5060408051808201825260098152682830b3b2aa37b5b2b760b91b6020808301918252835180850190945260048452635041474560e01b9084015281519192916200005f9160039162000262565b5080516200007590600490602084019062000262565b505050620000926200008c620000d660201b60201c565b620000da565b620000c36040518060400160405280600381526020016231323360e81b8152506200012c60201b62000af51760201c565b620000d06000336200017a565b6200039b565b3390565b600680546001600160a01b038381166001600160a01b0319831681179093556040519116919082907f8be0079c531659141344cd1fd0a4f28419497f9722a3daafe3b4186f6b6457e090600090a35050565b620001778160405160240162000143919062000308565b60408051601f198184030181529190526020810180516001600160e01b0390811663104c13eb60e21b179091526200018a16565b50565b620001868282620001ab565b5050565b80516a636f6e736f6c652e6c6f67602083016000808483855afa5050505050565b620001b7828262000237565b620001865760008281526005602090815260408083206001600160a01b03851684529091529020805460ff19166001179055620001f3620000d6565b6001600160a01b0316816001600160a01b0316837f2f8788117e7eff1d82e926ec794901d17c78024a50270940304540a733656f0d60405160405180910390a45050565b60009182526005602090815260408084206001600160a01b0393909316845291905290205460ff1690565b82805462000270906200035e565b90600052602060002090601f016020900481019282620002945760008555620002df565b82601f10620002af57805160ff1916838001178555620002df565b82800160010185558215620002df579182015b82811115620002df578251825591602001919060010190620002c2565b50620002ed929150620002f1565b5090565b5b80821115620002ed5760008155600101620002f2565b6000602080835283518082850152825b81811015620003365785810183015185820160400152820162000318565b81811115620003485783604083870101525b50601f01601f1916929092016040019392505050565b6002810460018216806200037357607f821691505b602082108114156200039557634e487b7160e01b600052602260045260246000fd5b50919050565b611ac980620003ab6000396000f3fe608060405234801561001057600080fd5b506004361061018e5760003560e01c8063715018a6116100de578063a217fddf11610097578063ba0bba4011610071578063ba0bba401461031e578063d547741f14610326578063dd62ed3e14610339578063f2fde38b1461034c5761018e565b8063a217fddf146102f0578063a457c2d7146102f8578063a9059cbb1461030b5761018e565b8063715018a6146102aa5780638da5cb5b146102b257806391d14854146102ba57806395d89b41146102cd57806398d5fdca146102d55780639dc29fac146102dd5761018e565b8063248a9ca31161014b57806336568abe1161012557806336568abe1461025e578063395093511461027157806340c10f191461028457806370a08231146102975761018e565b8063248a9ca3146102215780632f2ff15d14610234578063313ce567146102495761018e565b806301ffc9a71461019357806306fdde03146101bc578063095ea7b3146101d157806316f0115b146101e457806318160ddd146101f957806323b872dd1461020e575b600080fd5b6101a66101a13660046113fe565b61035f565b6040516101b391906115a3565b60405180910390f35b6101c461038c565b6040516101b391906115b7565b6101a66101df366004611397565b61041e565b6101ec61043b565b6040516101b39190611567565b61020161044a565b6040516101b391906115ae565b6101a661021c366004611357565b610450565b61020161022f3660046113c2565b6104e9565b6102476102423660046113da565b6104fe565b005b610251610527565b6040516101b3919061198e565b61024761026c3660046113da565b61052c565b6101a661027f366004611397565b610572565b610247610292366004611397565b6105c6565b6102016102a53660046112e7565b6105fd565b610247610618565b6101ec610663565b6101a66102c83660046113da565b610672565b6101c461069d565b6102016106ac565b6102476102eb366004611397565b61077e565b6102016107b5565b6101a6610306366004611397565b6107ba565b6101a6610319366004611397565b610833565b610247610847565b6102476103343660046113da565b610a3a565b61020161034736600461131f565b610a59565b61024761035a3660046112e7565b610a84565b60006001600160e01b03198216637965db0b60e01b1480610384575061038482610b38565b90505b919050565b60606003805461039b90611a2d565b80601f01602080910402602001604051908101604052809291908181526020018280546103c790611a2d565b80156104145780601f106103e957610100808354040283529160200191610414565b820191906000526020600020905b8154815290600101906020018083116103f757829003601f168201915b5050505050905090565b600061043261042b610b51565b8484610b55565b50600192915050565b6007546001600160a01b031681565b60025490565b600061045d848484610c09565b6001600160a01b03841660009081526001602052604081208161047e610b51565b6001600160a01b03166001600160a01b03168152602001908152602001600020549050828110156104ca5760405162461bcd60e51b81526004016104c19061177c565b60405180910390fd5b6104de856104d6610b51565b858403610b55565b506001949350505050565b60009081526005602052604090206001015490565b610507826104e9565b61051881610513610b51565b610d33565b6105228383610d97565b505050565b601290565b610534610b51565b6001600160a01b0316816001600160a01b0316146105645760405162461bcd60e51b81526004016104c190611908565b61056e8282610e1e565b5050565b600061043261057f610b51565b84846001600061058d610b51565b6001600160a01b03908116825260208083019390935260409182016000908120918b16815292529020546105c1919061199c565b610b55565b7f9f2df0fed2c77648de5860a4cc508cd0818c85b8b8a1ab4ceeef8d981c8956a66105f381610513610b51565b6105228383610ea3565b6001600160a01b031660009081526020819052604090205490565b610620610b51565b6001600160a01b0316610631610663565b6001600160a01b0316146106575760405162461bcd60e51b81526004016104c1906117c4565b6106616000610f6b565b565b6006546001600160a01b031690565b60009182526005602090815260408084206001600160a01b0393909316845291905290205460ff1690565b60606004805461039b90611a2d565b600080600760009054906101000a90046001600160a01b03166001600160a01b0316633850c7bd6040518163ffffffff1660e01b815260040160e06040518083038186803b1580156106fd57600080fd5b505afa158015610711573d6000803e3d6000fd5b505050506040513d601f19601f820116820180604052508101906107359190611426565b505050505050905060c0610776670de0b6b3a7640000610770846001600160a01b0316856001600160a01b0316610fbd90919063ffffffff16565b90610fbd565b901c91505090565b7f3c11d16cbaffd01df69ce1c404f6340ee057498f5f00246190ea54220576a8486107ab81610513610b51565b6105228383610fd0565b600081565b600080600160006107c9610b51565b6001600160a01b03908116825260208083019390935260409182016000908120918816815292529020549050828110156108155760405162461bcd60e51b81526004016104c1906118c3565b610829610820610b51565b85858403610b55565b5060019392505050565b6000610432610840610b51565b8484610c09565b60405163a167129560e01b8152731f98431c8ad98523631ae4a59f267346ea31f98490819063a16712959061089a90309073c778417e063141139fce010982780140aa0cd5ab9061012c9060040161157b565b602060405180830381600087803b1580156108b457600080fd5b505af11580156108c8573d6000803e3d6000fd5b505050506040513d601f19601f820116820180604052508101906108ec9190611303565b50604051630b4c774160e11b81526000906001600160a01b03831690631698ee829061093590309073c778417e063141139fce010982780140aa0cd5ab9060aa9060040161157b565b60206040518083038186803b15801561094d57600080fd5b505afa158015610961573d6000803e3d6000fd5b505050506040513d601f19601f820116820180604052508101906109859190611303565b90506109ba60405180604001604052806011815260200170706f6f6c4164647265737320697320257360781b815250826110c1565b600780546001600160a01b0319166001600160a01b03838116919091179182905560405163f637731d60e01b815291169063f637731d90610a04906402540be40090600401611567565b600060405180830381600087803b158015610a1e57600080fd5b505af1158015610a32573d6000803e3d6000fd5b505050505050565b610a43826104e9565b610a4f81610513610b51565b6105228383610e1e565b6001600160a01b03918216600090815260016020908152604080832093909416825291909152205490565b610a8c610b51565b6001600160a01b0316610a9d610663565b6001600160a01b031614610ac35760405162461bcd60e51b81526004016104c1906117c4565b6001600160a01b038116610ae95760405162461bcd60e51b81526004016104c1906116ae565b610af281610f6b565b50565b610af281604051602401610b0991906115b7565b60408051601f198184030181529190526020810180516001600160e01b031663104c13eb60e21b179052611102565b6001600160e01b031981166301ffc9a760e01b14919050565b3390565b6001600160a01b038316610b7b5760405162461bcd60e51b81526004016104c19061187f565b6001600160a01b038216610ba15760405162461bcd60e51b81526004016104c1906116f4565b6001600160a01b0380841660008181526001602090815260408083209487168084529490915290819020849055517f8c5be1e5ebec7d5bd14f71427d1e84f3dd0314c0f7b2291e5b200ac8c7c3b92590610bfc9085906115ae565b60405180910390a3505050565b6001600160a01b038316610c2f5760405162461bcd60e51b81526004016104c19061183a565b6001600160a01b038216610c555760405162461bcd60e51b81526004016104c190611629565b610c60838383610522565b6001600160a01b03831660009081526020819052604090205481811015610c995760405162461bcd60e51b81526004016104c190611736565b6001600160a01b03808516600090815260208190526040808220858503905591851681529081208054849290610cd090849061199c565b92505081905550826001600160a01b0316846001600160a01b03167fddf252ad1be2c89b69c2b068fc378daa952ba7f163c4a11628f55a4df523b3ef84604051610d1a91906115ae565b60405180910390a3610d2d848484610522565b50505050565b610d3d8282610672565b61056e57610d55816001600160a01b03166014611123565b610d60836020611123565b604051602001610d719291906114f2565b60408051601f198184030181529082905262461bcd60e51b82526104c1916004016115b7565b610da18282610672565b61056e5760008281526005602090815260408083206001600160a01b03851684529091529020805460ff19166001179055610dda610b51565b6001600160a01b0316816001600160a01b0316837f2f8788117e7eff1d82e926ec794901d17c78024a50270940304540a733656f0d60405160405180910390a45050565b610e288282610672565b1561056e5760008281526005602090815260408083206001600160a01b03851684529091529020805460ff19169055610e5f610b51565b6001600160a01b0316816001600160a01b0316837ff6391f5c32d9c69d2a47ea670b442974b53935d1edc7fd64eb21e047a839171b60405160405180910390a45050565b6001600160a01b038216610ec95760405162461bcd60e51b81526004016104c190611957565b610ed560008383610522565b8060026000828254610ee7919061199c565b90915550506001600160a01b03821660009081526020819052604081208054839290610f1490849061199c565b90915550506040516001600160a01b038316906000907fddf252ad1be2c89b69c2b068fc378daa952ba7f163c4a11628f55a4df523b3ef90610f579085906115ae565b60405180910390a361056e60008383610522565b600680546001600160a01b038381166001600160a01b0319831681179093556040519116919082907f8be0079c531659141344cd1fd0a4f28419497f9722a3daafe3b4186f6b6457e090600090a35050565b6000610fc982846119b4565b9392505050565b6001600160a01b038216610ff65760405162461bcd60e51b81526004016104c1906117f9565b61100282600083610522565b6001600160a01b0382166000908152602081905260409020548181101561103b5760405162461bcd60e51b81526004016104c19061166c565b6001600160a01b038316600090815260208190526040812083830390556002805484929061106a9084906119d3565b90915550506040516000906001600160a01b038516907fddf252ad1be2c89b69c2b068fc378daa952ba7f163c4a11628f55a4df523b3ef906110ad9086906115ae565b60405180910390a361052283600084610522565b61056e82826040516024016110d79291906115ca565b60408051601f198184030181529190526020810180516001600160e01b031663319af33360e01b1790525b80516a636f6e736f6c652e6c6f67602083016000808483855afa5050505050565b606060006111328360026119b4565b61113d90600261199c565b67ffffffffffffffff81111561116357634e487b7160e01b600052604160045260246000fd5b6040519080825280601f01601f19166020018201604052801561118d576020820181803683370190505b509050600360fc1b816000815181106111b657634e487b7160e01b600052603260045260246000fd5b60200101906001600160f81b031916908160001a905350600f60fb1b816001815181106111f357634e487b7160e01b600052603260045260246000fd5b60200101906001600160f81b031916908160001a90535060006112178460026119b4565b61122290600161199c565b90505b60018111156112b6576f181899199a1a9b1b9c1cb0b131b232b360811b85600f166010811061126457634e487b7160e01b600052603260045260246000fd5b1a60f81b82828151811061128857634e487b7160e01b600052603260045260246000fd5b60200101906001600160f81b031916908160001a90535060049490941c936112af81611a16565b9050611225565b508315610fc95760405162461bcd60e51b81526004016104c1906115f4565b805161ffff8116811461038757600080fd5b6000602082840312156112f8578081fd5b8135610fc981611a7e565b600060208284031215611314578081fd5b8151610fc981611a7e565b60008060408385031215611331578081fd5b823561133c81611a7e565b9150602083013561134c81611a7e565b809150509250929050565b60008060006060848603121561136b578081fd5b833561137681611a7e565b9250602084013561138681611a7e565b929592945050506040919091013590565b600080604083850312156113a9578182fd5b82356113b481611a7e565b946020939093013593505050565b6000602082840312156113d3578081fd5b5035919050565b600080604083850312156113ec578182fd5b82359150602083013561134c81611a7e565b60006020828403121561140f578081fd5b81356001600160e01b031981168114610fc9578182fd5b600080600080600080600060e0888a031215611440578283fd5b875161144b81611a7e565b8097505060208801518060020b8114611462578384fd5b9550611470604089016112d5565b945061147e606089016112d5565b935061148c608089016112d5565b925060a088015160ff811681146114a1578283fd5b60c089015190925080151581146114b6578182fd5b8091505092959891949750929550565b600081518084526114de8160208601602086016119ea565b601f01601f19169290920160200192915050565b60007f416363657373436f6e74726f6c3a206163636f756e74200000000000000000008252835161152a8160178501602088016119ea565b7001034b99036b4b9b9b4b733903937b6329607d1b601791840191820152835161155b8160288401602088016119ea565b01602801949350505050565b6001600160a01b0391909116815260200190565b6001600160a01b03938416815291909216602082015262ffffff909116604082015260600190565b901515815260200190565b90815260200190565b600060208252610fc960208301846114c6565b6000604082526115dd60408301856114c6565b905060018060a01b03831660208301529392505050565b6020808252818101527f537472696e67733a20686578206c656e67746820696e73756666696369656e74604082015260600190565b60208082526023908201527f45524332303a207472616e7366657220746f20746865207a65726f206164647260408201526265737360e81b606082015260800190565b60208082526022908201527f45524332303a206275726e20616d6f756e7420657863656564732062616c616e604082015261636560f01b606082015260800190565b60208082526026908201527f4f776e61626c653a206e6577206f776e657220697320746865207a65726f206160408201526564647265737360d01b606082015260800190565b60208082526022908201527f45524332303a20617070726f766520746f20746865207a65726f206164647265604082015261737360f01b606082015260800190565b60208082526026908201527f45524332303a207472616e7366657220616d6f756e7420657863656564732062604082015265616c616e636560d01b606082015260800190565b60208082526028908201527f45524332303a207472616e7366657220616d6f756e74206578636565647320616040820152676c6c6f77616e636560c01b606082015260800190565b6020808252818101527f4f776e61626c653a2063616c6c6572206973206e6f7420746865206f776e6572604082015260600190565b60208082526021908201527f45524332303a206275726e2066726f6d20746865207a65726f206164647265736040820152607360f81b606082015260800190565b60208082526025908201527f45524332303a207472616e736665722066726f6d20746865207a65726f206164604082015264647265737360d81b606082015260800190565b60208082526024908201527f45524332303a20617070726f76652066726f6d20746865207a65726f206164646040820152637265737360e01b606082015260800190565b60208082526025908201527f45524332303a2064656372656173656420616c6c6f77616e63652062656c6f77604082015264207a65726f60d81b606082015260800190565b6020808252602f908201527f416363657373436f6e74726f6c3a2063616e206f6e6c792072656e6f756e636560408201526e103937b632b9903337b91039b2b63360891b606082015260800190565b6020808252601f908201527f45524332303a206d696e7420746f20746865207a65726f206164647265737300604082015260600190565b60ff91909116815260200190565b600082198211156119af576119af611a68565b500190565b60008160001904831182151516156119ce576119ce611a68565b500290565b6000828210156119e5576119e5611a68565b500390565b60005b83811015611a055781810151838201526020016119ed565b83811115610d2d5750506000910152565b600081611a2557611a25611a68565b506000190190565b600281046001821680611a4157607f821691505b60208210811415611a6257634e487b7160e01b600052602260045260246000fd5b50919050565b634e487b7160e01b600052601160045260246000fd5b6001600160a01b0381168114610af257600080fdfea2646970667358221220ec973432b9955fe0d3bdc621cb10849daba8d17d77ab2414f4114dba93d1d9af64736f6c63430008000033",
  "devdoc": {
    "kind": "dev",
    "methods": {
      "allowance(address,address)": {
        "details": "See {IERC20-allowance}."
      },
      "approve(address,uint256)": {
        "details": "See {IERC20-approve}. Requirements: - `spender` cannot be the zero address."
      },
      "balanceOf(address)": {
        "details": "See {IERC20-balanceOf}."
      },
      "decimals()": {
        "details": "Returns the number of decimals used to get its user representation. For example, if `decimals` equals `2`, a balance of `505` tokens should be displayed to a user as `5.05` (`505 / 10 ** 2`). Tokens usually opt for a value of 18, imitating the relationship between Ether and Wei. This is the value {ERC20} uses, unless this function is overridden; NOTE: This information is only used for _display_ purposes: it in no way affects any of the arithmetic of the contract, including {IERC20-balanceOf} and {IERC20-transfer}."
      },
      "decreaseAllowance(address,uint256)": {
        "details": "Atomically decreases the allowance granted to `spender` by the caller. This is an alternative to {approve} that can be used as a mitigation for problems described in {IERC20-approve}. Emits an {Approval} event indicating the updated allowance. Requirements: - `spender` cannot be the zero address. - `spender` must have allowance for the caller of at least `subtractedValue`."
      },
      "getRoleAdmin(bytes32)": {
        "details": "Returns the admin role that controls `role`. See {grantRole} and {revokeRole}. To change a role's admin, use {_setRoleAdmin}."
      },
      "grantRole(bytes32,address)": {
        "details": "Grants `role` to `account`. If `account` had not been already granted `role`, emits a {RoleGranted} event. Requirements: - the caller must have ``role``'s admin role."
      },
      "hasRole(bytes32,address)": {
        "details": "Returns `true` if `account` has been granted `role`."
      },
      "increaseAllowance(address,uint256)": {
        "details": "Atomically increases the allowance granted to `spender` by the caller. This is an alternative to {approve} that can be used as a mitigation for problems described in {IERC20-approve}. Emits an {Approval} event indicating the updated allowance. Requirements: - `spender` cannot be the zero address."
      },
      "name()": {
        "details": "Returns the name of the token."
      },
      "owner()": {
        "details": "Returns the address of the current owner."
      },
      "renounceOwnership()": {
        "details": "Leaves the contract without owner. It will not be possible to call `onlyOwner` functions anymore. Can only be called by the current owner. NOTE: Renouncing ownership will leave the contract without an owner, thereby removing any functionality that is only available to the owner."
      },
      "renounceRole(bytes32,address)": {
        "details": "Revokes `role` from the calling account. Roles are often managed via {grantRole} and {revokeRole}: this function's purpose is to provide a mechanism for accounts to lose their privileges if they are compromised (such as when a trusted device is misplaced). If the calling account had been revoked `role`, emits a {RoleRevoked} event. Requirements: - the caller must be `account`."
      },
      "revokeRole(bytes32,address)": {
        "details": "Revokes `role` from `account`. If `account` had been granted `role`, emits a {RoleRevoked} event. Requirements: - the caller must have ``role``'s admin role."
      },
      "supportsInterface(bytes4)": {
        "details": "See {IERC165-supportsInterface}."
      },
      "symbol()": {
        "details": "Returns the symbol of the token, usually a shorter version of the name."
      },
      "totalSupply()": {
        "details": "See {IERC20-totalSupply}."
      },
      "transfer(address,uint256)": {
        "details": "See {IERC20-transfer}. Requirements: - `recipient` cannot be the zero address. - the caller must have a balance of at least `amount`."
      },
      "transferFrom(address,address,uint256)": {
        "details": "See {IERC20-transferFrom}. Emits an {Approval} event indicating the updated allowance. This is not required by the EIP. See the note at the beginning of {ERC20}. Requirements: - `sender` and `recipient` cannot be the zero address. - `sender` must have a balance of at least `amount`. - the caller must have allowance for ``sender``'s tokens of at least `amount`."
      },
      "transferOwnership(address)": {
        "details": "Transfers ownership of the contract to a new account (`newOwner`). Can only be called by the current owner."
      }
    },
    "version": 1
  },
  "userdoc": {
    "kind": "user",
    "methods": {},
    "version": 1
  },
  "storageLayout": {
    "storage": [
      {
        "astId": 502,
        "contract": "contracts/CryptoPageToken.sol:PageToken",
        "label": "_balances",
        "offset": 0,
        "slot": "0",
        "type": "t_mapping(t_address,t_uint256)"
      },
      {
        "astId": 508,
        "contract": "contracts/CryptoPageToken.sol:PageToken",
        "label": "_allowances",
        "offset": 0,
        "slot": "1",
        "type": "t_mapping(t_address,t_mapping(t_address,t_uint256))"
      },
      {
        "astId": 510,
        "contract": "contracts/CryptoPageToken.sol:PageToken",
        "label": "_totalSupply",
        "offset": 0,
        "slot": "2",
        "type": "t_uint256"
      },
      {
        "astId": 512,
        "contract": "contracts/CryptoPageToken.sol:PageToken",
        "label": "_name",
        "offset": 0,
        "slot": "3",
        "type": "t_string_storage"
      },
      {
        "astId": 514,
        "contract": "contracts/CryptoPageToken.sol:PageToken",
        "label": "_symbol",
        "offset": 0,
        "slot": "4",
        "type": "t_string_storage"
      },
      {
        "astId": 24,
        "contract": "contracts/CryptoPageToken.sol:PageToken",
        "label": "_roles",
        "offset": 0,
        "slot": "5",
        "type": "t_mapping(t_bytes32,t_struct(RoleData)19_storage)"
      },
      {
        "astId": 389,
        "contract": "contracts/CryptoPageToken.sol:PageToken",
        "label": "_owner",
        "offset": 0,
        "slot": "6",
        "type": "t_address"
      },
      {
        "astId": 6090,
        "contract": "contracts/CryptoPageToken.sol:PageToken",
        "label": "pool",
        "offset": 0,
        "slot": "7",
        "type": "t_contract(IUniswapV3Pool)4383"
      }
    ],
    "types": {
      "t_address": {
        "encoding": "inplace",
        "label": "address",
        "numberOfBytes": "20"
      },
      "t_bool": {
        "encoding": "inplace",
        "label": "bool",
        "numberOfBytes": "1"
      },
      "t_bytes32": {
        "encoding": "inplace",
        "label": "bytes32",
        "numberOfBytes": "32"
      },
      "t_contract(IUniswapV3Pool)4383": {
        "encoding": "inplace",
        "label": "contract IUniswapV3Pool",
        "numberOfBytes": "20"
      },
      "t_mapping(t_address,t_bool)": {
        "encoding": "mapping",
        "key": "t_address",
        "label": "mapping(address => bool)",
        "numberOfBytes": "32",
        "value": "t_bool"
      },
      "t_mapping(t_address,t_mapping(t_address,t_uint256))": {
        "encoding": "mapping",
        "key": "t_address",
        "label": "mapping(address => mapping(address => uint256))",
        "numberOfBytes": "32",
        "value": "t_mapping(t_address,t_uint256)"
      },
      "t_mapping(t_address,t_uint256)": {
        "encoding": "mapping",
        "key": "t_address",
        "label": "mapping(address => uint256)",
        "numberOfBytes": "32",
        "value": "t_uint256"
      },
      "t_mapping(t_bytes32,t_struct(RoleData)19_storage)": {
        "encoding": "mapping",
        "key": "t_bytes32",
        "label": "mapping(bytes32 => struct AccessControl.RoleData)",
        "numberOfBytes": "32",
        "value": "t_struct(RoleData)19_storage"
      },
      "t_string_storage": {
        "encoding": "bytes",
        "label": "string",
        "numberOfBytes": "32"
      },
      "t_struct(RoleData)19_storage": {
        "encoding": "inplace",
        "label": "struct AccessControl.RoleData",
        "members": [
          {
            "astId": 16,
            "contract": "contracts/CryptoPageToken.sol:PageToken",
            "label": "members",
            "offset": 0,
            "slot": "0",
            "type": "t_mapping(t_address,t_bool)"
          },
          {
            "astId": 18,
            "contract": "contracts/CryptoPageToken.sol:PageToken",
            "label": "adminRole",
            "offset": 0,
            "slot": "1",
            "type": "t_bytes32"
          }
        ],
        "numberOfBytes": "64"
      },
      "t_uint256": {
        "encoding": "inplace",
        "label": "uint256",
        "numberOfBytes": "32"
      }
    }
  }
}