{
  "address": "0x9C749bf97F7266C5bc2EA51849b560d9deA5c9B6",
  "abi": [
    {
      "inputs": [
        {
          "internalType": "address",
          "name": "_treasury",
          "type": "address"
        },
        {
          "internalType": "contract PageToken",
          "name": "_token",
          "type": "address"
        },
        {
          "internalType": "contract PageNFT",
          "name": "_nft",
          "type": "address"
        }
      ],
      "stateMutability": "nonpayable",
      "type": "constructor"
    },
    {
      "anonymous": false,
      "inputs": [
        {
          "indexed": true,
          "internalType": "address",
          "name": "previousOwner",
          "type": "address"
        },
        {
          "indexed": true,
          "internalType": "address",
          "name": "newOwner",
          "type": "address"
        }
      ],
      "name": "OwnershipTransferred",
      "type": "event"
    },
    {
      "inputs": [],
      "name": "nft",
      "outputs": [
        {
          "internalType": "contract PageNFT",
          "name": "",
          "type": "address"
        }
      ],
      "stateMutability": "view",
      "type": "function"
    },
    {
      "inputs": [],
      "name": "owner",
      "outputs": [
        {
          "internalType": "address",
          "name": "",
          "type": "address"
        }
      ],
      "stateMutability": "view",
      "type": "function"
    },
    {
      "inputs": [],
      "name": "renounceOwnership",
      "outputs": [],
      "stateMutability": "nonpayable",
      "type": "function"
    },
    {
      "inputs": [
        {
          "internalType": "uint256",
          "name": "_percent",
          "type": "uint256"
        }
      ],
      "name": "setBurnFee",
      "outputs": [],
      "stateMutability": "nonpayable",
      "type": "function"
    },
    {
      "inputs": [
        {
          "internalType": "uint256",
          "name": "_percent",
          "type": "uint256"
        }
      ],
      "name": "setMintFee",
      "outputs": [],
      "stateMutability": "nonpayable",
      "type": "function"
    },
    {
      "inputs": [
        {
          "internalType": "address",
          "name": "_treasury",
          "type": "address"
        }
      ],
      "name": "setTreasury",
      "outputs": [],
      "stateMutability": "nonpayable",
      "type": "function"
    },
    {
      "inputs": [],
      "name": "token",
      "outputs": [
        {
          "internalType": "contract PageToken",
          "name": "",
          "type": "address"
        }
      ],
      "stateMutability": "view",
      "type": "function"
    },
    {
      "inputs": [
        {
          "internalType": "address",
          "name": "newOwner",
          "type": "address"
        }
      ],
      "name": "transferOwnership",
      "outputs": [],
      "stateMutability": "nonpayable",
      "type": "function"
    },
    {
      "inputs": [],
      "name": "treasury",
      "outputs": [
        {
          "internalType": "address",
          "name": "",
          "type": "address"
        }
      ],
      "stateMutability": "view",
      "type": "function"
    }
  ],
  "transactionHash": "0xed1c71d933e22ce0404ea764247908056c6ecc9ba892a18c0410e6e962e211f3",
  "args": [
    "0x42Ea7075F16e355DE9D9F69D146A439AC4Cb6030",
    "0x2863d3bd80d2Fb24068418AEfc45437C6Ffc8561",
    "0xe23160ec72e500bc1C9c2d19E71FeE67ebcEdc0e"
  ],
  "solcInputHash": "4ff1bf8c692ec44af8c58c3181638448",
  "bytecode": "0x608060405234801561001057600080fd5b506040516105af3803806105af83398101604081905261002f916100ca565b6100383361007a565b600180546001600160a01b039485166001600160a01b03199182161790915560028054938516938216939093179092556003805491909316911617905561012e565b600080546001600160a01b038381166001600160a01b0319831681178455604051919092169283917f8be0079c531659141344cd1fd0a4f28419497f9722a3daafe3b4186f6b6457e09190a35050565b6000806000606084860312156100de578283fd5b83516100e981610116565b60208501519093506100fa81610116565b604085015190925061010b81610116565b809150509250925092565b6001600160a01b038116811461012b57600080fd5b50565b6104728061013d6000396000f3fe608060405234801561001057600080fd5b50600436106100935760003560e01c80638da5cb5b116100665780638da5cb5b146100f7578063eddd0d9c14610108578063f0f442601461011b578063f2fde38b1461012e578063fc0c546a1461014157600080fd5b806347ccca02146100985780634bf2c7c9146100c757806361d027b3146100dc578063715018a6146100ef575b600080fd5b6003546100ab906001600160a01b031681565b6040516001600160a01b03909116815260200160405180910390f35b6100da6100d53660046103ef565b610154565b005b6001546100ab906001600160a01b031681565b6100da6101e9565b6000546001600160a01b03166100ab565b6100da6101163660046103ef565b61021f565b6100da6101293660046103c1565b61027a565b6100da61013c3660046103c1565b6102d6565b6002546100ab906001600160a01b031681565b6000546001600160a01b031633146101875760405162461bcd60e51b815260040161017e90610407565b60405180910390fd5b600354604051634bf2c7c960e01b8152600481018390526001600160a01b0390911690634bf2c7c9906024015b600060405180830381600087803b1580156101ce57600080fd5b505af11580156101e2573d6000803e3d6000fd5b5050505050565b6000546001600160a01b031633146102135760405162461bcd60e51b815260040161017e90610407565b61021d6000610371565b565b6000546001600160a01b031633146102495760405162461bcd60e51b815260040161017e90610407565b600354604051633b77436760e21b8152600481018390526001600160a01b039091169063eddd0d9c906024016101b4565b6000546001600160a01b031633146102a45760405162461bcd60e51b815260040161017e90610407565b600354604051630787a21360e51b81526001600160a01b0383811660048301529091169063f0f44260906024016101b4565b6000546001600160a01b031633146103005760405162461bcd60e51b815260040161017e90610407565b6001600160a01b0381166103655760405162461bcd60e51b815260206004820152602660248201527f4f776e61626c653a206e6577206f776e657220697320746865207a65726f206160448201526564647265737360d01b606482015260840161017e565b61036e81610371565b50565b600080546001600160a01b038381166001600160a01b0319831681178455604051919092169283917f8be0079c531659141344cd1fd0a4f28419497f9722a3daafe3b4186f6b6457e09190a35050565b6000602082840312156103d2578081fd5b81356001600160a01b03811681146103e8578182fd5b9392505050565b600060208284031215610400578081fd5b5035919050565b6020808252818101527f4f776e61626c653a2063616c6c6572206973206e6f7420746865206f776e657260408201526060019056fea26469706673582212208b735e21d92a86990ce84c2b2783f5ba7a6e0c87ebe872f4a5764e623745cdcc64736f6c63430008040033",
  "devdoc": {
    "kind": "dev",
    "methods": {
      "owner()": {
        "details": "Returns the address of the current owner."
      },
      "renounceOwnership()": {
        "details": "Leaves the contract without owner. It will not be possible to call `onlyOwner` functions anymore. Can only be called by the current owner. NOTE: Renouncing ownership will leave the contract without an owner, thereby removing any functionality that is only available to the owner."
      },
      "transferOwnership(address)": {
        "details": "Transfers ownership of the contract to a new account (`newOwner`). Can only be called by the current owner."
      }
    },
    "version": 1
  },
  "userdoc": {
    "kind": "user",
    "methods": {},
    "version": 1
  },
  "storageLayout": {
    "storage": [
      {
        "astId": 387,
        "contract": "contracts/CryptoPageAdmin.sol:PageAdmin",
        "label": "_owner",
        "offset": 0,
        "slot": "0",
        "type": "t_address"
      },
      {
        "astId": 3957,
        "contract": "contracts/CryptoPageAdmin.sol:PageAdmin",
        "label": "treasury",
        "offset": 0,
        "slot": "1",
        "type": "t_address"
      },
      {
        "astId": 3960,
        "contract": "contracts/CryptoPageAdmin.sol:PageAdmin",
        "label": "token",
        "offset": 0,
        "slot": "2",
        "type": "t_contract(PageToken)5077"
      },
      {
        "astId": 3963,
        "contract": "contracts/CryptoPageAdmin.sol:PageAdmin",
        "label": "nft",
        "offset": 0,
        "slot": "3",
        "type": "t_contract(PageNFT)4960"
      }
    ],
    "types": {
      "t_address": {
        "encoding": "inplace",
        "label": "address",
        "numberOfBytes": "20"
      },
      "t_contract(PageNFT)4960": {
        "encoding": "inplace",
        "label": "contract PageNFT",
        "numberOfBytes": "20"
      },
      "t_contract(PageToken)5077": {
        "encoding": "inplace",
        "label": "contract PageToken",
        "numberOfBytes": "20"
      }
    }
  }
}