{
    "_format": "hh-sol-artifact-1",
    "contractName": "PageComment",
    "sourceName": "contracts/CryptoPageComment.sol",
    "abi": [
        {
            "inputs": [
                {
                    "internalType": "address",
                    "name": "_owner",
                    "type": "address"
                }
            ],
            "stateMutability": "nonpayable",
            "type": "constructor"
        },
        {
            "anonymous": false,
            "inputs": [
                {
                    "indexed": false,
                    "internalType": "uint256",
                    "name": "id",
                    "type": "uint256"
                },
                {
                    "indexed": false,
                    "internalType": "address",
                    "name": "author",
                    "type": "address"
                },
                {
                    "indexed": false,
                    "internalType": "string",
                    "name": "text",
                    "type": "string"
                },
                {
                    "indexed": false,
                    "internalType": "bool",
                    "name": "like",
                    "type": "bool"
                }
            ],
            "name": "NewComment",
            "type": "event"
        },
        {
            "anonymous": false,
            "inputs": [
                {
                    "indexed": true,
                    "internalType": "address",
                    "name": "previousOwner",
                    "type": "address"
                },
                {
                    "indexed": true,
                    "internalType": "address",
                    "name": "newOwner",
                    "type": "address"
                }
            ],
            "name": "OwnershipTransferred",
            "type": "event"
        },
        {
            "inputs": [
                {
                    "internalType": "uint256",
                    "name": "",
                    "type": "uint256"
                }
            ],
            "name": "commentsById",
            "outputs": [
                {
                    "internalType": "uint256",
                    "name": "id",
                    "type": "uint256"
                },
                {
                    "internalType": "address",
                    "name": "author",
                    "type": "address"
                },
                {
                    "internalType": "string",
                    "name": "text",
                    "type": "string"
                },
                {
                    "internalType": "bool",
                    "name": "like",
                    "type": "bool"
                }
            ],
            "stateMutability": "view",
            "type": "function"
        },
        {
            "inputs": [
                {
                    "internalType": "uint256",
                    "name": "",
                    "type": "uint256"
                }
            ],
            "name": "commentsIds",
            "outputs": [
                {
                    "internalType": "uint256",
                    "name": "",
                    "type": "uint256"
                }
            ],
            "stateMutability": "view",
            "type": "function"
        },
        {
            "inputs": [
                {
                    "internalType": "address",
                    "name": "author",
                    "type": "address"
                },
                {
                    "internalType": "string",
                    "name": "text",
                    "type": "string"
                },
                {
                    "internalType": "bool",
                    "name": "like",
                    "type": "bool"
                }
            ],
            "name": "createComment",
            "outputs": [],
            "stateMutability": "nonpayable",
            "type": "function"
        },
        {
            "inputs": [],
            "name": "getActive",
            "outputs": [
                {
                    "internalType": "bool",
                    "name": "",
                    "type": "bool"
                }
            ],
            "stateMutability": "view",
            "type": "function"
        },
        {
            "inputs": [
                {
                    "internalType": "uint256",
                    "name": "id",
                    "type": "uint256"
                }
            ],
            "name": "getCommentById",
            "outputs": [
                {
                    "internalType": "uint256",
                    "name": "",
                    "type": "uint256"
                },
                {
                    "internalType": "address",
                    "name": "",
                    "type": "address"
                },
                {
                    "internalType": "string",
                    "name": "",
                    "type": "string"
                },
                {
                    "internalType": "bool",
                    "name": "",
                    "type": "bool"
                }
            ],
            "stateMutability": "view",
            "type": "function"
        },
        {
            "inputs": [],
            "name": "getComments",
            "outputs": [
                {
                    "components": [
                        {
                            "internalType": "uint256",
                            "name": "id",
                            "type": "uint256"
                        },
                        {
                            "internalType": "address",
                            "name": "author",
                            "type": "address"
                        },
                        {
                            "internalType": "string",
                            "name": "text",
                            "type": "string"
                        },
                        {
                            "internalType": "bool",
                            "name": "like",
                            "type": "bool"
                        }
                    ],
                    "internalType": "struct PageComment.Comment[]",
                    "name": "",
                    "type": "tuple[]"
                }
            ],
            "stateMutability": "view",
            "type": "function"
        },
        {
            "inputs": [
                {
                    "internalType": "uint256[]",
                    "name": "_ids",
                    "type": "uint256[]"
                }
            ],
            "name": "getCommentsByIds",
            "outputs": [
                {
                    "components": [
                        {
                            "internalType": "uint256",
                            "name": "id",
                            "type": "uint256"
                        },
                        {
                            "internalType": "address",
                            "name": "author",
                            "type": "address"
                        },
                        {
                            "internalType": "string",
                            "name": "text",
                            "type": "string"
                        },
                        {
                            "internalType": "bool",
                            "name": "like",
                            "type": "bool"
                        }
                    ],
                    "internalType": "struct PageComment.Comment[]",
                    "name": "",
                    "type": "tuple[]"
                }
            ],
            "stateMutability": "view",
            "type": "function"
        },
        {
            "inputs": [],
            "name": "getCommentsIds",
            "outputs": [
                {
                    "internalType": "uint256[]",
                    "name": "",
                    "type": "uint256[]"
                }
            ],
            "stateMutability": "view",
            "type": "function"
        },
        {
            "inputs": [],
            "name": "getStatistic",
            "outputs": [
                {
                    "internalType": "uint256",
                    "name": "total",
                    "type": "uint256"
                },
                {
                    "internalType": "uint256",
                    "name": "likes",
                    "type": "uint256"
                },
                {
                    "internalType": "uint256",
                    "name": "dislikes",
                    "type": "uint256"
                }
            ],
            "stateMutability": "view",
            "type": "function"
        },
        {
            "inputs": [],
            "name": "owner",
            "outputs": [
                {
                    "internalType": "address",
                    "name": "",
                    "type": "address"
                }
            ],
            "stateMutability": "view",
            "type": "function"
        },
        {
            "inputs": [],
            "name": "renounceOwnership",
            "outputs": [],
            "stateMutability": "nonpayable",
            "type": "function"
        },
        {
            "inputs": [],
            "name": "toggleActive",
            "outputs": [],
            "stateMutability": "nonpayable",
            "type": "function"
        },
        {
            "inputs": [
                {
                    "internalType": "address",
                    "name": "newOwner",
                    "type": "address"
                }
            ],
            "name": "transferOwnership",
            "outputs": [],
            "stateMutability": "nonpayable",
            "type": "function"
        }
    ],
    "bytecode": "0x60806040526000805460ff60a01b1916600160a01b17905534801561002357600080fd5b50604051620011c2380380620011c28339810160408190526100449161017c565b61004d3361005c565b610056816100ac565b506101aa565b600080546001600160a01b038381166001600160a01b0319831681178455604051919092169283917f8be0079c531659141344cd1fd0a4f28419497f9722a3daafe3b4186f6b6457e09190a35050565b6000546001600160a01b0316331461010b5760405162461bcd60e51b815260206004820181905260248201527f4f776e61626c653a2063616c6c6572206973206e6f7420746865206f776e657260448201526064015b60405180910390fd5b6001600160a01b0381166101705760405162461bcd60e51b815260206004820152602660248201527f4f776e61626c653a206e6577206f776e657220697320746865207a65726f206160448201526564647265737360d01b6064820152608401610102565b6101798161005c565b50565b60006020828403121561018d578081fd5b81516001600160a01b03811681146101a3578182fd5b9392505050565b61100880620001ba6000396000f3fe608060405234801561001057600080fd5b50600436106100ce5760003560e01c80638da5cb5b1161008c5780639a60057e116100665780639a60057e146101a5578063be60741e146101b8578063c0e7c32d146101d9578063f2fde38b146101ec57600080fd5b80638da5cb5b1461016d5780638ebed2e81461018857806391f3410c1461019d57600080fd5b80629ebb10146100d357806329c68dc1146100f5578063360d03a1146100ff57806365b174e91461011f5780636c43dbb414610142578063715018a614610165575b600080fd5b600054600160a01b900460ff1660405190151581526020015b60405180910390f35b6100fd6101ff565b005b61011261010d366004610cd0565b610269565b6040516100ec9190610ddb565b6101276105b3565b604080519384526020840192909252908201526060016100ec565b610155610150366004610d78565b6105d4565b6040516100ec9493929190610eec565b6100fd6106fb565b6000546040516001600160a01b0390911681526020016100ec565b61019061072f565b6040516100ec9190610e73565b610112610787565b6100fd6101b3366004610c22565b6107e7565b6101cb6101c6366004610d78565b61094f565b6040519081526020016100ec565b6101556101e7366004610d78565b610970565b6100fd6101fa366004610c01565b610a2f565b6000546001600160a01b031633146102325760405162461bcd60e51b815260040161022990610eb7565b60405180910390fd5b600054600160a01b900460ff1615610253576000805460ff60a01b19169055565b6000805460ff60a01b1916600160a01b1790555b565b606060008251116102c75760405162461bcd60e51b815260206004820152602260248201527f5f696473206c656e677468206d757374206265206d6f7265207468616e207a65604482015261726f60f01b6064820152608401610229565b600154825111156103305760405162461bcd60e51b815260206004820152602d60248201527f5f696473206c656e677468206d757374206265206c657373206f72206571756160448201526c6c20636f6d6d656e747349647360981b6064820152608401610229565b6000825167ffffffffffffffff81111561035a57634e487b7160e01b600052604160045260246000fd5b6040519080825280602002602001820160405280156103c157816020015b6103ae60405180608001604052806000815260200160006001600160a01b03168152602001606081526020016000151581525090565b8152602001906001900390816103785790505b50905060005b83518110156105ac5760015484518590839081106103f557634e487b7160e01b600052603260045260246000fd5b602002602001015111156104455760405162461bcd60e51b8152602060048201526017602482015276139bc818dbdb5b595b9d081dda5d1a081d1a1a5cc81251604a1b6044820152606401610229565b60006002600086848151811061046b57634e487b7160e01b600052603260045260246000fd5b60200260200101518152602001908152602001600020905080604051806080016040529081600082015481526020016001820160009054906101000a90046001600160a01b03166001600160a01b03166001600160a01b031681526020016002820180546104d890610f5a565b80601f016020809104026020016040519081016040528092919081815260200182805461050490610f5a565b80156105515780601f1061052657610100808354040283529160200191610551565b820191906000526020600020905b81548152906001019060200180831161053457829003601f168201915b50505091835250506003919091015460ff161515602090910152835184908490811061058d57634e487b7160e01b600052603260045260246000fd5b60200260200101819052505080806105a490610f95565b9150506103c7565b5092915050565b6001546000806105c260035490565b91506105cd60045490565b9050909192565b6000806060600060018054905085111561062a5760405162461bcd60e51b8152602060048201526017602482015276139bc818dbdb5b595b9d081dda5d1a081d1a1a5cc81251604a1b6044820152606401610229565b600085815260026020819052604090912080546001820154600383015492909301805491936001600160a01b031692909160ff90911690829061066c90610f5a565b80601f016020809104026020016040519081016040528092919081815260200182805461069890610f5a565b80156106e55780601f106106ba576101008083540402835291602001916106e5565b820191906000526020600020905b8154815290600101906020018083116106c857829003601f168201915b5050505050915093509350935093509193509193565b6000546001600160a01b031633146107255760405162461bcd60e51b815260040161022990610eb7565b6102676000610aca565b6060600180548060200260200160405190810160405280929190818152602001828054801561077d57602002820191906000526020600020905b815481526020019060010190808311610769575b5050505050905090565b60606107e260018054806020026020016040519081016040528092919081815260200182805480156107d857602002820191906000526020600020905b8154815260200190600101908083116107c4575b5050505050610269565b905090565b600054600160a01b900460ff166108405760405162461bcd60e51b815260206004820152601760248201527f436f6d6d656e7473206e6f74206163746976617465642e0000000000000000006044820152606401610229565b6001805480820182557fb10e2d527612073b26eecdfd717e6a320cf44b4afac2b0732d9fcbe2b7fa0cf68101819055604080516080810182528281526001600160a01b03878116602080840191825283850189815288151560608601526000878152600280845296902085518155925197830180546001600160a01b0319169890941697909717909255945180519495929492936108e693908501929190910190610b3c565b50606091909101516003909101805460ff19169115159190911790556040517fe0a53cd07771af9e14cb32a4254f2ec669df05631af3c2a85448188f097c9ec490610938908390879087908790610eec565b60405180910390a161094982610b1a565b50505050565b6001818154811061095f57600080fd5b600091825260209091200154905081565b600260208190526000918252604090912080546001820154928201805491936001600160a01b031692916109a390610f5a565b80601f01602080910402602001604051908101604052809291908181526020018280546109cf90610f5a565b8015610a1c5780601f106109f157610100808354040283529160200191610a1c565b820191906000526020600020905b8154815290600101906020018083116109ff57829003601f168201915b5050506003909301549192505060ff1684565b6000546001600160a01b03163314610a595760405162461bcd60e51b815260040161022990610eb7565b6001600160a01b038116610abe5760405162461bcd60e51b815260206004820152602660248201527f4f776e61626c653a206e6577206f776e657220697320746865207a65726f206160448201526564647265737360d01b6064820152608401610229565b610ac781610aca565b50565b600080546001600160a01b038381166001600160a01b0319831681178455604051919092169283917f8be0079c531659141344cd1fd0a4f28419497f9722a3daafe3b4186f6b6457e09190a35050565b8015610b2e57610ac7600380546001019055565b610ac7600480546001019055565b828054610b4890610f5a565b90600052602060002090601f016020900481019282610b6a5760008555610bb0565b82601f10610b8357805160ff1916838001178555610bb0565b82800160010185558215610bb0579182015b82811115610bb0578251825591602001919060010190610b95565b50610bbc929150610bc0565b5090565b5b80821115610bbc5760008155600101610bc1565b80356001600160a01b0381168114610bec57600080fd5b919050565b80358015158114610bec57600080fd5b600060208284031215610c12578081fd5b610c1b82610bd5565b9392505050565b600080600060608486031215610c36578182fd5b610c3f84610bd5565b925060208085013567ffffffffffffffff80821115610c5c578485fd5b818701915087601f830112610c6f578485fd5b813581811115610c8157610c81610fbc565b610c93601f8201601f19168501610f29565b91508082528884828501011115610ca8578586fd5b80848401858401378101909201939093529150610cc760408501610bf1565b90509250925092565b60006020808385031215610ce2578182fd5b823567ffffffffffffffff80821115610cf9578384fd5b818501915085601f830112610d0c578384fd5b813581811115610d1e57610d1e610fbc565b8060051b9150610d2f848301610f29565b8181528481019084860184860187018a1015610d49578788fd5b8795505b83861015610d6b578035835260019590950194918601918601610d4d565b5098975050505050505050565b600060208284031215610d89578081fd5b5035919050565b60008151808452815b81811015610db557602081850181015186830182015201610d99565b81811115610dc65782602083870101525b50601f01601f19169290920160200192915050565b60006020808301818452808551808352604092508286019150828160051b870101848801865b83811015610e6557888303603f19018552815180518452878101516001600160a01b03168885015286810151608088860181905290610e4282870182610d90565b606093840151151596909301959095525094870194925090860190600101610e01565b509098975050505050505050565b6020808252825182820181905260009190848201906040850190845b81811015610eab57835183529284019291840191600101610e8f565b50909695505050505050565b6020808252818101527f4f776e61626c653a2063616c6c6572206973206e6f7420746865206f776e6572604082015260600190565b8481526001600160a01b0384166020820152608060408201819052600090610f1690830185610d90565b9050821515606083015295945050505050565b604051601f8201601f1916810167ffffffffffffffff81118282101715610f5257610f52610fbc565b604052919050565b600181811c90821680610f6e57607f821691505b60208210811415610f8f57634e487b7160e01b600052602260045260246000fd5b50919050565b6000600019821415610fb557634e487b7160e01b81526011600452602481fd5b5060010190565b634e487b7160e01b600052604160045260246000fdfea26469706673582212206f155bf27876845e44352394ab67c72e0a62dfb81a98d0d033a133846813d62e64736f6c63430008040033",
    "linkReferences": {},
    "deployedLinkReferences": {}
}