{
  "address": "0x39a96Fc9CaA0A87E576503E331c2803F7587F22F",
  "abi": [
    {
      "anonymous": false,
      "inputs": [
        {
          "indexed": true,
          "internalType": "address",
          "name": "owner",
          "type": "address"
        },
        {
          "indexed": true,
          "internalType": "address",
          "name": "approved",
          "type": "address"
        },
        {
          "indexed": true,
          "internalType": "uint256",
          "name": "tokenId",
          "type": "uint256"
        }
      ],
      "name": "Approval",
      "type": "event"
    },
    {
      "anonymous": false,
      "inputs": [
        {
          "indexed": true,
          "internalType": "address",
          "name": "owner",
          "type": "address"
        },
        {
          "indexed": true,
          "internalType": "address",
          "name": "operator",
          "type": "address"
        },
        {
          "indexed": false,
          "internalType": "bool",
          "name": "approved",
          "type": "bool"
        }
      ],
      "name": "ApprovalForAll",
      "type": "event"
    },
    {
      "anonymous": false,
      "inputs": [
        {
          "indexed": true,
          "internalType": "address",
          "name": "previousOwner",
          "type": "address"
        },
        {
          "indexed": true,
          "internalType": "address",
          "name": "newOwner",
          "type": "address"
        }
      ],
      "name": "OwnershipTransferred",
      "type": "event"
    },
    {
      "anonymous": false,
      "inputs": [
        {
          "indexed": true,
          "internalType": "address",
          "name": "from",
          "type": "address"
        },
        {
          "indexed": true,
          "internalType": "address",
          "name": "to",
          "type": "address"
        },
        {
          "indexed": true,
          "internalType": "uint256",
          "name": "tokenId",
          "type": "uint256"
        }
      ],
      "name": "Transfer",
      "type": "event"
    },
    {
      "inputs": [
        {
          "internalType": "address",
          "name": "to",
          "type": "address"
        },
        {
          "internalType": "uint256",
          "name": "tokenId",
          "type": "uint256"
        }
      ],
      "name": "approve",
      "outputs": [],
      "stateMutability": "nonpayable",
      "type": "function"
    },
    {
      "inputs": [
        {
          "internalType": "address",
          "name": "owner",
          "type": "address"
        }
      ],
      "name": "balanceOf",
      "outputs": [
        {
          "internalType": "uint256",
          "name": "",
          "type": "uint256"
        }
      ],
      "stateMutability": "view",
      "type": "function"
    },
    {
      "inputs": [],
      "name": "baseURL",
      "outputs": [
        {
          "internalType": "string",
          "name": "",
          "type": "string"
        }
      ],
      "stateMutability": "view",
      "type": "function"
    },
    {
      "inputs": [
        {
          "internalType": "uint256",
          "name": "_tokenId",
          "type": "uint256"
        }
      ],
      "name": "burn",
      "outputs": [],
      "stateMutability": "nonpayable",
      "type": "function"
    },
    {
      "inputs": [],
      "name": "fee",
      "outputs": [
        {
          "internalType": "uint256",
          "name": "",
          "type": "uint256"
        }
      ],
      "stateMutability": "view",
      "type": "function"
    },
    {
      "inputs": [
        {
          "internalType": "uint256",
          "name": "tokenId",
          "type": "uint256"
        }
      ],
      "name": "getApproved",
      "outputs": [
        {
          "internalType": "address",
          "name": "",
          "type": "address"
        }
      ],
      "stateMutability": "view",
      "type": "function"
    },
    {
      "inputs": [],
      "name": "getFee",
      "outputs": [
        {
          "internalType": "uint256",
          "name": "",
          "type": "uint256"
        }
      ],
      "stateMutability": "view",
      "type": "function"
    },
    {
      "inputs": [],
      "name": "getTreasury",
      "outputs": [
        {
          "internalType": "address",
          "name": "",
          "type": "address"
        }
      ],
      "stateMutability": "view",
      "type": "function"
    },
    {
      "inputs": [
        {
          "internalType": "address",
          "name": "_treasury",
          "type": "address"
        },
        {
          "internalType": "address",
          "name": "_token",
          "type": "address"
        },
        {
          "internalType": "address",
          "name": "_commentMinter",
          "type": "address"
        }
      ],
      "name": "initialize",
      "outputs": [],
      "stateMutability": "payable",
      "type": "function"
    },
    {
      "inputs": [
        {
          "internalType": "address",
          "name": "owner",
          "type": "address"
        },
        {
          "internalType": "address",
          "name": "operator",
          "type": "address"
        }
      ],
      "name": "isApprovedForAll",
      "outputs": [
        {
          "internalType": "bool",
          "name": "",
          "type": "bool"
        }
      ],
      "stateMutability": "view",
      "type": "function"
    },
    {
      "inputs": [],
      "name": "name",
      "outputs": [
        {
          "internalType": "string",
          "name": "",
          "type": "string"
        }
      ],
      "stateMutability": "view",
      "type": "function"
    },
    {
      "inputs": [],
      "name": "owner",
      "outputs": [
        {
          "internalType": "address",
          "name": "",
          "type": "address"
        }
      ],
      "stateMutability": "view",
      "type": "function"
    },
    {
      "inputs": [
        {
          "internalType": "uint256",
          "name": "tokenId",
          "type": "uint256"
        }
      ],
      "name": "ownerOf",
      "outputs": [
        {
          "internalType": "address",
          "name": "",
          "type": "address"
        }
      ],
      "stateMutability": "view",
      "type": "function"
    },
    {
      "inputs": [],
      "name": "renounceOwnership",
      "outputs": [],
      "stateMutability": "nonpayable",
      "type": "function"
    },
    {
      "inputs": [
        {
          "internalType": "address",
          "name": "_owner",
          "type": "address"
        },
        {
          "internalType": "string",
          "name": "_tokenURI",
          "type": "string"
        }
      ],
      "name": "safeMint",
      "outputs": [
        {
          "internalType": "uint256",
          "name": "",
          "type": "uint256"
        }
      ],
      "stateMutability": "nonpayable",
      "type": "function"
    },
    {
      "inputs": [
        {
          "internalType": "address",
          "name": "from",
          "type": "address"
        },
        {
          "internalType": "address",
          "name": "to",
          "type": "address"
        },
        {
          "internalType": "uint256",
          "name": "tokenId",
          "type": "uint256"
        }
      ],
      "name": "safeTransferFrom",
      "outputs": [],
      "stateMutability": "nonpayable",
      "type": "function"
    },
    {
      "inputs": [
        {
          "internalType": "address",
          "name": "from",
          "type": "address"
        },
        {
          "internalType": "address",
          "name": "to",
          "type": "address"
        },
        {
          "internalType": "uint256",
          "name": "tokenId",
          "type": "uint256"
        },
        {
          "internalType": "bytes",
          "name": "_data",
          "type": "bytes"
        }
      ],
      "name": "safeTransferFrom",
      "outputs": [],
      "stateMutability": "nonpayable",
      "type": "function"
    },
    {
      "inputs": [
        {
          "internalType": "address",
          "name": "operator",
          "type": "address"
        },
        {
          "internalType": "bool",
          "name": "approved",
          "type": "bool"
        }
      ],
      "name": "setApprovalForAll",
      "outputs": [],
      "stateMutability": "nonpayable",
      "type": "function"
    },
    {
      "inputs": [
        {
          "internalType": "uint256",
          "name": "_percent",
          "type": "uint256"
        }
      ],
      "name": "setFee",
      "outputs": [],
      "stateMutability": "nonpayable",
      "type": "function"
    },
    {
      "inputs": [
        {
          "internalType": "address",
          "name": "_treasury",
          "type": "address"
        }
      ],
      "name": "setTreasury",
      "outputs": [],
      "stateMutability": "nonpayable",
      "type": "function"
    },
    {
      "inputs": [
        {
          "internalType": "bytes4",
          "name": "interfaceId",
          "type": "bytes4"
        }
      ],
      "name": "supportsInterface",
      "outputs": [
        {
          "internalType": "bool",
          "name": "",
          "type": "bool"
        }
      ],
      "stateMutability": "view",
      "type": "function"
    },
    {
      "inputs": [],
      "name": "symbol",
      "outputs": [
        {
          "internalType": "string",
          "name": "",
          "type": "string"
        }
      ],
      "stateMutability": "view",
      "type": "function"
    },
    {
      "inputs": [
        {
          "internalType": "uint256",
          "name": "tokenId",
          "type": "uint256"
        }
      ],
      "name": "tokenPrice",
      "outputs": [
        {
          "internalType": "uint256",
          "name": "",
          "type": "uint256"
        }
      ],
      "stateMutability": "view",
      "type": "function"
    },
    {
      "inputs": [
        {
          "internalType": "uint256",
          "name": "tokenId",
          "type": "uint256"
        }
      ],
      "name": "tokenURI",
      "outputs": [
        {
          "internalType": "string",
          "name": "",
          "type": "string"
        }
      ],
      "stateMutability": "view",
      "type": "function"
    },
    {
      "inputs": [
        {
          "internalType": "address",
          "name": "from",
          "type": "address"
        },
        {
          "internalType": "address",
          "name": "to",
          "type": "address"
        },
        {
          "internalType": "uint256",
          "name": "tokenId",
          "type": "uint256"
        }
      ],
      "name": "transferFrom",
      "outputs": [],
      "stateMutability": "nonpayable",
      "type": "function"
    },
    {
      "inputs": [
        {
          "internalType": "address",
          "name": "newOwner",
          "type": "address"
        }
      ],
      "name": "transferOwnership",
      "outputs": [],
      "stateMutability": "nonpayable",
      "type": "function"
    },
    {
      "inputs": [],
      "name": "treasury",
      "outputs": [
        {
          "internalType": "address",
          "name": "",
          "type": "address"
        }
      ],
      "stateMutability": "view",
      "type": "function"
    }
  ],
  "transactionHash": "0x6f73a5caa18aac05ce1472bff47087b9acdb799e691236963017ef2844533b4e",
  "args": [],
  "solcInputHash": "eb7d05d7117e69c836875fcb84676601",
  "bytecode": "0x60c0604052601560808190527f68747470733a2f2f697066732e696f2f697066732f000000000000000000000060a0908152620000409160fe91906200005c565b506103e8610100553480156200005557600080fd5b506200013f565b8280546200006a9062000102565b90600052602060002090601f0160209004810192826200008e5760008555620000d9565b82601f10620000a957805160ff1916838001178555620000d9565b82800160010185558215620000d9579182015b82811115620000d9578251825591602001919060010190620000bc565b50620000e7929150620000eb565b5090565b5b80821115620000e75760008155600101620000ec565b600181811c908216806200011757607f821691505b602082108114156200013957634e487b7160e01b600052602260045260246000fd5b50919050565b612e38806200014f6000396000f3fe60806040526004361061019c5760003560e01c8063715018a6116100ec578063ced72f871161008a578063ddca3f4311610064578063ddca3f4314610484578063e985e9c51461049b578063f0f44260146104e4578063f2fde38b146105045761019c565b8063ced72f871461042e578063d204c45e14610444578063d4ddce8a146104645761019c565b8063a22cb465116100c6578063a22cb465146103bb578063b88d4fde146103db578063c0c53b8b146103fb578063c87b56dd1461040e5761019c565b8063715018a6146103735780638da5cb5b1461038857806395d89b41146103a65761019c565b806340c84b0e1161015957806361d027b31161013357806361d027b3146102e55780636352211e1461030557806369fe0e2d1461032557806370a08231146103455761019c565b806340c84b0e1461029057806342842e0e146102a557806342966c68146102c55761019c565b806301ffc9a7146101a157806306fdde03146101d6578063081812fc146101f8578063095ea7b31461023057806323b872dd146102525780633b19e84a14610272575b600080fd5b3480156101ad57600080fd5b506101c16101bc366004612a1c565b610524565b60405190151581526020015b60405180910390f35b3480156101e257600080fd5b506101eb610578565b6040516101cd9190612b51565b34801561020457600080fd5b50610218610213366004612a70565b61060a565b6040516001600160a01b0390911681526020016101cd565b34801561023c57600080fd5b5061025061024b366004612891565b610697565b005b34801561025e57600080fd5b5061025061026d366004612746565b6107ad565b34801561027e57600080fd5b5060ff546001600160a01b0316610218565b34801561029c57600080fd5b506101eb610ac0565b3480156102b157600080fd5b506102506102c0366004612746565b610b4e565b3480156102d157600080fd5b506102506102e0366004612a70565b610b69565b3480156102f157600080fd5b5060ff54610218906001600160a01b031681565b34801561031157600080fd5b50610218610320366004612a70565b611017565b34801561033157600080fd5b50610250610340366004612a70565b61108e565b34801561035157600080fd5b506103656103603660046126a8565b61118a565b6040519081526020016101cd565b34801561037f57600080fd5b50610250611211565b34801561039457600080fd5b506033546001600160a01b0316610218565b3480156103b257600080fd5b506101eb611247565b3480156103c757600080fd5b506102506103d6366004612803565b611256565b3480156103e757600080fd5b506102506103f6366004612786565b611265565b6102506104093660046126fc565b6112e6565b34801561041a57600080fd5b506101eb610429366004612a70565b611437565b34801561043a57600080fd5b5061010054610365565b34801561045057600080fd5b5061036561045f366004612830565b6115af565b34801561047057600080fd5b5061036561047f366004612a70565b611828565b34801561049057600080fd5b506103656101005481565b3480156104a757600080fd5b506101c16104b63660046126c4565b6001600160a01b039182166000908152609c6020908152604080832093909416825291909152205460ff1690565b3480156104f057600080fd5b506102506104ff3660046126a8565b61188e565b34801561051057600080fd5b5061025061051f3660046126a8565b611930565b60006001600160e01b031982166380ac58cd60e01b148061055557506001600160e01b03198216635b5e139f60e01b145b8061057057506301ffc9a760e01b6001600160e01b03198316145b90505b919050565b60606097805461058790612d1d565b80601f01602080910402602001604051908101604052809291908181526020018280546105b390612d1d565b80156106005780601f106105d557610100808354040283529160200191610600565b820191906000526020600020905b8154815290600101906020018083116105e357829003601f168201915b5050505050905090565b6000610615826119cb565b61067b5760405162461bcd60e51b815260206004820152602c60248201527f4552433732313a20617070726f76656420717565727920666f72206e6f6e657860448201526b34b9ba32b73a103a37b5b2b760a11b60648201526084015b60405180910390fd5b506000908152609b60205260409020546001600160a01b031690565b60006106a282611017565b9050806001600160a01b0316836001600160a01b031614156107105760405162461bcd60e51b815260206004820152602160248201527f4552433732313a20617070726f76616c20746f2063757272656e74206f776e656044820152603960f91b6064820152608401610672565b336001600160a01b038216148061072c575061072c81336104b6565b61079e5760405162461bcd60e51b815260206004820152603860248201527f4552433732313a20617070726f76652063616c6c6572206973206e6f74206f7760448201527f6e6572206e6f7220617070726f76656420666f7220616c6c00000000000000006064820152608401610672565b6107a883836119e8565b505050565b60006107bc6170fd5a90611a56565b90506107c9335b83611a69565b61082e5760405162461bcd60e51b815260206004820152603060248201527f4552433732313a207472616e736665722063616c6c6572206973206e6f74206f60448201526f1ddb995c881bdc88185c1c1c9bdd995960821b6064820152608401610672565b60fc5460408051631b559a4560e11b8152905161093f926001600160a01b0316916336ab348a916004808301926020929190829003018186803b15801561087457600080fd5b505afa158015610888573d6000803e3d6000fd5b505050506040513d601f19601f820116820180604052508101906108ac9190612a88565b60fc5460408051630c2e39a160e11b81529051610939926001600160a01b03169163185c7342916004808301926020929190829003018186803b1580156108f257600080fd5b505afa158015610906573d6000803e3d6000fd5b505050506040513d601f19601f8201168201806040525081019061092a9190612a88565b6109393a6109395a8890611b4f565b90611b5b565b90506000610953602d610939846064611b67565b90506000610967600a610939856064611b67565b9050610974868686611b73565b60fc546040516340c10f1960e01b81526001600160a01b03909116906340c10f19906109a69033908690600401612b38565b600060405180830381600087803b1580156109c057600080fd5b505af11580156109d4573d6000803e3d6000fd5b505060fc5460008781526101036020526040908190205490516340c10f1960e01b81526001600160a01b0392831694506340c10f199350610a1d92909116908690600401612b38565b600060405180830381600087803b158015610a3757600080fd5b505af1158015610a4b573d6000803e3d6000fd5b505060fc5460ff546040516340c10f1960e01b81526001600160a01b0392831694506340c10f199350610a8692909116908590600401612b38565b600060405180830381600087803b158015610aa057600080fd5b505af1158015610ab4573d6000803e3d6000fd5b50505050505050505050565b60fe8054610acd90612d1d565b80601f0160208091040260200160405190810160405280929190818152602001828054610af990612d1d565b8015610b465780601f10610b1b57610100808354040283529160200191610b46565b820191906000526020600020905b815481529060010190602001808311610b2957829003601f168201915b505050505081565b6107a883838360405180602001604052806000815250611265565b6000610b786170fd5a90611a56565b905033610b8483611017565b6001600160a01b031614610bda5760405162461bcd60e51b815260206004820152601c60248201527f4974277320706f737369626c65206f6e6c7920666f72206f776e6572000000006044820152606401610672565b60fd5460405163badf08eb60e01b81526000916001600160a01b03169063badf08eb90610c0d9030908790600401612b38565b60206040518083038186803b158015610c2557600080fd5b505afa158015610c39573d6000803e3d6000fd5b505050506040513d601f19601f82011682018060405250810190610c5d9190612a00565b90508015610dd65760fd5460405163556aab9360e11b81526000916001600160a01b03169063aad5572690610c989030908890600401612b38565b60206040518083038186803b158015610cb057600080fd5b505afa158015610cc4573d6000803e3d6000fd5b505050506040513d601f19601f82011682018060405250810190610ce89190612a54565b90506000816001600160a01b03166391f3410c6040518163ffffffff1660e01b815260040160006040518083038186803b158015610d2557600080fd5b505afa158015610d39573d6000803e3d6000fd5b505050506040513d6000823e601f3d908101601f19168201604052610d6191908101906128bc565b905060005b8151811015610dd2576000828281518110610d9157634e487b7160e01b600052603260045260246000fd5b60200260200101519050610dbd610db660028360800151611b5b90919063ffffffff16565b8790611a56565b50508080610dca90612d58565b915050610d66565b5050505b60fc5460408051631b559a4560e11b81529051610ee1926001600160a01b0316916336ab348a916004808301926020929190829003018186803b158015610e1c57600080fd5b505afa158015610e30573d6000803e3d6000fd5b505050506040513d601f19601f82011682018060405250810190610e549190612a88565b60fc5460408051630c2e39a160e11b81529051610939926001600160a01b03169163185c7342916004808301926020929190829003018186803b158015610e9a57600080fd5b505afa158015610eae573d6000803e3d6000fd5b505050506040513d601f19601f82011682018060405250810190610ed29190612a88565b6109393a6109395a8990611b4f565b60fc546040516370a0823160e01b815233600482015291935083916001600160a01b03909116906370a082319060240160206040518083038186803b158015610f2957600080fd5b505afa158015610f3d573d6000803e3d6000fd5b505050506040513d601f19601f82011682018060405250810190610f619190612a88565b1015610fa55760405162461bcd60e51b81526020600482015260136024820152726e6f7420656e6f756768742062616c616e636560681b6044820152606401610672565b610fae83611d13565b60fc54604051632770a7eb60e21b81526001600160a01b0390911690639dc29fac90610fe09033908690600401612b38565b600060405180830381600087803b158015610ffa57600080fd5b505af115801561100e573d6000803e3d6000fd5b50505050505050565b6000818152609960205260408120546001600160a01b0316806105705760405162461bcd60e51b815260206004820152602960248201527f4552433732313a206f776e657220717565727920666f72206e6f6e657869737460448201526832b73a103a37b5b2b760b91b6064820152608401610672565b6033546001600160a01b031633146110b85760405162461bcd60e51b815260040161067290612bb6565b600a81101561111e5760405162461bcd60e51b815260206004820152602c60248201527f7365744d696e744665653a206d696e696d756d206d696e74206665652070657260448201526b63656e7420697320302e312560a01b6064820152608401610672565b610bb88111156111845760405162461bcd60e51b815260206004820152602b60248201527f7365744d696e744665653a206d6178696d756d206d696e74206665652070657260448201526a63656e742069732033302560a81b6064820152608401610672565b61010055565b60006001600160a01b0382166111f55760405162461bcd60e51b815260206004820152602a60248201527f4552433732313a2062616c616e636520717565727920666f7220746865207a65604482015269726f206164647265737360b01b6064820152608401610672565b506001600160a01b03166000908152609a602052604090205490565b6033546001600160a01b0316331461123b5760405162461bcd60e51b815260040161067290612bb6565b6112456000611d53565b565b60606098805461058790612d1d565b611261338383611da5565b5050565b61126e336107c3565b6112d45760405162461bcd60e51b815260206004820152603160248201527f4552433732313a207472616e736665722063616c6c6572206973206e6f74206f6044820152701ddb995c881b9bdc88185c1c1c9bdd9959607a1b6064820152608401610672565b6112e084848484611e74565b50505050565b600054610100900460ff166113015760005460ff1615611305565b303b155b6113685760405162461bcd60e51b815260206004820152602e60248201527f496e697469616c697a61626c653a20636f6e747261637420697320616c72656160448201526d191e481a5b9a5d1a585b1a5e995960921b6064820152608401610672565b600054610100900460ff1615801561138a576000805461ffff19166101011790555b6113db6040518060400160405280600f81526020016e10dc9e5c1d1bcb941859d948139195608a1b81525060405180604001604052806008815260200167141051d14b93919560c21b815250611ea7565b6113e3611ee8565b60ff80546001600160a01b038087166001600160a01b03199283161790925560fc805486841690831617905560fd80549285169290911691909117905580156112e0576000805461ff001916905550505050565b6060611442826119cb565b6114a85760405162461bcd60e51b815260206004820152603160248201527f45524337323155524953746f726167653a2055524920717565727920666f72206044820152703737b732bc34b9ba32b73a103a37b5b2b760791b6064820152608401610672565b600082815260c96020526040812080546114c190612d1d565b80601f01602080910402602001604051908101604052809291908181526020018280546114ed90612d1d565b801561153a5780601f1061150f5761010080835404028352916020019161153a565b820191906000526020600020905b81548152906001019060200180831161151d57829003601f168201915b50505050509050600061155860408051602081019091526000815290565b905080516000141561156c57509050610573565b81511561159e578082604051602001611586929190612acc565b60405160208183030381529060405292505050610573565b6115a784611f18565b949350505050565b6000806115bf6170fd5a90611a56565b905060006115cd8585611fef565b905061162060fc60009054906101000a90046001600160a01b03166001600160a01b03166336ab348a6040518163ffffffff1660e01b815260040160206040518083038186803b158015610e1c57600080fd5b915060006116406101005461093961271086611b6790919063ffffffff16565b9050600061164e8483611b4f565b600084815261010260205260409081902086905560fc5460ff5491516340c10f1960e01b81529293506001600160a01b03908116926340c10f19926116999216908690600401612b38565b600060405180830381600087803b1580156116b357600080fd5b505af11580156116c7573d6000803e3d6000fd5b505050506001600160a01b0387163314156117455760fc546040516340c10f1960e01b81526001600160a01b03909116906340c10f199061170e908a908590600401612b38565b600060405180830381600087803b15801561172857600080fd5b505af115801561173c573d6000803e3d6000fd5b5050505061181d565b6000611752826002611b67565b60fc546040516340c10f1960e01b81529192506001600160a01b0316906340c10f1990611785908b908590600401612b38565b600060405180830381600087803b15801561179f57600080fd5b505af11580156117b3573d6000803e3d6000fd5b505060fc546040516340c10f1960e01b81526001600160a01b0390911692506340c10f1991506117e99033908590600401612b38565b600060405180830381600087803b15801561180357600080fd5b505af1158015611817573d6000803e3d6000fd5b50505050505b509095945050505050565b600061183360fb5490565b82111561187a5760405162461bcd60e51b8152602060048201526015602482015274139bc81d1bdad95b881dda5d1a081d1a1a5cc81259605a1b6044820152606401610672565b506000908152610102602052604090205490565b6033546001600160a01b031633146118b85760405162461bcd60e51b815260040161067290612bb6565b6001600160a01b03811661190e5760405162461bcd60e51b815260206004820152601c60248201527f73657454726561737572793a206973207a65726f2061646472657373000000006044820152606401610672565b60ff80546001600160a01b0319166001600160a01b0392909216919091179055565b6033546001600160a01b0316331461195a5760405162461bcd60e51b815260040161067290612bb6565b6001600160a01b0381166119bf5760405162461bcd60e51b815260206004820152602660248201527f4f776e61626c653a206e6577206f776e657220697320746865207a65726f206160448201526564647265737360d01b6064820152608401610672565b6119c881611d53565b50565b6000908152609960205260409020546001600160a01b0316151590565b6000818152609b6020526040902080546001600160a01b0319166001600160a01b0384169081179091558190611a1d82611017565b6001600160a01b03167f8c5be1e5ebec7d5bd14f71427d1e84f3dd0314c0f7b2291e5b200ac8c7c3b92560405160405180910390a45050565b6000611a628284612c8f565b9392505050565b6000611a74826119cb565b611ad55760405162461bcd60e51b815260206004820152602c60248201527f4552433732313a206f70657261746f7220717565727920666f72206e6f6e657860448201526b34b9ba32b73a103a37b5b2b760a11b6064820152608401610672565b6000611ae083611017565b9050806001600160a01b0316846001600160a01b03161480611b1b5750836001600160a01b0316611b108461060a565b6001600160a01b0316145b806115a757506001600160a01b038082166000908152609c602090815260408083209388168352929052205460ff166115a7565b6000611a628284612cda565b6000611a628284612cbb565b6000611a628284612ca7565b826001600160a01b0316611b8682611017565b6001600160a01b031614611bee5760405162461bcd60e51b815260206004820152602960248201527f4552433732313a207472616e73666572206f6620746f6b656e2074686174206960448201526839903737ba1037bbb760b91b6064820152608401610672565b6001600160a01b038216611c505760405162461bcd60e51b8152602060048201526024808201527f4552433732313a207472616e7366657220746f20746865207a65726f206164646044820152637265737360e01b6064820152608401610672565b611c5b6000826119e8565b6001600160a01b0383166000908152609a60205260408120805460019290611c84908490612cda565b90915550506001600160a01b0382166000908152609a60205260408120805460019290611cb2908490612c8f565b909155505060008181526099602052604080822080546001600160a01b0319166001600160a01b0386811691821790925591518493918716917fddf252ad1be2c89b69c2b068fc378daa952ba7f163c4a11628f55a4df523b3ef91a4505050565b611d1c81612047565b600081815260c9602052604090208054611d3590612d1d565b1590506119c857600081815260c9602052604081206119c89161258a565b603380546001600160a01b038381166001600160a01b0319831681179093556040519116919082907f8be0079c531659141344cd1fd0a4f28419497f9722a3daafe3b4186f6b6457e090600090a35050565b816001600160a01b0316836001600160a01b03161415611e075760405162461bcd60e51b815260206004820152601960248201527f4552433732313a20617070726f766520746f2063616c6c6572000000000000006044820152606401610672565b6001600160a01b038381166000818152609c6020908152604080832094871680845294825291829020805460ff191686151590811790915591519182527f17307eab39ab6107e8899845ad3d59bd9653f200f220920489ca2b5937696c31910160405180910390a3505050565b611e7f848484611b73565b611e8b848484846120e2565b6112e05760405162461bcd60e51b815260040161067290612b64565b600054610100900460ff16611ece5760405162461bcd60e51b815260040161067290612beb565b611ed66121ef565b611ede6121ef565b6112618282612216565b600054610100900460ff16611f0f5760405162461bcd60e51b815260040161067290612beb565b61124533611d53565b6060611f23826119cb565b611f875760405162461bcd60e51b815260206004820152602f60248201527f4552433732314d657461646174613a2055524920717565727920666f72206e6f60448201526e3732bc34b9ba32b73a103a37b5b2b760891b6064820152608401610672565b6000611f9e60408051602081019091526000815290565b90506000815111611fbe5760405180602001604052806000815250611a62565b80611fc884612264565b604051602001611fd9929190612acc565b6040516020818303038152906040529392505050565b600080611ffb60fb5490565b60008181526101036020526040902080546001600160a01b0319166001600160a01b038716179055905061202f848261237f565b6120398184612399565b611a6260fb80546001019055565b600061205282611017565b905061205f6000836119e8565b6001600160a01b0381166000908152609a60205260408120805460019290612088908490612cda565b909155505060008281526099602052604080822080546001600160a01b0319169055518391906001600160a01b038416907fddf252ad1be2c89b69c2b068fc378daa952ba7f163c4a11628f55a4df523b3ef908390a45050565b60006001600160a01b0384163b156121e457604051630a85bd0160e11b81526001600160a01b0385169063150b7a0290612126903390899088908890600401612afb565b602060405180830381600087803b15801561214057600080fd5b505af1925050508015612170575060408051601f3d908101601f1916820190925261216d91810190612a38565b60015b6121ca573d80801561219e576040519150601f19603f3d011682016040523d82523d6000602084013e6121a3565b606091505b5080516121c25760405162461bcd60e51b815260040161067290612b64565b805181602001fd5b6001600160e01b031916630a85bd0160e11b1490506115a7565b506001949350505050565b600054610100900460ff166112455760405162461bcd60e51b815260040161067290612beb565b600054610100900460ff1661223d5760405162461bcd60e51b815260040161067290612beb565b81516122509060979060208501906125c6565b5080516107a89060989060208401906125c6565b60608161228957506040805180820190915260018152600360fc1b6020820152610573565b8160005b81156122b3578061229d81612d58565b91506122ac9050600a83612ca7565b915061228d565b60008167ffffffffffffffff8111156122dc57634e487b7160e01b600052604160045260246000fd5b6040519080825280601f01601f191660200182016040528015612306576020820181803683370190505b5090505b84156115a75761231b600183612cda565b9150612328600a86612d73565b612333906030612c8f565b60f81b81838151811061235657634e487b7160e01b600052603260045260246000fd5b60200101906001600160f81b031916908160001a905350612378600a86612ca7565b945061230a565b611261828260405180602001604052806000815250612424565b6123a2826119cb565b6124055760405162461bcd60e51b815260206004820152602e60248201527f45524337323155524953746f726167653a2055524920736574206f66206e6f6e60448201526d32bc34b9ba32b73a103a37b5b2b760911b6064820152608401610672565b600082815260c96020908152604090912082516107a8928401906125c6565b61242e8383612457565b61243b60008484846120e2565b6107a85760405162461bcd60e51b815260040161067290612b64565b6001600160a01b0382166124ad5760405162461bcd60e51b815260206004820181905260248201527f4552433732313a206d696e7420746f20746865207a65726f20616464726573736044820152606401610672565b6124b6816119cb565b156125035760405162461bcd60e51b815260206004820152601c60248201527f4552433732313a20746f6b656e20616c7265616479206d696e746564000000006044820152606401610672565b6001600160a01b0382166000908152609a6020526040812080546001929061252c908490612c8f565b909155505060008181526099602052604080822080546001600160a01b0319166001600160a01b03861690811790915590518392907fddf252ad1be2c89b69c2b068fc378daa952ba7f163c4a11628f55a4df523b3ef908290a45050565b50805461259690612d1d565b6000825580601f106125a857506119c8565b601f0160209004906000526020600020908101906119c8919061264a565b8280546125d290612d1d565b90600052602060002090601f0160209004810192826125f4576000855561263a565b82601f1061260d57805160ff191683800117855561263a565b8280016001018555821561263a579182015b8281111561263a57825182559160200191906001019061261f565b5061264692915061264a565b5090565b5b80821115612646576000815560010161264b565b600061267261266d84612c67565b612c36565b905082815283838301111561268657600080fd5b828260208301376000602084830101529392505050565b805161057381612dde565b6000602082840312156126b9578081fd5b8135611a6281612dc9565b600080604083850312156126d6578081fd5b82356126e181612dc9565b915060208301356126f181612dc9565b809150509250929050565b600080600060608486031215612710578081fd5b833561271b81612dc9565b9250602084013561272b81612dc9565b9150604084013561273b81612dc9565b809150509250925092565b60008060006060848603121561275a578283fd5b833561276581612dc9565b9250602084013561277581612dc9565b929592945050506040919091013590565b6000806000806080858703121561279b578081fd5b84356127a681612dc9565b935060208501356127b681612dc9565b925060408501359150606085013567ffffffffffffffff8111156127d8578182fd5b8501601f810187136127e8578182fd5b6127f78782356020840161265f565b91505092959194509250565b60008060408385031215612815578182fd5b823561282081612dc9565b915060208301356126f181612dde565b60008060408385031215612842578182fd5b823561284d81612dc9565b9150602083013567ffffffffffffffff811115612868578182fd5b8301601f81018513612878578182fd5b6128878582356020840161265f565b9150509250929050565b600080604083850312156128a3578182fd5b82356128ae81612dc9565b946020939093013593505050565b600060208083850312156128ce578182fd5b825167ffffffffffffffff808211156128e5578384fd5b818501915085601f8301126128f8578384fd5b81518181111561290a5761290a612db3565b612918848260051b01612c36565b81815284810190848601875b848110156129f1578151870160a0818d03601f1901121561294357898afd5b61294d60a0612c36565b898201518152604082015161296181612dc9565b818b0152606082015188811115612976578b8cfd5b8201603f81018e13612986578b8cfd5b8a81015161299661266d82612c67565b8181528f60408385010111156129aa578d8efd5b6129ba828e830160408601612cf1565b6040840152506129ce90506080830161269d565b606082015260a09190910151608082015284529287019290870190600101612924565b50909998505050505050505050565b600060208284031215612a11578081fd5b8151611a6281612dde565b600060208284031215612a2d578081fd5b8135611a6281612dec565b600060208284031215612a49578081fd5b8151611a6281612dec565b600060208284031215612a65578081fd5b8151611a6281612dc9565b600060208284031215612a81578081fd5b5035919050565b600060208284031215612a99578081fd5b5051919050565b60008151808452612ab8816020860160208601612cf1565b601f01601f19169290920160200192915050565b60008351612ade818460208801612cf1565b835190830190612af2818360208801612cf1565b01949350505050565b6001600160a01b0385811682528416602082015260408101839052608060608201819052600090612b2e90830184612aa0565b9695505050505050565b6001600160a01b03929092168252602082015260400190565b600060208252611a626020830184612aa0565b60208082526032908201527f4552433732313a207472616e7366657220746f206e6f6e20455243373231526560408201527131b2b4bb32b91034b6b83632b6b2b73a32b960711b606082015260800190565b6020808252818101527f4f776e61626c653a2063616c6c6572206973206e6f7420746865206f776e6572604082015260600190565b6020808252602b908201527f496e697469616c697a61626c653a20636f6e7472616374206973206e6f74206960408201526a6e697469616c697a696e6760a81b606082015260800190565b604051601f8201601f1916810167ffffffffffffffff81118282101715612c5f57612c5f612db3565b604052919050565b600067ffffffffffffffff821115612c8157612c81612db3565b50601f01601f191660200190565b60008219821115612ca257612ca2612d87565b500190565b600082612cb657612cb6612d9d565b500490565b6000816000190483118215151615612cd557612cd5612d87565b500290565b600082821015612cec57612cec612d87565b500390565b60005b83811015612d0c578181015183820152602001612cf4565b838111156112e05750506000910152565b600181811c90821680612d3157607f821691505b60208210811415612d5257634e487b7160e01b600052602260045260246000fd5b50919050565b6000600019821415612d6c57612d6c612d87565b5060010190565b600082612d8257612d82612d9d565b500690565b634e487b7160e01b600052601160045260246000fd5b634e487b7160e01b600052601260045260246000fd5b634e487b7160e01b600052604160045260246000fd5b6001600160a01b03811681146119c857600080fd5b80151581146119c857600080fd5b6001600160e01b0319811681146119c857600080fdfea2646970667358221220e96a348902478399ecd0839e31af63f8a1f419d0d32a4d38e40afb182e48146764736f6c63430008030033",
  "devdoc": {
    "kind": "dev",
    "methods": {
      "approve(address,uint256)": {
        "details": "See {IERC721-approve}."
      },
      "balanceOf(address)": {
        "details": "See {IERC721-balanceOf}."
      },
      "getApproved(uint256)": {
        "details": "See {IERC721-getApproved}."
      },
      "isApprovedForAll(address,address)": {
        "details": "See {IERC721-isApprovedForAll}."
      },
      "name()": {
        "details": "See {IERC721Metadata-name}."
      },
      "owner()": {
        "details": "Returns the address of the current owner."
      },
      "ownerOf(uint256)": {
        "details": "See {IERC721-ownerOf}."
      },
      "renounceOwnership()": {
        "details": "Leaves the contract without owner. It will not be possible to call `onlyOwner` functions anymore. Can only be called by the current owner. NOTE: Renouncing ownership will leave the contract without an owner, thereby removing any functionality that is only available to the owner."
      },
      "safeTransferFrom(address,address,uint256)": {
        "details": "See {IERC721-safeTransferFrom}."
      },
      "safeTransferFrom(address,address,uint256,bytes)": {
        "details": "See {IERC721-safeTransferFrom}."
      },
      "setApprovalForAll(address,bool)": {
        "details": "See {IERC721-setApprovalForAll}."
      },
      "supportsInterface(bytes4)": {
        "details": "See {IERC165-supportsInterface}."
      },
      "symbol()": {
        "details": "See {IERC721Metadata-symbol}."
      },
      "tokenURI(uint256)": {
        "details": "See {IERC721Metadata-tokenURI}."
      },
      "transferFrom(address,address,uint256)": {
        "details": "See {IERC721-transferFrom}."
      },
      "transferOwnership(address)": {
        "details": "Transfers ownership of the contract to a new account (`newOwner`). Can only be called by the current owner."
      }
    },
    "version": 1
  },
  "userdoc": {
    "kind": "user",
    "methods": {},
    "version": 1
  },
  "storageLayout": {
    "storage": [
      {
        "astId": 542,
        "contract": "contracts/CryptoPageNFT.sol:PageNFT",
        "label": "_initialized",
        "offset": 0,
        "slot": "0",
        "type": "t_bool"
      },
      {
        "astId": 545,
        "contract": "contracts/CryptoPageNFT.sol:PageNFT",
        "label": "_initializing",
        "offset": 1,
        "slot": "0",
        "type": "t_bool"
      },
      {
        "astId": 2751,
        "contract": "contracts/CryptoPageNFT.sol:PageNFT",
        "label": "__gap",
        "offset": 0,
        "slot": "1",
        "type": "t_array(t_uint256)50_storage"
      },
      {
        "astId": 420,
        "contract": "contracts/CryptoPageNFT.sol:PageNFT",
        "label": "_owner",
        "offset": 0,
        "slot": "51",
        "type": "t_address"
      },
      {
        "astId": 534,
        "contract": "contracts/CryptoPageNFT.sol:PageNFT",
        "label": "__gap",
        "offset": 0,
        "slot": "52",
        "type": "t_array(t_uint256)49_storage"
      },
      {
        "astId": 3074,
        "contract": "contracts/CryptoPageNFT.sol:PageNFT",
        "label": "__gap",
        "offset": 0,
        "slot": "101",
        "type": "t_array(t_uint256)50_storage"
      },
      {
        "astId": 1314,
        "contract": "contracts/CryptoPageNFT.sol:PageNFT",
        "label": "_name",
        "offset": 0,
        "slot": "151",
        "type": "t_string_storage"
      },
      {
        "astId": 1316,
        "contract": "contracts/CryptoPageNFT.sol:PageNFT",
        "label": "_symbol",
        "offset": 0,
        "slot": "152",
        "type": "t_string_storage"
      },
      {
        "astId": 1320,
        "contract": "contracts/CryptoPageNFT.sol:PageNFT",
        "label": "_owners",
        "offset": 0,
        "slot": "153",
        "type": "t_mapping(t_uint256,t_address)"
      },
      {
        "astId": 1324,
        "contract": "contracts/CryptoPageNFT.sol:PageNFT",
        "label": "_balances",
        "offset": 0,
        "slot": "154",
        "type": "t_mapping(t_address,t_uint256)"
      },
      {
        "astId": 1328,
        "contract": "contracts/CryptoPageNFT.sol:PageNFT",
        "label": "_tokenApprovals",
        "offset": 0,
        "slot": "155",
        "type": "t_mapping(t_uint256,t_address)"
      },
      {
        "astId": 1334,
        "contract": "contracts/CryptoPageNFT.sol:PageNFT",
        "label": "_operatorApprovals",
        "offset": 0,
        "slot": "156",
        "type": "t_mapping(t_address,t_mapping(t_address,t_bool))"
      },
      {
        "astId": 2145,
        "contract": "contracts/CryptoPageNFT.sol:PageNFT",
        "label": "__gap",
        "offset": 0,
        "slot": "157",
        "type": "t_array(t_uint256)44_storage"
      },
      {
        "astId": 2317,
        "contract": "contracts/CryptoPageNFT.sol:PageNFT",
        "label": "_tokenURIs",
        "offset": 0,
        "slot": "201",
        "type": "t_mapping(t_uint256,t_string_storage)"
      },
      {
        "astId": 2435,
        "contract": "contracts/CryptoPageNFT.sol:PageNFT",
        "label": "__gap",
        "offset": 0,
        "slot": "202",
        "type": "t_array(t_uint256)49_storage"
      },
      {
        "astId": 5915,
        "contract": "contracts/CryptoPageNFT.sol:PageNFT",
        "label": "_tokenIdCounter",
        "offset": 0,
        "slot": "251",
        "type": "t_struct(Counter)2758_storage"
      },
      {
        "astId": 5918,
        "contract": "contracts/CryptoPageNFT.sol:PageNFT",
        "label": "token",
        "offset": 0,
        "slot": "252",
        "type": "t_contract(PageToken)6636"
      },
      {
        "astId": 5921,
        "contract": "contracts/CryptoPageNFT.sol:PageNFT",
        "label": "commentMinter",
        "offset": 0,
        "slot": "253",
        "type": "t_contract(PageCommentMinter)5889"
      },
      {
        "astId": 5924,
        "contract": "contracts/CryptoPageNFT.sol:PageNFT",
        "label": "baseURL",
        "offset": 0,
        "slot": "254",
        "type": "t_string_storage"
      },
      {
        "astId": 5926,
        "contract": "contracts/CryptoPageNFT.sol:PageNFT",
        "label": "treasury",
        "offset": 0,
        "slot": "255",
        "type": "t_address"
      },
      {
        "astId": 5929,
        "contract": "contracts/CryptoPageNFT.sol:PageNFT",
        "label": "fee",
        "offset": 0,
        "slot": "256",
        "type": "t_uint256"
      },
      {
        "astId": 5933,
        "contract": "contracts/CryptoPageNFT.sol:PageNFT",
        "label": "commentsById",
        "offset": 0,
        "slot": "257",
        "type": "t_mapping(t_uint256,t_address)"
      },
      {
        "astId": 5937,
        "contract": "contracts/CryptoPageNFT.sol:PageNFT",
        "label": "pricesById",
        "offset": 0,
        "slot": "258",
        "type": "t_mapping(t_uint256,t_uint256)"
      },
      {
        "astId": 5941,
        "contract": "contracts/CryptoPageNFT.sol:PageNFT",
        "label": "creatorById",
        "offset": 0,
        "slot": "259",
        "type": "t_mapping(t_uint256,t_address)"
      }
    ],
    "types": {
      "t_address": {
        "encoding": "inplace",
        "label": "address",
        "numberOfBytes": "20"
      },
      "t_array(t_uint256)44_storage": {
        "base": "t_uint256",
        "encoding": "inplace",
        "label": "uint256[44]",
        "numberOfBytes": "1408"
      },
      "t_array(t_uint256)49_storage": {
        "base": "t_uint256",
        "encoding": "inplace",
        "label": "uint256[49]",
        "numberOfBytes": "1568"
      },
      "t_array(t_uint256)50_storage": {
        "base": "t_uint256",
        "encoding": "inplace",
        "label": "uint256[50]",
        "numberOfBytes": "1600"
      },
      "t_bool": {
        "encoding": "inplace",
        "label": "bool",
        "numberOfBytes": "1"
      },
      "t_contract(PageCommentMinter)5889": {
        "encoding": "inplace",
        "label": "contract PageCommentMinter",
        "numberOfBytes": "20"
      },
      "t_contract(PageToken)6636": {
        "encoding": "inplace",
        "label": "contract PageToken",
        "numberOfBytes": "20"
      },
      "t_mapping(t_address,t_bool)": {
        "encoding": "mapping",
        "key": "t_address",
        "label": "mapping(address => bool)",
        "numberOfBytes": "32",
        "value": "t_bool"
      },
      "t_mapping(t_address,t_mapping(t_address,t_bool))": {
        "encoding": "mapping",
        "key": "t_address",
        "label": "mapping(address => mapping(address => bool))",
        "numberOfBytes": "32",
        "value": "t_mapping(t_address,t_bool)"
      },
      "t_mapping(t_address,t_uint256)": {
        "encoding": "mapping",
        "key": "t_address",
        "label": "mapping(address => uint256)",
        "numberOfBytes": "32",
        "value": "t_uint256"
      },
      "t_mapping(t_uint256,t_address)": {
        "encoding": "mapping",
        "key": "t_uint256",
        "label": "mapping(uint256 => address)",
        "numberOfBytes": "32",
        "value": "t_address"
      },
      "t_mapping(t_uint256,t_string_storage)": {
        "encoding": "mapping",
        "key": "t_uint256",
        "label": "mapping(uint256 => string)",
        "numberOfBytes": "32",
        "value": "t_string_storage"
      },
      "t_mapping(t_uint256,t_uint256)": {
        "encoding": "mapping",
        "key": "t_uint256",
        "label": "mapping(uint256 => uint256)",
        "numberOfBytes": "32",
        "value": "t_uint256"
      },
      "t_string_storage": {
        "encoding": "bytes",
        "label": "string",
        "numberOfBytes": "32"
      },
      "t_struct(Counter)2758_storage": {
        "encoding": "inplace",
        "label": "struct CountersUpgradeable.Counter",
        "members": [
          {
            "astId": 2757,
            "contract": "contracts/CryptoPageNFT.sol:PageNFT",
            "label": "_value",
            "offset": 0,
            "slot": "0",
            "type": "t_uint256"
          }
        ],
        "numberOfBytes": "32"
      },
      "t_uint256": {
        "encoding": "inplace",
        "label": "uint256",
        "numberOfBytes": "32"
      }
    }
  }
}